:020000040800F2
:1000000058620020E9020008CF2A0008EB2100080E
:100010009B2500083F060008593200080000000038
:10002000000000000000000000000000290200089D
:10003000690600080000000085020008E32C0008A3
:100040000303000803030008030300080303000878
:100050000303000803030008030300080303000868
:100060000303000803030008030300080303000858
:100070000303000803030008030300080303000848
:100080000303000803030008030300080303000838
:100090004106000803030008030300086B0600087C
:1000A0000303000803030008030300080303000818
:1000B000A12D0008AD2D000803030008030300086C
:1000C00003030008030300080303000803030008F8
:1000D000030300086131000803030008030300085C
:1000E00003030008030300080303000803030008D8
:1000F00003030008030300080303000803030008C8
:1001000003030008030300080303000803030008B7
:10011000ED2E000803030008030300080303000892
:100120000303000803030008030300080303000897
:100130000303000803030008030300080303000887
:100140004D0600080303000803030008030300082A
:100150000303000803030008030300080303000867
:100160000303000803030008030300080303000857
:100170000303000803030008030300080000000055
:10018000030300080303000800F002F800F03CF845
:100190000AA090E8000C82448344AAF10107DA45E2
:1001A00001D100F031F8AFF2090EBAE80F0013F0F8
:1001B000010F18BFFB1A43F001031847846A0000BF
:1001C000A46A0000103A24BF78C878C1FAD8520750
:1001D00024BF30C830C144BF04680C6070470000C1
:1001E0000023002400250026103A28BF78C1FBD840
:1001F000520728BF30C148BF0B6070471FB506F0DB
:1002000036FC1FBD10B510BD00F0E4F91146FFF734
:10021000F5FF04F0E9F800F002FA03B4FFF7F2FF8B
:1002200003BC00F005FA00002C4B19680868B0E820
:10023000F04F80F30988BFF36F8F4FF0000080F319
:10024000118870470000000008480068006880F3CB
:1002500008884FF0000080F3148862B661B6BFF3DF
:100260004F8FBFF36F8F00DF00BF00BF08ED00E0CE
:10027000DFF80C00016841F470010160704700BFB5
:1002800088ED00E0EFF30980BFF36F8F134B1A681E
:100290001EF0100F08BF20ED108A20E9F04F10600B
:1002A00009B44FF0500080F31188BFF34F8FBFF3B4
:1002B0006F8F05F067F84FF0000080F3118809BCDC
:1002C00019680868B0E8F04F1EF0100F08BFB0ECD6
:1002D000108A80F30988BFF36F8F704720000020D9
:1002E000EFF3058070470000094880470948004740
:1002F000FEE7FEE7FEE7FEE7FEE7FEE7FEE7FEE7D6
:10030000FEE7FEE704480549054A064B7047000032
:10031000912D000889010008585C002058620020D7
:10032000585E0020585E002053EA020C00F06980FD
:100330002DE9F04B4FF00006002B1FBFB3FA83F5F9
:1003400003FA05F424FA05F65E4012BF1643B2FA2A
:1003500082F502FA05F4C5F120051EBF22FA05FC5C
:1003600044EA0C04203556EA044C4FEA144418BF02
:10037000641C4FF000084FF00009904271EB030C31
:1003800039D3002919BFB1FA81F701FA07F6B0FA9B
:1003900080F700FA07F6C7F120071EBF20FA07FC16
:1003A00046EA0C062037B6FBF4FCA7EB0507103F26
:1003B00007F01F0BCBF120060CFA0BFB2CFA06F60C
:1003C00044BFB3460026202FA4BF5E464FF0000B6B
:1003D0005BEA060C08BF4FF0010B19EB0B09ABFBF6
:1003E000027C48EB0608C01B06FB02CC0BFB03CCCF
:1003F00071EB0C01C1E70B46024641464846BDE899
:10040000F08B13B54FF000004FF00001AFF3008008
:10041000BDE81C407047032A40F2308010F0030C06
:1004200000F0158011F8013BBCF1020F624498BF47
:1004300011F801CB00F8013B38BF11F8013BA2F1E4
:10044000040298BF00F801CB38BF00F8013B11F05F
:10045000030300F06280083AC0F0088051F8043BC2
:10046000083A51F804CBA0E80810F5E7121D5CBF6C
:1004700051F8043B40F8043BAFF30080D20724BF9F
:1004800011F8013B11F801CB48BF11F8012B24BF33
:1004900000F8013B00F801CB48BF00F8012B704782
:1004A00002F0FF0343EA032242EA024200F069B885
:1004B0004FF0000200B5134694469646203922BFFD
:1004C000A0E80C50A0E80C50B1F12001BFF4F7AF48
:1004D000090728BFA0E80C5048BF0CC05DF804EB2A
:1004E000890028BF40F8042B08BF704748BF20F898
:1004F000022B11F0804F18BF00F8012B7047704796
:100500007047704710B500F05DF8006810BD10B579
:10051000044600F057F8046010BD10B5203AC0F052
:100520000B80B1E81850203AA0E81850B1E81850F4
:10053000A0E81850BFF4F5AF5FEA027C24BFB1E831
:100540001850A0E8185044BF18C918C0BDE81040A2
:100550005FEA827C24BF51F8043B40F8043B08BFAB
:100560007047D20728BF31F8023B48BF11F8012B72
:1005700028BF20F8023B48BF00F8012B70474FF01E
:1005800000020429C0F0128010F0030C3FF492AF77
:10059000CCF1040CBCF1020F18BF00F8012BA8BF6E
:1005A00020F8022BA1EB0C01FFF784BF5FEAC17CAE
:1005B00024BF00F8012B00F8012B48BF00F8012BE5
:1005C0007047000000487047F85B00200048704703
:1005D000F85B00207546FFF7F9FFAE460500694657
:1005E000534620F00700854618B020B5FFF78AFE75
:1005F000BDE820404FF000064FF000074FF0000824
:100600004FF0000B21F00701AC46ACE8C009ACE8A4
:10061000C009ACE8C009ACE8C0098D46704710B508
:100620000446AFF300802046BDE81040FFF7F5BD5B
:1006300001491820ABBEFEE7260002007047FEE726
:10064000014800F0F4B90000CC000020014800F09F
:10065000EEB90000F400002000F00CF802F0C0FA3F
:10066000012003F0EBFEF7E77047802000F000BDAB
:1006700072B6FEE72B4A9FED2C0ADFED2C0A11889B
:100680002B48A1F5B9639FED2B1A282B0ED901EE4B
:10069000901AF8EE611A31EEC02AC2EE201A90EDDF
:1006A0000A2A61EE821AC0ED001A05E0A1F2AA51F1
:1006B000642901D880ED001A5188A1F5B963282B6F
:1006C0000ED901EE901AF8EE611A71EEC01A81EEA1
:1006D000A02AD0ED091A62EE211AC0ED011A05E038
:1006E000A1F2AA51642901D880ED011AD188A1F59F
:1006F000B962282A0ED901EE101AB8EE411A31EE6D
:10070000400A80EE201A90ED0B0A21EE000A80EDDF
:10071000020A7047A1F2AA516429FAD880ED021AA0
:1007200070470000704B00200080BB440000FA437B
:10073000844B00200000000090F82020012A07D000
:10074000022A05D0416A41F48021416201207047AC
:10075000006842690A43426100207047F0B590F892
:1007600020500468A468012D05D0022D03D0416AF1
:1007700041F480215DE014F0406F01D1E50055D5D2
:10078000C4F30164022C03D9416A41F4000150E032
:100790000125A5401D608D684FF4C0739DB1CE68E2
:1007A00035434E6845EAC605066803EB0417F55164
:1007B0004FF4C275076805EB04150E697E51097D7B
:1007C000012905D009E00E88CD6845EA4655EBE7DA
:1007D00001684E5946F480764E511179D579567993
:1007E00041EA056195792D0445EA062529434FF430
:1007F000C676056806EB0416A9511178D57841EA4A
:100800000561957852782D0445EA022211434FF490
:10081000C475026805EB04155151006803EB04111F
:10082000425842F0010242500020F0BD416A41F4BA
:10083000001141620120F0BD10B590F82020012A7E
:1008400007D0022A05D0416A41F48021416201208B
:1008500010BD3B48D0F8002242F00102C0F800224F
:10086000D0F8002222F47C52C0F80022D0F80022F6
:100870004B6A42EA0322C0F800220A7D02F01F03FD
:1008800001229A40D0F81C329343C0F81C32CB6945
:10089000B3B9D0F80C329343C0F80C328C894B6852
:1008A00064F31F434C6900EBC404C4F840320C8964
:1008B0000B6864F31F434C6900EBC404C4F8443272
:1008C000CB69012B16D1D0F80C321343C0F80C328F
:1008D0000C884B6864F31F434C6900EBC404C4F8F4
:1008E00040320C89CB6864F31F434C6900EBC404AD
:1008F000C4F844328B69002BD0F804320ED0134375
:10090000C0F804320B69002BD0F8143208D013431E
:10091000C0F81432096A012904D008E09343EFE7D4
:100920009343F5E7D0F81C121143C0F81C12D0F81D
:10093000001221F00101C0F80012002010BD0000DB
:1009400000640040704730B590F82040012C05D07D
:10095000022C03D0416A41F480215DE00468002943
:1009600055D02469A40754D04FF4D874056804EB1B
:1009700001142D5915F00405956005682D594ED0C8
:10098000ED08556005682C5904F00204D4604FF45A
:10099000DA74056804EB01142D5905F00F05156193
:1009A00005682D59C5F30725956105682C59240C58
:1009B00054614FF4DC72046802EB0112A4581C70FD
:1009C0000468A458240A5C700468A458240C9C7021
:1009D0000468A258120EDA704FF4DE72046802EB5B
:1009E0000112A4581C710468A458240A5C7104689C
:1009F000A458240C9C710468A258120EDA71006885
:100A000081B1016941F020010161002030BDE4683D
:100A1000A8E7416A41F400114162012030BD6D0D2B
:100A20001560AFE7C16841F02001C160EDE72DE935
:100A3000F05F0546006800244669D0F80490876896
:100A4000D0F80CB0D0F810A0D0F81880F10748D03A
:100A5000F90714D001218160B80703D5284600F0BA
:100A600062FA0CE0780702D54FF4006407E038071B
:100A700002D54FF4805402E0284600F053FAF805FE
:100A800016D529684FF480708860B80503D52846CC
:100A900000F04BFA0CE0780502D544F4005407E06E
:100AA000380502D544F4804402E0284600F03CFAC0
:100AB000F80316D529684FF480308860B80303D551
:100AC000284600F034FA0CE0780302D544F40044E0
:100AD00007E0380302D544F4803402E0284600F0F1
:100AE00025FA300707D55FEACB6004D529681020C6
:100AF00044F40074C86070074FF0080707D55FEA38
:100B00000B7004D52868C760284600F09BF9B00731
:100B100006D52868C068800702D0284600F094F9FE
:100B2000700607D55FEACA6004D52968102044F42E
:100B300080640861B00607D55FEA0A7004D52868AA
:100B40000761284600F0BEF9F00606D5286800695E
:100B5000800702D0284600F0B6F9B00308D55FEA56
:100B6000C96005D5296810204860284600F0ACF916
:100B7000F00307D55FEA097004D528684760284666
:100B800000F0D6F9300446D55FEA497040D5F0054B
:100B900004D55FEAC87001D044F00104B00504D563
:100BA0005FEA887001D544F00204700504D55FEA5D
:100BB000487001D544F00404300529D518F0700FB1
:100BC00026D008F07000402815D006DC102809D087
:100BD00020280AD0302816D10AE050280ED06028EC
:100BE00011D10EE044F008040DE044F010040AE0D6
:100BF00044F0200407E044F0400404E044F08004A2
:100C000001E044F480742868816921F070018161F9
:100C1000296804204860002C05D0686A2043686277
:100C20002846FFF78FFEBDE8F09F70B5040003D0A3
:100C300094F8200010B104E0012070BD204600F0BF
:100C400081F82068016841F00101016000F014FBA7
:100C50000546052604E000F00FFB401B0A2811D8CA
:100C600020684068C007F6D02068016821F00201C2
:100C7000016000F001FB05460BE000F0FDFA401BAF
:100C80000A2806D9606A40F40030606284F8206067
:100C9000D2E7206840688007EFD4207E01282068D2
:100CA00001683DD021F080010160607E012820684C
:100CB000016838D021F040010160A07E0128206841
:100CC000016833D021F020010160E07E0128206816
:100CD00001682ED041F010010160207F01282068BA
:100CE000016829D021F008010160607F0128206897
:100CF000016824D021F004010160D4E90201084315
:100D0000D4E90412114308436168491E084321686D
:100D1000C86100206062012084F82000002070BDBE
:100D200041F08001C0E741F04001C5E741F02001FA
:100D3000CAE721F01001CFE741F00801D4E741F004
:100D40000401D9E7F0B587B0044614216846FFF7DF
:100D5000AFFB374B3748DFF8D4E01968D4F800C050
:100D6000344A02250326092710300024491CF44583
:100D700024D11960012907D1016841F00071016097
:100D8000006800F000700590106840F001001060ED
:100D9000106802AB00F0010005904FF4C050CDE99F
:100DA000000583E8D0006946234800F06DF9002271
:100DB0000521142000F0FEFA142033E0DFF87CE077
:100DC000F44531D1D0F800C04CF0806CC0F800C0C0
:100DD000D0F800C001290CF0806CCDF814C0196067
:100DE00007D1016841F000710160006800F00070F7
:100DF0000590106840F002001060106802AB00F02F
:100E0000020005904FF44050CDE9000583E8D00082
:100E100069460B4800F038F900220521402000F017
:100E2000C9FA402000F0B8FA07B0F0BD00640040F5
:100E30000C000020303802400000024000680040F2
:100E4000000402407047000070B5054619488CB098
:100E5000854214D107AB6A460021FFF774FD154A9D
:100E600007A9684603F0FEF9134E0024C4EBC40042
:100E700006EB001001F02CFE641C062CF6DB0F487C
:100E8000854214D109AB6A460021FFF75CFD0B4A8D
:100E900009A9684603F0E6F9094D0024C4EBC40033
:100EA00005EB001001F014FE641C062CF6DB0CB000
:100EB00070BD0000CC000020C84B0020F4000020D2
:100EC000D84E0020704770477047000070B5044648
:100ED00090F82000012804D0606A40F4002060628D
:100EE00018E0022084F820002068016821F0010148
:100EF000016000F0C1F905460EE000BF00F0BCF94A
:100F0000401B0A2808D9606A40F40030606205205E
:100F100084F82000012070BD20684068C007EDD132
:100F2000606270BD70477047704770477047704788
:100F300070472DE9F0410446876D00F09DF90646A3
:100F400094F835000025022806D08020606584F8DA
:100F500034500120BDE8F0812068016821F01601BD
:100F600001602068416921F080014161206C08B96D
:100F7000A06C20B12068016821F0080101602068A0
:100F8000016821F0010101600CE000F075F9801B9F
:100F9000052807D920206065032084F8350084F8EF
:100FA0003450D7E720680068C007EED194F85C1091
:100FB0003F208840B860012084F8350084F8345020
:100FC0000020C7E790F83510022903D08021416541
:100FD00001207047052180F835100068016821F074
:100FE000010101600020704770B51F4C80280ED1B0
:100FF00060694FF0804120614A6AA16840F2712324
:10100000594302EB01116161081AE160A080617827
:10101000002501200129A18840F6980205D09142BF
:1010200002D36070A570257070BD914203D36070CB
:10103000A570207070BDA1F2B63040F24C429042D3
:1010400010D80A4AA07822F81010401CC0B2A07034
:101050000828EFD30549420001F11400FFF7DBF93E
:10106000A57070BD657070BDA40000205C4B0020B1
:10107000044910B50A68024202D00860FFF7B4FFC5
:1010800010BD0000143C01402DE9F84FDFF8BCA171
:101090000022012503264FF00F090AF1040BAAF1E3
:1010A000040E00BF0B6805FA02F42340A34270D17E
:1010B0000F7907F00307012F01D0022F16D187689F
:1010C0004FEA420806FA08FC27EA0C07D1F80CC0E0
:1010D0000CFA08FC4CEA070CC0F808C04768A743A4
:1010E0000C79C4F3001494403C4344600C79E4430D
:1010F000A4070AD0C4684FEA420C06FA0CF7BC43B6
:101100008F6807FA0CF72743C7600C7904F00304D3
:10111000022C12D1D40800EB840CDCF820405707D5
:10112000FF0E09FA07F824EA0804D1F8108008FA3B
:1011300007F848EA0408CCF8208004684FEA420C1B
:1011400006FA0CF7BC430F7907F0030707FA0CF710
:10115000274307604C6814F4403F70D03C4C27682C
:1011600047F480472760246822F0030704F4804492
:101170000094384C07EB040CDCF8084897074FEA5A
:10118000177809FA08F7BC43334FB84202D1002759
:1011900024E054E0314FB84201D101271EE0304F26
:1011A000B84201D1022719E02E4FB84201D10327DE
:1011B00014E02D4FB84201D104270FE02B4FB84265
:1011C00001D105270AE02A4FB84201D1062705E0E0
:1011D000284FB84201D1072700E0082707FA08F78F
:1011E0002743CCF80878DAF800405746D1F804C015
:1011F0009C435FEACC2C00D51C433C60DBF80040EC
:101200005F46D1F804C09C435FEA8C2C00D51C4398
:101210003C60DEF800407746D1F804C09C435FEAAA
:101220008C3C00D51C433C60084F083F3C68D1F81B
:1012300004C09C435FEACC3C00D51C433C60521C7C
:10124000102AFFF42FAFBDE8F88F0000083C0140E2
:1012500044380240003001400000024000040240D7
:1012600000080240000C024000100240001402403E
:1012700000180240001C02400148806870470000CE
:101280001000002002488168027811448160704794
:10129000100000200B4810B5016841F40071016096
:1012A000016841F480610160016841F4807101606E
:1012B000032000F09FF80F2000F006F800F050F82F
:1012C000002010BD003C024030B505461F4887B0E5
:1012D0000024016841F002010160006806A900F0E5
:1012E0000200009001A800F031F90498A8B100F0C4
:1012F0004DF940001649174AB0FBF1F11648491E56
:10130000026040F2E732C0E90324C0E901148461BD
:1013100000F08EFB040003D015E000F037F9E9E798
:101320000D4800F0CFFB04000DD11D2000F034F873
:10133000102D07D2002229461D2000F03BF8074857
:10134000056000E0012407B0204630BD403802406F
:1013500040420F0000040040EC0100201400002077
:101360000C4882B0016841F480410160006800F4DB
:10137000804000900748001F016841F080510160E3
:101380000068002200F0805000900F21901E02B0F3
:1013900000F010B844380240002809DB00F01F02BA
:1013A000012191404009800000F1E020C0F80011C7
:1013B00070470000F0B40E4B1B680C46C3F30223C9
:1013C000C3F10705042D00D90425191D072901D2F1
:1013D000002300E0DB1E012606FA05F1491E21402C
:1013E00099409E40761E16403143F0BC02F04AB848
:1013F0000CED00E0064900F0070208684FF6FF0315
:10140000184040EA0220034A104308607047000079
:101410000CED00E00000FA052DE9F0470E4605004E
:1014200065D0DFF81481D8F80000F7B200F00700AB
:10143000B04207D288F80070D8F8000000F007002A
:10144000B04254D128683D4C810712D5400703D5DE
:10145000206840F4E05020602878000703D5206819
:1014600040F4604020602068A96820F0F000084344
:1014700020602878C0072DD03049686808390128D5
:1014800012D0022813D0032811D009688907002937
:101490002DDA216821F0030101432160FFF7ECFE02
:1014A000814641F2883A0EE009688903EFE709684E
:1014B0008901ECE7FFF7E0FEA0EB0901514502D9F5
:1014C0000320BDE8F0872068696800F00C00B0EBED
:1014D000810FEFD1D8F80010404601F00701B1426A
:1014E00007D90770006800F00700B04201D0012062
:1014F000E7E72878400705D52068E96820F4E05040
:10150000084320602878000706D52068296920F460
:10151000604040EAC100206000F058F82168084AA5
:10152000C1F30311515CC8400649086006480068D1
:10153000FFF7CAFE0020C4E7003C02400838024022
:10154000F06A00081C000020140000200F22026036
:101550000C4A136803F003034360136803F0F003BD
:101560008360136803F4E053C36012684FF4E053E0
:1015700003EAD20202610448006800F00700086034
:101580007047000008380240003C0240044805490A
:1015900000680968044AC1F38221515CC840704761
:1015A0001C00002008380240006B00080448054970
:1015B00000680968044AC1F34231515CC840704771
:1015C0001C00002008380240006B0008154810B5C8
:1015D000006810F00C02144813D01449042A0FD0EC
:1015E000082A0ED10F4C241F2268236802F03F0204
:1015F0005B0207D52068C0F38810A0FB010106E05C
:10160000084610BD2168C1F38811A1FB0001002329
:10161000FEF78AFE2168C1F30141491C4900B0FB75
:10162000F1F010BD083802400024F40040787D013C
:101630002DE9F84F04006ED02078DFF84C93C007F6
:10164000A9F104054AD009F104000168C1F3810140
:10165000012908D00068C0F3810002280AD1D9F816
:101660000000400206D52868800337D5606800284E
:10167000E1D033E06068B0F5803F10D0B0F5A02F26
:10168000286810D020F480302860286820F480205A
:1016900028606068A8B1FFF7EFFD06460DE02868F6
:1016A00040F48030F4E740F480202860F7E700BF82
:1016B000FFF7E2FD801B642873D828688003F7D504
:1016C0000CE0FFF7D9FD064605E000BFFFF7D4FDAB
:1016D000801B6428F0D828688003F7D42078DFF8CE
:1016E000AC8280074FF0000A3ED5A748001D016874
:1016F00011F00C0F08D00068C0F3810002280BD154
:10170000D9F80000400207D42868800716D5E068A1
:10171000012800D112E033E1E068B8B10120C8F837
:101720000000FFF7A9FD064605E000BFFFF7A4FD96
:10173000801B0228C0D828688007F7D5286821694F
:1017400020F0F80040EAC10028600DE0C8F800A0D1
:10175000FFF792FD064604E0FFF78EFD801B02288E
:101760001FD828688007F7D42078000722D5864F35
:1017700087486169703771B101210160FFF77CFD15
:10178000064604E0FFF778FD801B022809D8386878
:101790008007F7D50EE0C0F800A0FFF76DFD064604
:1017A00005E082E0FFF768FD801B02287DD83868DD
:1017B0008007F7D42078400768D5DFF8CCB1002740
:1017C0000BF13C0BDBF80000C0000BD4DBF8001081
:1017D00041F08051CBF80010DBF80000012700F049
:1017E000805000906B4E3068C00510D4306840F4D3
:1017F00080703060FFF740FD009005E0FFF73CFD92
:101800000099401A022850D83068C005F6D55E4EBF
:10181000A0686C3601280FD00528306810D020F061
:1018200001003060306820F004003060A068B8B17A
:10183000FFF722FD00900FE0306840F00100F4E770
:1018400040F004003060F7E7FFF716FD0099411AF9
:1018500041F28830814266D830688007F4D50EE0C6
:10186000FFF70AFD009007E0FFF706FD0099411A17
:1018700041F28830814256D830688007F4D42FB1C5
:10188000DBF8001021F08051CBF80010A069C8B33C
:101890003D49091D0968C1F3810102294AD0022886
:1018A000504607D0C8F8600000E03CE0FFF7E4FCD9
:1018B00004463BE04746C8F86000FFF7DDFC0646FB
:1018C00005E000BFFFF7D8FC801B02282BD8286852
:1018D0008001F7D4D4E907010843A16A2E4A4908D8
:1018E00002EB0141626A41EA8211084394F82C102C
:1018F00040EA0161C9F8001001203866FFF7BCFC1E
:10190000044606E03EE000BFFFF7B6FC001B0228DD
:1019100009D828688001F7D534E000BFFFF7ACFC98
:10192000001B022802D90320BDE8F88F2868800137
:10193000F4D427E00128F7D0D9F80000E26900F4D8
:10194000800191421CD1226A00F03F01914217D1DF
:1019500047F6C071626A0140B1EB821F10D1A26AE2
:101960004FF0FF3300F4403103EB5202B1EB024F72
:1019700006D194F82C1000F07060B0EB016F01D02C
:101980000120D1E70020CFE70438024000004742A1
:10199000800E4742007000400000FFFF7047704714
:1019A00070B590F83C20012A32D0012480F83C40E8
:1019B000022280F83D2003685A689D6822F0700674
:1019C0000A6832435A60134B02689A4214D0B2F14B
:1019D000804F11D0104B9A420ED0104B9A420BD030
:1019E0000F4B9A4208D00F4B9A4205D00E4B9A42A9
:1019F00002D00E4B9A4204D1496825F08003194366
:101A0000916080F83D40002180F83C10084670BD90
:101A1000022070BD000001400004004000080040AA
:101A2000000C00400004014000400140001800404C
:101A300010B5040003D094F83D0010B107E0012078
:101A400010BD002084F83C00204600F01FF8022062
:101A500084F83D00211D206801F0AEF9012084F8D2
:101A6000460084F83E0084F83F0084F8400084F883
:101A7000410084F8420084F8430084F8440084F86C
:101A8000450084F83D00002010BD000008B5006846
:101A9000B0F1804F12D10A48016841F001010160A4
:101AA0000068002200F00100009011461C20FFF7A2
:101AB00081FCBDE808401C20FFF76EBC08BD00009B
:101AC0004038024090F83D10012901D001207047B4
:101AD000022180F83D100168CA6842F00102CA6024
:101AE00000681149884214D0B0F1804F11D00F49DD
:101AF00088420ED00E4988420BD00E49884208D049
:101B00000D49884205D00D49884202D00C498842CF
:101B100004D1816801F00701062903D0016841F072
:101B200001010160002070470000014000040040F6
:101B300000080040000C004000040140004001404B
:101B40000018004070B5044690F83C0000250128BC
:101B500017D0012684F83C60022084F83D002068FC
:101B6000826822F0770222F47F428260086850285F
:101B700038D00DDC20284FD005DC90B3102811D1CF
:101B80004AE0022070BD302846D040280AD13BE010
:101B900060282FD070280DD0B0F5805F03D0B0F54D
:101BA000005F12D0012584F83D60002084F83C00DD
:101BB000284670BDCB68D1E90121206801F060F9A9
:101BC0002068816841F0770109E0CB68D1E9012103
:101BD000206801F055F92068816841F480418160F6
:101BE000E1E719E0CA684968206801F05BF9502113
:101BF000206806E0CA684968206801F064F960213D
:101C0000206801F047F9CEE7CA684968206801F00A
:101C100049F940212068F4E7226801461046F0E7C0
:101C2000704770B50446006801694FF00005C9436C
:101C3000890715D4C168C943890711D4E91E016118
:101C400001202077206880698007204602D0FFF7B6
:101C5000E7FF04E000F098F8204600F096F82577BA
:101C600020680169C943490717D4C168C9434907B6
:101C700013D46FF00401016102202077206880698D
:101C800010F4407F204602D0FFF7CAFF04E000F0C6
:101C90007BF8204600F079F8257720680169C94370
:101CA000090716D4C168C943090712D46FF00801A7
:101CB0000161042020772068C0698007204602D097
:101CC000FFF7AEFF04E000F05FF8204600F05DF89B
:101CD000257720680169C943C90617D4C168C9437B
:101CE000C90613D46FF01001016108202077206825
:101CF000C06910F4407F204602D0FFF791FF04E056
:101D000000F042F8204600F040F82577206801698D
:101D1000C943C90708D1C168C943C90704D1891E8D
:101D20000161204600F032F820680169C9430906C4
:101D300009D4C168C943090605D46FF08001016167
:101D40002046FFF72BFE20680169C943490609D4E4
:101D5000C168C943490605D46FF0400101612046BE
:101D600000F050F820680169C94389060BD4C168A6
:101D7000C943890607D46FF0200101612046BDE800
:101D80007040FFF70CBE70BD7047704730B40168FB
:101D9000B1F1804F22D1164A164B11681960491CC7
:101DA0001160154A1188491C8BB214491380642BA9
:101DB00012D3002313804C88641CA4B24C803C2CAA
:101DC0000AD34B808C88641CA4B28C803C2C03D337
:101DD0008B80CB885B1CCB8012880A800068084906
:101DE000884202D130BCFFF74DBA30BC70470000CA
:101DF000AC000020BC000020C0000020C200002079
:101E0000000400407047704770470000F8B5016853
:101E100004460868CA684B6910F00F0F4FF00005C0
:101E200059D003F0010602F49077374365D0C1071B
:101E300005D0D10503D5216C41F001012164410792
:101E400005D5D90703D0216C41F002012164810737
:101E500005D5D90703D0216C41F0040121640107A5
:101E600007D502F02001314303D0216C41F0080175
:101E70002164216C00293AD0800604D5900602D551
:101E8000204601F068F820684069216CC0F380109A
:101E9000090700D460B3204601F036F82068406995
:101EA000400621D52068143050E8001F21F0400181
:101EB00040E80012002AF5D1A06BA8B16C49016579
:101EC000A06BFFF77FF8002811D0A06B016D01B067
:101ED000BDE8F040084783060FD593060DD5204690
:101EE000BDE8F84001F037B82046FFF78DFFF8BD98
:101EF0002046FFF789FF2564F8BD266B2023012EBD
:101F000079D1C60677D5D60675D508684868009099
:101F10004869400640D5A16B086840680004000C81
:101F2000EAD0A28D8242E7D9E085C869B0F5807F0A
:101F30002DD020680C3050E8001F21F4807140E85B
:101F40000012002AF5D12068143050E8001F21F05B
:101F5000010140E80012002AF5D12068143050E851
:101F6000001F21F0400140E80012002AF5D184F85A
:101F70003E30256320680C3050E8001F21F010012E
:101F800040E80012002AF5D1A06BFEF7D2FFA08D29
:101F9000E18D401A81B229E0A08DE18D401A81B215
:101FA000E08D0028A8D00029A6D020680C3050E889
:101FB000002F22F4907240E80026002EF5D1206810
:101FC000143050E8002F22F0010240E80026002ED5
:101FD000F5D184F83E30256320680C3050E8002F9E
:101FE00022F0100240E80023002BF5D12046FFF735
:101FF0000AFFF8BDFFE705062BD5150629D594F88D
:102000003D002128F5D1A068B0F5805F01D120699D
:10201000B0B1206A411C2162216800784860E08CE0
:10202000401E0004000CE084E3D12068C16821F068
:102030008001C1602068C16841F04001C160D8E7FB
:10204000206A0088C0F308004860206A801C206273
:10205000E5E74006CDD55006CBD5CA68204622F02C
:102060004002CA6084F83D3000F0BEF8C1E70000CD
:10207000F92E000870B5040004D094F83D00002546
:1020800010B106E0012070BD84F83C50204600F0FD
:1020900023F8242084F83D002068C16821F4005111
:1020A000C160204600F0B8FF2068016921F490412A
:1020B00001612068416921F02A0141612068C168FD
:1020C00041F40051C1602564202084F83D0084F86B
:1020D0003E00002070BD000030B587B004461421DA
:1020E0006846FEF7E5F92B4D226800212A480223B5
:1020F0000324AA4223D1284A1032156845F400254A
:102100001560126802F400220592026842F004028F
:1021100002600068CDE9021400F004000590A002FE
:10212000CDE900030820049069461C48FEF7ACFF87
:10213000002211463420FFF73DF9342026E0184DE7
:10214000AA4225D1144A1432156845F010051560CD
:10215000126802F010020592026842F00102026069
:102160000068CDE9021400F0010005904FF4C06052
:10217000CDE900030720049069460A48FEF784FF72
:10218000002211462520FFF715F92520FFF704F955
:1021900007B030BD004C004030380240000802401B
:1021A000001001400000024090F83E30202B0ED17C
:1021B00059B152B190F83C30012B08D0012380F87E
:1021C0003C300023036300F0ADBF012070470220C4
:1021D0007047000000680349884201D101F080BEC9
:1021E00070470000004C00407047FEE7D0ED000A49
:1021F000F4EEC00AF1EE10FA01DD80ED000AD0ED38
:10220000000AB1EE400AF4EEC00AF1EE10FA01D273
:1022100080ED000A7047000000B599B00821002049
:102220008A0100920290CDE903010890CDE90901ED
:10223000501E06903D4814AB81890A0A8DF8302063
:102240008DF83110B0F87C100A0A8DF832208DF824
:102250003310B0F8EC100A0A8DF834208DF83510E0
:10226000B0F85C110A0A8DF836208DF83710B0F8F6
:10227000CC110A0A8DF840208DF84110B0F83C12BC
:102280000A0A8DF842208DF84310B0F8AC020CAA6F
:10229000010A8DF844108DF8450069462448FEF780
:1022A0005DFA15AB10AA06A92148FEF757FA214896
:1022B00016AB81890A0A8DF838208DF83910B0F8EC
:1022C0007C100A0A8DF83A208DF83B10B0F8EC101B
:1022D0000A0A8DF83C208DF83D10B0F85C110A0A0E
:1022E0008DF83E208DF83F10B0F8CC110A0A8DF819
:1022F00048208DF84910B0F83C120A0A8DF84A209F
:102300008DF84B10B0F8AC020EAA010A8DF84C10F3
:102310008DF84D0069460848FEF720FA17AB12AA5F
:1023200006A90548FEF71AFA19B000BDC84B0020EF
:10233000CC000020D84E0020F4000020104810B53A
:102340000E4901600321416000214FF400228160A9
:10235000C0E903124FF44012426101760122427635
:102360008176C17601774177FEF75FFC002803D0C4
:10237000BDE81040FEF77CB910BD000000640040CD
:10238000CC000020104810B50E49016003214160C7
:1023900000214FF400228160C0E903124FF4401283
:1023A00042610176012242768176C17601774177DA
:1023B000FEF73BFC002803D0BDE81040FEF758B9FB
:1023C00010BD000000680040F400002010B50B4A6A
:1023D00000210B4802F06EF80A4C084A00212060E8
:1023E0002432094802F066F8044A6060483200214D
:1023F000064802F05FF8A06010BD0000846A000883
:10240000BB2A00080000002059060008C72A00085F
:1024100000B587B014216846FEF74AF81E4800212F
:10242000026842F004020260026802F004020592AF
:10243000026842F020020260026802F02002059267
:10244000026842F080020260026802F08002059297
:10245000026842F002020260026802F00202059283
:10246000026842F001020260006800F0010005907D
:10247000802000904FF48810CDE90101694607489B
:10248000FEF702FE002205211720FEF793FF17201A
:10249000FEF782FF07B000BD303802400014024052
:1024A00010B586B000241648009401940294039459
:1024B00004944FF08041059401605321C0E9011458
:1024C0001049C0E903148461FFF7B2FA08B1FEF7BE
:1024D000CFF84FF48050009069460948FFF732FB6F
:1024E00008B1FEF7C5F8049404A905480594FFF760
:1024F00057FA002801D0FEF7BBF806B010BD000067
:102500001C010020A08601000C4810B50A4901609A
:102510004FF4E1314160002181600C22C160C0E9CB
:1025200004128161C161FFF7A5FD002803D0BDE859
:102530001040FEF79DB810BD004C00406401002023
:102540000C4810B50A4901604FF4E13141600021A7
:1025500081600C22C160C0E904128161C161FFF792
:1025600089FD002803D0BDE81040FEF781B810BDFA
:1025700000100140A8010020B4EEE00AF1EE10FACC
:1025800001DDB0EE600AF1EE600AB4EEE00AF1EEB1
:1025900010FA01D2B0EE600A7047FEE72DE9F04F65
:1025A000DFF8FCB300252DED068B83B09FEDFD9B7E
:1025B0009FEDFE8AABF52178A8F5C46606F6283AA9
:1025C0004FEA0509C5EBC50706EB071420680A2882
:1025D00030D2DFE800F047C78705C7093A96C74AF7
:1025E000204600F03BFE7DE0E06E012823D0D4EDD4
:1025F000180A00BFB4F90E0000EE100AC5EBC500C2
:1026000000EB051001900BEB8000B8EEC00A0090C3
:1026100001F096FF009890ED0F0A84ED050AB4F9D9
:10262000080000EE900A0198F8EEE00A08EB80003E
:1026300001F086FF96E0E0884FF4B4714843400B08
:1026400000EE100AF8EE400AD4E7B4F9080000EEF4
:10265000100AC5EBC50000EB0511F8EEC00A94EDB9
:10266000050A6CE0A4F80C907CE0B4F9540003F087
:1026700030FE53EC192B03F093FE41EC1A0BB4F926
:102680000A00002800DC404203F023FE53EC1A2B22
:1026900003F04AFE01D8C4F85C90B4F9540003F08A
:1026A00018FEB0EE491AF0EE691A53EC112B03F044
:1026B00077FE41EC1A0BB4F90A00002800DC404216
:1026C00003F007FE53EC1A2B03F068FFE06D01D214
:1026D000401CE0651E2805DB0120A06584ED188AFA
:1026E00084ED058AB4F9080000EE100AC5EBC500B8
:1026F00000EB0511F8EEC00A94ED050A08EB810025
:1027000096E7B4F90E00D4ED180A00EE100AC5EBF6
:10271000C50000EB05110BEB8100B8EEC00ACDE956
:10272000000101F00DFF009890ED0F0A84ED050AFD
:10273000B4F90800019900EE900AF8EEE00A08EBFF
:102740008100009001F0FCFEB4F9100000EE100AC8
:102750000098F8EEC00A90ED0F0AFFF70DFF009801
:1027600080ED0F0A924800EB0710009000680A28DD
:1027700032D2DFE800F052E19F05E10941B0E156B5
:10278000009800F06BFD95E00098C06E012800985D
:1027900023D0D0ED180A00BFB0F90E0000EE100AE9
:1027A000C5EBC50000EB05178248B8EEC00A00EB88
:1027B0008700044601F0C4FE009894ED0F0A80EDF6
:1027C000050A0098B0F9080000EE900A0AEB8700AD
:1027D000F8EEE00A01F0B4FEAEE0C08800EE100AA8
:1027E000B8EE400ADFED740A20EE200ADFED730A2E
:1027F000009860EE200ACFE70098B0F9080000EEDC
:10280000100A0098F8EEC00A90ED050AC5EBC50065
:1028100000EB05110AEB81007EE00099A1F80C9015
:102820008AE00098B0F9540003F053FD53EC192BE3
:1028300003F0B6FD41EC1A0B0098B0F90A0000282D
:1028400000DC404203F045FD53EC1A2B03F06CFD15
:1028500002D80099C1F85C900098B0F9540003F0D8
:1028600038FDB0EE491AF0EE691A53EC112B03F063
:1028700097FD41EC1A0B0098B0F90A00002800DC23
:10288000404203F026FD53EC1A2B03F087FE04D2DE
:1028900000980099C06D401CC8650098C06D1E2846
:1028A00008DB009901208865009880ED188A00985F
:1028B00080ED058A0098B0F9080000EE100A009833
:1028C000F8EEC00A90ED050AC5EBC50000EB051156
:1028D0000AEB81007EE70098D0ED180AB0F90E00EF
:1028E00000EE100AC5EBC50000EB05173148B8EE45
:1028F000C00A00EB8700044601F022FE009894ED28
:102900000F0A80ED050A0098B0F9080000EE900A61
:102910000AEB8700F8EEE00A044601F011FE009889
:10292000B0F9100000EE100AF8EEC00A94ED0F0A9C
:10293000FFF722FE84ED0F0A6D1C072DFFF642AE55
:102940000021DFED1F1A9FED1F2A9FED1F1A43F292
:10295000C82340F63C7400BFC1EBC10006EB001079
:102960000268042A08D00279012A3CD0022A4CD0FD
:10297000032A5BD0A0F80C90491C0729ECDB0C4A19
:10298000002100BFC1EBC10002EB00100568042D5F
:102990001FD00579012D5BD0022D6BD0032D15E0E2
:1029A0006C540020000000000000F83F0000000010
:1029B000D84E0020745900200000B44300000039B4
:1029C0000068264600B047450060EA4663D0A0F89C
:1029D0000C90491C0729D5DB03B0BDEC068BBDE884
:1029E000F04FFFF719BCB0F90A209A4202DDC0F897
:1029F0000090C1E7C1EBC10202EB011508EB8502B3
:102A0000F0EE610A92ED0F0A1AE0B0F90A20A24234
:102A100001DDC0F80090C1EBC10202EB011508EB2B
:102A20008502F0EE420A92ED0F0A09E0C1EBC10205
:102A300002EB011508EB8502F0EE410A92ED0F0A58
:102A4000FFF79AFDBDEEC00A10EE102A828193E7CF
:102A5000B0F90A509D4202DDC0F80090B9E7C1EB21
:102A6000C10505EB01160AEB8605F0EE610A95ED4E
:102A70000F0A1AE0B0F90A50A54201DDC0F8009033
:102A8000C1EBC10505EB01160AEB8605F0EE420A23
:102A900095ED0F0A09E0C1EBC10505EB01160AEB44
:102AA0008605F0EE410A95ED0F0AFFF765FDBDEED4
:102AB000C00A10EE105A85818BE7FFF76FFD0120E9
:102AC00001F0BCFCF9E7012001F0B8FCFBE7FEE7F0
:102AD00030B59FED3F0A90F86420C188F0EE400ABF
:102AE0003AB10279012A0AD0022A0BD0032A0ED168
:102AF0000BE0A0F86610012180F8641030BDF3EE01
:102B0000030A04E0DFED330A01E0F7EE000AB0F952
:102B100008209FED311ADFED311A41F6FF73002ACC
:102B20001EDDB0F86620914211D2A1EB02021A44D8
:102B300040F2E2439A420DDA00EE102AB8EEC00AE3
:102B400020EE010A20EE211A81EE200A02E001D9CE
:102B50008A1AF1E7B5EEC00AF1EE10FA2FDA34E086
:102B6000B0F866201EDA91420AD9A3EB010303F202
:102B7000E144144440F6C215AC420DD81A4401E0B9
:102B80000AD28A1A00EE102AB8EEC00A20EE010A14
:102B900020EE211A81EE200AB5EEC00AF1EE10FAFD
:102BA0000DD912E091420AD08A1A00EE102AB8EE2E
:102BB000C00A20EE010A20EE211A81EE200AD0ED93
:102BC000180A30EE800A80ED180AA0F8661030BDB1
:102BD0000000000000001042000000390000B44373
:102BE00070B5364C94F84000012817D194ED000AD6
:102BF000D4ED060A30EE200A84ED000A94ED010AB5
:102C0000D4ED070A30EE200A84ED010A94ED020AA1
:102C1000D4ED080A30EE200A84ED020A94ED000A91
:102C20009FED272AD4ED011AD4ED020A20EE021AF4
:102C3000DFED242A9FED243A264E01EEC21A00252C
:102C400000EEA21A61EE033A9FED201A83EE814A4C
:102C5000DFED1F3A61EEA33A61EE821A40EE423A8E
:102C600040EEA23A84ED0C4A63EE833A83EE814A49
:102C7000F0EE613A40EE021A40EE423A40EEA21AFD
:102C800040EEA23A21EE830A63EE833A84ED0D4AC8
:102C9000C0EE010A83EE814A84ED0E4AC4ED0F0AAC
:102CA00004EB850090ED0C0AC5EBC50006EB0010A7
:102CB00000F012F86D1C042DF2DB70BD844B002077
:102CC000F304353FCDCCCC3E00800E44C67D743E2F
:102CD000F30435BFC84B00200221016080ED050AD6
:102CE000704710B54FF0E020006902F0C3FE0128E4
:102CF00003D0BDE8104002F0F1BB10BD30B593B079
:102D000030216846FDF7D4FB14210CA8FDF7D0FB59
:102D10001D480025016841F080510160006800F005
:102D2000805011901948016841F4804101600068A9
:102D3000022400F4804011900120039010200490A0
:102D4000009406940820CDE90750A820CDE9090495
:102D500004200B906846FEF76BFC08B172B6FEE7E4
:102D60000CA90F2081E831004FF4A0500F904FF4D0
:102D70008050109005210CA8FEF74EFB002801D0D2
:102D800072B6FEE713B030BD40380240007000401C
:102D90000248016841F470010160704788ED00E06D
:102DA0000148FEF73EBF00001C0100200148FEF76D
:102DB00038BF0000EC010020F0B50268254C264D1C
:102DC000264E274F274B4FF0804CA04209D060453C
:102DD00007D0A84205D0B04203D0B84201D09842F3
:102DE00004D122F0700E4A6842EA0E02A0421BD0C3
:102DF000604519D0A84217D0B04215D0B84213D0C0
:102E0000984211D0184DA8420ED0184DA8420BD0B0
:102E1000174DA84208D0174DA84205D0164DA8421C
:102E200002D0164DA84203D122F44075CA682A4345
:102E30004D6922F080022A4302608A68C2620A68F1
:102E40008262A04201D0984201D109690163012147
:102E50004161F0BD00000140000400400008004056
:102E6000000C0040000401400040014000440140CB
:102E70000048014000180040001C004000200040B5
:102E800010B5846842EA032224F47F440A432243B3
:102E9000826010BD826822F070020A4342F007018E
:102EA0008160704710B5036A046A24F0010404626B
:102EB000846924F0F00444EA021423F00A020A436D
:102EC0008461026210BD10B5036A23F0100303622F
:102ED0008369046A23F4704343EA023224F0A003B6
:102EE00043EA01118261016210BD00000148FEF752
:102EF0008DBF00006401002010B5806B0021C185EA
:102F0000C184FEF781FF10BD01680C3151E8002F2C
:102F100022F4907241E80023002BF5D101681431AE
:102F200051E8002F22F0010241E80023002BF5D1E7
:102F3000016B012909D101680C3151E8002F22F001
:102F4000100241E80023002BF5D1202180F83E102B
:102F500000210163704708B590F83E10222901D086
:102F6000022008BD82684FF480539A4201D1016962
:102F700021B1816A9A421BD04AB10AE00268816A93
:102F80005268C2F308020A80816A891C08E002695B
:102F900072B10268526802F07F020A70816A491CAD
:102FA0008162C18D491E0904090CC18503D019E055
:102FB00002685268F1E70168CA6822F02002CA601C
:102FC0000168CA6822F48072CA6001684A6922F006
:102FD00001024A61202180F83E10016B012903D0D3
:102FE000FFF7F8F8002008BD0021016301680C31EB
:102FF00051E8002F22F0100241E80023002BF5D108
:1030000001680A68D20602D50A6849680091818D74
:10301000FEF7F9FEE6E7000070B5044600680169B6
:10302000E26821F44051114301612169A068E2691D
:1030300008436169114308432168CA6849F20C6377
:103040009A430243CA6020684169A26921F4407131
:103050001143416131492068884202D03049884299
:1030600002D1FEF7A3FA01E0FEF790FAE26900232D
:10307000192164253226B2F5004F626828D0A0FBE2
:103080000101930F9200FDF74FF90146B0FBF5F0F7
:103090006FF01802504301EB800006EB0010B0FB0C
:1030A000F5F000F0F002B1FBF5F002EB0012B1FB1D
:1030B000F5F06FF01803584301EB800006EB0010A9
:1030C000B0FBF5F000F00F0021681044886070BD7F
:1030D000A0FB010192185B41FDF726F90146B0FB08
:1030E000F5F00201B1FBF5F06FF01803584301EB66
:1030F000800006EBC000B0FBF5F000F0F80002EB3A
:103100004002B1FBF5F0584301EB800006EBC00034
:10311000B0FBF5F000F00700D6E70000001001401A
:103120000014014081628285C2850021016422224F
:1031300080F83E2080F83C10016921B10168CA681E
:1031400042F48072CA6001684A6942F001024A6131
:103150000068C16841F02001C16000207047000094
:103160000148FEF753BE0000A801002070B5364CA0
:10317000364D04F130062DED028BD4ED030A9FEDA0
:10318000348AC4ED060AD4ED041ADFED328AC4EDA8
:10319000071A90ED000A84ED000A90ED011A84ED03
:1031A000011A90ED021A84ED021A90ED032A84EDC3
:1031B000032A90ED041A72EE600A84ED041AD0ED31
:1031C000052A31EE611AC4ED052AC4ED080A84ED22
:1031D000091A86ED020A85ED050AD4ED0A1A71EE88
:1031E000A00AC4ED0A0AD4ED0B0A70EE810AC4ED00
:1031F0000B0A60EE080A80EEA80A10EE100A03F02F
:10320000C5FB41EC100B00F0B3F9A06A03F0BEFB64
:1032100002F0F2FD3060E86095ED050A60EE080A04
:1032200080EEA80A10EE100A03F0B0FB41EC100B80
:1032300000F03AF9E06A03F0A9FB02F0DDFD7060EE
:103240002861BDEC028B70BD084B0020844B002030
:10325000DB0F494000003443FEE7000010B5044690
:103260002DED028B4FF07E51D0ED0F2A12EE900A19
:103270009FED768A884218DCF5EEC02AF1EE10FA4E
:1032800013D394ED103A13EE100A88420DDCB5EE1C
:10329000C03AF1EE10FA08D394ED0D2AD4ED0C1AD1
:1032A000B4EEE12AF1EE10FA04D284ED058ABDEC09
:1032B000028B10BD94ED0A0AD4ED0B0AB4EE600A3D
:1032C000F1EE10FA04D121EE820A84ED050AEEE750
:1032D00030EEC01AB5EEC01AF1EE10FA01DC30EE95
:1032E000601A62EE023AF4EEC00A62EE812A23EE20
:1032F000014A41EEE13A31EE623A73EE444AB0EEF1
:10330000003A62EE835A24EE036A83EEA55AD4EDA6
:103310000E3A63EEA33AF0EE635A42EE425A85EE5D
:10332000864AF1EE10FA06DDD4ED185AF4EEC05AD2
:10333000F1EE10FA23D3F4EEC00AF1EE10FA06D241
:10334000D4ED185AF4EEC05AF1EE10FA17DCF4EE90
:10335000C00AF1EE10FA06DDD4ED185AF4EEE05A88
:10336000F1EE10FA0BDCF4EEC00AF1EE10FA09D21D
:10337000D4ED185AF4EEE05AF1EE10FA02D2C4ED90
:10338000051A3CE0D4ED185A75EEC00AF5EEC00AF5
:10339000F1EE10FA01DC70EE650AF4EEE20AF1EEED
:1033A00010FA08D221EEA10A25EE031A01EE200A36
:1033B00010EE100A18E032EEA40AB4EEE00AF1EEC4
:1033C00010FA02DD84ED052A19E031EE600A64EEA0
:1033D000031AB5EEC00AF1EE10FA01DC30EEC10AB4
:1033E00041EEC03A13EE900A03F0D0FA41EC100B14
:1033F00000F022F951EC100B02F0FEFC606194ED3C
:103400000B0AD4ED0A0AB4EEE00AF1EE10FA05D286
:10341000D4ED050AF1EE600AC4ED050AD4ED180AF0
:103420000B4830EEC00AB0EEC00A10EE101A81420E
:1034300003DA0121616484ED058A10EE101A8142DD
:103440007FF745AF0020606431E700000000000016
:103450000000404003B401984100009850EAC120A8
:1034600018BF04204A0D18BF40F0010040F2FF725F
:10347000B2EB515F08BF40F00200012808BF0520F1
:1034800002B070470907090E002804DB00F1E020B4
:1034900080F80014704700F00F0000F1E02080F881
:1034A000141D70470000000010B52F499FED2C1B24
:1034B0002DED020B84B0059820F000408842D8BF63
:1034C0009DED040B2DDD2949884209D1049840B9AE
:1034D0004FF00100FDF71BF800F0E2FC06B010BD54
:1034E00005DB9DED040B00F0CFFC06B010BD684677
:1034F0009DED040B00F0E0F810F0030004BF9DED1B
:10350000021B9DED000B0CD001280ED09DED021B7F
:103510009DED000B022817D0012000F01DFC06B025
:1035200010BD00F0E5FA06B010BD9DED021B9DED4B
:10353000000B012000F010FC51EC100B02F050FCCD
:1035400006B041EC100B10BD00F0D2FA51EC100B9C
:1035500002F046FC06B041EC100B10BD000000006C
:103560000000000000000000FB21E93F0000F07FA8
:1035700010B52F499FED2C1B2DED020B84B0059843
:1035800020F000408842DCBF00209DED040B32DDBE
:103590002849884209D1049840B94FF00100FCF74E
:1035A000B6FF00F07DFC06B010BD05DB9DED040B01
:1035B00000F06AFC06B010BD68469DED040B00F0FB
:1035C0007BF810F0030011D0012818D09DED021BEC
:1035D0009DED000B02281AD000F08AFA51EC100B76
:1035E00002F0FEFB06B041EC100B10BD9DED021B7E
:1035F0009DED000B012000F0AFFB06B010BD9DED6E
:10360000021B9DED000B00F073FA06B010BD012007
:1036100000F0A2FB51EC100B02F0E2FB06B041EC13
:10362000100B10BD000000000000000000000000B2
:10363000FB21E93F0000F07F00B52DED048BB0EEDB
:10364000409AF0EE609A83B051EC190B02F0E8FF5B
:1036500041EC180B18EE100A18EE901A8DED008B45
:10366000002818BF0120084320F00040C0F17F600F
:1036700000F1E040C00F14D019EE101A19EE900AB4
:103680008DED009B002918BF0121084320F0004068
:10369000C0F17F6000F1E040C00F04BF0120FCF7E3
:1036A00036FFB0EE480A03B0F0EE680ABDEC048BBA
:1036B00000BD0000000000002DE9F14F04462DED93
:1036C000020B2DED088B8AB09FEDE70B80ED020B0E
:1036D000139EE74826F0004585420ADC9DED120B5B
:1036E000002084ED000B0AB0BDEC088B03B0BDE8F0
:1036F000F08FE0489FEDE0AB9FEDE1BBA84247DDD6
:10370000E14F9FEDE39B9FEDE48B9DED120B53EC9E
:103710001A2B51EC100B002E1CDD03F04DF841EC80
:10372000100BBD4208D053EC1B2B51EC100B03F0D7
:1037300043F8C4E900010BE053EC192B51EC100BDA
:1037400003F03AF853EC182B03F036F8C4E9000103
:103750000120C8E702F082FB41EC100BBD4208D00B
:1037600053EC1B2B51EC100B02F078FBC4E9000169
:103770000BE053EC192B51EC100B02F06FFB53ECE8
:10378000182B02F06BFBC4E900014FF0FF30AAE7F1
:10379000C348A84279DB9DED120B51EC100B00F0F1
:1037A00055FD41EC180B9FEDC00B53EC102B02F0B4
:1037B000F7FD9FEDBF1B53EC112B02F04FFB02F006
:1037C00059FD074602F085FD41EC190B53EC1A2B0D
:1037D00002F0E6FD53EC182B02F016FF41EC180B3B
:1037E00053EC1B2B51EC190B02F0DAFDDFF8C8A2E9
:1037F00041EC100B4FEA15580125FA4453EC102BFD
:1038000051EC180B02F0D8FF032DC4E900013DD0A4
:10381000C1F30A5005EB4511A8EB000011398142B4
:1038200034DA0AEB051BB0EE48AA9BED000BF0EE74
:1038300068AA53EC102B51EC190B02F0B1FD41ECCE
:103840001B0B51EC1A0B53EC1B2B02F0B5FF41EC98
:10385000180B51EC1A0B53EC182B02F0ADFF53EC84
:103860001B2B02F0A9FF9BED020B41EC1A0B53EC52
:10387000102B51EC190B02F093FD53EC1A2B02F0B4
:103880009BFF41EC100B6D1CB8E70EE0002EA8BFAB
:103890003846BFF628AF94ED000B51EC100B02F048
:1038A0009FFAC4E9000178421DE7C6F3130040F413
:1038B000801EC6F30A50A0F2F530471100F01F0534
:1038C000C5F12000DDF848B0089000200690079070
:1038D0000520EC467949002D07EB0002794408BF2A
:1038E00051F8221009D051F8223001EB8201AB408F
:1038F0004A68089922FA01F11943A1FB0E26A1FB9F
:103900000B131A449A4234BF0123002303EB060829
:103910000CEB8003D3E901A60E448E4234BF012193
:10392000002192448A4411B1924502D903E09245A4
:1039300001D2012100E00021C3E901A641444CF875
:103940002010011EA0F10100C4DC029800F100501B
:10395000850F0298DDE903678000DDF8148002F02E
:10396000B8FC41EC1A0B304602F0CAFC9FED541B28
:1039700053EC112B02F014FD41EC1B0B384602F006
:10398000BFFC9FED511B53EC112B02F009FD41ECE4
:10399000180B404602F0B4FC9FED4D1B53EC112B6D
:1039A00002F0FEFC41EC190B51EC180B53EC192BF7
:1039B00002F054FA53EC1B2B02F050FA53EC1A2B82
:1039C00002F04CFACDE90801002008909DED080BAB
:1039D00053EC1A2B51EC100B02F0EEFE53EC1B2BA8
:1039E00002F0EAFE53EC182B02F0E6FE53EC192B22
:1039F00002F00AFE9FED381B53EC112B02F0D0FCB5
:103A00009FED370B41EC180B53EC102B9DED080B81
:103A100051EC100B02F0C4FC53EC182B02F01EFA10
:103A20009FED310B41EC180B53EC102B9DED080B67
:103A300051EC100B02F0B4FC53EC182B02F00EFA10
:103A400041EC100B139810F0004F06D06D4251EC72
:103A5000100B02F0C5F941EC100B284684ED000B69
:103A600041E600000000000000000000000000002F
:103A7000FB21E93F7CD9024000004054FB21F93F83
:103A80003163621A61B4D03DFB21F93F00000000B0
:103A90000000601A61B4D03D7370032E8A19A33BF5
:103AA000FB2139410000000083C8C96D305FE43F4D
:103AB000000000000000E03F3A33000088320000C0
:103AC000000000000000103E000000000000103C5C
:103AD000000000000000103A182D4454FB21F93D6D
:103AE0003326A611460B113C00000054FB21F93D82
:103AF00010B52DED040B2DED088B82B0B0EE419A80
:103B0000F0EE619A0B9820F000449FED4BABB4F1BE
:103B1000795F11DA9DED0A0B51EC100B02F0AAFB54
:103B2000002801BFB0EE4A0AF0EE6A0A02B0BDEC0E
:103B3000088B04BF04B010BD9DED0A0B53EC102B95
:103B400051EC100B02F02CFC41EC180B3C48062108
:103B5000B0EE480AF0EE680A784400F081F853ECC1
:103B6000182B51EC100B02F01BFC9DED0A0B41ECE5
:103B70001B0B53EC192B51EC100B02F011FC41EC18
:103B8000190B53EC1B2B51EC180B02F009FC53ECF6
:103B9000192B02F011FE9FED2C0B41EC190B53EC8D
:103BA000102B51EC180B02F0FBFB41EC100B2848DA
:103BB000844210DA53EC192B51EC100B02F0FCFD8F
:103BC00053EC1A2B02F020FD41EC100B02B0BDECBF
:103BD000088B04B010BD1F48A042BCBF9FED1E1B48
:103BE0008DED001B06DBA4F5001001900020009075
:103BF0009DED001B51EC100B53EC112B02F0DCFD82
:103C00009DED000B41EC180B53EC102B51EC1A0BF3
:103C100002F0D2FD41EC1A0B53EC192B51EC180BAE
:103C200002F0CAFD53EC1A2B02F0EEFC41EC100B33
:103C3000CCE7000000000000000000000000F03FA2
:103C4000AC2F000000000000000000000000E03F7A
:103C50003333D33F0000E93F000000000000D23FB3
:103C600070B504462DED028B4D1E00EBC500B0EE85
:103C7000408AF0EE608A90ED000B35F0060017D018
:103C800053EC182B51EC100B02F08AFB41EC100B9B
:103C90006D1E04EBC50090ED001B51EC100B53ECB6
:103CA000112B02F0DBF841EC100B35F00600E7D1E8
:103CB000022D36D0042D1CD0062D1CBFBDEC028B6E
:103CC00070BD53EC182B51EC100B02F069FB94ED16
:103CD0000A1B53EC112B02F0C1F853EC182B02F025
:103CE0005FFB94ED081B53EC112B02F0B7F841EC8D
:103CF000100B53EC182B51EC100B02F051FB94ED10
:103D0000061B53EC112B02F0A9F853EC182B02F010
:103D100047FB94ED040B53EC102B02F09FF841ECA1
:103D2000100B53EC182B51EC100B02F039FB94EDF7
:103D3000021B53EC112B02F091F853EC182B02F0FC
:103D40002FFB94ED001B53EC112B02F087F8BDEC18
:103D5000028B41EC100B70BD31B504462DED040B08
:103D60002DED0A8BB0EE41BAF0EE61BA0B989DEDE5
:103D70000A0B20F00040B0F1795F0DDA51EC100B26
:103D8000FFF768FB042808BF00F09AF89DED0A0BC6
:103D9000BDEC0A8B05B030BD53EC102B51EC100B71
:103DA00002F0FEFA41EC180B9DED0A0B53EC182BB8
:103DB00051EC100B02F0F4FA41EC190B2C48B0EE68
:103DC000480AF0EE680A05217844FFF749FF9FEDA5
:103DD0002ACBB0EE40AAF0EE60AA9CB353EC1C2BA9
:103DE00051EC190B02F0DCFA41EC1C0B53EC1A2BD2
:103DF00051EC190B02F0D4FA9FED210B41EC190B99
:103E000053EC102B51EC1B0B02F0CAFA53EC192B9C
:103E100002F0D2FC53EC182B02F0C2FA53EC1B2B2D
:103E200002F0CAFC53EC1C2B02F0C6FC9DED0A1BF1
:103E300053EC112B02F0E8FBBDEC0A8B05B041EC12
:103E4000100B30BDFFE753EC1A2B51EC180B02F0AE
:103E5000A7FA53EC1C2B02F001F853EC192B02F0DB
:103E60009FFA9DED0A1B53EC112B01F0F7FFE3E7DE
:103E7000342E000000000000495555555555C5BF6A
:103E8000000000000000E03F10B553EC102B51EC97
:103E9000100B01F0E3FF41EC100B10BD000000001F
:103EA0009FED050B10B553EC102B51EC100B02F0ED
:103EB00089F841EC100B10BD00000000000000006C
:103EC0009FED050B10B553EC102B51EC100B02F0CD
:103ED00067FA41EC100B10BD00000000000000105C
:103EE00070B501221A491B48FEF75EF9184C0025EF
:103EF000607805282AD2DFE800F00308121E2300AC
:103F000020780D2822D1012007E020780A2802D04D
:103F10000D2803D01AE0A5700220607070BD0E4A13
:103F2000A07821781154401CC0B2A0701828F5D395
:103F3000A5700320F1E720780A2807D10420ECE7D8
:103F400020780D2802D10448FFF710F9657070BD84
:103F5000A000002064010020444B002010B535492A
:103F600001202DED068BF2EE082AF6EE001A0871FC
:103F700081F874009FED318A81F8E400DFED2E8A2C
:103F80009FED2F9ADFED2F9A9FED2FAA81F8540114
:103F9000F0EE683AB0EE483AB0EE492AB0EE481A70
:103FA000F0EE690AB0EE4A0A0421284800F0A2FBAC
:103FB0002648F0EE683AB0EE483AF2EE082AB0EE43
:103FC000492AF6EE001AB0EE481AF0EE690AB0EE91
:103FD0004A0A04215C3000F08DFB1C48F0EE683A80
:103FE000B0EE483AF2EE082AB0EE492AF6EE001A90
:103FF000B0EE481AF0EE690AB0EE4A0A0421B83071
:1040000000F078FBF0EE683AB0EE483AB0EE492A9C
:10401000B0EE481AF0EE690AB0EE4A0ABDEC068B23
:10402000F2EE082AF6EE001A0421BDE81040084816
:1040300000F060BBC84B0020CDCC4C3E000000001F
:10404000000080460000804400000046E851002047
:10405000FC52002010B5574901202DED068B087148
:1040600081F8740081F8E40081F8540181F8C401FA
:104070009FED518AF3EE042AF0EE483AB0EE483A4A
:10408000DFED4E8AB0EE682A9FED4D9AB0EE481AE9
:10409000F0EE491ADFED4B9AF0EE690A9FED4AAA5D
:1040A00004214A48B0EE4A0A00F024FBDFED483A0A
:1040B0004648B6EE003AF3EE042AB0EE682AF0EE77
:1040C000491AB0EE481AF0EE690AB0EE4A0A052124
:1040D0005C3000F00FFBDFED3F9A3C48F0EE483AD1
:1040E000B0EE693AF2EE0C2AB0EE682AF0EE491A08
:1040F000B0EE481AF0EE680AB0EE680A0421B83053
:1041000000F0F8FAF0EE483AB0EE693AF2EE0C2A16
:10411000B0EE682AF0EE491AB0EE481AF0EE680ADE
:10412000B0EE680A04212C4800F0E4FA2A48F0EEC8
:10413000483AB0EE693AF2EE0C2AB0EE682AF0EE98
:10414000491AB0EE481AF0EE680AB0EE680A042187
:104150005C3000F0CFFADFED229ADFED203AB0EECE
:10416000483AF3EE022AB0EE682AF0EE491AB0EEB1
:10417000481AF0EE690A9FED1B0A04211A4800F064
:10418000B9FAB0EE483AB0EE682AF0EE491AB0EE4D
:10419000481AF0EE690ABDEC068B0421F2EE0E2AF5
:1041A0001148BDE81040DFED113A9FED110A5C3077
:1041B00000F0A0BAD84E00200000000000008046A9
:1041C000CDCCCC3D0000614400000046F0560020FC
:1041D000CDCC4C3ECDCC4C3D045800200AD7233CDE
:1041E0000000484400008044745900209A99993E88
:1041F0000000004500B58BB000200121CDE906018B
:1042000008910090019002900390059004906946F7
:104210000C48FCF711FB0B48FCF758FE022109483B
:10422000FCF78AFA0E200990059069460648FCF7CB
:1042300003FB0548FCF74AFE02210348FCF77CFA21
:104240000BB000BDCC000020F400002082B0CDE90E
:10425000000121F0004001909DED000B02B051ECF7
:10426000100B704730B55C4B9A4258D104685B4BD9
:10427000A4F20124072C52D2DFE804F0040E131E2E
:104280002B3845000C8864BADC804C8864BA1C81E9
:104290008C8864BA5C8142E00C8864BA23F8764F5B
:1042A00003E00C8864BA23F8E64F4C8864BA5C805B
:1042B0008C8864BA9C8032E00C8864BAA3F85641BA
:1042C0004C8864BAA3F858418C8864BAA3F85A4160
:1042D00025E00C8864BAA3F8C6414C8864BAA3F8F8
:1042E000C8418C8864BAA3F8CA4118E00C8864BA43
:1042F000A3F836424C8864BAA3F838428C8864BA72
:10430000A3F83A420BE00C8864BAA3F8A6424C88A2
:1043100064BAA3F8A8428C8864BAA3F8AA42304BC6
:104320009A4214D102682F48A2F20122072A0ED223
:10433000DFE802F0040E131E2B3845000A8852BA3B
:10434000C2804A8852BA0281898849BA418130BD07
:104350000A8852BA20F8762F03E00A8852BA20F869
:10436000E62F4A8852BA4280898849BA818030BD96
:104370000A8852BAA0F856214A8852BAA0F85821A1
:10438000898849BAA0F85A1130BD0A8852BAA0F8F3
:10439000C6214A8852BAA0F8C821898849BAA0F82B
:1043A000CA1130BD0A8852BAA0F836224A8852BAD9
:1043B000A0F83822898849BAA0F83A1230BD0A8894
:1043C00052BAA0F8A6224A8852BAA0F8A822898830
:1043D00049BAA0F8AA1230BDCC000020C84B00207A
:1043E000F4000020D84E002008B5FCF753FFFEF77C
:1043F00085FCFEF70DF8FDF7A1FFFDF7C3FFFEF703
:104400004FF8FEF781F8FEF79BF80A48FDF75AFBD4
:10441000012269460848FDF7C7FEFFF7EBFEFFF7EC
:104420009DFDFFF717FE00F017F8FDF7CFFF00F036
:1044300025F8FEE71C0100206401002010B5EFF311
:10444000058111B16FF0050403E0002408B100F00C
:10445000E5FE204610BD0000EFF3058010B16FF0BF
:10446000050070470448016811B14FF0FF307047F4
:1044700001210160002070477000002010B5EFF3AB
:10448000058010B16FF0050010BD084801680129D2
:1044900002D04FF0FF3010BD054A002182F8141DF4
:1044A0000221016000F022FF002010BD70000020FA
:1044B0000BE000E02DE9FF414FEA01034FF000055A
:1044C000EFF30581039549BB40B3802718210024F1
:1044D0004AB3166806B1344696691EB13146761E57
:1044E000382E02D21679F60703D0002004B0BDE8BA
:1044F000F081566906B1B708D2F808C0BCF1000FC8
:104500000DD0D5685C2D18D312693AB136B18DE85B
:1045100006103A46214601F082FA03900DE0D66873
:104520005EB912694AB903AACDE90012BAB22146AE
:1045300001F048FA012800D003950398D6E700005F
:10454000F0EE401A00B531EEE01AC0ED080AC0EDF9
:10455000051A80ED0B1A90ED162A01469FED640AAC
:1045600071EEE00AB5EEC02AF1EE600AF1EE10FA43
:104570000ED0B5EEC01AF1EE10FA02DDF0EE411ADF
:1045800001E0F0EE601AF4EEC21AF1EE10FA15DC5A
:10459000D1ED151AF5EEC01AF1EE10FA11D0B5EE04
:1045A000C01AF1EE10FA02DDB0EE412A01E0B0EEE1
:1045B000602AB4EEE12AF1EE10FA02D280ED0F0A81
:1045C00000BD91F8443001F13C000246042B02D0BA
:1045D000052B42D071E0D1ED001A61EE811AC1EDD8
:1045E0000C1AD1ED141AF5EEC01AF1EE10FA06D13C
:1045F00091ED0D0AD1ED010A00EE810A0BE0B5EE56
:10460000C01AF1EE10FA01DDF0EE410AF4EEE10A13
:10461000F1EE10FAECD381ED0D0A91ED0A0AD1ED1D
:10462000020A01F1340031EE400A20EE200A81ED49
:104630000E0A91ED130AFDF7D9FD91ED0C0AD1EDAB
:104640000D0A104630EE200AD1ED0E0A30EE200A97
:1046500081ED0F0A91ED120A29E091ED0A0AD1EDE0
:10466000001AB0EE002A71EE400A60EEA11AC1ED08
:104670000C1AD1ED010A60EE810A00EE421AC1ED7A
:104680000D0A91ED090A71EEA00A31EE000A91EDD2
:10469000021A20EE010A81ED0E0A30EE800AD1EDF9
:1046A000100A30EE200A81ED0F0A91ED120AFDF793
:1046B0009DFD91ED0F0A81ED100A91ED0A0A81ED41
:1046C000090A91ED0B0A81ED0A0A91ED070A81EDC5
:1046D000060A91ED080A81ED070A91ED040A81EDC1
:1046E000030A91ED050A81ED040A91ED0F0A00BD60
:1046F0000000000080F8441000F1480282EC050A36
:104700009FED040A80ED100A80ED0F0AC0EC032A29
:1047100070470000000000002DE9F041134C0F46E7
:104720000546E6682068001D00F044FC681C07D1BF
:1047300037B12168BDE8F0410D48091D00F08ABC81
:1047400020683544B5424560216805D2A06BBDE8BC
:10475000F041091D00F066BC606B091D00F062FCB1
:10476000A06A854200D2A562BDE8F0812000002049
:10477000240700202DE9F041054600F077FC2D4C80
:10478000A068401CA06020682B4F10B1606930B356
:104790002BE02560A068012827D1002606EB8600C3
:1047A00007EB800000F030FC761C382EF6D323484F
:1047B00000F02AFC2148143000F026FC1F48283065
:1047C00000F022FC1D483C3000F01EFC1B4850301D
:1047D00000F01AFC194860631430A06305E02068FB
:1047E000E96AC06A884200D82560606A401C60623D
:1047F0006864E86A2169884200D9206100EB800082
:1048000007EB8000291D00F025FC00F04FFC6069DB
:1048100000280CD02068E96AC06A884207D208499B
:104820004FF080500860BFF34F8FBFF36F8FBDE82C
:10483000F08100002000002074020020D406002037
:1048400004ED00E038B500F011FC104C2068C8B948
:104850000F4800F0D9FB0E48143000F0D5FB0C488F
:10486000E060143020610A4B0020F03B009003F11F
:10487000500210210A2000F047FE206010B105A16F
:1048800000F096FCBDE8384000F010BC5C00002051
:1048900028080020546D72510000000030B4026CF2
:1048A0000B46002A0BD0C1681144C1608468A14244
:1048B00001D30168C16030BC1846FBF7ACBD30BC09
:1048C00070472DE9F041856B174604460026026CBF
:1048D00082B1C7B1E068FBF79EFDE168206C091A60
:1048E000E1602268914202D2A168081AE060022FBA
:1048F00016D017E02068A8B9A06801F033F9064681
:104900000020A0600EE06068FBF785FD216C606808
:1049100008446060A168884204D32068606001E0B8
:1049200005B16D1E6D1CA5633046BDE8F08110B564
:10493000044690F8590058B101280CD002280FD035
:10494000502080F31188BFF34F8FBFF36F8FFEE7C6
:10495000206B00F0BFFB2046BDE8104000F0BABB62
:1049600010BD000010484FF47051420706D0C01D22
:104970000D4920F00700411AC1F570510B4A002380
:104980000144C2E900030839183A21F00701116017
:104990004B600B600B1AC0E9001393604FF00040AE
:1049A0005360506170470000080F00208C00002009
:1049B000144E154CA6F29C474FF08058DFF84C90EF
:1049C00012E000BF00F052FBF068C568281D00F03F
:1049D000F1FAA068401EA0606068401E606000F0B0
:1049E00065FB2846FFF7A3FF60680028EAD1386816
:1049F0000128F9D9C9F80080BFF34F8FBFF36F8F3B
:104A0000F2E70000100700202000002004ED00E085
:104A100070B51D46049C51B1C4F80020C4E90F01D3
:104A20000121204600F0A4FD84F84C5070BD2460A4
:104A3000F4E700002DE9F05F8846DDE90B941546A8
:104A4000834691009A460A9EA522206BFBF728FD1B
:104A50006FF00301206B01EB8501084420F007078C
:104A6000780707D0502080F31188BFF34F8FBFF332
:104A70006F8FFEE70025B8F1000F0FD05FF0000048
:104A8000221818F8001082F8341018F8001011B12C
:104A9000401C1028F4D384F8435001E084F83450CB
:104AA000382E00D33726E662C4E91365201D00F0D6
:104AB000B6FA04F1180000F0B2FA2461C6F1380029
:104AC0006462A061656584F858505246594638467C
:104AD00000F05AFA2060B9F1000F01D0C9F8004087
:104AE000BDE8F09F30B5114900E011460A688242E6
:104AF000FBD34B685C18844203D14068184448607B
:104B0000084643681C18944209D1084C183C246894
:104B1000A24209D052681A4442600A6812680260D0
:104B2000814200D0086030BD0460F9E78C000020AD
:104B300070B5002441600B4D0061914206D8D11A36
:104B40008269914206D2011D286907E09A4203D288
:104B5000994201D3012403E0011DE86800F062FAE4
:104B6000204670BD5C00002010B5044600F07EFABF
:104B7000A06B28B15FF0000400F098FA204610BD49
:104B80000124F9E730B589B03C4D6EE00498002867
:104B900006DADDE90601059A90470498002864DBEF
:104BA000069C606910B1201D00F004FA03A800F013
:104BB000D7F8024604980A2857D2DFE800F0050526
:104BC000052D334A05052D3394F8280040F00100E7
:104BD00084F828000599A069059B01442046FFF749
:104BE000A7FF68B3216A2046884794F82800400749
:104BF0003BD5002000900598A16900234218194672
:104C0000204601F0B9F8D8B9502080F31188BFF3DD
:104C10004F8FBFF36F8FFEE714F8280F20F00100CD
:104C2000207022E094F8280040F0010084F8280069
:104C30000598A06128B1811813462046FFF778FF38
:104C400013E0502080F31188BFF34F8FBFF36F8FB5
:104C5000FEE794F82800810703D4204600F03AFAD2
:104C600003E020F0010084F82800002204A928684D
:104C700000F0D2FD002889D109B030BD5C000020D1
:104C80002DE9FC410F46054600F074FB01A800F039
:104C900067F80446019818B100F0DCFFBDE8FC811C
:104CA000254EAFB130690068D0B30027291B3A46C2
:104CB000306800F091FA00F0CDFF0028EED11F49D6
:104CC0004FF080500860BFF34F8FBFF36F8FE5E761
:104CD000A542EBD800F0BEFFF0682746C068C46864
:104CE000201D00F067F994F82800410719D5A06944
:104CF0002B4641193A462046FFF71AFFA8B100207B
:104D00000346014600902A46204601F035F860B976
:104D1000502080F31188BFF34F8FBFF36F8FFEE7F2
:104D200007E020F0010084F82800216A2046884727
:104D3000B4E70127BAE700005C00002004ED00E0C2
:104D40000648416B096829B1416BC968C96849685F
:104D5000816270474FF0FF31FAE700002000002029
:104D600070B5054600F094FE064E0446B0688442D5
:104D700003D200F009F8012000E00020286020465E
:104D8000B46070BD5C000020F8B5194D20E0C0682B
:104D9000C4680668201D00F00DF9216A2046884786
:104DA00094F82800400713D5A0693044B04206D9D2
:104DB00024616060211DE86800F034F908E00020FB
:104DC0000346014600903246204600F0D5FF38B138
:104DD000E86801680029DAD12969C5E90310F8BD3E
:104DE000502080F31188BFF34F8FBFF36F8FFEE722
:104DF0005C00002008484068401C4FF0500080F3E1
:104E0000118804D0BFF34F8FBFF36F8FFEE7BFF35E
:104E10004F8FBFF36F8FFEE794000020074CE068D0
:104E2000016841B1C0680021D0F80000FFF728FFF9
:104E3000FFF7A8FEF3E701210020F7E75C00002060
:104E40002DE9F041044600F011F994F9455004F1C0
:104E5000240609E0606A48B1304600F0C3FE08B19C
:104E600000F00AFA6D1E6DB2002DF3DC4FF0FF3634
:104E700084F8456000F01AF900F0F8F894F944500D
:104E800004F1100709E0206948B1384600F0AAFE95
:104E900008B100F0F1F96D1E6DB2002DF3DC84F85D
:104EA0004460BDE8F04100F001B900002DE9F04197
:104EB0000546002700F05EFA324E306808B9FFF769
:104EC00051FD706905424ED1C5B3083568070ED053
:104ED00005F00700C0F108000544680707D050201E
:104EE00080F31188BFF34F8FBFF36F8FFEE72DB3B1
:104EF0007068854237D82348183001460C6801E0B5
:104F000020460C466168A94202D221680029F7D1E7
:104F100031688C4227D007682168016060680837D3
:104F2000411B10290FD96019420708D0502080F387
:104F30001188BFF34F8FBFF36F8FFEE713E041601F
:104F40006560FFF7CFFD61687068401A7060B268F5
:104F5000904200D2B060706901430020C4E90001B2
:104F6000F068401CF06000F075FE780707D0502014
:104F700080F31188BFF34F8FBFF36F8FFEE7384682
:104F8000BDE8F0817400002010B5031F4FF080745D
:104F90001C601B1F21F001011960191F044B0B60DD
:104FA00014390A60091F6FF0020244380A6010BD0C
:104FB000F54D0008D0E9013201699A60D0E901237A
:104FC0005A604A68824201D182684A6000220261C6
:104FD0000868401E0860086870470000034B0360C3
:104FE00003F15C00086080201060704750080020CA
:104FF000044B036003F15C0008604FF480701060A4
:1050000070470000AC0A002000F108014FF0FF32A9
:10501000C0E90112C16001610021016070470021F7
:105020000161704730B50B685A1C02D000F10802CC
:1050300002E0026904E02246546825689D42FAD9DC
:1050400053684B6099608A60516008610168491C2F
:10505000016030BD42684A6093688B609368596014
:10506000916008610168491C01607047502080F31D
:105070001188BFF34F8FBFF36F8F0A494868401CF8
:10508000486001280CD10848006810F0FF0F07D0D5
:10509000502080F31188BFF34F8FBFF36F8FFEE76F
:1050A000704700009400002004ED00E008494868C3
:1050B00028B1401E486001D180F31188704750200C
:1050C00080F31188BFF34F8FBFF36F8FFEE70000AF
:1050D0009400002070B500282AD0164DA0F10804D5
:1050E00060686969084207D1502080F31188BFF3D6
:1050F0004F8FBFF36F8FFEE722683AB1502080F3E5
:105100001188BFF34F8FBFF36F8FFEE78843606056
:1051100000F030F960686968084468602046FFF76D
:10512000E1FC2869401C2861BDE8704000F092BD98
:1051300070BD0000740000204FF0E02000210161EC
:10514000816105494FF47A720968B1FBF2F1491E99
:1051500041610721016170471C00002010B5FBF779
:10516000BFF8114910280ED300F1E02090F8F003A9
:105170000A78904207D2502080F31188BFF34F8FF6
:10518000BFF36F8FFEE709480068896800F4E060AC
:10519000884207D9502080F31188BFF34F8FBFF3A7
:1051A0006F8FFEE710BD0000940000200CED00E0C2
:1051B00010B5084B002200BF53F832401CB1521CFE
:1051C000082AF9D310BD43F8321003EBC20148603E
:1051D00010BD00003402002070B515460E4604468E
:1051E000FFF744FF94F944100020491C01D184F8D2
:1051F000440094F94510491C01D184F84500FFF79B
:1052000055FFA06B28B92A46314604F1240000F06E
:1052100051F82046BDE87040FFF712BE10B50200FD
:1052200014D00F48006B38B1502080F31188BFF3C1
:105230004F8FBFF36F8FFEE700F09CF80021104600
:10524000FFF76AFA00F006FD002807D105494FF084
:1052500080500860BFF34F8FBFF36F8F10BD000009
:105260002000002004ED00E002490A6A0260C968DB
:10527000416070472000002001490120C86170474B
:105280002000002010B50C4650B1094909681831BA
:10529000FFF7C8FE2046BDE810400121FFF73CBAE9
:1052A000502080F31188BFF34F8FBFF36F8FFEE75D
:1052B0002000002070B514460D4668B10A490968FF
:1052C0001831FFF7C7FE0CB14FF0FF3521462846D5
:1052D000BDE87040FFF720BA502080F31188BFF37B
:1052E0004F8FBFF36F8FFEE72000002030B587B0EF
:1052F0000024039405AA04A903A80494FFF76EFEF2
:10530000DDE903010094CDE90110002315A1174840
:10531000059A00F084FB164D0028E8621FD000F0CB
:10532000FBFC012809D0401C19D1502080F31188C2
:10533000BFF34F8FBFF36F8FFEE7502080F31188CC
:10534000BFF34F8FBFF36F8F4FF0FF30A862012084
:105350006861EC6007B0BDE8304000F045B807B0C8
:1053600030BD000049444C4500000000B149000830
:10537000200000200248016B491C016370470000B7
:1053800020000020164810B5016B11B10121C16148
:1053900010BD0021C1610169124A01E0B9B1491E85
:1053A00001EB810352F82330002BF7D001EB81038E
:1053B00002EB830202F1080453685B685360A34266
:1053C00001D15B685360DA680260016110BD502052
:1053D00080F31188BFF34F8FBFF36F8FFEE700009C
:1053E00020000020740200201CB537480168374AAD
:1053F000914207D1502080F31188BFF34F8FBFF344
:105400006F8FFEE700683149491E884207D150205E
:1054100080F31188BFF34F8FBFF36F8FFEE72C49E6
:1054200008780190FF20087008788DF800009DF83A
:1054300000009DF8002000F0F000904207D05020BE
:1054400080F31188BFF34F8FBFF36F8FFEE79DF896
:105450000000204C00F0500020700720A06005E004
:105460009DF8002052008DF80020401E9DF800207D
:105470001206F5D4A060032807D0502080F31188CD
:10548000BFF34F8FBFF36F8FFEE74FF44070A06004
:10549000019808700C482030016841F470010160E7
:1054A000016841F070410160FFF746FE0020606036
:1054B000FAF7DEFE0848016841F040410160FAF762
:1054C000C3FE00201CBD000000ED00E071C20F41D2
:1054D00000E400E09400002034EF00E010B550201C
:1054E00080F31188BFF34F8FBFF36F8F00F0D6FAB0
:1054F00018B104494FF080500860002080F31188F3
:1055000010BD000004ED00E038B5049D18B153B1A2
:10551000CAB181B120E0502080F31188BFF34F8FD2
:10552000BFF36F8FFEE7502080F31188BFF34F8FDA
:10553000BFF36F8FFEE7502080F31188BFF34F8FCA
:10554000BFF36F8FFEE739B1502080F31188BFF3AE
:105550004F8FBFF36F8FFEE750241C46012384F862
:1055600046302B460094FFF753FA204638BD000022
:1055700070B50D46040025D0FFF778FDD4E90F2063
:10558000216802FB0011A1600021A1632168616014
:105590000A46D4E90F01401E00FB0121E1602146CB
:1055A0004FF0FF3001F8440F487004F110008DB146
:1055B000FFF72AFD04F12400FFF726FDFFF776FD33
:1055C000012070BD502080F31188BFF34F8FBFF3CF
:1055D0006F8FFEE721690029F0D000F003FB00285F
:1055E000ECD004494FF080500860BFF34F8FBFF3F9
:1055F0006F8FE3E704ED00E02DE9FF4782B01D4621
:105600008A464FF00008040003D0BAF1000F08D01A
:1056100011E0502080F31188BFF34F8FBFF36F8FDD
:10562000FEE7206C38B1502080F31188BFF34F8F14
:10563000BFF36F8FFEE7022D0AD1E06B012807D080
:10564000502080F31188BFF34F8FBFF36F8FFEE7B9
:1056500000F010FA3F4F4FF000094FF0805648B964
:10566000049838B1502080F31188BFF34F8FBFF3F7
:105670006F8FFEE7FFF7FAFCA06BE16B884207D360
:10568000022D05D00498D0B1B8F1000F1AD01EE059
:105690002A4651462046FFF714F9616A19B104F110
:1056A000240000F09FFA20B13E60BFF34F8FBFF39C
:1056B0006F8FFFF7FBFC012006B0BDE8F087FFF716
:1056C000F5FC22E06846FFF7CFFD4FF00108FFF739
:1056D000EDFCFFF74FFEFFF7C9FC94F94400401CB6
:1056E00001D184F8449094F94500401C01D184F81C
:1056F0004590FFF7DBFC04A9684600F029F930B1BA
:105700002046FFF79DFB00F0A5FA0020D4E7FFF745
:10571000ADFCA06BE16B884213D1FFF7C7FC04F12D
:1057200010000499FFF7AEFD2046FFF789FB00F05B
:1057300091FA00289ED13E60BFF34F8FBFF36F8F69
:1057400098E7FFF7B3FC2046FFF77AFB00F082FAF8
:1057500090E7000004ED00E02DE9F0471F46904679
:105760008946040003D0B9F1000F08D011E05020A1
:1057700080F31188BFF34F8FBFF36F8FFEE7206C6C
:1057800038B1502080F31188BFF34F8FBFF36F8F74
:10579000FEE7022F0AD1E06B012807D0502080F3EA
:1057A0001188BFF34F8FBFF36F8FFEE7FFF7D6FC73
:1057B0005020EFF3118680F31188BFF34F8FBFF3B2
:1057C0006F8FA06BE16B884206D3022F04D00020BC
:1057D00086F31188BDE8F08794F94550A06B3A46EE
:1057E00049462046FFF76DF8681C04D06D1C84F80C
:1057F00045500120ECE7606A0028FAD004F124004B
:1058000000F0F0F90028F4D0B8F1000FF1D0012138
:10581000C8F80010EDE700002DE9F747002683B037
:105820008A46040003D0BAF1000F08D011E05020DE
:1058300080F31188BFF34F8FBFF36F8FFEE7206CAB
:1058400038B1502080F31188BFF34F8FBFF36F8FB3
:10585000FEE700F00FF9DFF8F4804FF000094FF099
:10586000805748B9059838B1502080F31188BFF3AC
:105870004F8FBFF36F8FFEE7FFF7F8FBA56BC5B146
:1058800051462046FFF70AF86D1EA563206950B106
:1058900004F1100000F0A6F928B1C8F80070BFF3B9
:1058A0004F8FBFF36F8FFFF701FC012006B0BDE8FB
:1058B000F087059808B11EB106E0FFF7F7FB27E077
:1058C0006846FFF7D1FC0126FFF7F0FBFFF752FD1A
:1058D000FFF7CCFB94F94400401C01D184F84490BC
:1058E00094F94500401C01D184F84590FFF7DEFB98
:1058F00005A9684600F02CF8002820460AD0FFF7DA
:105900009FFA00F0A7F92046FFF72EF90028B3D040
:105910000020CBE7FFF728F990B104F124000599A6
:10592000FFF7B0FC2046FFF78BFA00F093F9002850
:10593000A2D1C8F80070BFF34F8FBFF36F8F9BE702
:105940002046FFF77DFA00F085F995E704ED00E0C9
:105950002DE9F0410C46050011D0C4B1FFF786FBDC
:10596000174BDA686E682068911B471C17D02F68A8
:105970001B6A9F4219D0964217D8012410E050208C
:1059800080F31188BFF34F8FBFF36F8FFEE7502076
:1059900080F31188BFF34F8FBFF36F8FFEE70024B2
:1059A000FFF784FB2046BDE8F081884205D9401A04
:1059B00020602846FFF758FCF1E700202060DCE774
:1059C000200000202DE9FF5F8346DDE90E87994620
:1059D00016468A469000FFF769FA05001CD05C2045
:1059E000FFF764FA040014D00020256384F85900FE
:1059F000CDE90240CDE900874B4632465146584634
:105A0000FFF718F82046FEF7B5FE012004B0BDE808
:105A1000F09F2846FFF75EFB4FF0FF30F6E7F0B54A
:105A200085B0DDE90B640A9DA6B1DCB15C27009767
:105A30002663022684F85960002604AFCDE90246A9
:105A4000CDE90057FEF7F6FF2046FEF793FE0498D7
:105A500005B0F0BD502080F31188BFF34F8FBFF326
:105A60006F8FFEE7502080F31188BFF34F8FBFF395
:105A70006F8FFEE70548416919B1006B18B100202E
:105A8000704701207047022070470000200000206E
:105A90000148C06870470000200000202DE9F04157
:105AA0002E4C0027206B28B1A069401CA06138460D
:105AB000BDE8F081E668761CE66013D1606B006893
:105AC00038B1502080F31188BFF34F8FBFF36F8F31
:105AD000FEE7606BA16B6163A063206A401C2062DB
