:020000040800F2
:1000000088610020E90200086B290008A52000088B
:100010003F2400083F0600084D2F000800000000A4
:10002000000000000000000000000000290200089D
:10003000590600080000000085020008872A000811
:100040000303000803030008030300080303000878
:100050000303000803030008030300080303000868
:100060000303000803030008030300080303000858
:100070000303000803030008030300080303000848
:100080000303000803030008030300080303000838
:100090004106000803030008030300085B0600088C
:1000A0000303000803030008030300080303000818
:1000B000452B0008512B0008030300080303000828
:1000C00003030008030300080303000803030008F8
:1000D00003030008412F000803030008030300087E
:1000E00003030008030300080303000803030008D8
:1000F00003030008030300080303000803030008C8
:1001000003030008030300080303000803030008B7
:10011000912C0008030300080303000803030008F0
:100120000303000803030008030300080303000897
:100130000303000803030008030300080303000887
:100140004D0600080303000803030008030300082A
:100150000303000803030008030300080303000867
:100160000303000803030008030300080303000857
:100170000303000803030008030300080000000055
:10018000030300080303000800F002F800F03CF845
:100190000AA090E8000C82448344AAF10107DA45E2
:1001A00001D100F031F8AFF2090EBAE80F0013F0F8
:1001B000010F18BFFB1A43F0010318476C530000EE
:1001C0008C530000103A24BF78C878C1FAD852077F
:1001D00024BF30C830C144BF04680C6070470000C1
:1001E0000023002400250026103A28BF78C1FBD840
:1001F000520728BF30C148BF0B6070471FB505F0DC
:1002000050F91FBD10B510BD00F0E4F91146FFF71D
:10021000F5FF03F0F1F800F002FA03B4FFF7F2FF84
:1002200003BC00F005FA00002C4B19680868B0E820
:10023000F04F80F30988BFF36F8F4FF0000080F319
:10024000118870470000000008480068006880F3CB
:1002500008884FF0000080F3148862B661B6BFF3DF
:100260004F8FBFF36F8F00DF00BF00BF08ED00E0CE
:10027000DFF80C00016841F470010160704700BFB5
:1002800088ED00E0EFF30980BFF36F8F134B1A681E
:100290001EF0100F08BF20ED108A20E9F04F10600B
:1002A00009B44FF0500080F31188BFF34F8FBFF3B4
:1002B0006F8F04F0C7F84FF0000080F3118809BC7D
:1002C00019680868B0E8F04F1EF0100F08BFB0ECD6
:1002D000108A80F30988BFF36F8F70471C000020DD
:1002E000EFF3058070470000094880470948004740
:1002F000FEE7FEE7FEE7FEE7FEE7FEE7FEE7FEE7D6
:10030000FEE7FEE704480549054A064B7047000032
:10031000352B000889010008885B002088610020D7
:10032000885D0020885D002053EA020C00F069809F
:100330002DE9F04B4FF00006002B1FBFB3FA83F5F9
:1003400003FA05F424FA05F65E4012BF1643B2FA2A
:1003500082F502FA05F4C5F120051EBF22FA05FC5C
:1003600044EA0C04203556EA044C4FEA144418BF02
:10037000641C4FF000084FF00009904271EB030C31
:1003800039D3002919BFB1FA81F701FA07F6B0FA9B
:1003900080F700FA07F6C7F120071EBF20FA07FC16
:1003A00046EA0C062037B6FBF4FCA7EB0507103F26
:1003B00007F01F0BCBF120060CFA0BFB2CFA06F60C
:1003C00044BFB3460026202FA4BF5E464FF0000B6B
:1003D0005BEA060C08BF4FF0010B19EB0B09ABFBF6
:1003E000027C48EB0608C01B06FB02CC0BFB03CCCF
:1003F00071EB0C01C1E70B46024641464846BDE899
:10040000F08B13B54FF000004FF00001AFF3008008
:10041000BDE81C407047032A40F2308010F0030C06
:1004200000F0158011F8013BBCF1020F624498BF47
:1004300011F801CB00F8013B38BF11F8013BA2F1E4
:10044000040298BF00F801CB38BF00F8013B11F05F
:10045000030300F06280083AC0F0088051F8043BC2
:10046000083A51F804CBA0E80810F5E7121D5CBF6C
:1004700051F8043B40F8043BAFF30080D20724BF9F
:1004800011F8013B11F801CB48BF11F8012B24BF33
:1004900000F8013B00F801CB48BF00F8012B704782
:1004A00002F0FF0343EA032242EA024200F069B885
:1004B0004FF0000200B5134694469646203922BFFD
:1004C000A0E80C50A0E80C50B1F12001BFF4F7AF48
:1004D000090728BFA0E80C5048BF0CC05DF804EB2A
:1004E000890028BF40F8042B08BF704748BF20F898
:1004F000022B11F0804F18BF00F8012B7047704796
:100500007047704710B500F05DF8006810BD10B579
:10051000044600F057F8046010BD10B5203AC0F052
:100520000B80B1E81850203AA0E81850B1E81850F4
:10053000A0E81850BFF4F5AF5FEA027C24BFB1E831
:100540001850A0E8185044BF18C918C0BDE81040A2
:100550005FEA827C24BF51F8043B40F8043B08BFAB
:100560007047D20728BF31F8023B48BF11F8012B72
:1005700028BF20F8023B48BF00F8012B70474FF01E
:1005800000020429C0F0128010F0030C3FF492AF77
:10059000CCF1040CBCF1020F18BF00F8012BA8BF6E
:1005A00020F8022BA1EB0C01FFF784BF5FEAC17CAE
:1005B00024BF00F8012B00F8012B48BF00F8012BE5
:1005C0007047000000487047285B002000487047D3
:1005D000285B00207546FFF7F9FFAE460500694627
:1005E000534620F00700854618B020B5FFF78AFE75
:1005F000BDE820404FF000064FF000074FF0000824
:100600004FF0000B21F00701AC46ACE8C009ACE8A4
:10061000C009ACE8C009ACE8C0098D46704710B508
:100620000446AFF300802046BDE81040FFF7F5BD5B
:1006300001491820ABBEFEE7260002007047FEE726
:10064000014800F08AB900009C000020014800F039
:1006500084B90000C40000207047802000F05CBC1A
:1006600072B6FEE790F82020012A07D0022A05D0B2
:10067000416A41F48021416201207047006842696B
:100680000A43426100207047F0B590F8205004689A
:10069000A468012D05D0022D03D0416A41F48021C8
:1006A0005DE014F0406F01D1E50055D5C4F301645D
:1006B000022C03D9416A41F4000150E00125A54014
:1006C0001D608D684FF4C0739DB1CE6835434E6890
:1006D00045EAC605066803EB0417F5514FF4C275E9
:1006E000076805EB04150E697E51097D012905D0C7
:1006F00009E00E88CD6845EA4655EBE701684E599A
:1007000046F480764E511179D579567941EA0561E2
:1007100095792D0445EA062529434FF4C6760568E8
:1007200006EB0416A9511178D57841EA0561957850
:1007300052782D0445EA022211434FF4C475026831
:1007400005EB04155151006803EB0411425842F0C7
:10075000010242500020F0BD416A41F400114162A3
:100760000120F0BD10B590F82020012A07D0022A00
:1007700005D0416A41F480214162012010BD3B480F
:10078000D0F8002242F00102C0F80022D0F8002286
:1007900022F47C52C0F80022D0F800224B6A42EAD0
:1007A0000322C0F800220A7D02F01F0301229A40B2
:1007B000D0F81C329343C0F81C32CB69B3B9D0F8DF
:1007C0000C329343C0F80C328C894B6864F31F439E
:1007D0004C6900EBC404C4F840320C890B6864F324
:1007E0001F434C6900EBC404C4F84432CB69012BAD
:1007F00016D1D0F80C321343C0F80C320C884B6879
:1008000064F31F434C6900EBC404C4F840320C8904
:10081000CB6864F31F434C6900EBC404C4F8443252
:100820008B69002BD0F804320ED01343C0F8043289
:100830000B69002BD0F8143208D01343C0F81432DF
:10084000096A012904D008E09343EFE79343F5E7F1
:10085000D0F81C121143C0F81C12D0F8001221F07D
:100860000101C0F80012002010BD0000006400402B
:10087000704730B590F82040012C05D0022C03D0F1
:10088000416A41F480215DE00468002955D0246963
:10089000A40754D04FF4D874056804EB01142D5903
:1008A00015F00405956005682D594ED0ED0855608A
:1008B00005682C5904F00204D4604FF4DA7405681A
:1008C00004EB01142D5905F00F05156105682D592C
:1008D000C5F30725956105682C59240C54614FF424
:1008E000DC72046802EB0112A4581C700468A4585E
:1008F000240A5C700468A458240C9C700468A258F4
:10090000120EDA704FF4DE72046802EB0112A45882
:100910001C710468A458240A5C710468A458240C4F
:100920009C710468A258120EDA71006881B10169E5
:1009300041F020010161002030BDE468A8E7416A70
:1009400041F400114162012030BD6D0D1560AFE72B
:10095000C16841F02001C160EDE72DE9F05F054677
:10096000006800244669D0F804908768D0F80CB07D
:10097000D0F810A0D0F81880F10748D0F90714D0AB
:1009800001218160B80703D5284600F062FA0CE027
:10099000780702D54FF4006407E0380702D54FF41A
:1009A000805402E0284600F053FAF80516D529686D
:1009B0004FF480708860B80503D5284600F04BFAE4
:1009C0000CE0780502D544F4005407E0380502D560
:1009D00044F4804402E0284600F03CFAF80316D5BF
:1009E00029684FF480308860B80303D5284600F0AA
:1009F00034FA0CE0780302D544F4004407E03803ED
:100A000002D544F4803402E0284600F025FA30078D
:100A100007D55FEACB6004D52968102044F4007440
:100A2000C86070074FF0080707D55FEA0B7004D560
:100A30002868C760284600F09BF9B00706D52868EB
:100A4000C068800702D0284600F094F9700607D5E8
:100A50005FEACA6004D52968102044F48064086104
:100A6000B00607D55FEA0A7004D5286807612846F2
:100A700000F0BEF9F00606D528680069800702D0AC
:100A8000284600F0B6F9B00308D55FEAC96005D57D
:100A9000296810204860284600F0ACF9F00307D51B
:100AA0005FEA097004D528684760284600F0D6F947
:100AB000300446D55FEA497040D5F00504D55FEAB9
:100AC000C87001D044F00104B00504D55FEA887015
:100AD00001D544F00204700504D55FEA487001D5E1
:100AE00044F00404300529D518F0700F26D008F022
:100AF0007000402815D006DC102809D020280AD024
:100B0000302816D10AE050280ED0602811D10EE00E
:100B100044F008040DE044F010040AE044F020041E
:100B200007E044F0400404E044F0800401E044F4B1
:100B300080742868816921F070018161296804202E
:100B40004860002C05D0686A204368622846FFF799
:100B50008FFEBDE8F09F70B5040003D094F820002C
:100B600010B104E0012070BD204600F081F820683B
:100B7000016841F00101016000F0D2FA0546052646
:100B800004E000F0CDFA401B0A2811D82068406824
:100B9000C007F6D02068016821F00201016000F072
:100BA000BFFA05460BE000F0BBFA401B0A2806D945
:100BB000606A40F40030606284F82060D2E7206808
:100BC00040688007EFD4207E0128206801683DD06E
:100BD00021F080010160607E01282068016838D022
:100BE00021F040010160A07E01282068016833D017
:100BF00021F020010160E07E0128206801682ED0EC
:100C000041F010010160207F01282068016829D08F
:100C100021F008010160607F01282068016824D06C
:100C200021F004010160D4E902010843D4E904126F
:100C3000114308436168491E08432168C8610020C8
:100C40006062012084F82000002070BD41F0800126
:100C5000C0E741F04001C5E741F02001CAE721F0BB
:100C60001001CFE741F00801D4E741F00401D9E7D2
:100C7000F0B587B0044614216846FFF719FC374BDE
:100C80003748DFF8D4E01968D4F800C0344A0225A8
:100C90000326092710300024491CF44524D119608B
:100CA000012907D1016841F000710160006800F07E
:100CB00000700590106840F001001060106802ABF1
:100CC00000F0010005904FF4C050CDE9000583E825
:100CD000D0006946234800F02BF90022052114209A
:100CE00000F0BCFA142033E0DFF87CE0F44531D1A9
:100CF000D0F800C04CF0806CC0F800C0D0F800C044
:100D000001290CF0806CCDF814C0196007D101687E
:100D100041F000710160006800F0007005901068FB
:100D200040F002001060106802AB00F00200059075
:100D30004FF44050CDE9000583E8D00069460B48E8
:100D400000F0F6F800220521402000F087FA40204C
:100D500000F076FA07B0F0BD006400400800002003
:100D600030380240000002400068004000040240A9
:100D70007047000070B5054619488CB0854214D103
:100D800007AB6A460021FFF774FD154A07A96846BC
:100D900002F070FA134E0024C4EBC40006EB0010FE
:100DA00001F0E4FD641C062CF6DB0F48854214D1EB
:100DB00009AB6A460021FFF75CFD0B4A09A96846AA
:100DC00002F058FA094D0024C4EBC40005EB0010F2
:100DD00001F0CCFD641C062CF6DB0CB070BD0000ED
:100DE0009C000020D84A0020C4000020E84D0020CC
:100DF000704770477047000070B5044690F82000B7
:100E0000012804D0606A40F40020606218E00220EB
:100E100084F820002068016821F00101016000F0E1
:100E20007FF905460EE000BF00F07AF9401B0A2862
:100E300008D9606A40F400306062052084F8200020
:100E4000012070BD20684068C007EDD1606270BDB0
:100E500070477047704770477047704770472DE97B
:100E6000F0410446876D00F05BF9064694F83500C2
:100E70000025022806D08020606584F834500120C7
:100E8000BDE8F0812068016821F01601016020684A
:100E9000416921F080014161206C08B9A06C20B14A
:100EA0002068016821F0080101602068016821F0D4
:100EB000010101600CE000F033F9801B052807D91F
:100EC00020206065032084F8350084F83450D7E78B
:100ED00020680068C007EED194F85C103F2088407D
:100EE000B860012084F8350084F834500020C7E74A
:100EF00090F83510022903D0802141650120704708
:100F0000052180F835100068016821F001010160B9
:100F10000020704770470000044910B50A6802427B
:100F200002D00860FFF7F6FF10BD0000143C01403E
:100F30002DE9F84FDFF8BCA10022012503264FF070
:100F40000F090AF1040BAAF1040E00BF0B6805FAA1
:100F500002F42340A34270D10F7907F00307012F59
:100F600001D0022F16D187684FEA420806FA08FC22
:100F700027EA0C07D1F80CC00CFA08FC4CEA070C65
:100F8000C0F808C04768A7430C79C4F30014944024
:100F90003C4344600C79E443A4070AD0C4684FEA98
:100FA000420C06FA0CF7BC438F6807FA0CF727438C
:100FB000C7600C7904F00304022C12D1D40800EBB2
:100FC000840CDCF820405707FF0E09FA07F824EAE2
:100FD0000804D1F8108008FA07F848EA0408CCF8A9
:100FE000208004684FEA420C06FA0CF7BC430F79E4
:100FF00007F0030707FA0CF7274307604C6814F45F
:10100000403F70D03C4C276847F4804727602468F5
:1010100022F0030704F480440094384C07EB040CDE
:10102000DCF8084897074FEA177809FA08F7BC4335
:10103000334FB84202D1002724E054E0314FB84288
:1010400001D101271EE0304FB84201D1022719E03B
:101050002E4FB84201D1032714E02D4FB84201D1E1
:1010600004270FE02B4FB84201D105270AE02A4F91
:10107000B84201D1062705E0284FB84201D1072721
:1010800000E0082707FA08F72743CCF80878DAF8D1
:1010900000405746D1F804C09C435FEACC2C00D5F1
:1010A0001C433C60DBF800405F46D1F804C09C4321
:1010B0005FEA8C2C00D51C433C60DEF8004077468C
:1010C000D1F804C09C435FEA8C3C00D51C433C60D3
:1010D000084F083F3C68D1F804C09C435FEACC3C11
:1010E00000D51C433C60521C102AFFF42FAFBDE812
:1010F000F88F0000083C01404438024000300140B5
:10110000000002400004024000080240000C0240BF
:10111000001002400014024000180240001C02406F
:1011200001488068704700000C0000200248816878
:1011300002781144816070470C0000200B4810B504
:10114000016841F400710160016841F4806101604F
:10115000016841F480710160032000F09FF80F20C6
:1011600000F006F800F050F8002010BD003C0240EE
:1011700030B505461F4887B00024016841F00201E0
:101180000160006806A900F00200009001A800F0CC
:1011900031F90498A8B100F04DF940001649174AFA
:1011A000B0FBF1F11648491E026040F2E732C0E997
:1011B0000324C0E90114846100F08EFB040003D015
:1011C00015E000F037F9E9E70D4800F0CFFB040027
:1011D0000DD11D2000F034F8102D07D20022294631
:1011E0001D2000F03BF80748056000E0012407B02F
:1011F000204630BD4038024040420F00000400400D
:10120000BC010020100000200C4882B0016841F4AD
:1012100080410160006800F4804000900748001F92
:10122000016841F0805101600068002200F08050A8
:1012300000900F21901E02B000F010B84438024018
:10124000002809DB00F01F020121914040098000C5
:1012500000F1E020C0F8001170470000F0B40E4B20
:101260001B680C46C3F30223C3F10705042D00D904
:101270000425191D072901D2002300E0DB1E0126E9
:1012800006FA05F1491E214099409E40761E1640FF
:101290003143F0BC01F074BF0CED00E0064900F0F2
:1012A000070208684FF6FF03184040EA0220034A8D
:1012B00010430860704700000CED00E00000FA05E4
:1012C0002DE9F0470E46050065D0DFF81481D8F807
:1012D0000000F7B200F00700B04207D288F80070B3
:1012E000D8F8000000F00700B04254D128683D4C07
:1012F000810712D5400703D5206840F4E0502060F4
:101300002878000703D5206840F4604020602068FA
:10131000A96820F0F000084320602878C0072DD08D
:10132000304968680839012812D0022813D00328F0
:1013300011D00968890700292DDA216821F00301FD
:1013400001432160FFF7ECFE814641F2883A0EE04E
:1013500009688903EFE709688901ECE7FFF7E0FE18
:10136000A0EB0901514502D90320BDE8F0872068B0
:10137000696800F00C00B0EB810FEFD1D8F80010D5
:10138000404601F00701B14207D90770006800F03C
:101390000700B04201D00120E7E72878400705D5D3
:1013A0002068E96820F4E0500843206028780007AE
:1013B00006D52068296920F4604040EAC100206019
:1013C00000F058F82168084AC1F30311515CC84085
:1013D0000649086006480068FFF7CAFE0020C4E717
:1013E000003C024008380240005500081800002068
:1013F000100000200F2202600C4A136803F0030360
:101400004360136803F0F0038360136803F4E05350
:10141000C36012684FF4E05303EAD2020261044849
:10142000006800F0070008607047000008380240BC
:10143000003C02400448054900680968044AC1F3B9
:101440008221515CC84070471800002008380240D3
:10145000105500080448054900680968044AC1F3AA
:101460004231515CC84070471800002008380240E3
:1014700010550008154810B5006810F00C0214480B
:1014800013D01449042A0FD0082A0ED10F4C241F60
:101490002268236802F03F025B0207D52068C0F390
:1014A0008810A0FB010106E0084610BD2168C1F3C9
:1014B0008811A1FB00010023FEF736FF2168C1F36C
:1014C0000141491C4900B0FBF1F010BD0838024051
:1014D0000024F40040787D012DE9F84F04006ED01F
:1014E0002078DFF84C93C007A9F104054AD009F130
:1014F00004000168C1F38101012908D00068C0F32C
:10150000810002280AD1D9F80000400206D52868D7
:10151000800337D560680028E1D033E06068B0F51B
:10152000803F10D0B0F5A02F286810D020F4803074
:101530002860286820F4802028606068A8B1FFF740
:10154000EFFD06460DE0286840F48030F4E740F4F3
:1015500080202860F7E700BFFFF7E2FD801B6428CA
:1015600073D828688003F7D50CE0FFF7D9FD06464D
:1015700005E000BFFFF7D4FD801B6428F0D8286881
:101580008003F7D42078DFF8AC8280074FF0000AA0
:101590003ED5A748001D016811F00C0F08D0006867
:1015A000C0F3810002280BD1D9F80000400207D413
:1015B0002868800716D5E068012800D112E033E1E1
:1015C000E068B8B10120C8F80000FFF7A9FD0646A1
:1015D00005E000BFFFF7A4FD801B0228C0D82868E3
:1015E0008007F7D52868216920F0F80040EAC1009B
:1015F00028600DE0C8F800A0FFF792FD064604E061
:10160000FFF78EFD801B02281FD828688007F7D4BB
:101610002078000722D5864F87486169703771B1FD
:1016200001210160FFF77CFD064604E0FFF778FD2D
:10163000801B022809D838688007F7D50EE0C0F86B
:1016400000A0FFF76DFD064605E082E0FFF768FDAC
:10165000801B02287DD838688007F7D4207840079F
:1016600068D5DFF8CCB100270BF13C0BDBF80000AC
:10167000C0000BD4DBF8001041F08051CBF8001013
:10168000DBF80000012700F0805000906B4E3068BE
:10169000C00510D4306840F480703060FFF740FD22
:1016A000009005E0FFF73CFD0099401A022850D851
:1016B0003068C005F6D55E4EA0686C3601280FD0A4
:1016C0000528306810D020F001003060306820F02C
:1016D00004003060A068B8B1FFF722FD00900FE071
:1016E000306840F00100F4E740F004003060F7E7B4
:1016F000FFF716FD0099411A41F28830814266D801
:1017000030688007F4D50EE0FFF70AFD009007E08F
:10171000FFF706FD0099411A41F28830814256D800
:1017200030688007F4D42FB1DBF8001021F080512D
:10173000CBF80010A069C8B33D49091D0968C1F381
:10174000810102294AD00228504607D0C8F860001B
:1017500000E03CE0FFF7E4FC04463BE04746C8F805
:101760006000FFF7DDFC064605E000BFFFF7D8FC90
:10177000801B02282BD828688001F7D4D4E9070100
:101780000843A16A2E4A490802EB0141626A41EA14
:101790008211084394F82C1040EA0161C9F8001046
:1017A00001203866FFF7BCFC044606E03EE000BFBF
:1017B000FFF7B6FC001B022809D828688001F7D57E
:1017C00034E000BFFFF7ACFC001B022802D9032065
:1017D000BDE8F88F28688001F4D427E00128F7D00D
:1017E000D9F80000E26900F4800191421CD1226A1C
:1017F00000F03F01914217D147F6C071626A014083
:10180000B1EB821F10D1A26A4FF0FF3300F44031D8
:1018100003EB5202B1EB024F06D194F82C1000F00A
:101820007060B0EB016F01D00120D1E70020CFE75D
:101830000438024000004742800E474200700040DA
:101840000000FFFF7047704770B590F83C20012AF8
:1018500032D0012480F83C40022280F83D20036809
:101860005A689D6822F070060A6832435A60134B2A
:1018700002689A4214D0B2F1804F11D0104B9A42B4
:101880000ED0104B9A420BD00F4B9A4208D00F4B00
:101890009A4205D00E4B9A4202D00E4B9A4204D186
:1018A000496825F080031943916080F83D4000218C
:1018B00080F83C10084670BD022070BD0000014059
:1018C0000004004000080040000C004000040140FB
:1018D000004001400018004010B5040003D094F807
:1018E0003D0010B107E0012010BD002084F83C004D
:1018F000204600F01FF8022084F83D00211D2068DA
:1019000001F02CF9012084F8460084F83E0084F8A8
:101910003F0084F8400084F8410084F8420084F8D5
:10192000430084F8440084F8450084F83D0000201A
:1019300010BD000008B50068B0F1804F12D10A4810
:10194000016841F0010101600068002200F001001F
:10195000009011461C20FFF781FCBDE808401C20C8
:10196000FFF76EBC08BD00004038024090F83D1003
:10197000012901D001207047022180F83D10016843
:10198000CA6842F00102CA6000681149884214D056
:10199000B0F1804F11D00F4988420ED00E498842D5
:1019A0000BD00E49884208D00D49884205D00D4918
:1019B000884202D00C49884204D1816801F00701B5
:1019C000062903D0016841F0010101600020704741
:1019D000000001400004004000080040000C0040EE
:1019E00000040140004001400018004070B504466A
:1019F00090F83C000025012817D0012684F83C60AF
:101A0000022084F83D002068826822F0770222F4E8
:101A10007F4282600868502838D00DDC20284FD0E3
:101A200005DC90B3102811D14AE0022070BD3028A7
:101A300046D040280AD13BE060282FD070280DD036
:101A4000B0F5805F03D0B0F5005F12D0012584F8B7
:101A50003D60002084F83C00284670BDCB68D1E989
:101A60000121206801F0DEF82068816841F07701EB
:101A700009E0CB68D1E90121206801F0D3F82068A2
:101A8000816841F480418160E1E719E0CA684968F2
:101A9000206801F0D9F85021206806E0CA6849683A
:101AA000206801F0E2F86021206801F0C5F8CEE777
:101AB000CA684968206801F0C7F840212068F4E747
:101AC000226801461046F0E7704770B5044600688A
:101AD00001694FF00005C943890715D4C168C9439E
:101AE000890711D4E91E01610120207720688069EF
:101AF0008007204602D0FFF7E7FF04E000F098F8E7
:101B0000204600F096F8257720680169C943490707
:101B100017D4C168C943490713D46FF004010161A8
:101B2000022020772068806910F4407F204602D090
:101B3000FFF7CAFF04E000F07BF8204600F079F8D8
:101B4000257720680169C943090716D4C168C943CC
:101B5000090712D46FF00801016104202077206882
:101B6000C0698007204602D0FFF7AEFF04E000F016
:101B70005FF8204600F05DF8257720680169C943C9
:101B8000C90617D4C168C943C90613D46FF0100140
:101B90000161082020772068C06910F4407F20464A
:101BA00002D0FFF791FF04E000F042F8204600F079
:101BB00040F8257720680169C943C90708D1C16881
:101BC000C943C90704D1891E0161204600F032F8DB
:101BD00020680169C943090609D4C168C9430906D7
:101BE00005D46FF0800101612046FFF72BFE2068CD
:101BF0000169C943490609D4C168C943490605D4E6
:101C00006FF040010161204600F01EF82068016974
:101C1000C94389060BD4C168C943890607D46FF04C
:101C2000200101612046BDE87040FFF70CBE70BD89
:101C30007047704700680349884201D1FFF776BAC0
:101C40007047000000040040704770477047000074
:101C5000F8B5016804460868CA684B6910F00F0FB0
:101C60004FF0000559D003F0010602F49077374396
:101C700065D0C10705D0D10503D5216C41F0010124
:101C80002164410705D5D90703D0216C41F0020139
:101C90002164810705D5D90703D0216C41F00401E7
:101CA0002164010707D502F02001314303D0216CE4
:101CB00041F008012164216C00293AD0800604D546
:101CC000900602D5204601F018F820684069216C82
:101CD000C0F38010090700D460B3204600F0E6FF8F
:101CE00020684069400621D52068143050E8001F64
:101CF00021F0400140E80012002AF5D1A06BA8B104
:101D00006C490165A06BFFF7F3F8002811D0A06BB8
:101D1000016D01B0BDE8F040084783060FD593067A
:101D20000DD52046BDE8F84000F0E7BF2046FFF79C
:101D30008DFFF8BD2046FFF789FF2564F8BD266BAF
:101D40002023012E79D1C60677D5D60675D5086829
:101D5000486800904869400640D5A16B0868406813
:101D60000004000CEAD0A28D8242E7D9E085C86960
:101D7000B0F5807F2DD020680C3050E8001F21F492
:101D8000807140E80012002AF5D12068143050E834
:101D9000001F21F0010140E80012002AF5D120685F
:101DA000143050E8001F21F0400140E80012002AE2
:101DB000F5D184F83E30256320680C3050E8001FD0
:101DC00021F0100140E80012002AF5D1A06BFFF7C6
:101DD00046F8A08DE18D401A81B229E0A08DE18DF9
:101DE000401A81B2E08D0028A8D00029A6D0206832
:101DF0000C3050E8002F22F4907240E80026002EAC
:101E0000F5D12068143050E8002F22F0010240E89C
:101E10000026002EF5D184F83E30256320680C3072
:101E200050E8002F22F0100240E80023002BF5D1EB
:101E30002046FFF70AFFF8BDFFE705062BD515067C
:101E400029D594F83D002128F5D1A068B0F5805F30
:101E500001D12069B0B1206A411C2162216800785B
:101E60004860E08C401E0004000CE084E3D1206850
:101E7000C16821F08001C1602068C16841F0400163
:101E8000C160D8E7206A0088C0F308004860206A73
:101E9000801C2062E5E74006CDD55006CBD5CA6848
:101EA000204622F04002CA6084F83D3000F0F9F884
:101EB000C1E700009D2C000870B5040004D094F820
:101EC0003D00002510B106E0012070BD84F83C50B3
:101ED000204600F023F8242084F83D002068C168E3
:101EE00021F40051C160204600F068FF20680169BC
:101EF00021F4904101612068416921F02A0141618A
:101F00002068C16841F40051C1602564202084F834
:101F10003D0084F83E00002070BD000030B587B061
:101F2000044614216846FEF7C3FA2B4D22680021AF
:101F30002A4802230324AA4223D1284A10321568D2
:101F400045F400251560126802F40022059202682B
:101F500042F0040202600068CDE9021400F00400BF
:101F60000590A002CDE900030820049069461C48B2
:101F7000FEF7DEFF002211463420FFF76FF9342010
:101F800026E0184DAA4225D1144A1432156845F0AE
:101F900010051560126802F010020592026842F006
:101FA000010202600068CDE9021400F00100059012
:101FB0004FF4C060CDE900030720049069460A4849
:101FC000FEF7B6FF002205212520FFF747F925205F
:101FD000FFF736F907B030BD004C00403038024002
:101FE000000802400010014000000240704700005D
:101FF0002DE9F843044690F83D001F4616460D466D
:1020000020284CD1C5B1BEB194F83C00012846D07F
:10201000012084F83C004FF00008C4F840802120E3
:1020200084F83D00FFF77CF8A6848146E684A0682A
:10203000B0F5805F03D004E00120BDE8F88320699B
:1020400028B12E465FF0000584F83C800EE00026A3
:10205000FAE78021204600F037FFA0B9AEB116F8AC
:10206000010B21684860E08C401EE084E08C4B4608
:102070004FF0000200970028EBD14FF040012046BE
:1020800000F022FF30B10320D7E735F8020BC0F390
:102090000800E6E7202084F83D000020CDE702207C
:1020A000CBE77047FEE7D0ED000AF4EEC00AF1EE90
:1020B00010FA01DD80ED000AD0ED000AB1EE400A11
:1020C000F4EEC00AF1EE10FA01D280ED000A70477A
:1020D00000B599B0082100208A0100920290CDE954
:1020E00003010890CDE90901501E06903D4814AB4C
:1020F00081890A0A8DF830208DF83110B0F87C10F3
:102100000A0A8DF832208DF83310B0F8EC100A0A64
:102110008DF834208DF83510B0F85C110A0A8DF86E
:1021200036208DF83710B0F8CC110A0A8DF840200F
:102130008DF84110B0F83C120A0A8DF842208DF853
:102140004310B0F8AC020CAA010A8DF844108DF8C7
:10215000450069462448FEF797FA15AB10AA06A970
:102160002148FEF791FA214816AB81890A0A8DF8B9
:1021700038208DF83910B0F87C100A0A8DF83A2012
:102180008DF83B10B0F8EC100A0A8DF83C208DF861
:102190003D10B0F85C110A0A8DF83E208DF83F1012
:1021A000B0F8CC110A0A8DF848208DF84910B0F823
:1021B0003C120A0A8DF84A208DF84B10B0F8AC0298
:1021C0000EAA010A8DF84C108DF84D00694608489A
:1021D000FEF75AFA17AB12AA06A90548FEF754FAF9
:1021E00019B000BDD84A00209C000020E84D002016
:1021F000C4000020104810B50E4901600321416061
:1022000000214FF400228160C0E903124FF4401214
:1022100042610176012242768176C176017741776B
:10222000FEF799FC002803D0BDE81040FEF718BA6D
:1022300010BD0000006400409C000020104810B554
:102240000E4901600321416000214FF400228160AA
:10225000C0E903124FF44012426101760122427636
:102260008176C17601774177FEF775FC002803D0AF
:10227000BDE81040FEF7F4B910BD00000068004052
:10228000C400002010B5074A0021074801F02EF9CC
:10229000064C044A002120602432054801F026F94A
:1022A000606010BDB85400085F29000800000020DD
:1022B000512F000800B587B014216846FEF7F8F8E2
:1022C0001E480021026842F004020260026802F027
:1022D00004020592026842F020020260026802F0E5
:1022E00020020592026842F080020260026802F059
:1022F00080020592026842F002020260026802F067
:1023000002020592026842F001020260006800F0D9
:1023100001000590802000904FF48810CDE9010164
:1023200069460748FEF704FE002211461720FEF713
:1023300095FF1720FEF784FF07B000BD303802403C
:102340000014024010B586B0002416480094019491
:102350000294039404944FF080410594016053214A
:10236000C0E901141049C0E903148461FFF7B4FA0D
:1023700008B1FEF775F94FF480500090694609489E
:10238000FFF734FB08B1FEF76BF9049404A9054884
:102390000594FFF759FA002801D0FEF761F906B05D
:1023A00010BD0000EC000020A08601000C4810B514
:1023B0000A4901604FF4E1314160002181600C2243
:1023C000C160C0E904128161C161FFF775FD002899
:1023D00003D0BDE81040FEF743B910BD004C0040EB
:1023E000340100200C4810B50A4901604FF4E13176
:1023F0004160002181600C22C160C0E9041281614A
:10240000C161FFF759FD002803D0BDE81040FEF779
:1024100027B910BD0010014078010020B4EEE00A99
:10242000F1EE10FA01DDB0EE600AF1EE600AB4EEF2
:10243000E00AF1EE10FA01D2B0EE600A7047FEE752
:102440002DE9F04FDFF8FCB300252DED068B83B0AE
:102450009FEDFD9B9FEDFE8AABF52178A8F5C46644
:1024600006F6283A4FEA0509C5EBC50706EB07143F
:1024700020680A2830D2DFE800F047C78705C7097F
:102480003A96C74A204600F07FFD7DE0E06E0128C5
:1024900023D0D4ED180A00BFB4F90E0000EE100AE4
:1024A000C5EBC50000EB051001900BEB8000B8EE0A
:1024B000C00A009001F060F8009890ED0F0A84EDDA
:1024C000050AB4F9080000EE900A0198F8EEE00A57
:1024D00008EB800001F050F896E0E0884FF4B4710A
:1024E0004843400B00EE100AF8EE400AD4E7B4F976
:1024F000080000EE100AC5EBC50000EB0511F8EE70
:10250000C00A94ED050A6CE0A4F80C907CE0B4F9E4
:10251000540002F002FD53EC192B02F051FD41EC86
:102520001A0BB4F90A00002800DC404202F0F5FC66
:1025300053EC1A2B02F008FD01D8C4F85C90B4F9F2
:10254000540002F0EAFCB0EE491AF0EE691A53ECBE
:10255000112B02F035FD41EC1A0BB4F90A000028EA
:1025600000DC404202F0D9FC53EC1A2B02F026FEAC
:10257000E06D01D2401CE0651E2805DB0120A0654E
:1025800084ED188A84ED058AB4F9080000EE100A7B
:10259000C5EBC50000EB0511F8EEC00A94ED050A85
:1025A00008EB810096E7B4F90E00D4ED180A00EEAE
:1025B000100AC5EBC50000EB05110BEB8100B8EE6E
:1025C000C00ACDE9000100F0D7FF009890ED0F0A96
:1025D00084ED050AB4F90800019900EE900AF8EEBE
:1025E000E00A08EB8100009000F0C6FFB4F910008B
:1025F00000EE100A0098F8EEC00A90ED0F0AFFF7FF
:102600000DFF009880ED0F0A924800EB0710009034
:1026100000680A2832D2DFE800F052E19F05E109A4
:1026200041B0E156009800F0AFFC95E00098C06E14
:102630000128009823D0D0ED180A00BFB0F90E0091
:1026400000EE100AC5EBC50000EB05178248B8EE96
:10265000C00A00EB8700044600F08EFF009894ED5E
:102660000F0A80ED050A0098B0F9080000EE900A04
:102670000AEB8700F8EEE00A00F07EFFAEE0C088CB
:1026800000EE100AB8EE400ADFED740A20EE200AD0
:10269000DFED730A009860EE200ACFE70098B0F9EA
:1026A000080000EE100A0098F8EEC00A90ED050A46
:1026B000C5EBC50000EB05110AEB81007EE0009937
:1026C000A1F80C908AE00098B0F9540002F025FCC3
:1026D00053EC192B02F074FC41EC1A0B0098B0F982
:1026E0000A00002800DC404202F017FC53EC1A2BD1
:1026F00002F02AFC02D80099C1F85C900098B0F969
:10270000540002F00AFCB0EE491AF0EE691A53ECDC
:10271000112B02F055FC41EC1A0B0098B0F90A009D
:10272000002800DC404202F0F8FB53EC1A2B02F0C8
:1027300045FD04D200980099C06D401CC865009802
:10274000C06D1E2808DB009901208865009880ED87
:10275000188A009880ED058A0098B0F9080000EE0C
:10276000100A0098F8EEC00A90ED050AC5EBC50006
:1027700000EB05110AEB81007EE70098D0ED180A06
:10278000B0F90E0000EE100AC5EBC50000EB05170E
:102790003148B8EEC00A00EB8700044600F0ECFEBA
:1027A000009894ED0F0A80ED050A0098B0F9080032
:1027B00000EE900A0AEB8700F8EEE00A044600F00B
:1027C000DBFE0098B0F9100000EE100AF8EEC00A27
:1027D00094ED0F0AFFF722FE84ED0F0A6D1C072D02
:1027E000FFF642AE0021DFED1F1A9FED1F2A9FED7D
:1027F0001F1A43F2C82340F63C7400BFC1EBC1006E
:1028000006EB00100268042A08D00279012A3CD0A5
:10281000022A4CD0032A5BD0A0F80C90491C07294F
:10282000ECDB0C4A002100BFC1EBC10002EB001041
:102830000568042D1FD00579012D5BD0022D6BD0CA
:10284000032D15E07C530020000000000000F83F3D
:1028500000000000E84D0020845800200000B44330
:10286000000000390068264600B047450060EA468F
:1028700063D0A0F80C90491C0729D5DB03B0BDEC50
:10288000068BBDE8F04FFFF723BCB0F90A209A424F
:1028900002DDC0F80090C1E7C1EBC10202EB0115F7
:1028A00008EB8502F0EE610A92ED0F0A1AE0B0F92A
:1028B0000A20A24201DDC0F80090C1EBC10202EB88
:1028C000011508EB8502F0EE420A92ED0F0A09E0CD
:1028D000C1EBC10202EB011508EB8502F0EE410AE3
:1028E00092ED0F0AFFF79AFDBDEEC00A10EE102A16
:1028F000828193E7B0F90A509D4202DDC0F8009052
:10290000B9E7C1EBC10505EB01160AEB8605F0EE50
:10291000610A95ED0F0A1AE0B0F90A50A54201DDEF
:10292000C0F80090C1EBC10505EB01160AEB860566
:10293000F0EE420A95ED0F0A09E0C1EBC10505EB87
:1029400001160AEB8605F0EE410A95ED0F0AFFF736
:1029500065FDBDEEC00A10EE105A85818BE7FFF7CA
:102960006FFD012000F086FDF9E7FEE730B59FED31
:102970003F0A90F86420C188F0EE400A3AB102792B
:10298000012A0AD0022A0BD0032A0ED10BE0A0F8AC
:102990006610012180F8641030BDF3EE030A04E0F4
:1029A000DFED330A01E0F7EE000AB0F908209FEDF1
:1029B000311ADFED311A41F6FF73002A1EDDB0F83F
:1029C0006620914211D2A1EB02021A4440F2E24386
:1029D0009A420DDA00EE102AB8EEC00A20EE010A83
:1029E00020EE211A81EE200A02E001D98A1AF1E7CD
:1029F000B5EEC00AF1EE10FA2FDA34E0B0F8662036
:102A00001EDA91420AD9A3EB010303F2E144144414
:102A100040F6C215AC420DD81A4401E00AD28A1A17
:102A200000EE102AB8EEC00A20EE010A20EE211AAC
:102A300081EE200AB5EEC00AF1EE10FA0DD912E0CF
:102A400091420AD08A1A00EE102AB8EEC00A20EE8F
:102A5000010A20EE211A81EE200AD0ED180A30EE8C
:102A6000800A80ED180AA0F8661030BD0000000052
:102A700000001042000000390000B4430221016050
:102A800080ED050A704710B54FF0E020006902F0B4
:102A900051F8012803D0BDE8104001F07FBD10BD02
:102AA00030B593B030216846FDF702FD14210CA823
:102AB000FDF7FEFC1D480025016841F080510160D2
:102AC000006800F0805011901948016841F480417D
:102AD00001600068022400F48040119001200390FE
:102AE00010200490009406940820CDE90750A820F7
:102AF000CDE9090404200B906846FEF7EDFC08B10F
:102B000072B6FEE70CA90F2081E831004FF4A05007
:102B10000F904FF48050109005210CA8FEF7D0FBC9
:102B2000002801D072B6FEE713B030BD4038024035
:102B3000007000400248016841F470010160704774
:102B400088ED00E00148FEF7C0BF0000EC00002067
:102B50000148FEF7BABF0000BC010020F0B50268D2
:102B6000254C264D264E274F274B4FF0804CA04238
:102B700009D0604507D0A84205D0B04203D0B84282
:102B800001D0984204D122F0700E4A6842EA0E0247
:102B9000A0421BD0604519D0A84217D0B04215D032
:102BA000B84213D0984211D0184DA8420ED0184DFB
:102BB000A8420BD0174DA84208D0174DA84205D007
:102BC000164DA84202D0164DA84203D122F44075FA
:102BD000CA682A434D6922F080022A4302608A684B
:102BE000C2620A688262A04201D0984201D109699A
:102BF000016301214161F0BD00000140000400407B
:102C000000080040000C004000040140004001406A
:102C1000004401400048014000180040001C0040F2
:102C20000020004010B5846842EA032224F47F4467
:102C30000A432243826010BD826822F070020A4378
:102C400042F007018160704710B5036A046A24F0FE
:102C500001040462846924F0F00444EA021423F0BD
:102C60000A020A438461026210BD10B5036A23F0B0
:102C7000100303628369046A23F4704343EA023257
:102C800024F0A00343EA01118261016210BD00003B
:102C90000148FEF7DDBF00003401002010B5806B55
:102CA0000021C185C184FEF7D1FF10BD01680C3140
:102CB00051E8002F22F4907241E80023002BF5D157
:102CC0000168143151E8002F22F0010241E800238D
:102CD000002BF5D1016B012909D101680C3151E8B4
:102CE000002F22F0100241E80023002BF5D1202113
:102CF00080F83E1000210163704708B590F83E103F
:102D0000222901D0022008BD82684FF480539A42E4
:102D100001D1016921B1816A9A421BD04AB10AE00E
:102D20000268816A5268C2F308020A80816A891CBB
:102D300008E0026972B10268526802F07F020A700C
:102D4000816A491C8162C18D491E0904090CC18533
:102D500003D019E002685268F1E70168CA6822F0FE
:102D60002002CA600168CA6822F48072CA600168E1
:102D70004A6922F001024A61202180F83E10016B6D
:102D8000012903D0FFF732F9002008BD00210163BB
:102D900001680C3151E8002F22F0100241E80023B5
:102DA000002BF5D101680A68D20602D50A68496885
:102DB0000091818DFEF749FFE6E7000070B50446FB
:102DC00000680169E26821F4405111430161216901
:102DD000A068E26908436169114308432168CA6831
:102DE00049F20C639A430243CA6020684169A269B0
:102DF00021F440711143416131492068884202D079
:102E00003049884202D1FEF725FB01E0FEF712FBB4
:102E1000E2690023192164253226B2F5004F626869
:102E200028D0A0FB0101930F9200FDF77DFA014627
:102E3000B0FBF5F06FF01802504301EB800006EB99
:102E40000010B0FBF5F000F0F002B1FBF5F002EB82
:102E50000012B1FBF5F06FF01803584301EB80004E
:102E600006EB0010B0FBF5F000F00F0021681044F5
:102E7000886070BDA0FB010192185B41FDF754FA18
:102E80000146B0FBF5F00201B1FBF5F06FF018035D
:102E9000584301EB800006EBC000B0FBF5F000F0FA
:102EA000F80002EB4002B1FBF5F0584301EB800063
:102EB00006EBC000B0FBF5F000F00700D6E700001D
:102EC00000100140001401402DE9F04198461746DA
:102ED0000E460446069D27E0681C25D02DB1FEF75E
:102EE0001FF9A0EB0800A8421ED920680C3050E85A
:102EF000001F21F4D07140E80012002AF5D12068AB
:102F0000143050E8001F21F0010140E80012002AAF
:102F1000F5D1202084F83D0084F83E00002084F89C
:102F20003C000320BDE8F0812068006836EA00001C
:102F300004D00020B842CFD00020F3E70120F9E709
:102F40000148FEF785BE000078010020FEE7000082
:102F50002DED028B9FED0A8A0A4C00BFB0EE480AA5
:102F60000848FFF78BFDB4F90820B4F90A10B4F94A
:102F70000600002301F03AF80A2000F07BFAEDE7A2
:102F80000000C842D84A002010B504462DED028B3F
:102F90004FF07E51D0ED0F2A12EE900A9FED768A07
:102FA000884218DCF5EEC02AF1EE10FA13D394ED46
:102FB000103A13EE100A88420DDCB5EEC03AF1EE7D
:102FC00010FA08D394ED0D2AD4ED0C1AB4EEE12AD0
:102FD000F1EE10FA04D284ED058ABDEC028B10BD2F
:102FE00094ED0A0AD4ED0B0AB4EE600AF1EE10FA81
:102FF00004D121EE820A84ED050AEEE730EEC01A14
:10300000B5EEC01AF1EE10FA01DC30EE601A62EE95
:10301000023AF4EEC00A62EE812A23EE014A41EE42
:10302000E13A31EE623A73EE444AB0EE003A62EEB3
:10303000835A24EE036A83EEA55AD4ED0E3A63EE6A
:10304000A33AF0EE635A42EE425A85EE864AF1EE1A
:1030500010FA06DDD4ED185AF4EEC05AF1EE10FA6B
:1030600023D3F4EEC00AF1EE10FA06D2D4ED185ACA
:10307000F4EEC05AF1EE10FA17DCF4EEC00AF1EEED
:1030800010FA06DDD4ED185AF4EEE05AF1EE10FA1B
:103090000BDCF4EEC00AF1EE10FA09D2D4ED185AA6
:1030A000F4EEE05AF1EE10FA02D2C4ED051A3CE05B
:1030B000D4ED185A75EEC00AF5EEC00AF1EE10FA1A
:1030C00001DC70EE650AF4EEE20AF1EE10FA08D2C5
:1030D00021EEA10A25EE031A01EE200A10EE100AD5
:1030E00018E032EEA40AB4EEE00AF1EE10FA02DDC6
:1030F00084ED052A19E031EE600A64EE031AB5EE9C
:10310000C00AF1EE10FA01DC30EEC10A41EEC03A1D
:1031100013EE900A02F054F941EC100B00F040F865
:1031200051EC100B01F0BCFE606194ED0B0AD4ED84
:103130000A0AB4EEE00AF1EE10FA05D2D4ED050A5F
:10314000F1EE600AC4ED050AD4ED180A0B4830EE22
:10315000C00AB0EEC00A10EE101A814203DA012153
:10316000616484ED058A10EE101A81427FF745AF45
:103170000020606431E700000000000000004040D3
:103180000907090E002804DB00F1E02080F8001494
:10319000704700F00F0000F1E02080F8141D704728
:1031A00000B52DED048BB0EE409AF0EE609A83B03E
:1031B00051EC190B02F038F841EC180B18EE100A1C
:1031C00018EE901A8DED008B002818BF01200843DF
:1031D00020F00040C0F17F6000F1E040C00F14D04B
:1031E00019EE101A19EE900A8DED009B002918BFF8
:1031F0000121084320F00040C0F17F6000F1E04071
:10320000C00F04BF0120FDF782F9B0EE480A03B0F9
:10321000F0EE680ABDEC048B00BD000000B58BB079
:1032200000200121CDE90601089100900190029053
:1032300003900590049069460C48FDF793FA0B48FB
:10324000FDF7DAFD02210948FDF70CFA0E2009907E
:10325000059069460648FDF785FA0548FDF7CCFD5F
:1032600002210348FDF7FEF90BB000BD9C000020D1
:10327000C400002030B55C4B9A4258D104685B4BC7
:10328000A4F20124072C52D2DFE804F0040E131E2E
:103290002B3845000C8864BADC804C8864BA1C81E9
:1032A0008C8864BA5C8142E00C8864BA23F8764F5B
:1032B00003E00C8864BA23F8E64F4C8864BA5C805B
:1032C0008C8864BA9C8032E00C8864BAA3F85641BA
:1032D0004C8864BAA3F858418C8864BAA3F85A4160
:1032E00025E00C8864BAA3F8C6414C8864BAA3F8F8
:1032F000C8418C8864BAA3F8CA4118E00C8864BA43
:10330000A3F836424C8864BAA3F838428C8864BA71
:10331000A3F83A420BE00C8864BAA3F8A6424C88A2
:1033200064BAA3F8A8428C8864BAA3F8AA42304BC6
:103330009A4214D102682F48A2F20122072A0ED223
:10334000DFE802F0040E131E2B3845000A8852BA3B
:10335000C2804A8852BA0281898849BA418130BD07
:103360000A8852BA20F8762F03E00A8852BA20F869
:10337000E62F4A8852BA4280898849BA818030BD96
:103380000A8852BAA0F856214A8852BAA0F85821A1
:10339000898849BAA0F85A1130BD0A8852BAA0F8F3
:1033A000C6214A8852BAA0F8C821898849BAA0F82B
:1033B000CA1130BD0A8852BAA0F836224A8852BAD9
:1033C000A0F83822898849BAA0F83A1230BD0A8894
:1033D00052BAA0F8A6224A8852BAA0F8A822898830
:1033E00049BAA0F8AA1230BD9C000020D84A00209B
:1033F000C4000020E84D0020FDF7A0FEFFF750FBC1
:10340000FEF758FFFEF7F6FEFEF718FFFEF79AFFED
:10341000FEF7CCFFFEF7E6FF0F4901209FED101AE3
:103420000871DFED0E3AB0EE413AF2EE082A9FED58
:103430000D2AF6EE001ADFED0C0A9FED0C0A0421AE
:103440000B4800F073F9FFF7E9FE00F021F8FEF7F2
:1034500019FF00F02FF8FEE7D84A0020CDCC4C3EF3
:10346000000000000000804600008044000000468C
:10347000F850002010B5EFF3058111B16FF005048D
:1034800003E0002408B100F029FF204610BD000031
:10349000EFF3058010B16FF0050070470448016834
:1034A00011B14FF0FF3070470121016000207047DB
:1034B0006C00002010B5EFF3058010B16FF005002F
:1034C00010BD08480168012902D04FF0FF3010BD3F
:1034D000054A002182F8141D0221016000F066FFF8
:1034E000002010BD6C0000200BE000E02DE9FF4142
:1034F0004FEA01034FF00005EFF30581039549BB47
:1035000040B38027182100244AB3166806B1344618
:1035100096691EB13146761E382E02D21679F6070C
:1035200003D0002004B0BDE8F081566906B1B708A9
:10353000D2F808C0BCF1000F0DD0D5685C2D18D3AF
:1035400012693AB136B18DE806103A46214601F0CB
:10355000C6FA03900DE0D6685EB912694AB903AAAB
:10356000CDE90012BAB2214601F08CFA012800D050
:1035700003950398D6E70000F0EE401A00B531EE4F
:10358000E01AC0ED080AC0ED051A80ED0B1A90EDA7
:10359000162A01469FED640A71EEE00AB5EEC02AD4
:1035A000F1EE600AF1EE10FA0ED0B5EEC01AF1EEAF
:1035B00010FA02DDF0EE411A01E0F0EE601AF4EECE
:1035C000C21AF1EE10FA15DCD1ED151AF5EEC01A9B
:1035D000F1EE10FA11D0B5EEC01AF1EE10FA02DDDC
:1035E000B0EE412A01E0B0EE602AB4EEE12AF1EE3D
:1035F00010FA02D280ED0F0A00BD91F8443001F1BB
:103600003C000246042B02D0052B42D071E0D1EDE4
:10361000001A61EE811AC1ED0C1AD1ED141AF5EE03
:10362000C01AF1EE10FA06D191ED0D0AD1ED010AA2
:1036300000EE810A0BE0B5EEC01AF1EE10FA01DDE2
:10364000F0EE410AF4EEE10AF1EE10FAECD381ED6E
:103650000D0A91ED0A0AD1ED020A01F1340031EEB2
:10366000400A20EE200A81ED0E0A91ED130AFEF7C2
:103670001AFD91ED0C0AD1ED0D0A104630EE200A2C
:10368000D1ED0E0A30EE200A81ED0F0A91ED120AFB
:1036900029E091ED0A0AD1ED001AB0EE002A71EE90
:1036A000400A60EEA11AC1ED0C1AD1ED010A60EEDC
:1036B000810A00EE421AC1ED0D0A91ED090A71EE80
:1036C000A00A31EE000A91ED021A20EE010A81ED06
:1036D0000E0A30EE800AD1ED100A30EE200A81ED9C
:1036E0000F0A91ED120AFEF7DEFC91ED0F0A81ED53
:1036F000100A91ED0A0A81ED090A91ED0B0A81ED9C
:103700000A0A91ED070A81ED060A91ED080A81ED9A
:10371000070A91ED040A81ED030A91ED050A81ED96
:10372000040A91ED0F0A00BD0000000080F844106B
:1037300000F1480282EC050A9FED040A80ED100AB0
:1037400080ED0F0AC0EC032A704700000000000063
:103750002DE9F041134C0F460546E6682068001D30
:1037600000F088FC681C07D137B12168BDE8F04142
:103770000D48091D00F0CEBC20683544B5424560B7
:10378000216805D2A06BBDE8F041091D00F0AABC7C
:10379000606B091D00F0A6FCA06A854200D2A562FC
:1037A000BDE8F0811C000020F40600202DE9F04166
:1037B000054600F0BBFC2D4CA068401CA0602068B2
:1037C0002B4F10B1606930B32BE02560A068012851
:1037D00027D1002606EB860007EB800000F074FC82
:1037E000761C382EF6D3234800F06EFC21481430A6
:1037F00000F06AFC1F48283000F066FC1D483C3091
:1038000000F062FC1B48503000F05EFC1948606319
:103810001430A06305E02068E96AC06A884200D8D5
:103820002560606A401C60626864E86A21698842B9
:1038300000D9206100EB800007EB8000291D00F01B
:1038400069FC00F093FC606900280CD02068E96AEC
:10385000C06A884207D208494FF080500860BFF321
:103860004F8FBFF36F8FBDE8F08100001C00002078
:1038700044020020A406002004ED00E038B500F06A
:1038800055FC104C2068C8B90F4800F01DFC0E48CC
:10389000143000F019FC0C48E060143020610A4B31
:1038A0000020F03B009003F1500210210A2000F0AC
:1038B0008BFE206010B105A100F0DAFCBDE83840B5
:1038C00000F054BC58000020F8070020546D7251DD
:1038D0000000000030B4026C0B46002A0BD0C16817
:1038E0001144C1608468A14201D30168C16030BC49
:1038F0001846FCF790BD30BC70472DE9F041856B50
:10390000174604460026026C82B1C7B1E068FCF796
:1039100082FDE168206C091AE1602268914202D2BE
:10392000A168081AE060022F16D017E02068A8B935
:10393000A06801F077F906460020A0600EE06068FC
:10394000FCF769FD216C606808446060A1688842EA
:1039500004D32068606001E005B16D1E6D1CA56395
:103960003046BDE8F08110B5044690F8590058B1D2
:1039700001280CD002280FD0502080F31188BFF30B
:103980004F8FBFF36F8FFEE7206B00F003FC2046E4
:10399000BDE8104000F0FEBB10BD000010484FF421
:1039A0007051420706D0C01D0D4920F00700411A92
:1039B000C1F570510B4A00230144C2E900030839E4
:1039C000183A21F0070111604B600B600B1AC0E937
:1039D000001393604FF00040536050617047000047
:1039E000D80E002088000020144E154CA6F29C47EB
:1039F0004FF08058DFF84C9012E000BF00F096FBCB
:103A0000F068C568281D00F035FBA068401EA06066
:103A10006068401E606000F0A9FB2846FFF7A3FF26
:103A200060680028EAD138680128F9D9C9F800800F
:103A3000BFF34F8FBFF36F8FF2E70000E006002067
:103A40001C00002004ED00E070B51D46049C51B13F
:103A5000C4F80020C4E90F010121204600F0E8FD70
:103A600084F84C5070BD2460F4E700002DE9F05F4D
:103A70008846DDE90B941546834691009A460A9ED6
:103A8000A522206BFCF70CFD6FF00301206B01EB0E
:103A90008501084420F00707780707D0502080F3FD
:103AA0001188BFF34F8FBFF36F8FFEE70025B8F18A
:103AB000000F0FD05FF00000221818F8001082F8F5
:103AC000341018F8001011B1401C1028F4D384F8F9
:103AD000435001E084F83450382E00D33726E66294
:103AE000C4E91365201D00F0FAFA04F1180000F093
:103AF000F6FA2461C6F138006462A061656584F855
:103B0000585052465946384600F05AFA2060B9F1EA
:103B1000000F01D0C9F80040BDE8F09F30B5114951
:103B200000E011460A688242FBD34B685C1884426D
:103B300003D1406818444860084643681C18944202
:103B400009D1084C183C2468A24209D052681A4492
:103B500042600A6812680260814200D0086030BD8D
:103B60000460F9E78800002070B5002441600B4D27
:103B70000061914206D8D11A8269914206D2011D94
:103B8000286907E09A4203D2994201D3012403E055
:103B9000011DE86800F0A6FA204670BD580000201C
:103BA00010B5044600F0C2FAA06B28B15FF0000423
:103BB00000F0DCFA204610BD0124F9E730B589B0E9
:103BC0003C4D6EE00498002806DADDE90601059A0E
:103BD00090470498002864DB069C606910B1201DA2
:103BE00000F048FA03A800F0D7F8024604980A2823
:103BF00057D2DFE800F00505052D334A05052D33C2
:103C000094F8280040F0010084F828000599A06984
:103C1000059B01442046FFF7A7FF68B3216A2046B1
:103C2000884794F8280040073BD50020009005986D
:103C3000A169002342181946204601F0FDF8D8B9C1
:103C4000502080F31188BFF34F8FBFF36F8FFEE7D3
:103C500014F8280F20F00100207022E094F82800CA
:103C600040F0010084F828000598A06128B181186F
:103C700013462046FFF778FF13E0502080F31188A9
:103C8000BFF34F8FBFF36F8FFEE794F828008107D3
:103C900003D4204600F07EFA03E020F0010084F80F
:103CA0002800002204A9286800F016FE002889D107
:103CB00009B030BD580000202DE9FC410F460546F3
:103CC00000F0B8FB01A800F067F80446019818B1AD
:103CD00001F020F8BDE8FC81254EAFB130690068E5
:103CE000D0B30027291B3A46306800F0D5FA01F01E
:103CF00011F80028EED11F494FF080500860BFF343
:103D00004F8FBFF36F8FE5E7A542EBD801F002F8C4
:103D1000F0682746C068C468201D00F0ABF994F82D
:103D20002800410719D5A0692B4641193A4620467B
:103D3000FFF71AFFA8B100200346014600902A466B
:103D4000204601F079F860B9502080F31188BFF364
:103D50004F8FBFF36F8FFEE707E020F0010084F87C
:103D60002800216A20468847B4E70127BAE7000007
:103D70005800002004ED00E00648416B096829B1B5
:103D8000416BC968C9684968816270474FF0FF316B
:103D9000FAE700001C00002070B5054600F0D8FED0
:103DA000064E0446B068844203D200F009F80120B0
:103DB00000E0002028602046B46070BD580000205C
:103DC000F8B5194D20E0C068C4680668201D00F0F1
:103DD00051F9216A2046884794F82800400713D5F6
:103DE000A0693044B04206D924616060211DE868B2
:103DF00000F078F908E000200346014600903246C2
:103E0000204601F019F838B1E86801680029DAD1D4
:103E10002969C5E90310F8BD502080F31188BFF36C
:103E20004F8FBFF36F8FFEE75800002008484068AF
:103E3000401C4FF0500080F3118804D0BFF34F8F27
:103E4000BFF36F8FFEE7BFF34F8FBFF36F8FFEE7B8
:103E500090000020074CE068016841B1C068002173
:103E6000D0F80000FFF728FFFFF7A8FEF3E70121D5
:103E70000020F7E7580000202DE9F041044600F04B
:103E800055F994F9455004F1240609E0606A48B1F7
:103E9000304600F007FF08B100F04EFA6D1E6DB21B
:103EA000002DF3DC4FF0FF3684F8456000F05EF93A
:103EB00000F03CF994F9445004F1100709E020693E
:103EC00048B1384600F0EEFE08B100F035FA6D1E3C
:103ED0006DB2002DF3DC84F84460BDE8F04100F0E1
:103EE00045B900002DE9F0410546002700F0A2FA8F
:103EF000324E306808B9FFF751FD706905424ED166
:103F0000C5B3083568070ED005F00700C0F10800FA
:103F10000544680707D0502080F31188BFF34F8F06
:103F2000BFF36F8FFEE72DB37068854237D8234803
:103F3000183001460C6801E020460C466168A94231
:103F400002D221680029F7D131688C4227D0076856
:103F50002168016060680837411B10290FD960197A
:103F6000420708D0502080F31188BFF34F8FBFF372
:103F70006F8FFEE713E041606560FFF7CFFD61687A
:103F80007068401A7060B268904200D2B060706988
:103F900001430020C4E90001F068401CF06000F01B
:103FA000B9FE780707D0502080F31188BFF34F8FF8
:103FB000BFF36F8FFEE73846BDE8F0817000002048
:103FC00010B5031F4FF080741C601B1F21F001010E
:103FD0001960191F044B0B6014390A60091F6FF038
:103FE000020244380A6010BD2D3E00087FB51F480C
:103FF000AA2100220170FF214170F1218170082166
:10400000C1709DF8003003719DF8013043719DF837
:10401000043083719DF80530C3719DF80830037238
:104020009DF8093043729DF80C3083729DF80D3075
:10403000C3720C2400231546091D05E0C65C5B1CF9
:104040003244D2B21544EDB29942F7DC0255641CF9
:1040500005550025641C06E06423224603490448F4
:10406000FDF7C6FF6D1CA542F6DB7FBD085B002097
:1040700078010020D0E9013201699A60D0E901237A
:104080005A604A68824201D182684A600022026115
:104090000868401E0860086870470000034B036012
:1040A00003F15C0008608020106070472008002049
:1040B000044B036003F15C0008604FF480701060F3
:1040C000704700007C0A002000F108014FF0FF3229
:1040D000C0E90112C1600161002101607047002147
:1040E0000161704730B50B685A1C02D000F108021C
:1040F00002E0026904E02246546825689D42FAD92C
:1041000053684B6099608A60516008610168491C7E
:10411000016030BD42684A6093688B609368596063
:10412000916008610168491C01607047502080F36C
:104130001188BFF34F8FBFF36F8F0A494868401C47
:10414000486001280CD10848006810F0FF0F07D024
:10415000502080F31188BFF34F8FBFF36F8FFEE7BE
:10416000704700009000002004ED00E00849486816
:1041700028B1401E486001D180F31188704750205B
:1041800080F31188BFF34F8FBFF36F8FFEE70000FE
:104190009000002070B500282AD0164DA0F1080428
:1041A00060686969084207D1502080F31188BFF325
:1041B0004F8FBFF36F8FFEE722683AB1502080F334
:1041C0001188BFF34F8FBFF36F8FFEE788436060A6
:1041D00000F030F960686968084468602046FFF7BD
:1041E0009DFC2869401C2861BDE8704000F092BD2C
:1041F00070BD0000700000204FF0E0200021016140
:10420000816105494FF47A720968B1FBF2F1491EE8
:1042100041610721016170471800002010B5FCF7CB
:104220005FF8114910280ED300F1E02090F8F00358
:104230000A78904207D2502080F31188BFF34F8F45
:10424000BFF36F8FFEE709480068896800F4E060FB
:10425000884207D9502080F31188BFF34F8FBFF3F6
:104260006F8FFEE710BD0000900000200CED00E015
:1042700010B5084B002200BF53F832401CB1521C4D
:10428000082AF9D310BD43F8321003EBC20148608D
:1042900010BD00000402002070B515460E4604460D
:1042A000FFF744FF94F944100020491C01D184F821
:1042B000440094F94510491C01D184F84500FFF7EA
:1042C00055FFA06B28B92A46314604F1240000F0BE
:1042D00051F82046BDE87040FFF7CEBD10B5020092
:1042E00014D00F48006B38B1502080F31188BFF311
:1042F0004F8FBFF36F8FFEE700F09CF80021104650
:10430000FFF726FA00F006FD002807D105494FF017
:1043100080500860BFF34F8FBFF36F8F10BD000058
:104320001C00002004ED00E002490A6A0260C9682E
:10433000416070471C00002001490120C86170479E
:104340001C00002010B50C4650B10949096818310D
:10435000FFF7C8FE2046BDE810400121FFF7F8B97D
:10436000502080F31188BFF34F8FBFF36F8FFEE7AC
:104370001C00002070B514460D4668B10A49096852
:104380001831FFF7C7FE0CB14FF0FF352146284624
:10439000BDE87040FFF7DCB9502080F31188BFF30F
:1043A0004F8FBFF36F8FFEE71C00002030B587B042
:1043B0000024039405AA04A903A80494FFF76EFE41
:1043C000DDE903010094CDE90110002315A1174890
:1043D000059A00F084FB164D0028E8621FD000F01B
:1043E000FBFC012809D0401C19D1502080F3118812
:1043F000BFF34F8FBFF36F8FFEE7502080F311881C
:10440000BFF34F8FBFF36F8F4FF0FF30A8620120D3
:104410006861EC6007B0BDE8304000F045B807B017
:1044200030BD000049444C4500000000E939000857
:104430001C0000200248016B491C0163704700000A
:104440001C000020164810B5016B11B10121C1619B
:1044500010BD0021C1610169124A01E0B9B1491ED4
:1044600001EB810352F82330002BF7D001EB8103DD
:1044700002EB830202F1080453685B685360A342B5
:1044800001D15B685360DA680260016110BD5020A1
:1044900080F31188BFF34F8FBFF36F8FFEE70000EB
:1044A0001C000020440200201CB537480168374A30
:1044B000914207D1502080F31188BFF34F8FBFF393
:1044C0006F8FFEE700683149491E884207D15020AE
:1044D00080F31188BFF34F8FBFF36F8FFEE72C4936
:1044E00008780190FF20087008788DF800009DF88A
:1044F00000009DF8002000F0F000904207D050200E
:1045000080F31188BFF34F8FBFF36F8FFEE79DF8E5
:104510000000204C00F0500020700720A06005E053
:104520009DF8002052008DF80020401E9DF80020CC
:104530001206F5D4A060032807D0502080F311881C
:10454000BFF34F8FBFF36F8FFEE74FF44070A06053
:10455000019808700C482030016841F47001016036
:10456000016841F070410160FFF746FE0020606085
:10457000FBF77EFE0848016841F040410160FBF70F
:1045800063FE00201CBD000000ED00E071C20F4181
:1045900000E400E09000002034EF00E010B550206F
:1045A00080F31188BFF34F8FBFF36F8F00F0D6FAFF
:1045B00018B104494FF080500860002080F3118842
:1045C00010BD000004ED00E038B5049D18B153B1F2
:1045D000CAB181B120E0502080F31188BFF34F8F22
:1045E000BFF36F8FFEE7502080F31188BFF34F8F2A
:1045F000BFF36F8FFEE7502080F31188BFF34F8F1A
:10460000BFF36F8FFEE739B1502080F31188BFF3FD
:104610004F8FBFF36F8FFEE750241C46012384F8B1
:1046200046302B460094FFF70FFA204638BD0000B5
:1046300070B50D46040025D0FFF778FDD4E90F20B2
:10464000216802FB0011A1600021A1632168616063
:104650000A46D4E90F01401E00FB0121E16021461A
:104660004FF0FF3001F8440F487004F110008DB195
:10467000FFF72AFD04F12400FFF726FDFFF776FD82
:10468000012070BD502080F31188BFF34F8FBFF31E
:104690006F8FFEE721690029F0D000F003FB0028AE
:1046A000ECD004494FF080500860BFF34F8FBFF348
:1046B0006F8FE3E704ED00E02DE9FF4782B01D4670
:1046C0008A464FF00008040003D0BAF1000F08D06A
:1046D00011E0502080F31188BFF34F8FBFF36F8F2D
:1046E000FEE7206C38B1502080F31188BFF34F8F64
:1046F000BFF36F8FFEE7022D0AD1E06B012807D0D0
:10470000502080F31188BFF34F8FBFF36F8FFEE708
:1047100000F010FA3F4F4FF000094FF0805648B9B3
:10472000049838B1502080F31188BFF34F8FBFF346
:104730006F8FFEE7FFF7FAFCA06BE16B884207D3AF
:10474000022D05D00498D0B1B8F1000F1AD01EE0A8
:104750002A4651462046FFF7D0F8616A19B104F1A4
:10476000240000F09FFA20B13E60BFF34F8FBFF3EB
:104770006F8FFFF7FBFC012006B0BDE8F087FFF765
:10478000F5FC22E06846FFF7CFFD4FF00108FFF788
:10479000EDFCFFF74FFEFFF7C9FC94F94400401C05
:1047A00001D184F8449094F94500401C01D184F86B
:1047B0004590FFF7DBFC04A9684600F029F930B109
:1047C0002046FFF759FB00F0A5FA0020D4E7FFF7D9
:1047D000ADFCA06BE16B884213D1FFF7C7FC04F17D
:1047E00010000499FFF7AEFD2046FFF745FB00F0EF
:1047F00091FA00289ED13E60BFF34F8FBFF36F8FB9
:1048000098E7FFF7B3FC2046FFF736FB00F082FA8B
:1048100090E7000004ED00E02DE9F0471F469046C8
:104820008946040003D0B9F1000F08D011E05020F0
:1048300080F31188BFF34F8FBFF36F8FFEE7206CBB
:1048400038B1502080F31188BFF34F8FBFF36F8FC3
:10485000FEE7022F0AD1E06B012807D0502080F339
:104860001188BFF34F8FBFF36F8FFEE7FFF7D6FCC2
:104870005020EFF3118680F31188BFF34F8FBFF301
:104880006F8FA06BE16B884206D3022F04D000200B
:1048900086F31188BDE8F08794F94550A06B3A463D
:1048A00049462046FFF729F8681C04D06D1C84F89F
:1048B00045500120ECE7606A0028FAD004F124009A
:1048C00000F0F0F90028F4D0B8F1000FF1D0012188
:1048D000C8F80010EDE700002DE9F747002683B087
:1048E0008A46040003D0BAF1000F08D011E050202E
:1048F00080F31188BFF34F8FBFF36F8FFEE7206CFB
:1049000038B1502080F31188BFF34F8FBFF36F8F02
:10491000FEE700F00FF9DFF8F4804FF000094FF0E8
:10492000805748B9059838B1502080F31188BFF3FB
:104930004F8FBFF36F8FFEE7FFF7F8FBA56BC5B195
:1049400051462046FEF7C6FF6D1EA563206950B193
:1049500004F1100000F0A6F928B1C8F80070BFF308
:104960004F8FBFF36F8FFFF701FC012006B0BDE84A
:10497000F087059808B11EB106E0FFF7F7FB27E0C6
:104980006846FFF7D1FC0126FFF7F0FBFFF752FD69
:10499000FFF7CCFB94F94400401C01D184F844900B
:1049A00094F94500401C01D184F84590FFF7DEFBE7
:1049B00005A9684600F02CF8002820460AD0FFF729
:1049C0005BFA00F0A7F92046FFF7EAF80028B3D019
:1049D0000020CBE7FFF7E4F890B104F1240005993B
:1049E000FFF7B0FC2046FFF747FA00F093F90028E4
:1049F000A2D1C8F80070BFF34F8FBFF36F8F9BE752
:104A00002046FFF739FA00F085F995E704ED00E05C
:104A10002DE9F0410C46050011D0C4B1FFF786FB2B
:104A2000174BDA686E682068911B471C17D02F68F7
:104A30001B6A9F4219D0964217D8012410E05020DB
:104A400080F31188BFF34F8FBFF36F8FFEE75020C5
:104A500080F31188BFF34F8FBFF36F8FFEE7002401
:104A6000FFF784FB2046BDE8F081884205D9401A53
:104A700020602846FFF758FCF1E700202060DCE7C3
:104A80001C0000202DE9FF5F8346DDE90E87994673
:104A900016468A469000FFF725FA05001CD05C20D8
:104AA000FFF720FA040014D00020256384F8590091
:104AB000CDE90240CDE900874B4632465146584683
:104AC000FEF7D4FF2046FEF771FE012004B0BDE8DA
:104AD000F09F2846FFF75EFB4FF0FF30F6E7F0B59A
:104AE00085B0DDE90B640A9DA6B1DCB15C270097B7
:104AF0002663022684F85960002604AFCDE90246F9
:104B0000CDE90057FEF7B2FF2046FEF74FFE0498AE
:104B100005B0F0BD502080F31188BFF34F8FBFF375
:104B20006F8FFEE7502080F31188BFF34F8FBFF3E4
:104B30006F8FFEE70548416919B1006B18B100207D
:104B40007047012070470220704700001C000020C1
:104B50000148C068704700001C0000202DE9F041AA
:104B60002E4C0027206B28B1A069401CA06138465C
:104B7000BDE8F081E668761CE66013D1606B0068E2
:104B800038B1502080F31188BFF34F8FBFF36F8F80
:104B9000FEE7606BA16B6163A063206A401C20622A
:104BA000FFF7EAF8A06ADFF87880864209D3606BE5
:104BB0000068A0B1606BC068C5686868864211D2A1
:104BC000A0622068C06A00EB800158F8210001282B
:104BD00000D90127E0690028C9D00127C7E74FF0B5
:104BE000FF30EDE7281DFFF745FAA86A18B105F177
:104BF0001800FFF73FFAE86A2169884200D920616E
:104C000000EB800108EB8100291DFFF783FAE86AB9
:104C10002168C96A8842CAD30127C8E71C0000205E
:104C20004402002070B504004FF0000133D01B4D4A
:104C30002868844207D0502080F31188BFF34F8F3B
:104C4000BFF36F8FFEE7206D38B1401E2065E36C27
:104C5000E26A9A421FD040B11DE0502080F31188D3
:104C6000BFF34F8FBFF36F8FFEE7201DFFF702FAF0
:104C7000E06CE062C0F13800A061E06A2969884216
:104C800000D92861064900EB800001EB8000211D5E
:104C9000FFF740FA0121084670BD00001C0000200B
:104CA0004402002070B5C068C46854B104F1180013
:104CB0000646FFF7DFF9144D286B50B13146134813
:104CC00015E0502080F31188BFF34F8FBFF36F8F33
:104CD000FEE7201DFFF7CEF9E06A2969884200D976
:104CE00028610B4900EB800001EB8000211DFFF7DC
:104CF00011FAE06A2968C96A884202D90120E8618C
:104D000070BD002070BD00001C000020CC060020FB
:104D1000440200202DE9F0472C4D00242746286B43
:104D200038B1FFF703FA286B401E2863286B40B1A7
:104D300046E0502080F31188BFF34F8FBFF36F8F91
:104D4000FEE7A968224E0120D1B3A6F591698046FD
:104D50003068E0B1F068C46804F11800FFF78AF920
:104D6000201DFFF787F9E06A2969884200D9286188
:104D700000EB800109EB8100211DFFF7CBF9E06A10
:104D80002968C96A8842E3D3C5F81C80E0E70CB102
:104D9000FEF7F2FFAC694CB14FEA0806FFF7DEFE02
:104DA00000B1EE61641EF9D10020A861E86938B154
:104DB0000849012738070860BFF34F8FBFF36F8F93
:104DC000FFF7D4F93846BDE8F08700001C0000204A
:104DD000CC06002004ED00E010B586B0FEF74EFDD5
:104DE000114C2068B8B100200390049005AA04A9D2
:104DF00003A8FFF75DF9DDE9032102208DE8070034
:104E000000230AA10B48059AFFF769FE606010B104
:104E100006B0012010BD502080F31188BFF34F8FE2
:104E2000BFF36F8FFEE7000058000020546D722022
:104E300053766300553E00082DE9FF411E46134698
:104E400002000A9D4FF0000016D0144C2768002F76
:104E50000FD0CDE900130292062917DAFFF76AFE98
:104E600002284FF000030FD0002269462068FFF7A8
:104E700023FC04B0BDE8F081502080F31188BFF31B
:104E80004F8FBFF36F8FFEE72A46EEE700233246CF
:104E900069463846FFF7C0FCEBE7000058000020E9
:104EA00021F00042A2F16052B2F5801F01F00043F0
:104EB00028BFD2F17F6C0BD95FEA001C43EAC20223
:104EC00042EB507018BF704728BF20F001007047B8
:104ED000B2F5801FBCBF184670474FEA410C1CF565
:104EE000001F02D2084600F0E1BA70B500F012F9D6
:104EF00000000089FFF7F6BF4FF00040A0F58000EA
:104F00007047491058BFC1F140415B1058BFC3F111
:104F100040438B42EFF30080704710F0004248BFDF
:104F20004042B0FA80F310FA03F10AD0C3F11D0336
:104F300003F580634FEA415002EB035202EBD121AB
:104F400070474FF00000704751EA030C17D41CF56E
:104F5000801F58BFBCF5801F00F10680994218BF22
:104F6000704708BF9042704707D711F5801F58BFA0
:104F700013F5801F19D499427047894270471CF578
:104F8000801F08D5BCF5801FF7D58B4218BF70472E
:104F900008BF824270474FF4001C1CEB410F38BF22
:104FA0001CEB430F01D28B42704770B500F0B2F892
:104FB000922449004FF000514FF08053FFF7A1BFFA
:104FC000DFF848C170B51CEA111E1EBF1CEA13159C
:104FD0009EEA0C0F95EA0C0F00F06F8081EA030443
:104FE00023EA4C134EEAD47E21EA4C1141F480119D
:104FF00043F48013AE44A1FB024CA0FB0365AEF169
:105000007F7E361955EB0C05A1FB034C4CF10003D8
:10501000A0FB021C16EB0C06654153F1000309428C
:1050200018BF46F0010613F4007F0BD14FEA03319D
:105030004FEA0530340341EA155140EA16506FF04B
:1050400003020AE04FEAC3214FEAC520F40241EA15
:10505000555140EA56506FF0020202EB2E4201EB2E
:10506000025585EACE710AD05FEA440C18BF24F0DD
:10507000004450F1000041F1000120EAD47040F2F8
:10508000FE7C624500D270BDA84214BF4FF0804440
:105090004FF04044002E08BF0024BEF1806FA8BF2F
:1050A000A1F1C041BDE8704080F282804FF0000065
:1050B00001F1C04101F0004170479EEA0C0F0CEA7B
:1050C000131518BF95EA0C0F06D04FF0000081EAC7
:1050D000030E0EF0004170BD00F01CF88900013E87
:1050E00000F007B800F009B84FEA430C5FEA5C5CD7
:1050F00008D081EA030100F05BB84FEA410C5FEA97
:105100005C5CF6D14FF00000014970470000FF07DA
:105110000000F87F0EF1020E2EF0030E5EF8046B15
:10512000364205D4012A43EB030515F5001F12D8BA
:10513000012841EB010C1CF5001F0CD80ED14FEAE1
:10514000D17C15F5001F0CEB4C0C0CF1020C08BFC8
:105150004CEBD37C04E04FF0080C01E04FEAD37C29
:105160000CEB4C0526FA05F606F00706B6F1040C22
:1051700006D20EEB860CBDE870404CF0010C604787
:10518000DFE80CF0090B02024FF000414FF0000085
:10519000A1F5002170BD19461046012851EB01040C
:1051A00018BFD4F5001484BF002001F0004170BD89
:1051B0000808A0F500114FEA3101704753EA010CCD
:1051C00017D41CF5801F58BFBCF5801F00F1068066
:1051D0008B4218BF704708BF8242704707D713F54C
:1051E000801F58BF11F5801F19D48B4270479B4216
:1051F00070471CF5801F08D5BCF5801FF7D5994274
:1052000018BF704708BF904270474FF4001C1CEB5A
:10521000430F38BF1CEB410F01D2994270470FB4C6
:105220000CBC03BCFFF7C1BE2DE9F04101F5801CA9
:10523000BCF5001FC0F2A9804FEA115C21EA0C51B5
:105240000CF1FD0C41F480115FEA5C0C0CF5C07CA4
:1052500001D34000494130A4890241EA90518702BC
:105260008E0E0A0CA45D04FB04F602FB06F6C6F1E2
:105270004046A4FB0662F60D46EA422606FB06F40B
:10528000A4FB01235242C3F1404338BF5B1EA6FB7F
:1052900002420024E6FB0324D20B42EA4446A6FB6A
:1052A0000623A1FB02E2A3FB07E4E3FB61426442A5
:1052B000C2F1404E38BFAEF1010EA6FB04234FF001
:1052C0000002E6FB0E32A2FB03463400E2FB6264FE
:1052D000A1FB06E6A4FB07E8E4FB61687642C8F19F
:1052E000405838BFA8F10108A2FB06E4A3FB08E57B
:1052F000E2FB6854A1FB05E6A7FB04E8E1FB64863A
:1053000018F1200556F10006A809A8F11B08B109FB
:1053100008F03F08B8F10A0F40EA86601CD901EB9B
:105320000C51BDE8F08100BFFCF5EEE8E2DDD8D31A
:10533000CFCBC7C3C0BDB9B6B4B1AEACA9A7A5A306
:10534000A19F9D9B9A9896959392908F8D8C8B8917
:105350008887868584838281A0FB006800FB01F238
:1053600008EB4208B8EB872807D5341858EB01043E
:10537000D5D5401C51F10001D1E7341A78EB010476
:10538000CDD4401E71F10001C9E75FEA4C0C5FEA21
:105390009C5C0DD105D34FF0000001F00041BDE849
:1053A000F081BDE8F04170B5FFF7B4FE6DDBFFBEE4
:1053B000BDE8F0414FF00000004970470000F87F61
:1053C00043004FEAD30C4FEA3C0C43401FBF400759
:1053D0000CF1605113F0FE4F70471CF0006F03D1C9
:1053E00000200CF0004170470CF0004343EA50707D
:1053F00010B540EACC0000F00EF800BF00000092AB
:105400004FEA0001FFF7D4BE4FF000414FF000001B
:10541000A1F5002170470EF1020E2EF0030E5EF88A
:10542000044B244204D44FEA4102B2F17F4F11D819
:105430004FEA4003B3F17F4F0CD80ED14FEAD07C36
:10544000B2F17F4F0CEB4C0C0CF1020C08BF4CEB93
:10545000D17C04E04FF0080C01E04FEAD17C0CEB6A
:105460004C0324FA03F404F00704B4F1040C06D24C
:105470000EEB840CBDE810404CF0010C6047DFE8F7
:105480000CF0070802024FF00040A0F5800010BDAC
:105490000846420018BFD2F1807288BF00F0004079
:1054A00010BD4FF04070E1EE100A7047FF2141EA55
:1054B000D050C005704700002055000800000000D3
:1054C00000000000000000000000000000080000D4
:1054D000180000000000000000000000185500083F
:1054E00000000000000000000000000000000000BC
:1054F000000800000800000000000000000000009C
:105500000000000000000000010203040607080973
:1055100000000000010203045573657200000000E2
:105520004D6F746F720000004855000800000020A5
:105530009C000000C4010008E45500089C00002005
:10554000EC600000E0010008000000000000000026
:10555000000000000100000010000000000000003A
:105560000024F40000000000000000000000000023
:10557000000000000000000000000000000000002B
:10558000000000000000000000000000000000001B
:10559000000000000000000000000000000000000B
:1055A00000000000000000000000000000000000FB
:1055B00000000000000000000000000000000000EB
:1055C00000000000000000000000000000000000DB
:1055D000000000000000000000000000AAAAAAAA23
:0455E00000000000C7
:040000050800018965
:00000001FF
