:020000040800F2
:1000000010510020E9020008931B0008F9190008AC
:10001000911B000821060008752000080000000060
:10002000000000000000000000000000290200089D
:10003000230600080000000085020008BD1B000820
:100040000303000803030008030300080303000878
:100050000303000803030008030300080303000868
:100060000303000803030008030300080303000858
:100070000303000803030008030300080303000848
:100080000303000803030008030300080303000838
:100090000303000803030008030300080303000828
:1000A0000303000803030008030300080303000818
:1000B0007D1C0008891C00080303000803030008D6
:1000C00003030008030300080303000803030008F8
:1000D0000303000869200008030300080303000865
:1000E00003030008030300080303000803030008D8
:1000F00003030008030300080303000803030008C8
:1001000003030008030300080303000803030008B7
:1001100003030008030300080303000803030008A7
:100120000303000803030008030300080303000897
:100130000303000803030008030300080303000887
:100140000303000803030008030300080303000877
:100150000303000803030008030300080303000867
:100160000303000803030008030300080303000857
:100170000303000803030008030300080000000055
:10018000030300080303000800F002F800F03CF845
:100190000AA090E8000C82448344AAF10107DA45E2
:1001A00001D100F031F8AFF2090EBAE80F0013F0F8
:1001B000010F18BFFB1A43F001031847AC370000CA
:1001C000CC370000103A24BF78C878C1FAD852075B
:1001D00024BF30C830C144BF04680C6070470000C1
:1001E0000023002400250026103A28BF78C1FBD840
:1001F000520728BF30C148BF0B6070471FB503F0DE
:1002000089FB1FBD10B510BD00F0D4F91146FFF7F2
:10021000F5FF01F040FF00F0F2F903B4FFF7F2FF41
:1002200003BC00F0F7F900002C4B19680868B0E82F
:10023000F04F80F30988BFF36F8F4FF0000080F319
:10024000118870470000000008480068006880F3CB
:1002500008884FF0000080F3148862B661B6BFF3DF
:100260004F8FBFF36F8F00DF00BF00BF08ED00E0CE
:10027000DFF80C00016841F470010160704700BFB5
:1002800088ED00E0EFF30980BFF36F8F134B1A681E
:100290001EF0100F08BF20ED108A20E9F04F10600B
:1002A00009B44FF0500080F31188BFF34F8FBFF3B4
:1002B0006F8F02F001FE4FF0000080F3118809BC3F
:1002C00019680868B0E8F04F1EF0100F08BFB0ECD6
:1002D000108A80F30988BFF36F8F704718000020E1
:1002E000EFF3058070470000094880470948004740
:1002F000FEE7FEE7FEE7FEE7FEE7FEE7FEE7FEE7D6
:10030000FEE7FEE704480549054A064B7047000032
:100310006D1C000889010008104B002010510020BE
:10032000104D0020104D002053EA020C00F06980AF
:100330002DE9F04B4FF00006002B1FBFB3FA83F5F9
:1003400003FA05F424FA05F65E4012BF1643B2FA2A
:1003500082F502FA05F4C5F120051EBF22FA05FC5C
:1003600044EA0C04203556EA044C4FEA144418BF02
:10037000641C4FF000084FF00009904271EB030C31
:1003800039D3002919BFB1FA81F701FA07F6B0FA9B
:1003900080F700FA07F6C7F120071EBF20FA07FC16
:1003A00046EA0C062037B6FBF4FCA7EB0507103F26
:1003B00007F01F0BCBF120060CFA0BFB2CFA06F60C
:1003C00044BFB3460026202FA4BF5E464FF0000B6B
:1003D0005BEA060C08BF4FF0010B19EB0B09ABFBF6
:1003E000027C48EB0608C01B06FB02CC0BFB03CCCF
:1003F00071EB0C01C1E70B46024641464846BDE899
:10040000F08B13B54FF000004FF00001AFF3008008
:10041000BDE81C407047032A40F2308010F0030C06
:1004200000F0158011F8013BBCF1020F624498BF47
:1004300011F801CB00F8013B38BF11F8013BA2F1E4
:10044000040298BF00F801CB38BF00F8013B11F05F
:10045000030300F05780083AC0F0088051F8043BCD
:10046000083A51F804CBA0E80810F5E7121D5CBF6C
:1004700051F8043B40F8043BAFF30080D20724BF9F
:1004800011F8013B11F801CB48BF11F8012B24BF33
:1004900000F8013B00F801CB48BF00F8012B704782
:1004A00002F0FF0343EA032242EA024200F05EB890
:1004B0004FF0000200B5134694469646203922BFFD
:1004C000A0E80C50A0E80C50B1F12001BFF4F7AF48
:1004D000090728BFA0E80C5048BF0CC05DF804EB2A
:1004E000890028BF40F8042B08BF704748BF20F898
:1004F000022B11F0804F18BF00F8012B7047704796
:100500007047704710B5203AC0F00B80B1E8185022
:10051000203AA0E81850B1E81850A0E81850BFF4ED
:10052000F5AF5FEA027C24BFB1E81850A0E818508C
:1005300044BF18C918C0BDE810405FEA827C24BFE0
:1005400051F8043B40F8043B08BF7047D20728BF6E
:1005500031F8023B48BF11F8012B28BF20F8023BBD
:1005600048BF00F8012B70474FF000020429C0F08B
:10057000128010F0030C3FF49DAFCCF1040CBCF1E1
:10058000020F18BF00F8012BA8BF20F8022BA1EB27
:100590000C01FFF78FBF5FEAC17C24BF00F8012B7D
:1005A00000F8012B48BF00F8012B70470048704746
:1005B000B04A00207546FFF7F9FFAE4605006946D0
:1005C000534620F00700854618B020B5FFF79AFE85
:1005D000BDE820404FF000064FF000074FF0000844
:1005E0004FF0000B21F00701AC46ACE8C009ACE8C5
:1005F000C009ACE8C009ACE8C0098D46704710B529
:100600000446AFF300802046BDE81040FFF705BE6A
:100610007047000001491820ABBEFEE7260002002B
:10062000FEE7704772B6FEE770B5040003D094F899
:10063000200010B104E0012070BD204600F082F8D7
:100640002068016841F00101016000F03DFA0546B3
:10065000052604E000F038FA401B0A2811D820686B
:100660004068C007F6D02068016821F002010160EF
:1006700000F02AFA05460BE000F026FA401B0A2893
:1006800006D9606A40F40030606284F82060D2E7E6
:10069000206840688007EFD4207E01282068016828
:1006A0003DD021F080010160607E01282068016852
:1006B00038D021F040010160A07E01282068016847
:1006C00033D021F020010160E07E0128206801681C
:1006D0002ED041F010010160207F012820680168C0
:1006E00029D021F008010160607F0128206801689D
:1006F00024D021F004010160D4E902010843D4E9C7
:100700000412114308436168491E08432168C86107
:1007100000206062012084F82000002070BD41F0BC
:100720008001C0E741F04001C5E741F02001CAE780
:1007300021F01001CFE741F00801D4E741F00401B6
:10074000D9E70000F0B587B0044614216846FFF7EA
:10075000AFFE2E4B2E48DFF8B0E01968D4F800C089
:100760002B4A02250326092710300024491CF44592
:1007700019D11960012907D1016841F000710160A8
:10078000006800F000700590106840F001001060F3
:100790001068694600F0010005904FF4C050CDE9A3
:1007A00000051C4828E0DFF870E0F44529D1D0F8B6
:1007B00000C04CF0806CC0F800C0D0F800C0012927
:1007C0000CF0806CCDF814C0196007D1016841F0BD
:1007D00000710160006800F000700590106840F042
:1007E000020010601068694600F0020005904FF4A6
:1007F0004050CDE90005094802AB83E8D00000F085
:100800006BF807B0F0BD0000006400400400002059
:1008100030380240000002400068004000040240FE
:100820002DE9F0410446876D00F04EF9064694F834
:1008300035000025022806D08020606584F83450F9
:100840000120BDE8F0812068016821F016010160F7
:100850002068416921F080014161206C08B9A06CD9
:1008600020B12068016821F008010160206801685A
:1008700021F0010101600CE000F026F9801B052841
:1008800007D920206065032084F8350084F83450AF
:10089000D7E720680068C007EED194F85C103F20CD
:1008A0008840B860012084F8350084F83450002076
:1008B000C7E790F83510022903D080214165012057
:1008C0007047052180F835100068016821F00101AA
:1008D00001600020704700002DE9F84FDFF8BCA14F
:1008E0000022012503264FF00F090AF1040BAAF19B
:1008F000040E00BF0B6805FA02F42340A34270D136
:100900000F7907F00307012F01D0022F16D1876856
:100910004FEA420806FA08FC27EA0C07D1F80CC097
:100920000CFA08FC4CEA070CC0F808C04768A7435B
:100930000C79C4F3001494403C4344600C79E443C4
:10094000A4070AD0C4684FEA420C06FA0CF7BC436D
:100950008F6807FA0CF72743C7600C7904F003048B
:10096000022C12D1D40800EB840CDCF8204057078D
:10097000FF0E09FA07F824EA0804D1F8108008FAF3
:1009800007F848EA0408CCF8208004684FEA420CD3
:1009900006FA0CF7BC430F7907F0030707FA0CF7C8
:1009A000274307604C6814F4403F70D03C4C2768E4
:1009B00047F480472760246822F0030704F480444A
:1009C0000094384C07EB040CDCF8084897074FEA12
:1009D000177809FA08F7BC43334FB84202D1002711
:1009E00024E054E0314FB84201D101271EE0304FDE
:1009F000B84201D1022719E02E4FB84201D1032796
:100A000014E02D4FB84201D104270FE02B4FB8421C
:100A100001D105270AE02A4FB84201D1062705E097
:100A2000284FB84201D1072700E0082707FA08F746
:100A30002743CCF80878DAF800405746D1F804C0CC
:100A40009C435FEACC2C00D51C433C60DBF80040A3
:100A50005F46D1F804C09C435FEA8C2C00D51C4350
:100A60003C60DEF800407746D1F804C09C435FEA62
:100A70008C3C00D51C433C60084F083F3C68D1F8D3
:100A800004C09C435FEACC3C00D51C433C60521C34
:100A9000102AFFF42FAFBDE8F88F0000083C01409A
:100AA000443802400030014000000240000402408F
:100AB00000080240000C02400010024000140240F6
:100AC00000180240001C0240014880687047000086
:100AD0000800002002488168027811448160704754
:100AE000080000200B4810B5016841F40071016056
:100AF000016841F480610160016841F48071016026
:100B0000032000F09FF80F2000F006F800F050F8E6
:100B1000002010BD003C024030B505461F4887B09C
:100B20000024016841F002010160006806A900F09C
:100B30000200009001A800F031F90498A8B100F07B
:100B40004DF940001649174AB0FBF1F11648491E0D
:100B5000026040F2E732C0E90324C0E90114846175
:100B600000F08EFB040003D015E000F037F9E9E750
:100B70000D4800F0CFFB04000DD11D2000F034F82B
:100B8000102D07D2002229461D2000F03BF807480F
:100B9000056000E0012407B0204630BD4038024027
:100BA00040420F0000040040740100200C000020AF
:100BB0000C4882B0016841F480410160006800F493
:100BC000804000900748001F016841F0805101609B
:100BD0000068002200F0805000900F21901E02B0AB
:100BE00000F010B844380240002809DB00F01F0272
:100BF000012191404009800000F1E020C0F800117F
:100C000070470000F0B40E4B1B680C46C3F3022380
:100C1000C3F10705042D00D90425191D072901D2A8
:100C2000002300E0DB1E012606FA05F1491E2140E3
:100C300099409E40761E16403143F0BC01F01BBA2D
:100C40000CED00E0064900F0070208684FF6FF03CC
:100C5000184040EA0220034A104308607047000031
:100C60000CED00E00000FA052DE9F0470E46050006
:100C700065D0DFF81481D8F80000F7B200F0070063
:100C8000B04207D288F80070D8F8000000F00700E2
:100C9000B04254D128683D4C810712D5400703D596
:100CA000206840F4E05020602878000703D52068D1
:100CB00040F4604020602068A96820F0F0000843FC
:100CC00020602878C0072DD030496868083901288D
:100CD00012D0022813D0032811D0096889070029EF
:100CE0002DDA216821F0030101432160FFF7ECFEBA
:100CF000814641F2883A0EE009688903EFE7096806
:100D00008901ECE7FFF7E0FEA0EB0901514502D9AC
:100D10000320BDE8F0872068696800F00C00B0EBA4
:100D2000810FEFD1D8F80010404601F00701B14221
:100D300007D90770006800F00700B04201D0012019
:100D4000E7E72878400705D52068E96820F4E050F7
:100D5000084320602878000706D52068296920F418
:100D6000604040EAC100206000F058F82168084A5D
:100D7000C1F30311515CC840064908600648006889
:100D8000FFF7CAFE0020C4E7003C024008380240DA
:100D900044390008140000200C0000200F220260DB
:100DA0000C4A136803F003034360136803F0F00375
:100DB0008360136803F4E053C36012684FF4E05398
:100DC00003EAD20202610448006800F007000860EC
:100DD0007047000008380240003C024004480549C2
:100DE00000680968044AC1F38221515CC840704719
:100DF000140000200838024054390008044805490E
:100E000000680968044AC1F34231515CC840704728
:100E1000140000200838024054390008154810B565
:100E2000006810F00C02144813D01449042A0FD0A3
:100E3000082A0ED10F4C241F2268236802F03F02BB
:100E40005B0207D52068C0F38810A0FB010106E013
:100E5000084610BD2168C1F38811A1FB00010023E1
:100E6000FFF762FA2168C1F30141491C4900B0FB58
:100E7000F1F010BD083802400024F40040787D01F4
:100E80002DE9F84F04006ED02078DFF84C93C007AE
:100E9000A9F104054AD009F104000168C1F38101F8
:100EA000012908D00068C0F3810002280AD1D9F8CE
:100EB0000000400206D52868800337D56068002806
:100EC000E1D033E06068B0F5803F10D0B0F5A02FDE
:100ED000286810D020F480302860286820F4802012
:100EE00028606068A8B1FFF7EFFD06460DE02868AE
:100EF00040F48030F4E740F480202860F7E700BF3A
:100F0000FFF7E2FD801B642873D828688003F7D5BB
:100F10000CE0FFF7D9FD064605E000BFFFF7D4FD62
:100F2000801B6428F0D828688003F7D42078DFF885
:100F3000AC8280074FF0000A3ED5A748001D01682B
:100F400011F00C0F08D00068C0F3810002280BD10B
:100F5000D9F80000400207D42868800716D5E06859
:100F6000012800D112E033E1E068B8B10120C8F8EF
:100F70000000FFF7A9FD064605E000BFFFF7A4FD4E
:100F8000801B0228C0D828688007F7D52868216907
:100F900020F0F80040EAC10028600DE0C8F800A089
:100FA000FFF792FD064604E0FFF78EFD801B022846
:100FB0001FD828688007F7D42078000722D5864FED
:100FC00087486169703771B101210160FFF77CFDCD
:100FD000064604E0FFF778FD801B022809D8386830
:100FE0008007F7D50EE0C0F800A0FFF76DFD0646BC
:100FF00005E082E0FFF768FD801B02287DD8386895
:101000008007F7D42078400768D5DFF8CCB10027F7
:101010000BF13C0BDBF80000C0000BD4DBF8001038
:1010200041F08051CBF80010DBF80000012700F000
:10103000805000906B4E3068C00510D4306840F48A
:1010400080703060FFF740FD009005E0FFF73CFD49
:101050000099401A022850D83068C005F6D55E4E77
:10106000A0686C3601280FD00528306810D020F019
:1010700001003060306820F004003060A068B8B132
:10108000FFF722FD00900FE0306840F00100F4E728
:1010900040F004003060F7E7FFF716FD0099411AB1
:1010A00041F28830814266D830688007F4D50EE07E
:1010B000FFF70AFD009007E0FFF706FD0099411ACF
:1010C00041F28830814256D830688007F4D42FB17D
:1010D000DBF8001021F08051CBF80010A069C8B3F4
:1010E0003D49091D0968C1F3810102294AD002283E
:1010F000504607D0C8F8600000E03CE0FFF7E4FC91
:1011000004463BE04746C8F86000FFF7DDFC0646B2
:1011100005E000BFFFF7D8FC801B02282BD8286809
:101120008001F7D4D4E907010843A16A2E4A49088F
:1011300002EB0141626A41EA8211084394F82C10E3
:1011400040EA0161C9F8001001203866FFF7BCFCD5
:10115000044606E03EE000BFFFF7B6FC001B022895
:1011600009D828688001F7D534E000BFFFF7ACFC50
:10117000001B022802D90320BDE8F88F28688001EF
:10118000F4D427E00128F7D0D9F80000E26900F490
:10119000800191421CD1226A00F03F01914217D197
:1011A00047F6C071626A0140B1EB821F10D1A26A9A
:1011B0004FF0FF3300F4403103EB5202B1EB024F2A
:1011C00006D194F82C1000F07060B0EB016F01D0E4
:1011D0000120D1E70020CFE7043802400000474259
:1011E000800E4742007000400000FFFF70477047CC
:1011F00070B590F83C20012A32D0012480F83C40A0
:10120000022280F83D2003685A689D6822F070062B
:101210000A6832435A60134B02689A4214D0B2F102
:10122000804F11D0104B9A420ED0104B9A420BD0E7
:101230000F4B9A4208D00F4B9A4205D00E4B9A4260
:1012400002D00E4B9A4204D1496825F0800319431D
:10125000916080F83D40002180F83C10084670BD48
:10126000022070BD00000140000400400008004062
:10127000000C004000040140004001400018004004
:1012800010B5040003D094F83D0010B107E0012030
:1012900010BD002084F83C00204600F01FF802201A
:1012A00084F83D00211D206800F0F4FC012084F842
:1012B000460084F83E0084F83F0084F8400084F83B
:1012C000410084F8420084F8430084F8440084F824
:1012D000450084F83D00002010BD000008B50068FE
:1012E000B0F1804F12D10A48016841F0010101605C
:1012F0000068002200F00100009005211C20FFF78B
:1013000081FCBDE808401C20FFF76EBC08BD000052
:101310004038024090F83D10012901D0012070476B
:10132000022180F83D100168CA6842F00102CA60DB
:1013300000681149884214D0B0F1804F11D00F4994
:1013400088420ED00E4988420BD00E49884208D000
:101350000D49884205D00D49884202D00C49884287
:1013600004D1816801F00701062903D0016841F02A
:1013700001010160002070470000014000040040AE
:1013800000080040000C0040000401400040014003
:101390000018004070B5044690F83C000025012874
:1013A00017D0012684F83C60022084F83D002068B4
:1013B000826822F0770222F47F4282600868502817
:1013C00038D00DDC20284FD005DC90B3102811D187
:1013D0004AE0022070BD302846D040280AD13BE0C8
:1013E00060282FD070280DD0B0F5805F03D0B0F505
:1013F000005F12D0012584F83D60002084F83C0095
:10140000284670BDCB68D1E90121206800F0A6FC18
:101410002068816841F0770109E0CB68D1E90121BA
:10142000206800F09BFC2068816841F48041816065
:10143000E1E719E0CA684968206800F0A1FC502182
:10144000206806E0CA684968206800F0AAFC6021AC
:10145000206800F08DFCCEE7CA684968206800F07B
:101460008FFC40212068F4E7226801461046F0E72F
:10147000704770B50446006801694FF00005C94324
:10148000890715D4C168C943890711D4E91E0161D0
:1014900001202077206880698007204602D0FFF76E
:1014A000E7FF04E000F098F8204600F096F8257772
:1014B00020680169C943490717D4C168C94349076E
:1014C00013D46FF004010161022020772068806945
:1014D00010F4407F204602D0FFF7CAFF04E000F07E
:1014E0007BF8204600F079F8257720680169C94328
:1014F000090716D4C168C943090712D46FF008015F
:101500000161042020772068C0698007204602D04E
:10151000FFF7AEFF04E000F05FF8204600F05DF852
:10152000257720680169C943C90617D4C168C94332
:10153000C90613D46FF010010161082020772068DC
:10154000C06910F4407F204602D0FFF791FF04E00D
:1015500000F042F8204600F040F825772068016945
:10156000C943C90708D1C168C943C90704D1891E45
:101570000161204600F032F820680169C94309067C
:1015800009D4C168C943090605D46FF0800101611F
:101590002046FFF72BFE20680169C943490609D49C
:1015A000C168C943490605D46FF040010161204676
:1015B00000F01EF820680169C94389060BD4C16890
:1015C000C943890607D46FF0200101612046BDE8B8
:1015D0007040FFF70CBE70BD70477047006803494C
:1015E000884201D1FFF776BA70470000000400403E
:1015F0007047704770470000F8B5016804460868F6
:10160000CA684B6910F00F0F4FF0000559D003F076
:10161000010602F49077374365D0C10705D0D105A4
:1016200003D5216C41F001012164410705D5D9079B
:1016300003D0216C41F002012164810705D5D9074F
:1016400003D0216C41F004012164010707D502F0A9
:101650002001314303D0216C41F008012164216C49
:1016600000293AD0800604D5900602D5204600F025
:10167000D9FB20684069216CC0F38010090700D4B1
:1016800060B3204600F0A7FB20684069400621D5E2
:101690002068143050E8001F21F0400140E800129B
:1016A000002AF5D1A06BA8B16C490165A06BFFF7CA
:1016B00000F9002811D0A06B016D01B0BDE8F04029
:1016C000084783060FD593060DD52046BDE8F840A0
:1016D00000F0A8BB2046FFF78DFFF8BD2046FFF7BE
:1016E00089FF2564F8BD266B2023012E79D1C6061B
:1016F00077D5D60675D508684868009048694006D1
:1017000040D5A16B086840680004000CEAD0A28DA7
:101710008242E7D9E085C869B0F5807F2DD0206886
:101720000C3050E8001F21F4807140E80012002ABC
:10173000F5D12068143050E8001F21F0010140E885
:101740000012002AF5D12068143050E8001F21F063
:10175000400140E80012002AF5D184F83E302563AC
:1017600020680C3050E8001F21F0100140E8001202
:10177000002AF5D1A06BFFF753F8A08DE18D401A38
:1017800081B229E0A08DE18D401A81B2E08D002860
:10179000A8D00029A6D020680C3050E8002F22F4F1
:1017A000907240E80026002EF5D12068143050E8F1
:1017B000002F22F0010240E80026002EF5D184F827
:1017C0003E30256320680C3050E8002F22F01002D4
:1017D00040E80023002BF5D12046FFF70AFFF8BDB3
:1017E000FFE705062BD5150629D594F83D002128DD
:1017F000F5D1A068B0F5805F01D12069B0B1206A51
:10180000411C2162216800784860E08C401E000481
:10181000000CE084E3D12068C16821F08001C16040
:101820002068C16841F04001C160D8E7206A0088A3
:10183000C0F308004860206A801C2062E5E740068B
:10184000CDD55006CBD5CA68204622F04002CA60EA
:1018500084F83D3000F0CFF8C1E70000C71D000854
:1018600070B5040004D094F83D00002510B106E0E6
:10187000012070BD84F83C50204600F023F824205D
:1018800084F83D002068C16821F40051C160204601
:1018900000F028FB2068016921F490410161206873
:1018A000416921F02A0141612068C16841F4005179
:1018B000C1602564202084F83D0084F83E000020AB
:1018C00070BD000010B586B0044614216846FEF7CE
:1018D000EFFD18492068884229D117480021026885
:1018E00042F010020260006800F0100005901248FB
:1018F0001438026842F001020260006800F0010042
:1019000005904FF4C06000900220CDE90101032052
:1019100003900720049069460848FEF7DDFF002287
:1019200005212520FFF76EF92520FFF75DF906B0A8
:1019300010BD000000100140443802400000024089
:10194000704700002DE9F843044690F83D001F461B
:1019500016460D4620284CD1C5B1BEB194F83C00C6
:10196000012846D0012084F83C004FF00008C4F85C
:101970004080212084F83D00FFF7A6F8A684814628
:10198000E684A068B0F5805F03D004E00120BDE8E4
:10199000F883206928B12E465FF0000584F83C806A
:1019A0000EE00026FAE78021204600F021FBA0B9D6
:1019B000AEB116F8010B21684860E08C401EE0844F
:1019C000E08C4B464FF0000200970028EBD14FF01F
:1019D0004001204600F00CFB30B10320D7E735F87A
:1019E000020BC0F30800E6E7202084F83D00002049
:1019F000CDE70220CBE77047FEE700000F4810B5A7
:101A00000D4901600321416000214FF400228160F3
:101A1000C0E903124FF440124261017641768176AB
:101A2000C17601774177FEF7FFFD002803D0BDE8BE
:101A30001040FEF7F7BD10BD006400409800002084
:101A40000F4810B50D4901600321416000214FF49A
:101A500000228160C0E903124FF440124261017616
:101A600041768176C17601774177FEF7DDFD00286A
:101A700003D0BDE81040FEF7D5BD10BD00680040A2
:101A8000C000002010B5044A0021044800F054FBB7
:101A90000349086010BD000020390008951B0008AC
:101AA00000000020114808B5016841F00401016000
:101AB000016801F004010091016841F080010160BA
:101AC000016801F080010091016841F002010160AC
:101AD000016801F002010091016841F0010101601B
:101AE000006800F00100009008BD0000303802409E
:101AF00010B586B000241648009401940294039413
:101B000004944FF08041059401605321C0E9011411
:101B10001049C0E903148461FFF7B2FB08B1FEF776
:101B200081FD4FF48050009069460948FFF732FC70
:101B300008B1FEF777FD049404A905480594FFF762
:101B400057FB002801D0FEF76DFD06B010BD000068
:101B5000E800002040420F000C4810B50A4901601F
:101B60004FF4E1314160002181600C22C160C0E985
:101B700004128161C161FFF773FE002803D0BDE844
:101B80001040FEF74FBD10BD001001403001002095
:101B9000FEE7FEE700250224042628196D1C641CBC
:101BA000761C02B22DB224B236B233462146284604
:101BB00000F056FF012000F083FAEEE710B54FF079
:101BC000E020006901F0F0FC012803D0BDE81040DE
:101BD00001F01EBA10BD000030B593B03021684648
:101BE000FEF766FC14210CA8FEF762FC1D480025D8
:101BF000016841F080510160006800F08050119050
:101C00001948016841F4804101600068022400F431
:101C100080401190012003901020049000940694BD
:101C20000820CDE90750A820CDE9090404200B9035
:101C30006846FFF725F908B172B6FEE70CA90F2038
:101C400081E831004FF4A0500F904FF48050109075
:101C500005210CA8FFF708F8002801D072B6FEE7AE
:101C600013B030BD403802400070004002480168A7
:101C700041F470010160704788ED00E00148FFF712
:101C8000F8BB0000E80000200148FFF7F2BB0000AD
:101C900074010020F0B50268254C264D264E274FD2
:101CA000274B4FF0804CA04209D0604507D0A84296
:101CB00005D0B04203D0B84201D0984204D122F0FE
:101CC000700E4A6842EA0E02A0421BD0604519D04D
:101CD000A84217D0B04215D0B84213D0984211D0C4
:101CE000184DA8420ED0184DA8420BD0174DA8424F
:101CF00008D0174DA84205D0164DA84202D0164D67
:101D0000A84203D122F44075CA682A434D6922F0E3
:101D100080022A4302608A68C2620A688262A04224
:101D200001D0984201D10969016301214161F0BDEF
:101D3000000001400004004000080040000C00408A
:101D400000040140004001400044014000480140BF
:101D500000180040001C00400020004010B58468BE
:101D600042EA032224F47F440A432243826010BDE6
:101D7000826822F070020A4342F0070181607047D6
:101D800010B5036A046A24F001040462846924F033
:101D9000F00444EA021423F00A020A438461026256
:101DA00010BD10B5036A23F0100303628369046A4F
:101DB00023F4704343EA023224F0A00343EA011102
:101DC0008261016210BD10B5806B0021C185C184A4
:101DD000FFF710FC10BD01680C3151E8002F22F410
:101DE000907241E80023002BF5D10168143151E8CD
:101DF000002F22F0010241E80023002BF5D1016BF6
:101E0000012909D101680C3151E8002F22F010029C
:101E100041E80023002BF5D1202180F83E1000215D
:101E20000163704708B590F83E10222901D00220C6
:101E300008BD82684FF480539A4201D1016921B1F3
:101E4000816A9A421BD04AB10AE00268816A5268EC
:101E5000C2F308020A80816A891C08E0026972B133
:101E60000268526802F07F020A70816A491C81622E
:101E7000C18D491E0904090CC18503D019E002680F
:101E80005268F1E70168CA6822F02002CA6001685E
:101E9000CA6822F48072CA6001684A6922F00102AD
:101EA0004A61202180F83E10016B012903D0FFF721
:101EB00047FD002008BD0021016301680C3151E895
:101EC000002F22F0100241E80023002BF5D1016819
:101ED0000A68D20602D50A6849680091818DFFF729
:101EE00088FBE6E770B5044600680169E26821F402
:101EF0004051114301612169A068E26908436169A9
:101F0000114308432168CA6849F20C639A430243AB
:101F1000CA6020684169A26921F44071114341619E
:101F200031492068884202D03049884202D1FEF708
:101F300065FF01E0FEF752FFE269002319216425E5
:101F40003226B2F5004F626828D0A0FB0101930F42
:101F50009200FEF7E9F90146B0FBF5F06FF01802C8
:101F6000504301EB800006EB0010B0FBF5F000F0F1
:101F7000F002B1FBF5F002EB0012B1FBF5F06FF0EF
:101F80001803584301EB800006EB0010B0FBF5F09E
:101F900000F00F0021681044886070BDA0FB0101B3
:101FA00092185B41FEF7C0F90146B0FBF5F0020163
:101FB000B1FBF5F06FF01803584301EB800006EB1E
:101FC000C000B0FBF5F000F0F80002EB4002B1FBFE
:101FD000F5F0584301EB800006EBC000B0FBF5F0D4
:101FE00000F00700D6E70000001001400014014097
:101FF0002DE9F041984617460E460446069D27E017
:10200000681C25D02DB1FEF75FFDA0EB0800A842AB
:102010001ED920680C3050E8001F21F4D07140E830
:102020000012002AF5D12068143050E8001F21F07A
:10203000010140E80012002AF5D1202084F83D007B
:1020400084F83E00002084F83C000320BDE8F081C5
:102050002068006836EA000004D00020B842CFD0E3
:102060000020F3E70120F9E70148FFF7C5BA0000B7
:1020700030010020FEE70907090E002804DB00F10B
:10208000E02080F80014704700F00F0000F1E0201D
:1020900080F8141D7047FEF725FDFFF79DFDFFF743
:1020A00001FDFFF7ABFCFFF757FDFFF721FDFFF741
:1020B000C7FC00F013F8FFF7E5FC00F021F8FEE79D
:1020C00010B5EFF3058111B16FF0050403E00024B2
:1020D00008B100F03DFE204610BD0000EFF3058082
:1020E00010B16FF0050070470448016811B14FF05E
:1020F000FF30704701210160002070476800002018
:1021000010B5EFF3058010B16FF0050010BD084861
:102110000168012902D04FF0FF3010BD054A0021AF
:1021200082F8141D0221016000F07AFE002010BD2B
:10213000680000200BE000E02DE9FF414FEA0103B9
:102140004FF00005EFF30581039549BB40B38027AD
:10215000182100244AB3166806B1344696691EB1A8
:102160003146761E382E02D21679F60703D00020AB
:1021700004B0BDE8F081566906B1B708D2F808C0CE
:10218000BCF1000F0DD0D5685C2D18D312693AB19F
:1021900036B18DE806103A46214601F0DAF903908F
:1021A0000DE0D6685EB912694AB903AACDE90012FA
:1021B000BAB2214601F0A0F9012800D00395039896
:1021C000D6E700002DE9F041134C0F460546E668BE
:1021D0002068001D00F088FC681C07D137B1216819
:1021E000BDE8F0410D48091D00F0CEBC2068354423
:1021F000B5424560216805D2A06BBDE8F041091DDC
:1022000000F0AABC606B091D00F0A6FCA06A854224
:1022100000D2A562BDE8F08118000020AC060020C5
:102220002DE9F041054600F0BBFC2D4CA068401C98
:10223000A06020682B4F10B1606930B32BE025609F
:10224000A068012827D1002606EB860007EB800056
:1022500000F074FC761C382EF6D3234800F06EFC98
:102260002148143000F06AFC1F48283000F066FC5A
:102270001D483C3000F062FC1B48503000F05EFC12
:10228000194860631430A06305E02068E96AC06AF9
:10229000884200D82560606A401C60626864E86A11
:1022A0002169884200D9206100EB800007EB8000A3
:1022B000291D00F069FC00F093FC606900280CD037
:1022C0002068E96AC06A884207D208494FF0805006
:1022D0000860BFF34F8FBFF36F8FBDE8F081000040
:1022E00018000020FC0100205C06002004ED00E046
:1022F00038B500F055FC104C2068C8B90F4800F004
:102300001DFC0E48143000F019FC0C48E06014303D
:1023100020610A4B0020F03B009003F15002102195
:102320000A2000F08BFE206010B105A100F0DAFC5D
:10233000BDE8384000F054BC54000020B007002035
:10234000546D72510000000030B4026C0B46002A3C
:102350000BD0C1681144C1608468A14201D30168F7
:10236000C16030BC1846FEF756B830BC70472DE946
:10237000F041856B174604460026026C82B1C7B156
:10238000E068FEF748F8E168206C091AE16022680D
:10239000914202D2A168081AE060022F16D017E01D
:1023A0002068A8B9A06801F077F906460020A0606F
:1023B0000EE06068FEF72FF8216C606808446060EA
:1023C000A168884204D32068606001E005B16D1EF9
:1023D0006D1CA5633046BDE8F08110B5044690F849
:1023E000590058B101280CD002280FD0502080F39A
:1023F0001188BFF34F8FBFF36F8FFEE7206B00F0A4
:1024000003FC2046BDE8104000F0FEBB10BD0000FC
:1024100010484FF47051420706D0C01D0D4920F0FE
:102420000700411AC1F570510B4A00230144C2E96B
:1024300000030839183A21F0070111604B600B6066
:102440000B1AC0E9001393604FF0004053605061D5
:1024500070470000900E002084000020144E154CA0
:10246000A6F29C474FF08058DFF84C9012E000BF76
:1024700000F096FBF068C568281D00F035FBA068E9
:10248000401EA0606068401E606000F0A9FB284606
:10249000FFF7A3FF60680028EAD138680128F9D95E
:1024A000C9F80080BFF34F8FBFF36F8FF2E70000D2
:1024B000980600201800002004ED00E070B51D46CD
:1024C000049C51B1C4F80020C4E90F010121204649
:1024D00000F0E8FD84F84C5070BD2460F4E7000083
:1024E0002DE9F05F8846DDE90B941546834691009F
:1024F0009A460A9EA522206BFDF7D2FF6FF00301DA
:10250000206B01EB8501084420F00707780707D00E
:10251000502080F31188BFF34F8FBFF36F8FFEE71A
:102520000025B8F1000F0FD05FF00000221818F856
:10253000001082F8341018F8001011B1401C102857
:10254000F4D384F8435001E084F83450382E00D39B
:102550003726E662C4E91365201D00F0FAFA04F19B
:10256000180000F0F6FA2461C6F138006462A06138
:10257000656584F8585052465946384600F05AFA74
:102580002060B9F1000F01D0C9F80040BDE8F09F0C
:1025900030B5114900E011460A688242FBD34B680E
:1025A0005C18844203D14068184448600846436878
:1025B0001C18944209D1084C183C2468A24209D046
:1025C00052681A4442600A6812680260814200D070
:1025D000086030BD0460F9E78400002070B5002475
:1025E00041600B4D0061914206D8D11A8269914237
:1025F00006D2011D286907E09A4203D2994201D30D
:10260000012403E0011DE86800F0A6FA204670BD31
:102610005400002010B5044600F0C2FAA06B28B1A7
:102620005FF0000400F0DCFA204610BD0124F9E759
:1026300030B589B03C4D6EE00498002806DADDE93B
:102640000601059A90470498002864DB069C60699F
:1026500010B1201D00F048FA03A800F0D7F8024698
:1026600004980A2857D2DFE800F00505052D334A03
:1026700005052D3394F8280040F0010084F8280067
:102680000599A069059B01442046FFF7A7FF68B3A1
:10269000216A2046884794F8280040073BD500204F
:1026A00000900598A169002342181946204601F0C0
:1026B000FDF8D8B9502080F31188BFF34F8FBFF3D6
:1026C0006F8FFEE714F8280F20F00100207022E041
:1026D00094F8280040F0010084F828000598A061D3
:1026E00028B1811813462046FFF778FF13E05020E9
:1026F00080F31188BFF34F8FBFF36F8FFEE794F81D
:102700002800810703D4204600F07EFA03E020F081
:10271000010084F82800002204A9286800F016FEB1
:10272000002889D109B030BD540000202DE9FC41BA
:102730000F46054600F0B8FB01A800F067F8044614
:10274000019818B101F020F8BDE8FC81254EAFB129
:1027500030690068D0B30027291B3A46306800F082
:10276000D5FA01F011F80028EED11F494FF0805042
:102770000860BFF34F8FBFF36F8FE5E7A542EBD83B
:1027800001F002F8F0682746C068C468201D00F018
:10279000ABF994F82800410719D5A0692B464119D7
:1027A0003A462046FFF71AFFA8B10020034601462B
:1027B00000902A46204601F079F860B9502080F355
:1027C0001188BFF34F8FBFF36F8FFEE707E020F054
:1027D000010084F82800216A20468847B4E70127D1
:1027E000BAE700005400002004ED00E00648416B09
:1027F000096829B1416BC968C96849688162704735
:102800004FF0FF31FAE700001800002070B50546D0
:1028100000F0D8FE064E0446B068844203D200F0B1
:1028200009F8012000E0002028602046B46070BD57
:1028300054000020F8B5194D20E0C068C46806684F
:10284000201D00F051F9216A2046884794F828009D
:10285000400713D5A0693044B04206D924616060B6
:10286000211DE86800F078F908E0002003460146E1
:1028700000903246204601F019F838B1E868016846
:102880000029DAD12969C5E90310F8BD502080F389
:102890001188BFF34F8FBFF36F8FFEE75400002006
:1028A00008484068401C4FF0500080F3118804D065
:1028B000BFF34F8FBFF36F8FFEE7BFF34F8FBFF3B1
:1028C0006F8FFEE78C000020074CE068016841B183
:1028D000C0680021D0F80000FFF728FFFFF7A8FE2E
:1028E000F3E701210020F7E7540000202DE9F04133
:1028F000044600F055F994F9455004F1240609E026
:10290000606A48B1304600F007FF08B100F04EFAA7
:102910006D1E6DB2002DF3DC4FF0FF3684F845607C
:1029200000F05EF900F03CF994F9445004F110070E
:1029300009E0206948B1384600F0EEFE08B100F029
:1029400035FA6D1E6DB2002DF3DC84F84460BDE8ED
:10295000F04100F045B900002DE9F041054600279F
:1029600000F0A2FA324E306808B9FFF751FD7069E5
:1029700005424ED1C5B3083568070ED005F00700F3
:10298000C0F108000544680707D0502080F3118883
:10299000BFF34F8FBFF36F8FFEE72DB37068854293
:1029A00037D82348183001460C6801E020460C4611
:1029B0006168A94202D221680029F7D131688C42AE
:1029C00027D007682168016060680837411B10291B
:1029D0000FD96019420708D0502080F31188BFF347
:1029E0004F8FBFF36F8FFEE713E041606560FFF725
:1029F000CFFD61687068401A7060B268904200D282
:102A0000B060706901430020C4E90001F068401C17
:102A1000F06000F0B9FE780707D0502080F31188ED
:102A2000BFF34F8FBFF36F8FFEE73846BDE8F081ED
:102A30006C00002010B5031F4FF080741C601B1F3A
:102A400021F001011960191F044B0B6014390A6051
:102A5000091F6FF0020244380A6010BDA128000867
:102A60007FB51F48AA2100220170FF214170F1218A
:102A700081700821C1709DF8003003719DF801300C
:102A800043719DF8043083719DF80530C3719DF842
:102A9000083003729DF8093043729DF80C30837240
:102AA0009DF80D30C3720C2400231546091D05E066
:102AB000C65C5B1C3244D2B21544EDB29942F7DCDD
:102AC0000255641C05550025641C06E0642322465B
:102AD00003490448FEF736FF6D1CA542F6DB7FBDB7
:102AE000904A002030010020D0E9013201699A604B
:102AF000D0E901235A604A68824201D182684A6063
:102B0000002202610868401E0860086870470000E3
:102B1000034B036003F15C00086080201060704785
:102B2000D8070020044B036003F15C0008604FF4F9
:102B30008070106070470000340A002000F1080126
:102B40004FF0FF32C0E90112C16001610021016054
:102B5000704700210161704730B50B685A1C02D0E4
:102B600000F1080202E0026904E022465468256888
:102B70009D42FAD953684B6099608A605160086140
:102B80000168491C016030BD42684A6093688B60EF
:102B900093685960916008610168491C0160704741
:102BA000502080F31188BFF34F8FBFF36F8F0A4916
:102BB0004868401C486001280CD10848006810F0A3
:102BC000FF0F07D0502080F31188BFF34F8FBFF362
:102BD0006F8FFEE7704700008C00002004ED00E0DE
:102BE0000849486828B1401E486001D180F3118827
:102BF0007047502080F31188BFF34F8FBFF36F8F62
:102C0000FEE700008C00002070B500282AD0164D89
:102C1000A0F1080460686969084207D1502080F378
:102C20001188BFF34F8FBFF36F8FFEE722683AB171
:102C3000502080F31188BFF34F8FBFF36F8FFEE7F3
:102C40008843606000F030F9606869680844686033
:102C50002046FFF79DFC2869401C2861BDE87040B4
:102C600000F092BD70BD00006C0000204FF0E0202D
:102C700000210161816105494FF47A720968B1FB55
:102C8000F2F1491E416107210161704714000020E3
:102C900010B5FDF725FB114910280ED300F1E020F7
:102CA00090F8F0030A78904207D2502080F3118800
:102CB000BFF34F8FBFF36F8FFEE709480068896845
:102CC00000F4E060884207D9502080F31188BFF3F8
:102CD0004F8FBFF36F8FFEE710BD00008C00002008
:102CE0000CED00E010B5084B002200BF53F8324055
:102CF0001CB1521C082AF9D310BD43F8321003EB63
:102D0000C201486010BD0000BC01002070B515462E
:102D10000E460446FFF744FF94F944100020491C76
:102D200001D184F8440094F94510491C01D184F87C
:102D30004500FFF755FFA06B28B92A46314604F13C
:102D4000240000F051F82046BDE87040FFF7CEBDEA
:102D500010B5020014D00F48006B38B1502080F33A
:102D60001188BFF34F8FBFF36F8FFEE700F09CF821
:102D700000211046FFF726FA00F006FD002807D1D3
:102D800005494FF080500860BFF34F8FBFF36F8F3E
:102D900010BD00001800002004ED00E002490A6A9E
:102DA0000260C96841607047180000200149012095
:102DB000C86170471800002010B50C4650B1094991
:102DC00009681831FFF7C8FE2046BDE81040012110
:102DD000FFF7F8B9502080F31188BFF34F8FBFF38E
:102DE0006F8FFEE71800002070B514460D4668B1DD
:102DF0000A4909681831FFF7C7FE0CB14FF0FF35DB
:102E000021462846BDE87040FFF7DCB9502080F32A
:102E10001188BFF34F8FBFF36F8FFEE718000020BC
:102E200030B587B00024039405AA04A903A804942C
:102E3000FFF76EFEDDE903010094CDE901100023E8
:102E400015A11748059A00F084FB164D0028E8628A
:102E50001FD000F0FBFC012809D0401C19D15020E4
:102E600080F31188BFF34F8FBFF36F8FFEE75020C1
:102E700080F31188BFF34F8FBFF36F8F4FF0FF3098
:102E8000A86201206861EC6007B0BDE8304000F046
:102E900045B807B030BD000049444C450000000073
:102EA0005D240008180000200248016B491C0163E2
:102EB0007047000018000020164810B5016B11B1D2
:102EC0000121C16110BD0021C1610169124A01E007
:102ED000B9B1491E01EB810352F82330002BF7D022
:102EE00001EB810302EB830202F1080453685B6883
:102EF0005360A34201D15B685360DA6802600161EC
:102F000010BD502080F31188BFF34F8FBFF36F8F38
:102F1000FEE7000018000020FC0100201CB5374827
:102F20000168374A914207D1502080F31188BFF3DE
:102F30004F8FBFF36F8FFEE700683149491E88420B
:102F400007D1502080F31188BFF34F8FBFF36F8FED
:102F5000FEE72C4908780190FF20087008788DF86A
:102F600000009DF800009DF8002000F0F000904265
:102F700007D0502080F31188BFF34F8FBFF36F8FBE
:102F8000FEE79DF80000204C00F050002070072064
:102F9000A06005E09DF8002052008DF80020401E42
:102FA0009DF800201206F5D4A060032807D0502019
:102FB00080F31188BFF34F8FBFF36F8FFEE74FF49D
:102FC0004070A060019808700C482030016841F4FE
:102FD00070010160016841F070410160FFF746FE39
:102FE00000206060FDF744F90848016841F0404165
:102FF0000160FDF729F900201CBD000000ED00E094
:1030000071C20F4100E400E08C00002034EF00E0CA
:1030100010B5502080F31188BFF34F8FBFF36F8F2F
:1030200000F0D6FA18B104494FF080500860002033
:1030300080F3118810BD000004ED00E038B5049D58
:1030400018B153B1CAB181B120E0502080F311888A
:10305000BFF34F8FBFF36F8FFEE7502080F31188CF
:10306000BFF34F8FBFF36F8FFEE7502080F31188BF
:10307000BFF34F8FBFF36F8FFEE739B1502080F35E
:103080001188BFF34F8FBFF36F8FFEE750241C46AC
:10309000012384F846302B460094FFF70FFA2046B0
:1030A00038BD000070B50D46040025D0FFF778FD4F
:1030B000D4E90F20216802FB0011A1600021A16367
:1030C000216861600A46D4E90F01401E00FB01211E
:1030D000E16021464FF0FF3001F8440F487004F1E1
:1030E00010008DB1FFF72AFD04F12400FFF726FD43
:1030F000FFF776FD012070BD502080F31188BFF3EB
:103100004F8FBFF36F8FFEE721690029F0D000F0E9
:1031100003FB0028ECD004494FF080500860BFF357
:103120004F8FBFF36F8FE3E704ED00E02DE9FF471A
:1031300082B01D468A464FF00008040003D0BAF161
:10314000000F08D011E0502080F31188BFF34F8F9B
:10315000BFF36F8FFEE7206C38B1502080F31188E9
:10316000BFF34F8FBFF36F8FFEE7022D0AD1E06BE5
:10317000012807D0502080F31188BFF34F8FBFF391
:103180006F8FFEE700F010FA3F4F4FF000094FF04D
:10319000805648B9049838B1502080F31188BFF3A5
:1031A0004F8FBFF36F8FFEE7FFF7FAFCA06BE16B69
:1031B000884207D3022D05D00498D0B1B8F1000F92
:1031C0001AD01EE02A4651462046FFF7D0F8616A21
:1031D00019B104F1240000F09FFA20B13E60BFF362
:1031E0004F8FBFF36F8FFFF7FBFC012006B0BDE8E8
:1031F000F087FFF7F5FC22E06846FFF7CFFD4FF0C0
:103200000108FFF7EDFCFFF74FFEFFF7C9FC94F94B
:103210004400401C01D184F8449094F94500401CBE
:1032200001D184F84590FFF7DBFC04A9684600F063
:1032300029F930B12046FFF759FB00F0A5FA00202C
:10324000D4E7FFF7ADFCA06BE16B884213D1FFF729
:10325000C7FC04F110000499FFF7AEFD2046FFF70C
:1032600045FB00F091FA00289ED13E60BFF34F8FDE
:10327000BFF36F8F98E7FFF7B3FC2046FFF736FBED
:1032800000F082FA90E7000004ED00E02DE9F0473D
:103290001F4690468946040003D0B9F1000F08D0BC
:1032A00011E0502080F31188BFF34F8FBFF36F8F71
:1032B000FEE7206C38B1502080F31188BFF34F8FA8
:1032C000BFF36F8FFEE7022F0AD1E06B012807D012
:1032D000502080F31188BFF34F8FBFF36F8FFEE74D
:1032E000FFF7D6FC5020EFF3118680F31188BFF36F
:1032F0004F8FBFF36F8FA06BE16B884206D3022F15
:1033000004D0002086F31188BDE8F08794F9455079
:10331000A06B3A4649462046FFF729F8681C04D0BE
:103320006D1C84F845500120ECE7606A0028FAD053
:1033300004F1240000F0F0F90028F4D0B8F1000FF7
:10334000F1D00121C8F80010EDE700002DE9F747A2
:10335000002683B08A46040003D0BAF1000F08D0DB
:1033600011E0502080F31188BFF34F8FBFF36F8FB0
:10337000FEE7206C38B1502080F31188BFF34F8FE7
:10338000BFF36F8FFEE700F00FF9DFF8F4804FF026
:1033900000094FF0805748B9059838B1502080F3A4
:1033A0001188BFF34F8FBFF36F8FFEE7FFF7F8FB76
:1033B000A56BC5B151462046FEF7C6FF6D1EA5633D
:1033C000206950B104F1100000F0A6F928B1C8F846
:1033D0000070BFF34F8FBFF36F8FFFF701FC012029
:1033E00006B0BDE8F087059808B11EB106E0FFF70A
:1033F000F7FB27E06846FFF7D1FC0126FFF7F0FB5B
:10340000FFF752FDFFF7CCFB94F94400401C01D1BB
:1034100084F8449094F94500401C01D184F845900B
:10342000FFF7DEFB05A9684600F02CF800282046CF
:103430000AD0FFF75BFA00F0A7F92046FFF7EAF899
:103440000028B3D00020CBE7FFF7E4F890B104F1F7
:1034500024000599FFF7B0FC2046FFF747FA00F07B
:1034600093F90028A2D1C8F80070BFF34F8FBFF3C3
:103470006F8F9BE72046FFF739FA00F085F995E753
:1034800004ED00E02DE9F0410C46050011D0C4B177
:10349000FFF786FB174BDA686E682068911B471CA4
:1034A00017D02F681B6A9F4219D0964217D8012463
:1034B00010E0502080F31188BFF34F8FBFF36F8F60
:1034C000FEE7502080F31188BFF34F8FBFF36F8F5B
:1034D000FEE70024FFF784FB2046BDE8F081884228
:1034E00005D9401A20602846FFF758FCF1E7002074
:1034F0002060DCE7180000202DE9FF5F8346DDE94E
:103500000E87994616468A469000FFF725FA050071
:103510001CD05C20FFF720FA040014D000202563A3
:1035200084F85900CDE90240CDE900874B46324688
:1035300051465846FEF7D4FF2046FEF771FE0120A3
:1035400004B0BDE8F09F2846FFF75EFB4FF0FF3068
:10355000F6E7F0B585B0DDE90B640A9DA6B1DCB1F4
:103560005C2700972663022684F85960002604AF82
:10357000CDE90246CDE90057FEF7B2FF2046FEF73F
:103580004FFE049805B0F0BD502080F31188BFF3C2
:103590004F8FBFF36F8FFEE7502080F31188BFF38A
:1035A0004F8FBFF36F8FFEE70548416919B1006B7C
:1035B00018B10020704701207047022070470000BA
:1035C000180000200148C068704700001800002063
:1035D0002DE9F0412E4C0027206B28B1A069401C3A
:1035E000A0613846BDE8F081E668761CE66013D13C
:1035F000606B006838B1502080F31188BFF34F8FA3
:10360000BFF36F8FFEE7606BA16B6163A063206AFD
:10361000401C2062FFF7EAF8A06ADFF87880864253
:1036200009D3606B0068A0B1606BC068C56868684A
:10363000864211D2A0622068C06A00EB800158F86F
:103640002100012800D90127E0690028C9D00127FD
:10365000C7E74FF0FF30EDE7281DFFF745FAA86AEE
:1036600018B105F11800FFF73FFAE86A21698842AE
:1036700000D9206100EB800108EB8100291DFFF7D4
:1036800083FAE86A2168C96A8842CAD30127C8E771
:1036900018000020FC01002070B504004FF000016C
:1036A00033D01B4D2868844207D0502080F3118806
:1036B000BFF34F8FBFF36F8FFEE7206D38B1401E11
:1036C0002065E36CE26A9A421FD040B11DE05020B1
:1036D00080F31188BFF34F8FBFF36F8FFEE7201D7C
:1036E000FFF702FAE06CE062C0F13800A061E06A26
:1036F0002969884200D92861064900EB800001EB66
:103700008000211DFFF740FA0121084670BD00002E
:1037100018000020FC01002070B5C068C46854B1D6
:1037200004F118000646FFF7DFF9144D286B50B17D
:103730003146134815E0502080F31188BFF34F8FB6
:10374000BFF36F8FFEE7201DFFF7CEF9E06A29690E
:10375000884200D928610B4900EB800001EB800012
:10376000211DFFF711FAE06A2968C96A884202D967
:103770000120E86170BD002070BD0000180000202D
:1037800084060020FC0100202DE9F0472C4D002488
:103790002746286B38B1FFF703FA286B401E2863D1
:1037A000286B40B146E0502080F31188BFF34F8F63
:1037B000BFF36F8FFEE7A968224E0120D1B3A6F5B3
:1037C000916980463068E0B1F068C46804F118007F
:1037D000FFF78AF9201DFFF787F9E06A2969884217
:1037E00000D9286100EB800109EB8100211DFFF762
:1037F000CBF9E06A2968C96A8842E3D3C5F81C801E
:10380000E0E70CB1FEF7F2FFAC694CB14FEA0806F5
:10381000FFF7DEFE00B1EE61641EF9D10020A86161
:10382000E86938B10849012738070860BFF34F8FAE
:10383000BFF36F8FFFF7D4F93846BDE8F08700007B
:10384000180000208406002004ED00E010B586B0CA
:10385000FEF74EFD114C2068B8B100200390049093
:1038600005AA04A903A8FFF75DF9DDE903210220F9
:103870008DE8070000230AA10B48059AFFF769FEAF
:10388000606010B106B0012010BD502080F3118897
:10389000BFF34F8FBFF36F8FFEE70000540000208F
:1038A000546D722053766300C92800082DE9FF414A
:1038B0001E46134602000A9D4FF0000016D0144C1D
:1038C0002768002F0FD0CDE900130292062917DADE
:1038D000FFF76AFE02284FF000030FD0002269466E
:1038E0002068FFF723FC04B0BDE8F081502080F38E
:1038F0001188BFF34F8FBFF36F8FFEE72A46EEE7C5
:103900000023324669463846FFF7C0FCEBE700006B
:10391000540000204FF04070E1EE100A70470000A4
:103920005C390008000000000000000000000000FA
:10393000000000000002000018000000000000006D
:10394000000000000000000000000000010203046D
:1039500006070809000000000102030464656661AF
:10396000756C745461736B00883900080000002086
:1039700098000000C4010008203A000898000020C8
:1039800078500000E0010008000000000000000086
:103990000100000010000000000000000024F400FE
:1039A0000000000000000000000000000000000017
:1039B0000000000000000000000000000000000007
:1039C00000000000000000000000000000000000F7
:1039D00000000000000000000000000000000000E7
:1039E00000000000000000000000000000000000D7
:1039F00000000000000000000000000000000000C7
:103A000000000000000000000000000000000000B6
:103A10000000000000000000AAAAAAAA00000000FE
:040000050800018965
:00000001FF
