:020000040800F2
:10000000005D0020E9020008CD2700085D220008FD
:10001000DB2500083F060008113000080000000042
:10002000000000000000000000000000290200089D
:100030004507000800000000850200089B29000811
:100040000303000803030008030300080303000878
:100050000303000803030008030300080303000868
:100060000303000803030008030300080303000858
:100070000303000803030008030300080303000848
:1000800003030008030300080303000865060008D3
:10009000410600084D0600085906000847070008F9
:1000A0000303000803030008030300080303000818
:1000B000592A0008652A0008030300080303000802
:1000C00003030008030300080303000803030008F8
:1000D00003030008DD2D00080303000803030008E4
:1000E00003030008030300080303000803030008D8
:1000F00003030008030300080303000803030008C8
:1001000003030008030300080303000803030008B7
:1001100003030008A52B00080303000803030008DD
:100120000303000803030008030300080303000897
:1001300003030008030300080303000895060008F2
:10014000710600087D060008890600080303000800
:100150000303000803030008030300080303000867
:100160000303000803030008030300080303000857
:100170000303000803030008030300080000000055
:10018000030300080303000800F002F800F03CF845
:100190000AA090E8000C82448344AAF10107DA45E2
:1001A00001D100F031F8AFF2090EBAE80F0013F0F8
:1001B000010F18BFFB1A43F001031847685E0000E7
:1001C000885E0000103A24BF78C878C1FAD8520778
:1001D00024BF30C830C144BF04680C6070470000C1
:1001E0000023002400250026103A28BF78C1FBD840
:1001F000520728BF30C148BF0B6070471FB505F0DC
:10020000BCFE1FBD10B510BD00F0E4F91146FFF7AC
:10021000F5FF03F057FD00F002FA03B4FFF7F2FF19
:1002200003BC00F005FA00002C4B19680868B0E820
:10023000F04F80F30988BFF36F8F4FF0000080F319
:10024000118870470000000008480068006880F3CB
:1002500008884FF0000080F3148862B661B6BFF3DF
:100260004F8FBFF36F8F00DF00BF00BF08ED00E0CE
:10027000DFF80C00016841F470010160704700BFB5
:1002800088ED00E0EFF30980BFF36F8F134B1A681E
:100290001EF0100F08BF20ED108A20E9F04F10600B
:1002A00009B44FF0500080F31188BFF34F8FBFF3B4
:1002B0006F8F04F0FFFC4FF0000080F3118809BC41
:1002C00019680868B0E8F04F1EF0100F08BFB0ECD6
:1002D000108A80F30988BFF36F8F704720000020D9
:1002E000EFF3058070470000094880470948004740
:1002F000FEE7FEE7FEE7FEE7FEE7FEE7FEE7FEE7D6
:10030000FEE7FEE704480549054A064B7047000032
:10031000492A00088901000800570020005D0020DC
:10032000005900200059002053EA020C00F06980B7
:100330002DE9F04B4FF00006002B1FBFB3FA83F5F9
:1003400003FA05F424FA05F65E4012BF1643B2FA2A
:1003500082F502FA05F4C5F120051EBF22FA05FC5C
:1003600044EA0C04203556EA044C4FEA144418BF02
:10037000641C4FF000084FF00009904271EB030C31
:1003800039D3002919BFB1FA81F701FA07F6B0FA9B
:1003900080F700FA07F6C7F120071EBF20FA07FC16
:1003A00046EA0C062037B6FBF4FCA7EB0507103F26
:1003B00007F01F0BCBF120060CFA0BFB2CFA06F60C
:1003C00044BFB3460026202FA4BF5E464FF0000B6B
:1003D0005BEA060C08BF4FF0010B19EB0B09ABFBF6
:1003E000027C48EB0608C01B06FB02CC0BFB03CCCF
:1003F00071EB0C01C1E70B46024641464846BDE899
:10040000F08B13B54FF000004FF00001AFF3008008
:10041000BDE81C407047032A40F2308010F0030C06
:1004200000F0158011F8013BBCF1020F624498BF47
:1004300011F801CB00F8013B38BF11F8013BA2F1E4
:10044000040298BF00F801CB38BF00F8013B11F05F
:10045000030300F06280083AC0F0088051F8043BC2
:10046000083A51F804CBA0E80810F5E7121D5CBF6C
:1004700051F8043B40F8043BAFF30080D20724BF9F
:1004800011F8013B11F801CB48BF11F8012B24BF33
:1004900000F8013B00F801CB48BF00F8012B704782
:1004A00002F0FF0343EA032242EA024200F069B885
:1004B0004FF0000200B5134694469646203922BFFD
:1004C000A0E80C50A0E80C50B1F12001BFF4F7AF48
:1004D000090728BFA0E80C5048BF0CC05DF804EB2A
:1004E000890028BF40F8042B08BF704748BF20F898
:1004F000022B11F0804F18BF00F8012B7047704796
:100500007047704710B500F05DF8006810BD10B579
:10051000044600F057F8046010BD10B5203AC0F052
:100520000B80B1E81850203AA0E81850B1E81850F4
:10053000A0E81850BFF4F5AF5FEA027C24BFB1E831
:100540001850A0E8185044BF18C918C0BDE81040A2
:100550005FEA827C24BF51F8043B40F8043B08BFAB
:100560007047D20728BF31F8023B48BF11F8012B72
:1005700028BF20F8023B48BF00F8012B70474FF01E
:1005800000020429C0F0128010F0030C3FF492AF77
:10059000CCF1040CBCF1020F18BF00F8012BA8BF6E
:1005A00020F8022BA1EB0C01FFF784BF5FEAC17CAE
:1005B00024BF00F8012B00F8012B48BF00F8012BE5
:1005C0007047000000487047A05600200048704760
:1005D000A05600207546FFF7F9FFAE4605006946B4
:1005E000534620F00700854618B020B5FFF78AFE75
:1005F000BDE820404FF000064FF000074FF0000824
:100600004FF0000B21F00701AC46ACE8C009ACE8A4
:10061000C009ACE8C009ACE8C0098D46704710B508
:100620000446AFF300802046BDE81040FFF7F5BD5B
:1006300001491820ABBEFEE7260002007047FEE726
:10064000014800F020BA0000D4000020014800F06A
:100650001ABA0000D4000020014800F014BA0000CB
:10066000D4000020014800F00EBA0000D4000020A1
:10067000014800F008BA0000FC000020014800F02A
:1006800002BA0000FC000020014800F0FCB90000A4
:10069000FC000020014800F0F6B90000FC0000203A
:1006A00000B589B0002004900590082006901349F9
:1006B00080010290888908AB020A8DF800208DF82D
:1006C0000100B1F87800020A8DF802208DF80300CD
:1006D000B1F8E400020A8DF804208DF80500B1F8A5
:1006E00050016A46010A8DF806108DF8070002A92C
:1006F000034800F05FF809B000BD0000384B00204F
:10070000D400002000224FF40041014800F0FEBD5B
:10071000000402400122D103014800F0F7BD0000AF
:100720000004024000224FF48041014800F0EEBD79
:100730000004024001229103014800F0E7BD0000DF
:10074000000402407047802000F0ECBC72B6FEE767
:1007500001229103014800F0D9BD0000000C0240C5
:1007600000224FF48041014800F0D0BD000C02404F
:100770000122D103014800F0C9BD0000000C024075
:1007800000224FF40041014800F0C0BD000C0240BF
:1007900090F82020012A07D0022A05D0416A41F4AE
:1007A0008021416201207047006842690A4342612A
:1007B00000207047F0B590F820500468A468012D1F
:1007C00005D0022D03D0416A41F480215DE014F090
:1007D000406F01D1E50055D5C4F30164022C03D963
:1007E000416A41F4000150E00125A5401D608B687D
:1007F0004FF4C0759BB1CE6833434E6843EAC603DD
:10080000066805EB0417F3514FF4C273076803EB56
:1008100004130E69FE50097D012905D009E00E88F8
:10082000CB6843EA4653EBE70168CE5846F480763E
:10083000CE501179D379567941EA036193791B043B
:1008400043EA062319434FF4C676036806EB041601
:1008500099511178D37841EA0361937852781B0457
:1008600043EA022211434FF4C473026803EB0413FA
:10087000D150006805EB0411425842F00102425089
:100880000020F0BD416A41F4001141620120F0BD39
:1008900010B590F82020012A07D0022A05D0416A1D
:1008A00041F480214162012010BD3B48D0F8002274
:1008B00042F00102C0F80022D0F8002222F47C525B
:1008C000C0F80022D0F800224B6A42EA0322C0F8A6
:1008D00000220A7D02F01F0301229A40D0F81C3248
:1008E0009343C0F81C32CB69B3B9D0F80C329343B0
:1008F000C0F80C328C894B6864F31F434C6900EBE1
:10090000C404C4F840320C890B6864F31F434C697B
:1009100000EBC404C4F84432CB69012B16D1D0F8E3
:100920000C321343C0F80C320C884B6864F31F433D
:100930004C6900EBC404C4F840320C89CB6864F302
:100940001F434C6900EBC404C4F844328B69002B8C
:10095000D0F804320ED01343C0F804320B69002BD8
:10096000D0F8143208D01343C0F81432096A0129B0
:1009700004D008E09343EFE79343F5E7D0F81C1267
:100980001143C0F81C12D0F8001221F00101C0F888
:100990000012002010BD000000640040704730B518
:1009A00090F82040012C05D0022C03D0416A41F47C
:1009B00080215DE00468002955D02469A40754D043
:1009C0004FF4D874056804EB01142D5915F0040593
:1009D000956005682D594ED0ED08556005682C5975
:1009E00004F00204D4604FF4DA74056804EB0114D7
:1009F0002D5905F00F05156105682D59C5F307251B
:100A0000956105682C59240C54614FF4DC7204681C
:100A100002EB0112A4581C700468A458240A5C70EC
:100A20000468A458240C9C700468A258120EDA7052
:100A30004FF4DE72046802EB0112A4581C710468C2
:100A4000A458240A5C710468A458240C9C7104689E
:100A5000A258120EDA71006881B1016941F02001DB
:100A60000161002030BDE468A8E7416A41F400114B
:100A70004162012030BD6D0D1560AFE7C16841F0E6
:100A80002001C160EDE72DE9F05F05460068002414
:100A90004669D0F804908768D0F80CB0D0F810A060
:100AA000D0F81880F10748D0F90714D001218160EF
:100AB000B80703D5284600F090FA0CE0780702D575
:100AC0004FF4006407E0380702D54FF4805402E089
:100AD000284600F081FAF80516D529684FF4807091
:100AE0008860B80503D5284600F079FA0CE078054F
:100AF00002D544F4005407E0380502D544F480449C
:100B000002E0284600F06AFAF80316D529684FF487
:100B100080308860B80303D5284600F062FA0CE004
:100B2000780302D544F4004407E0380302D544F4C6
:100B3000803402E0284600F053FA300707D55FEA18
:100B4000CB6004D52968102044F40074C860700795
:100B50004FF0080707D55FEA0B7004D52868C76017
:100B6000284600F0C9F9B00706D52868C068800794
:100B700002D0284600F0C2F9700607D55FEACA60C5
:100B800004D52968102044F480640861B00607D5B4
:100B90005FEA0A7004D528680761284600F0EEF97C
:100BA000F00606D528680069800702D0284600F0C4
:100BB000E6F9B00308D55FEAC96005D529681020B9
:100BC0004860284600F0DCF9F00307D55FEA0970B9
:100BD00004D528684760284600F004FA300446D55A
:100BE0005FEA497040D5F00504D55FEAC87001D0CE
:100BF00044F00104B00504D55FEA887001D544F0E3
:100C00000204700504D55FEA487001D544F004047D
:100C1000300529D518F0700F26D008F07000402854
:100C200015D006DC102809D020280AD0302816D18B
:100C30000AE050280ED0602811D10EE044F00804DC
:100C40000DE044F010040AE044F0200407E044F012
:100C5000400404E044F0800401E044F48074286817
:100C6000816921F070018161296804204860002CAD
:100C700005D0686A204368622846FFF78FFEBDE80A
:100C8000F09F70B5040003D094F8200010B104E088
:100C9000012070BD204600F081F82068016841F015
:100CA0000101016000F038FB0546052604E000F074
:100CB00033FB401B0A2811D820684068C007F6D0D3
:100CC0002068016821F00201016000F025FB054663
:100CD0000BE000F021FB401B0A2806D9606A40F4B3
:100CE0000030606284F82060D2E7206840688007A6
:100CF000EFD4207E0128206801683DD021F08001DA
:100D00000160607E01282068016838D021F0400130
:100D10000160A07E01282068016833D021F0200105
:100D20000160E07E0128206801682ED041F01001AA
:100D30000160207F01282068016829D021F0080186
:100D40000160607F01282068016824D021F004013F
:100D50000160D4E902010843D4E9041211430843B5
:100D60006168491E08432168C86100206062012053
:100D700084F82000002070BD41F08001C0E741F000
:100D80004001C5E741F02001CAE721F01001CFE79B
:100D900041F00801D4E741F00401D9E7F0B587B08C
:100DA000044614216846FFF783FB4E494E4ADFF89C
:100DB00030E10868D4F800C04B4B02240325092613
:100DC00010320027401CF4453BD10860012807D1B0
:100DD000106840F000701060106800F0007005901E
:100DE000186840F0010018601868694600F00100BA
:100DF00005904FF4C0508DE89100CDE903563B4873
:100E000000F09CF900220521132000F023FB1320A1
:100E100000F012FB00220521142000F01BFB14201F
:100E200000F00AFB00220521152000F013FB15201D
:100E300000F002FB00220521162000F00BFB16201B
:100E40004AE0DFF8ACE0F44548D1D2F800C04CF0FD
:100E5000806CC2F800C0D2F800C001280CF0806C91
:100E6000CDF814C0086007D1106840F00070106021
:100E7000106800F000700590186840F002001860DB
:100E80001868694600F0020005904FF440508DE864
:100E90009100CDE90356174800F050F900220521D2
:100EA0003F2000F0D7FA3F2000F0C6FA00220521CB
:100EB000402000F0CFFA402000F0BEFA00220521C9
:100EC000412000F0C7FA412000F0B6FA00220521C7
:100ED000422000F0BFFA422000F0AEFA07B0F0BDA9
:100EE000006400400C000020303802400000024046
:100EF00000680040000402407047000070B50546DD
:100F00001A488CB0854215D107AB6A460021FFF71D
:100F100046FD07A9684602F0C7FD154E002404EB04
:100F2000C40000EB400006EB800001F089FC641C6B
:100F3000042CF4DB0F48854215D109AB6A46002129
:100F4000FFF72DFD09A9684602F0E4FD0A4D0024D3
:100F500004EBC40000EB400005EB800001F070FCE6
:100F6000641C072CF4DB0CB070BD0000D400002022
:100F7000384B0020FC000020584E0020704770477E
:100F8000704770B5044690F82000012804D0606ACC
:100F900040F40020606217E0022084F820002068FE
:100FA000016821F00101016000F0B6F905460DE08D
:100FB00000F0B2F9401B0A2808D9606A40F40030FA
:100FC0006062052084F82000012070BD2068406820
:100FD000C007EDD1606270BD7047704770477047C1
:100FE0007047704770472DE9F0410446876D00F067
:100FF00093F9054694F835000026022806D0802093
:10100000606584F834600120BDE8F08120680168E3
:1010100021F0160101602068416921F080014161E1
:10102000206C08B9A06C20B12068016821F008018B
:1010300001602068016821F0010101600CE000F00E
:101040006BF9401B052807D920206065032084F830
:10105000350084F83460D7E720680068C007EED117
:1010600094F85C103F208840B860012084F8350077
:1010700084F834600020C7E790F83510022903D0C7
:101080008021416501207047052180F835100068F6
:10109000016821F0010101600020704770B51F4C0C
:1010A00080280DD16169C0052161426AA06840F2C3
:1010B0007123584302EB00106061E060401AA08089
:1010C0006078002501210128A08840F6980205D00B
:1010D000904202D36170A570257070BD904203D319
:1010E0006170A570217070BDA0F2B63140F24C4223
:1010F000914210D80A4AA17822F81100491CC8B2BE
:10110000A0700828EFD30649420001F11400FFF750
:1011100082F9A57070BD657070BD0000A000002050
:10112000104B0020044910B50A68024202D0086042
:10113000FFF7B4FF10BD0000143C01402DE9F84F4B
:10114000DFF89C910022A9F1040B03274FF00F0C4C
:1011500009F1040AABF1040E01250B6895402B4000
:10116000AB426ED10C7904F00304012C01D0022CA7
:1011700015D18668540007FA04F826EA0806D1F863
:101180000C8008FA04F848EA0608C0F808804468A9
:10119000AC430D79C5F300159540254345600C79A6
:1011A000E443A40708D0C568540007FA04F6B54321
:1011B0008E68A6402E43C6600C7904F00304022C0E
:1011C00011D1D40800EB8406356A5407E40E0CFAFA
:1011D00004F825EA0805D1F8108008FA04F848EA6E
:1011E0000508C6F820800568540007FA04F6B543E0
:1011F0000E7906F00306A6402E4306604C6814F4F0
:10120000403F66D0374C256845F48045256024680A
:1012100022F0030504F480440094334C05EB0408E9
:10122000D8F808589407260F0CFA06F4A5432F4C5B
:10123000A04201D1002424E02D4CA04202D101247F
:101240001FE046E02B4CA04201D1022419E02A4CB9
:10125000A04201D1032414E0284CA04201D104246F
:101260000FE0274CA04201D105240AE0254CA04202
:1012700001D1062405E0244CA04201D1072400E05E
:101280000824B4402C43C8F80848D9F800404D461B
:101290004E689C43F60200D51C432C60DAF80040EF
:1012A00055464E689C43B60200D51C432C60DBF8C3
:1012B00000405D464E689C43B60300D51C432C603D
:1012C000DEF8004075464E689C43F60300D51C438B
:1012D0002C60521C102AFFF43FAFBDE8F88F0000CD
:1012E000083C014044380240003001400000024008
:1012F0000004024000080240000C024000100240BE
:101300000014024000180240001C02400AB1816132
:1013100070470904FBE7000001488068704700003F
:1013200010000020024881680278114481607047F3
:10133000100000200B4810B5016841F400710160F5
:10134000016841F480610160016841F480710160CD
:10135000032000F09FF80F2000F006F800F050F88E
:10136000002010BD003C024030B505461F4887B044
:101370000024016841F002010160006806A900F044
:1013800002000590684600F031F90398A8B100F01A
:101390004DF940001649174AB0FBF1F11648491EB5
:1013A000026040F2E732C0E90324C0E9011484611D
:1013B00000F082FB040003D015E000F037F9E9E704
:1013C0000D4800F0C3FB04000DD11D2000F034F8DF
:1013D000102D07D2002229461D2000F03BF80748B7
:1013E000056000E0012407B0204630BD40380240CF
:1013F00040420F0000040040F401002014000020CF
:101400000C4882B0016841F480410160006800F43A
:10141000804000900748001F016841F08051016042
:101420000068002200F0805000900F21901E02B052
:1014300000F010B844380240002809DB00F01F0219
:10144000012191404009800000F1E020C0F8001126
:1014500070470000F0B40E4B1B68C3F30223C3F1C6
:101460000704042C00D904241D1D072D01D20023DC
:1014700000E0DB1E012606FA04F56D1E0D409D40BE
:101480009E40761E164045EA0601F0BC01F0DABE29
:101490000CED00E0064A00F0070110684FF6FF036C
:1014A000184040EA012003490843106070470000DB
:1014B0000CED00E00000FA052DE9F0470D460400B0
:1014C00065D0DFF81491D9F80000EFB200F0070002
:1014D000A84207D289F80070D9F8000000F0070090
:1014E000A84254D120683D4E810712D5400703D54C
:1014F000306840F4E05030602078000703D5306851
:1015000040F4604030603068A16820F0F00008438B
:1015100030602078C0072DD0304960680839012834
:1015200012D0022813D0032811D009688907002996
:101530002DDA316821F0030101433160FFF7ECFE41
:10154000804641F2883A0EE009688903EFE70968AE
:101550008901ECE7FFF7E0FEA0EB0801514502D955
:101560000320BDE8F0873068616800F00C00B0EB44
:10157000810FEFD1D9F80010484601F00701A942C8
:1015800007D90770006800F00700A84201D00120C9
:10159000E7E72078400705D53068E16820F4E0509F
:1015A000084330602078000706D53068216920F4B0
:1015B000604040EAC100306000F058F83168084AE5
:1015C000C1F30311515CC840064908600648006831
:1015D000FFF7CAFE0020C4E7003C02400838024082
:1015E000E85F00081C000020140000200F220260A9
:1015F0000C4A136803F003034360136803F0F0031D
:101600008360136803F4E053C36012684FF4E0533F
:1016100003EAD20202610448006800F00700086093
:101620007047000008380240003C02400448054969
:1016300000680968044AC1F38221515CC8407047C0
:101640001C00002008380240F85F000804480549E3
:1016500000680968044AC1F34231515CC8407047D0
:101660001C00002008380240F85F0008154810B53B
:10167000006810F00C01144813D0431004290FD057
:1016800008290ED10F4C241F216801F03F02216868
:10169000490207D52068C0F38810A0FB030106E0CB
:1016A000184610BD2168C1F38811A1FB0001002379
:1016B000FEF73AFE2168C1F30141491C4900B0FB25
:1016C000F1F010BD083802400024F4002DE9F84F75
:1016D000040075D02078DFF838A3C007AAF104050C
:1016E00048D00AF104000168C1F38101012908D042
:1016F0000068C0F3810002280AD1DAF80000400235
:1017000006D52868800335D560680028E1D031E02F
:101710006068B0F5803F10D0B0F5A02F286810D0D9
:1017200020F480302860286820F4802028606068D9
:10173000A0B1FFF7F1FD06460CE0286840F48030C8
:10174000F4E740F480202860F7E7FFF7E5FD801B11
:10175000642871D828688003F7D50BE0FFF7DCFD1B
:10176000064604E0FFF7D8FD801B6428F1D82868FE
:101770008003F7D42078DFF89C9280074FF0000BAD
:101780003DD5A348001D016811F00C0F08D000687A
:10179000C0F3810002280AD1DAF80000400206D422
:1017A0002868800715D5E068012809D111E0E068B4
:1017B000B8B10120C9F80000FFF7AEFD064605E00C
:1017C00022E1FFF7A9FD801B0228C2D82868800704
:1017D000F7D52868216920F0F80040EAC1002860A8
:1017E0000DE0C9F800B0FFF797FD064604E0FFF7EB
:1017F00093FD801B02281FD828688007F7D4207823
:10180000000722D5824F84486169703771B1012188
:101810000160FFF781FD064604E0FFF77DFD801BB8
:10182000022809D838688007F7D50EE0C0F800B064
:10183000FFF772FD064605E082E0FFF76DFD801BB5
:1018400002287DD838688007F7D42078400765D50E
:101850006F484FF000083C300068C0000BD46C4863
:101860003C30016841F08051016000684FF0010890
:1018700000F080500090694F3868C0050FD4386878
:1018800040F480703860FFF747FD064604E0FFF73C
:1018900043FD801B022853D83868C005F7D55C4F3C
:1018A000A0686C3701280FD00528386810D020F0C8
:1018B00001003860386820F004003860A068B0B1DA
:1018C000FFF72AFD06460EE0386840F00100F4E715
:1018D00040F004003860F7E7FFF71EFD811B41F27E
:1018E0008830814263D838688007F5D50DE0FFF76E
:1018F00013FD064606E0FFF70FFD811B41F288301D
:10190000814254D838688007F5D4B8F1000F05D06B
:101910003F483C30016821F080510160A069B8B3B4
:101920003B49091D0968C1F38101022946D00228FB
:10193000584606D0C9F86000FFF7EEFC044639E0CF
:1019400035E04F46C9F86000FFF7E6FC064604E0C4
:10195000FFF7E2FC801B022829D828688001F7D411
:10196000D4E907010843A16A2D4A490802EB014165
:10197000626A41EA8211084394F82C1040EA01613E
:10198000CAF8001001203866FFF7C6FC044605E0DF
:101990003CE0FFF7C1FC001B022808D82868800142
:1019A000F7D533E0FFF7B8FC001B022802D903206B
:1019B000BDE8F88F28688001F4D427E00128F7D02B
:1019C000DAF80000E26900F4800191421CD1226A39
:1019D00000F03F01914217D147F6C071626A0140A1
:1019E000B1EB821F10D1A26A4FF0FF3300F44031F7
:1019F00003EB5202B1EB024F06D194F82C1000F029
:101A00007060B0EB016F01D00120D1E70020CFE77B
:101A10000438024000004742800E474200700040F8
:101A20000000FFFF7047704770B590F83C20012A16
:101A300032D0012580F83C50022280F83D20026817
:101A40005368946823F070060B6833435360134B5C
:101A500002689A4214D0B2F1804F11D0104B9A42D2
:101A60000ED0104B9A420BD00F4B9A4208D00F4B1E
:101A70009A4205D00E4B9A4202D00E4B9A4204D1A4
:101A8000496824F080031943916080F83D5000219B
:101A900080F83C10084670BD022070BD0000014077
:101AA0000004004000080040000C00400004014019
:101AB000004001400018004010B5040003D094F825
:101AC0003D0010B107E0012010BD002084F83C006B
:101AD000204600F01FF8022084F83D00211D2068F8
:101AE00000F0C6FF012084F8460084F83E0084F828
:101AF0003F0084F8400084F8410084F8420084F8F4
:101B0000430084F8440084F8450084F83D00002038
:101B100010BD000008B50068B0F1804F12D10A482E
:101B2000016841F0010101600068002200F001003D
:101B3000009005211C20FFF78DFCBDE808401C200B
:101B4000FFF77ABC08BD00004038024090F83D1015
:101B5000012901D001207047022180F83D10016861
:101B6000CA6842F00102CA6000681149884214D074
:101B7000B0F1804F11D00F4988420ED00E498842F3
:101B80000BD00E49884208D00D49884205D00D4936
:101B9000884202D00C49884204D1816801F00701D3
:101BA000062903D0016841F001010160002070475F
:101BB000000001400004004000080040000C00400C
:101BC00000040140004001400018004070B5044688
:101BD00090F83C000025012817D0012684F83C60CD
:101BE000022084F83D002068826822F0770222F407
:101BF0007F4282600868502838D00DDC20284FD002
:101C000005DC90B3102811D14AE0022070BD3028C5
:101C100046D040280AD13BE060282FD070280DD054
:101C2000B0F5805F03D0B0F5005F12D0012584F8D5
:101C30003D60002084F83C00284670BDCB68D1E9A7
:101C40000121206800F078FF2068816841F0770169
:101C500009E0CB68D1E90121206800F06DFF206820
:101C6000816841F480418160E1E719E0CA68496810
:101C7000206800F073FF5021206806E0CA684968B8
:101C8000206800F07CFF6021206800F05FFFCEE755
:101C9000CA684968206800F061FF40212068F4E7C5
:101CA000226801461046F0E7704770B504460068A8
:101CB00001694FF00005C943890715D4C168C943BC
:101CC000890711D4E91E016101202077206880690D
:101CD0008007204602D0FFF7E7FF04E000F098F805
:101CE000204600F096F8257720680169C943490726
:101CF00017D4C168C943490713D46FF004010161C7
:101D0000022020772068806910F4407F204602D0AE
:101D1000FFF7CAFF04E000F07BF8204600F079F8F6
:101D2000257720680169C943090716D4C168C943EA
:101D3000090712D46FF008010161042020772068A0
:101D4000C0698007204602D0FFF7AEFF04E000F034
:101D50005FF8204600F05DF8257720680169C943E7
:101D6000C90617D4C168C943C90613D46FF010015E
:101D70000161082020772068C06910F4407F204668
:101D800002D0FFF791FF04E000F042F8204600F097
:101D900040F8257720680169C943C90708D1C1689F
:101DA000C943C90704D1891E0161204600F032F8F9
:101DB00020680169C943090609D4C168C9430906F5
:101DC00005D46FF0800101612046FFF72BFE2068EB
:101DD0000169C943490609D4C168C943490605D404
:101DE0006FF040010161204600F050F82068016961
:101DF000C94389060BD4C168C943890607D46FF06B
:101E0000200101612046BDE87040FFF70CBE70BDA7
:101E10007047704730B40168B1F1804F22D1164A43
:101E2000164B11681960164B491C11601988154A28
:101E3000491C89B21980642912D300241C8051885E
:101E4000491C89B251803C290AD354809188491C8D
:101E500089B291803C2903D39480D188491CD180D8
:101E60001988118000680849884202D130BCFFF708
:101E700059BA30BC70470000A8000020B80000200C
:101E8000BC000020BE0000200004004070477047E6
:101E900070470000F8B5016804460868CA684B69D5
:101EA00010F00F0F4FF0000559D003F0010602F4B7
:101EB0009077374365D0C10705D0D10503D5216C94
:101EC00041F001012164410705D5D90703D0216CF8
:101ED00041F002012164810705D5D90703D0216CA7
:101EE00041F004012164010707D502F020013143CC
:101EF00003D0216C41F008012164216C00293AD003
:101F0000800604D5900602D5204600F080FE2068A9
:101F10004069216CC0F38010090700D460B32046EB
:101F200000F04EFE20684069400621D5206814303C
:101F300050E8001F21F0400140E80012002AF5D1CE
:101F4000A06BA8B16C490165A06BFFF795F800285C
:101F500011D0A06B016D01B0BDE8F04008478306C9
:101F60000FD593060DD52046BDE8F84000F04FBED2
:101F70002046FFF78DFFF8BD2046FFF789FF256457
:101F8000F8BD266B2023012E79D1C60677D5D6065B
:101F900075D50868486800904869400640D5A16B2F
:101FA000086840680004000CEAD0A28D8242E7D99C
:101FB000E085C869B0F5807F2DD020680C3050E8EE
:101FC000001F21F4807140E80012002AF5D120683A
:101FD000143050E8001F21F0010140E80012002AEF
:101FE000F5D12068143050E8001F21F0400140E88E
:101FF0000012002AF5D184F83E30256320680C30A9
:1020000050E8001F21F0100140E80012002AF5D12D
:10201000A06BFEF7E8FFA08DE18D401A81B229E0A8
:10202000A08DE18D401A81B2E08D0028A8D0002952
:10203000A6D020680C3050E8002F22F4907240E8BF
:102040000026002EF5D12068143050E8002F22F031
:10205000010240E80026002EF5D184F83E302563C9
:1020600020680C3050E8002F22F0100240E80023D6
:10207000002BF5D12046FFF70AFFF8BDFFE7050664
:102080002BD5150629D594F83D002128F5D1A06857
:10209000B0F5805F01D12069B0B1206A411C216296
:1020A000216800784860E08C401E0004000CE08449
:1020B000E3D12068C16821F08001C1602068C16857
:1020C00041F04001C160D8E7206A0088C0F30800F1
:1020D0004860206A801C2062E5E74006CDD55006A6
:1020E000CBD5CA68204622F04002CA6084F83D3051
:1020F00000F0B3F8C1E70000B12B000870B5040090
:1021000004D094F83D00002510B106E0012070BD18
:1021100084F83C50204600F023F8242084F83D0049
:102120002068C16821F40051C160204600F0D0FD54
:102130002068016921F4904101612068416921F022
:102140002A0141612068C16841F40051C1602564E1
:10215000202084F83D0084F83E00002070BD00007F
:10216000F0B587B0044614216846FEF7A1F9344A59
:1021700021680024334802250326914235D1314994
:1021800010310A6842F480120A60096801F4801173
:102190000591016841F004010160016801F004014A
:1021A0000591016841F008010160006802AA00F091
:1021B00008000590E802CDE90005082782E8D00074
:1021C00069462148FEF7BAFF0420CDE9000502AABE
:1021D000694682E8D0001D48FEF7B0FF00220321C7
:1021E0003520FFF737F9352026E0194A914225D1ED
:1021F000144914310A6842F010020A60096801F0BB
:1022000010010591016841F001010160006802942C
:1022100000F0010005904FF4C060CDE900050720F3
:10222000CDE9036069460B48FEF788FF00220321D1
:102230002520FFF70FF92520FFF7FEF807B0F0BDC6
:10224000005000403038024000080240000C0240BC
:10225000001001400000024070477047FEE709226D
:1022600002600022826580ED130AA0F8541080ED10
:10227000050A01827047D0ED000AF4EEC00AF1EEC3
:1022800010FA01DD80ED000AD0ED000AB1EE400A3F
:10229000F4EEC00AF1EE10FA01D280ED000A7047A8
:1022A00000B593B0082100208A0102920490CDE984
:1022B00005010A90CDE90B01501E0890184810AB9B
:1022C00081890A0A8DF800208DF80110B0F8781085
:1022D0000A0A8DF802208DF80310B0F8E4100A0AFB
:1022E0008DF804208DF80510B0F850110A0A8DF809
:1022F00006208DF80710B0F8BC016A46010A8DF877
:1023000038108DF8390002A90648FEF753FA11ABD0
:102310000EAA08A90348FEF74DFA13B000BD00004D
:10232000584E0020FC000020104810B50E490160F6
:102330000321416000214FF400228160C0E90312B3
:102340004FF4401242610176012242768176C176D5
:1023500001774177FEF795FC002803D0BDE81040D7
:10236000FEF7F4B910BD000000640040D400002066
:10237000104810B50E4901600321416000214FF45F
:1023800000228160C0E903124FF4401242610176DD
:10239000012242768176C17601774177FEF771FCA2
:1023A000002803D0BDE81040FEF7D0B910BD0000F2
:1023B00000680040FC00002010B50A4801F0DAFC7B
:1023C000094C084A0021A060483A084801F006FD7F
:1023D000044A2060243A0021054801F0FFFC6060B7
:1023E00010BD0000D85F00080000002093290008FD
:1023F000DD2500082DE9F04186B014216846FEF77E
:1024000057F833480024016841F004010160016875
:1024100001F004010591016841F0200101600168AB
:1024200001F020010591016841F08001016001681F
:1024300001F080010591016841F00201016001682D
:1024400001F002010591016841F008010160016895
:1024500001F008010591016841F001010160006887
:102460001C4F00F001004FF4404605900022314619
:102470003846FEF74BFFDFF86080002231464046C9
:10248000FEF744FF802000904FF48810CDE901044E
:1024900069461248FEF752FE01250096CDE9015427
:1024A000694638460394FEF749FE0096CDE901548B
:1024B000694640460394FEF741FE0022052117209D
:1024C000FEF7C8FF1720FEF7B7FF06B0BDE8F081A2
:1024D0003038024000040240000C02400014024068
:1024E00010B586B000241748009401940294039418
:1024F00004944FF08041059401605321C0E9011418
:1025000042F21071C0E9031480218161FFF7D4FA0F
:1025100008B1FEF71BF94FF4805000906946094856
:10252000FFF754FB08B1FEF711F9049404A905481C
:102530000594FFF779FA002801D0FEF707F906B0F5
:1025400010BD0000240100200C4810B50A490160AC
:102550004FF4E1314160002181600C22C160C0E98B
:1025600004128161C161FFF7C9FD002803D0BDE8F5
:102570001040FEF7EBB810BD005000406C01002089
:102580000C4810B50A4901604FF4E1314160002167
:1025900081600C22C160C0E904128161C161FFF752
:1025A000ADFD002803D0BDE81040FEF7CFB810BD48
:1025B00000100140B0010020B4EEE00AF1EE10FA84
:1025C00001DDB0EE600AF1EE600AB4EEE00AF1EE71
:1025D00010FA01D2B0EE600A7047FEE700F0BCFED0
:1025E00000F020F901F0E2F8012001F087FBF9E7A3
:1025F0002DE9F05FDFF8CCB10025ABF52176A846D8
:10260000A6F53D7905EBC50000EB400109EB81041F
:10261000207903287DD059F821000A2838D2DFE834
:1026200000F03B830514831838A4833EB4F90800F6
:1026300000EE100AC5EBC50000EB0510F8EEC00A6D
:1026400094ED050A06EB800020E0204600F0E2FC55
:10265000ECE7B4F90E00D4ED180A00EE100AC5EB51
:10266000C50000EB051A0BEB8A00B8EEC00A07465E
:1026700001F0F8FB97ED0F0A84ED050AB4F90800A4
:1026800000EE900A06EB8A00F8EEE00A01F0EAFBA1
:102690004AE0B4F908002AE0A4F80C8044E0B4F958
:1026A0000800002801DD024600E0424200EE102A48
:1026B000D4ED050AB6EE001AB8EEC00A60EE810A43
:1026C000B4EEE00AF1EE10FA4CD8E26D521CE2656D
:1026D0001E2A0CDB01229FED3C0A84ED180AA2653C
:1026E000022249F8212084ED050AA4F8108000EEAA
:1026F000100AC5EBC50000EB0510F8EEC00A94ED1A
:10270000050A06EB8007384601F0ACFBB4F910006F
:1027100000E00DE000EE100AF8EEC00A97ED0F0A97
:10272000FFF74AFF87ED0F0A6D1C072DFFF66AAF12
:1027300000204B4600EBC00101EB410153F8212082
:10274000042A08D003EB81010A79012A2BD0022A3E
:1027500029D0A1F80C80401C0728EBDBBDE8F05F16
:10276000FFF79EBDC4F85C80C1E7B4F90E00D4ED5C
:10277000180A00EE100AC5EBC50000EB051A0BEBBA
:102780008A00B8EEC00A074601F06CFB97ED0F0A0D
:1027900006EB8A0784ED050AB4F9080000EE900AFA
:1027A000F8EEE00AAFE7C0EBC00202EB001206EB66
:1027B000820292ED0F0ABDEEC00A10EE102A8A8145
:1027C000C9E70000D053002000000000FEE7000031
:1027D000FDEEC00A0521016010EE901A09B200EE6C
:1027E000901AC181F8EEE00A70EEC00AF5EEC00A58
:1027F000F1EE10FA00EE901AF8EEE00A02DD30EE8B
:10280000C00A01E030EE600A10EE100AB0F17E5FFF
:1028100002DAB7EE000A70479FED010A7047000028
:102820000000000010B500F081F800F053FE00F049
:10283000DBFA02490020087010BD0000C80000202B
:1028400070B59FED350A90F86420C1882AB10279ED
:10285000012A08D0022A0BD108E0A0F86610012155
:1028600080F8641070BDB3EE030A01E09FED2B0AFF
:10287000B0F90820DFED2A0A002A9FED2A1A2A4B18
:10288000B0F8662041F6FF741CDB9142A1EB020216
:1028900004D2224440F2E244A2420BDA01EE902A32
:1028A000F8EEE11A81EEA02A62EE010A80EE801AAB
:1028B00083ED001A93ED000AB5EEC00AF1EE10FAAE
:1028C0001EDC23E0914224D9641A04F2E145154448
:1028D00040F6C216B5420CD8224401EE902AF8EE1A
:1028E000E11A81EEA02A62EE010A80EE801A83EDE1
:1028F000001A93ED000AB5EEC00AF1EE10FA05D207
:10290000D0ED180A30EE800A80ED180AA0F86610A3
:1029100070BD8A1AE1E700000000000000001042CC
:1029200000F8FF450000B443D000002015499FED9A
:10293000140A002081ED030A81ED040A81ED050AE5
:1029400081ED020A81ED000A81ED010A01EB8002AE
:10295000401C82ED060A0428F8DB0020886481ED23
:102960000A0A81ED0C0A81ED0B0A81ED100A81ED56
:10297000110A81ED0F0A81ED0E0A81ED0D0A7047F3
:1029800000000000545600200221016080ED050A7D
:102990007047012001F0B2F9FBE710B54FF0E020DD
:1029A000006902F03BFD012803D0BDE8104002F0B1
:1029B0002DBA10BD30B593B030216846FDF778FDD3
:1029C00014210CA8FDF774FD1D480025016841F095
:1029D00080510160006800F0805011901948016832
:1029E00041F4804101600068022400F480401190AD
:1029F00001200090000401908001CDE9064008AA62
:102A00000420A82182E813000B906846FEF75EFEC2
:102A100008B172B6FEE70CA90F2081E831004FF42F
:102A2000A0500F904FF48050109005210CA8FEF795
:102A300043FD002801D072B6FEE713B030BD0000A0
:102A400040380240007000400248016841F47001C3
:102A50000160704788ED00E00148FFF726B90000EB
:102A6000240100200148FFF720B90000F4010020F4
:102A7000F0B50268254D264E264FDFF89CC0274B47
:102A80004FF0804EA84209D0704507D0B04205D023
:102A9000B84203D0604501D0984203D122F07004BF
:102AA0004A682243A8421BD0704519D0B04217D0C3
:102AB000B84215D0604513D0984211D0184CA042AE
:102AC0000ED0184CA0420BD0174CA04208D0174C87
:102AD000A04205D0164CA04202D0164CA04203D111
:102AE00022F44074CA6822434C6922F080022243D7
:102AF00002608A68C2620A688262A84201D0984273
:102B000001D10969016301214161F0BD000001406B
:102B10000004004000080040000C00400004014098
:102B200000400140004401400048014000180040BE
:102B3000001C00400020004010B5846842EA0322D7
:102B400024F47F440A432243826010BD826822F04D
:102B500070020A4342F007018160704710B5046AB1
:102B6000036A23F001030362836923F0F00343EA5D
:102B7000021324F00A020A438361026210BD10B5F9
:102B8000036A23F0100303628469036A24F4704427
:102B900044EA023223F0A00343EA01118261016298
:102BA00010BD00000148FFF775B900006C0100205E
:102BB00010B5806B0021C185C184FFF769F910BD94
:102BC00001680C3151E8002F22F4907241E8002393
:102BD000002BF5D10168143151E8002F22F00102D9
:102BE00041E80023002BF5D1016B012909D10168CF
:102BF0000C3151E8002F22F0100241E80023002B95
:102C0000F5D1202180F83E1000210163704708B5FE
:102C100090F83E10222901D0022008BD81684FF4AF
:102C20008053994201D1026922B1826A99421BD034
:102C300049B10AE00268816A5268C2F308020A8058
:102C4000816A891C08E0016971B10168496801F075
:102C50007F011170816A491C8162C18D491E09047E
:102C6000090CC18503D019E001684968F1E70168E2
:102C7000CA6822F02002CA600168CA6822F4807221
:102C8000CA6001684A6922F001024A61202180F885
:102C90003E10016B012903D0FFF7DEFA002008BDCA
:102CA0000021016301680C3151E8002F22F010026D
:102CB00041E80023002BF5D101680A68D20602D54D
:102CC0000A6849680091818DFFF7E1F8E6E70000A6
:102CD00070B5044600680169E26821F4405111436F
:102CE0000161A1682069E269014360691043014301
:102CF0002068C26849F20C639A430A43C2602068A4
:102D00004169A26921F44071114341613149206850
:102D1000884202D03049884202D1FEF797FC01E098
:102D2000FEF784FCE2690023192164253226B2F5FE
:102D3000004F626828D0A0FB0101930F9200FDF7BD
:102D4000F3FA0146B0FBF5F06FF01802504301EBC7
:102D5000800006EB0010B0FBF5F000F0F002B1FBD4
:102D6000F5F002EB0012B1FBF5F06FF018035843D9
:102D700001EB800006EB0010B0FBF5F000F00F0057
:102D800021681044886070BDA0FB010192185B416E
:102D9000FDF7CAFA0146B0FBF5F00201B1FBF5F010
:102DA0006FF01803584301EB800006EBC000B0FB46
:102DB000F5F000F0F80002EB4002B1FBF5F05843EB
:102DC00001EB800006EBC000B0FBF5F000F007005F
:102DD000D6E7000000100140001401400148FFF751
:102DE00059B80000B001002010B5794801212DED3F
:102DF000068B017180F8701080F8DC1080F84811A3
:102E000080F8B4119FED739AF0EE493A9FED72AAE3
:102E1000F2EE0A2AB0EE4A3A9FED708AB0EE482AE6
:102E2000DFED6F9AF0EE691ADFED6E8AF0EE480A78
:102E3000B0EE480AB0EE681A05216B4801F0F0F8D0
:102E40006948F0EE493AB6EE003AF2EE0C2AB0EEDE
:102E5000482AF0EE691AB0EE681AF0EE480AB0EEB1
:102E6000480A05215C3001F0DBF85F48F0EE493A92
:102E7000B0EE4A3AF2EE0A2AB0EE482AF0EE691AAB
:102E8000B0EE681AF0EE480AB0EE480A0521B830F4
:102E900001F0C6F8F0EE493AB0EE4A3AF2EE0E2AE8
:102EA000B0EE482AF0EE691AB0EE681A9FED4FAA0C
:102EB000F0EE4A0ADFED4EAA05214E48B0EE6A0A4E
:102EC00001F0AEF84B48F0EE493AB6EE003AF3EEB8
:102ED000042AB0EE482AF0EE691AB0EE681AF0EE55
:102EE0004A0AB0EE6A0A05215C3001F099F89FEDBC
:102EF00042AAB0EE683AF2EE082AF0EE4A3AB0EE94
:102F0000482AF0EE691AB0EE681ADFED3CAA9FED90
:102F10003C9A0421F0EE6A0AB0EE490A394801F001
:102F20007FF83848F0EE4A3AB0EE683AF2EE0E2AF0
:102F3000B0EE482AF0EE691AB0EE681AF0EE6A0AAE
:102F40009FED310A04215C3001F06AF8F0EE4A3A54
:102F5000B0EE683AF2EE042AB0EE482AF0EE691AB2
:102F6000B0EE681AF0EE490AB0EE480A042127488C
:102F700001F056F82548F0EE4A3AB0EE683AF2EE23
:102F8000042AB0EE482AF0EE691AB0EE681AF0EEA4
:102F9000490AB0EE480A04215C3001F041F8F0EE35
:102FA0004A3AB0EE683AB0EE482AF0EE691AB0EE4E
:102FB000681AF0EE490AB0EE480ABDEC068B04210F
:102FC000F2EE042A0F48BDE810405C3801F028B842
:102FD000584E0020CDCC4C3ECDCCCC3E000080469F
:102FE000CDCCCC3D000000004C51002000006144DD
:102FF00000000046605200209A99993E0000484423
:1030000000008044E454002000000045D05300201C
:10301000FEE7000010B504462DED068B4FF07E5103
:10302000D0ED0F2A12EE900A9FED829A884218DCAA
:10303000F5EEC02AF1EE10FA13D394ED103A13EE28
:10304000100A88420DDCB5EEC03AF1EE10FA08D352
:1030500094ED0D2A94ED0C1AB4EEC12AF1EE10FA9B
:1030600004D284ED059ABDEC068B10BD94ED0A0ADE
:10307000D4ED0B0AB4EE600AF1EE10FA04D121EEA1
:10308000020A84ED050AEEE770EEC01AF5EEC01AEA
:10309000F1EE10FA01DC70EE601AF0EE004AF4EE88
:1030A000C00A62EEA12A23EE213A71EEE23A22EE44
:1030B000A45A63EE245A33EEC34A62EE023A41EE5A
:1030C000413AC3EE859AD4ED0E3A63EEA33AB0EEE0
:1030D000635A02EE425A85EE253AF1EE10FA06DD09
:1030E00094ED185AB4EEC05AF1EE10FA23D3F4EE70
:1030F000C00AF1EE10FA06D294ED185AB4EEC05A96
:10310000F1EE10FA17DCF4EEC00AF1EE10FA06DD6B
:1031100094ED185AB4EEE05AF1EE10FA0BDCF4EE2E
:10312000C00AF1EE10FA09D294ED185AB4EEE05A42
:10313000F1EE10FA02D284ED051A54E0D4ED180A2B
:1031400030EEC08AB5EEC08AF1EE10FA01DC30EE46
:10315000608AB4EEE28AF1EE10FA20D221EE010A82
:1031600010EE100A02F098FE41EC1A0B18EE100A4D
:1031700002F092FE41EC180B19EE900A02F08CFE60
:103180009FED2D1B53EC112B02F0D2FB53EC182BAF
:1031900002F0CEFB53EC1A2B02F022FB1AE032EEC7
:1031A000840AB4EEC80AF1EE10FA02DD84ED052AB5
:1031B00019E031EEC80A63EE240AB5EEC00AF1EE5A
:1031C00010FA01DC38EE610A40EEC03A13EE900AC4
:1031D00002F062FE41EC100B00F044F851EC100BD1
:1031E00002F0CCFA606194ED0B0AD4ED0A0AB4EE59
:1031F000E00AF1EE10FA05D2D4ED050AF1EE600A0C
:10320000C4ED050AD4ED180A0D4830EEC00AB0EE40
:10321000C00A10EE101A814203DA0121616484EDC4
:10322000059A10EE101A81427FF72DAF00206064DE
:1032300019E700000000000000000000000000404E
:10324000000040400907090E002804DB00F1E020DF
:1032500080F80014704700F00F0000F1E02080F8C3
:10326000141D704700B52DED048BB0EE409AF0EEC2
:10327000609A83B051EC190B02F058FC41EC180B2A
:1032800018EE100A18EE901A8DED008B002818BF6A
:103290000120084320F00040C0F17F6000F1E040D1
:1032A000C00F14D019EE101A19EE900A8DED009B84
:1032B000002918BF0121084320F00040C0F17F60C1
:1032C00000F1E040C00F04BF0120FDF720F9B0EE8F
:1032D000480A03B0F0EE680ABDEC048B00BD0000A4
:1032E00008494868022801DB022004E0012803D0D5
:1032F000002801DC00204860000300EE100AB8EE50
:10330000C00A7047C8000020F0EE400A9FED100A86
:1033100010B520EE800A2DED028BB1EE001A0D489B
:1033200060EE818AB0EE408AFFF72EFB0948B0EECE
:10333000680A6C30FFF728FB0648B0EE480AD83020
:10334000FFF722FBBDEC028BBDE81040FFF750B940
:10335000CDCCCC3C584E002000B595B001210020CA
:103360001391CDE911010B900E900C900D901090DF
:1033700009910F90CDE9070101900290039004900C
:10338000069005900BA90F48FDF782FA0D48FDF74E
:10339000F8FD02210B48FDF7FBF901210948FDF773
:1033A000F7F901A90848FDF773FA0748FDF7E9FDA9
:1033B00002210548FDF7ECF901210348FDF7E8F982
:1033C00015B000BDD4000020FC0000202DE9F0471E
:1033D000394E9FED3A1A9FED3A2AD6ED000AD6ED06
:1033E000011A96ED020A20EE813ADFED362ADFF867
:1033F000E080002401EEC13A4FF0020A08F5D879C6
:1034000000EE023A63EE223A9FED2F3A83EE834AB2
:10341000DFED2E3A61EEA33A61EE811A40EEC13A39
:1034200040EE023A86ED064A63EEA23A83EE834A04
:10343000F0EE613A40EE811A40EEC13A40EE021AD7
:1034400040EE023A21EEA20A63EEA23A86ED074A66
:10345000C0EE030A83EE834A86ED084AC6ED090AE8
:1034600004EBC40000EB400006EB840248F820A007
:1034700092ED060A08EB800585ED050AB5F908000E
:1034800000EE900AC4EBC40000EB041109EB8100CC
:10349000F8EEE00A074600F0E5FC97ED0F0A641C21
:1034A000042CBDEEC00A10EE100AA881D8DBBDE8DE
:1034B000F047FDF7F5B8000054560020E604353F0C
:1034C0003333333F00800E44C57D743EE60435BF80
:1034D000384B002010B5354801212DED068BF2EE5A
:1034E000082AF6EE001A017180F870109FED318AFB
:1034F00080F8DC10DFED2E8A9FED2F9ADFED2F9AFA
:103500009FED2FAA80F84811F0EE683AB0EE483AE5
:10351000B0EE492AB0EE481AF0EE690AB0EE4A0A57
:103520000421284800F07CFD2648F0EE683AB0EE11
:10353000483AF2EE082AB0EE492AF6EE001AB0EE4A
:10354000481AF0EE690AB0EE4A0A04215C3000F035
:1035500067FD1C48F0EE683AB0EE483AF2EE082AF1
:10356000B0EE492AF6EE001AB0EE481AF0EE690AFB
:10357000B0EE4A0A0421B83000F052FDF0EE683A8D
:10358000B0EE483AB0EE492AB0EE481AF0EE690AB9
:10359000B0EE4A0ABDEC068BF2EE082AF6EE001AEF
:1035A0000421BDE81040084800F03ABD384B002027
:1035B000CDCC4C3E0000000000008046000080445E
:1035C00000000046E84C0020FC4D0020054810B5E6
:1035D00090ED690A00F5A270FFF7FAF8BDE8104017
:1035E000FFF706B8584E002010B5FDF78BF8BDE880
:1035F00010409FED020A00F003B800000000000038
:1036000010B52DED020B6846DFED0B0A9FED0B0A9E
:1036100000F02AFB9DED000AB5EEC00AF1EE10FAAB
:1036200009D810EE100A0649884204D80548FFF769
:10363000CFF8FEF7DDFF1CBD000087C300000000CF
:10364000000087C39C4F002010B5FDF75BF8BDE874
:1036500010409FED020AFFF7D3BF0000000087C3B0
:10366000234A9FED240ADFED240A51882348A1F262
:10367000D253DFED231AB0EE001A142B0CD902EE50
:10368000101AB8EE422A72EE402A82EEA02A22EEEA
:10369000012A80ED002A01E0C0ED001A1188A1F294
:1036A000D253142B0CD902EE101AB8EE422A72EE45
:1036B000402A82EEA02A22EE012A80ED012A01E0B2
:1036C000C0ED011AD188A1F2D252142A0CD901EE10
:1036D000901AF8EE611A31EEC00AC0EE201A21EEFF
:1036E000810A80ED020A7047C0ED021A704700009F
:1036F000244B00200080BB440000FA4354560020B5
:1037000000000000244A9FED250ADFED250A5188BC
:103710002448A1F2D2539FED241AF0EE001A142B84
:103720000CD902EE101AB8EE422A72EE402A82EE4E
:10373000A02A22EE212A80ED012A01E080ED011A63
:103740001188A1F2D253142B0ED902EE101AB8EE42
:10375000422A32EE402AC2EE202AB8EE002A22EE99
:10376000822A80ED002A01E080ED001AD188A1F2C2
:10377000D252142A0CD901EE101AB8EE411A31EEC9
:10378000400A80EE201A21EE210A80ED020A7047DD
:1037900080ED021A70470000244B00200080BB44DB
:1037A0000000FA4354560020000000002DE9F05FAD
:1037B000B74C4FF0040A2DED028B4FF0020922782E
:1037C0009FEDB48AB54EB4494FF4966BF0894FF42F
:1037D000C7774FF4E16540F2DC58052A10D2DFE8E4
:1037E00002F003132767A2000020606081ED028AC7
:1037F00081ED008A81ED018AFCF784FF01202070B1
:10380000BDEC028BBDE8F09F31890029F8D07189A9
:103810000029F5D0B1890029F2D00028F0D0404528
:1038200002D284F80090EBE7EAD984F800A0E7E739
:1038300040453BD2FFF714FFFFF7C8FD708958459C
:1038400002D200F0D1F90EE0A0F21551B94206D82B
:10385000B0EE480A00F0D6F90320207003E0A84239
:1038600001D900F0F3F9B089584502D2FFF7BCFE48
:103870000AE0A0F21551B94202D8FCF74BFF03E071
:10388000A84201D9FFF7E0FE3189414506D26068C0
:10389000A0F101006060FCF745FFEDE005D960682C
:1038A00000F101006060FCF745FFE5E032D8A7E7D2
:1038B00040452ED2FFF726FFFFF788FD7089584557
:1038C00002D200F091F90CE0A0F21551B94204D8EF
:1038D000B0EE480A00F096F905E0A84203D900F0DE
:1038E000B5F984F80090B089584502D2FFF77CFE04
:1038F0000AE0A0F21551B94202D8FCF70BFF03E031
:10390000A84201D9FFF7A0FE31894145BFD3C6D8EF
:10391000B2E088D981ED028A81ED008A81ED018AC9
:10392000FFF754FD81E781ED028A81ED008A81ED88
:10393000018AFFF74BFDF189414578D97088DFF89E
:103940006091A0F2D251142936D90521A0F2DC50A1
:1039500090FBF1F200EE902A99ED840AF8EEE00A6D
:1039600070EE600AF5EEC00AF1EE10FA19DD404281
:1039700000EE100A09F5D8708246B8EEC00AFFF7CB
:1039800003F870884FF48061A0F2DC50404200EEF2
:10399000100A5046B8EEC00AFEF761FCFEF728FE9A
:1039A0000CE090FBF1F000EE900AF8EEE00A30EE49
:1039B000600A00F027F901E000F008F9F088A0F2B1
:1039C000D251142934D90A21A0F2DC5090FBF1F233
:1039D00000EE902A99ED690AF8EEE00A70EE800A8E
:1039E000F5EEC00AF1EE10FA16DD00EE100A2D48D1
:1039F000B8EEC00A8146FEF7C7FFF0884FF40051C9
:103A0000A0F2DC5000EE100A4846B8EEC00AFEF7FD
:103A100026FCFEF7EDFD0DE090FBF1F000EE900AC4
:103A2000F8EEE00A30EE800AFFF7EAFD02E02BE054
:103A3000FFF7CCFD7089A0F21551B94204D8FCF70C
:103A40008FFEFCF79DFE05E0A84203D9FCF780FE3F
:103A5000FCF78EFEB089A0F21551B94202D8FCF7EE
:103A600059FE03E0A84201D9FCF74CFE31894145DB
:103A7000FFF40DAF3FF613AFFFF732FCBDEC028B46
:103A8000BDE8F05FFFF740BCFFF4CBAEB8E6000046
:103A9000C80000200000000054560020244B0020E5
:103AA000584E00209C4F00200068194AA0F5007075
:103AB000013812D001281AD002281DD003280BD1BA
:103AC000088840BAA2F84A01488840BAA2F84C01D6
:103AD000888840BAA2F84E017047088840BAD08062
:103AE000488840BA1081888840BA50817047088859
:103AF00040BA22F8720F03E0088840BA22F8DE0FBD
:103B0000488840BA5080888840BA9080704700004A
:103B1000384B002002682C48A2F20122072A0ED25C
:103B2000DFE802F0040E131E2B3845000A8852BA53
:103B3000C2804A8852BA0281898849BA4181704755
:103B40000A8852BA20F8722F03E00A8852BA20F885
:103B5000DE2F4A8852BA4280898849BA81807047EC
:103B60000A8852BAA0F84A214A8852BAA0F84C21D1
:103B7000898849BAA0F84E1170470A8852BAA0F84D
:103B8000B6214A8852BAA0F8B821898849BAA0F863
:103B9000BA1170470A8852BAA0F822224A8852BA4B
:103BA000A0F82422898849BAA0F8261270470A880A
:103BB00052BAA0F88E224A8852BAA0F89022898878
:103BC00049BAA0F892127047584E0020054810B527
:103BD00090ED840A00F5D870FEF7FAFDBDE81040BC
:103BE000FEF706BD584E002010B59FED050A00F007
:103BF00009F8FCF7B5FDBDE81040FCF7C1BD0000B9
:103C00000000000010B52DED020B6846DFED0B0A39
:103C10009FED0B0A00F028F89DED000AB5EEC00AF2
:103C2000F1EE10FA09D810EE100A0649884204D8BD
:103C30000548FEF7CDFDFEF7DBFC1CBD0000AFC361
:103C4000000000000000AFC30850002010B5FCF7D2
:103C50007FFDFCF78DFDBDE810409FED020AFFF7E8
:103C6000D1BF00000000AFC3B4EEE00AF1EE10FADD
:103C700013DD90ED001AB4EEC01AF1EE10FA02DC7A
:103C8000B0EE410A01E080ED000AB4EEE00AF1EE88
:103C900010FA01D2C0ED000A7047FDD290ED001A73
:103CA000B4EEE01AF1EE10FA02DCF0EE410A01E0A7
:103CB000C0ED000AF4EEC00AF1EE10FAECD280ED8D
:103CC000000A7047FDF736FBFEF774FEFEF792FB25
:103CD000FEF72AFBFEF74CFBFEF702FCFEF734FC76
:103CE000FEF74EFC0448FDF731FF00F015F8FEF733
:103CF00063FB00F023F8FEE72401002010B5EFF38A
:103D0000058111B16FF0050403E0002408B100F053
:103D10001FFF204610BD0000EFF3058010B16FF0CB
:103D2000050070470448016811B14FF0FF3070473B
:103D300001210160002070477000002010B5EFF3F2
:103D4000058010B16FF0050010BD08480168012919
:103D500002D04FF0FF3010BD054A002182F8141D3B
:103D60000221016000F05CFF002010BD7000002007
:103D70000BE000E070B505464FF00004EFF305805E
:103D800050BB0DB1686800E00020C10701D00126DA
:103D900000E0002600071FD46DB1D5E9021021B163
:103DA000502819D31EB1042002E020B114E00120F4
:103DB00001F04DF805E00EB1042000E0012001F013
:103DC0003BF8040008D00DB1296800E0002100F0A4
:103DD0008BFE0EB144F00104204670BD2DE9FF4179
:103DE0000B464FF00005EFF30581039549BB40B347
:103DF0008026182100244AB3176807B13C4697690A
:103E000007B139464F1E382F02D21779FF0703D06A
:103E1000002004B0BDE8F081576907B1BE08D2F8B0
:103E200008C0BCF1000F0DD0D5685C2D18D3126905
:103E30003AB137B18DE806103246214601F0C1FA99
:103E400003900DE0D7685FB912694AB903AACDE9BA
:103E50000012B2B2214601F087FA012800D0039582
:103E60000398D6E700B530EE601AC0ED080A80ED81
:103E7000050A80ED0B1AD0ED161A01469FED672A50
:103E800030EE600AF5EEC01AB1EE400AF1EE10FA1B
:103E90000ED0B5EEC01AF1EE10FA02DDF0EE410AD6
:103EA00001E0F0EE400AF4EEE10AF1EE10FA15DC62
:103EB000D1ED151AF5EEC01AF1EE10FA11D0B5EEEB
:103EC000C01AF1EE10FA02DDF0EE410A01E0F0EE68
:103ED000400AF4EEE10AF1EE10FA02D2B0EE420A24
:103EE00000BD91F8442001F1340001F13C03042AA3
:103EF00002D0052A3BD075E0D1ED000A60EE810AC0
:103F0000C1ED0C0AD1ED140AF5EEC00AF1EE10FA7B
:103F10000BD0B5EEC01AF1EE10FA01DDB0EE410A99
:103F2000B4EEE00AF1EE10FA08D291ED0D0AD1EDEF
:103F3000010A00EE810A81ED0D0A01E081ED0D2AF2
:103F400091ED0A0AD1ED020A31EE400A20EE200A74
:103F500081ED0E0A91ED130AFEF78DF991ED0C0A31
:103F6000D1ED0D0A30EE200AD1ED0E0A2DE091EDD3
:103F70000A0AD1ED001A71EE400A60EEA10AC1ED05
:103F80000C0AD1ED010A60EE810AC1ED0D0AF0EED6
:103F9000000A00EE601A91ED090AD1ED020A31EE35
:103FA000000A20EE200A81ED0E0A91ED130AFEF7B9
:103FB00062F991ED0C0AD1ED0D0A30EE200AD1ED37
:103FC0000E0A30EE200AD1ED100A184630EE200A13
:103FD00081ED0F0A91ED120AFEF74DF991ED0F0AEE
:103FE00081ED100A91ED0A0A81ED090A91ED0B0AA3
:103FF00081ED0A0A91ED070A81ED060A91ED080AA2
:1040000081ED070A91ED040A81ED030A91ED050A9D
:1040100081ED040A91ED0F0A00BD000000000000D0
:1040200080F8441000F1480282EC050A9FED040A72
:1040300080ED100A80ED0F0AC0EC032A70470000E3
:10404000000000002DE9F041134E0F460446F568CC
:104050003068001D00F04AFC601C07D137B13168A0
:10406000BDE8F0410D48091D00F090BC30682C44BB
:10407000AC424460316805D2B06BBDE8F041091D27
:1040800000F06CBC706B091D00F068FCB06A8442E3
:1040900000D2B462BDE8F081200000202C0700208F
:1040A0002DE9F041054600F07DFC2D4EB068401C26
:1040B000B06030682B4F10B1706930B32BE03560C1
:1040C000B068012827D1002404EB840007EB8000AE
:1040D00000F036FC641C382CF6D3234800F030FC8A
:1040E0002148143000F02CFC1F48283000F028FC38
:1040F0001D483C3000F024FC1B48503000F020FCF0
:10410000194870631430B06305E03068E96AC06A2A
:10411000884200D83560706A401C70626864E86A42
:104120003169884200D9306100EB800007EB8000E4
:10413000291D00F02BFC00F055FC706900280CD004
:104140003068E96AC06A884207D208494FF0805057
:104150000860BFF34F8FBFF36F8FBDE8F0810000A1
:10416000200000207C020020DC06002004ED00E09E
:1041700038B500F017FC104C2068C8B90F4800F0A3
:10418000DFFB0E48143000F0DBFB0C48E06014301D
:1041900020610A4B0020F03B009003F150021021F7
:1041A0000A2000F082FE206010B105A100F09CFC06
:1041B000BDE8384000F016BC5C000020300800204C
:1041C000546D72510000000030B4026C0B46002A9E
:1041D0000BD0C1681144C1608468A14201D3016859
:1041E000C16030BC1846FCF716B930BC70472DE9E9
:1041F000F041856B174604460026026C82B1C7B1B8
:10420000E068FCF708F9E168206C091AE1602268AF
:10421000914202D2A168081AE060022F16D017E07E
:104220002068A8B9A06801F071F906460020A060D6
:104230000EE06068FCF7EFF8216C6068084460608D
:10424000A168884204D32068606001E005B16D1E5A
:104250006D1CA5633046BDE8F08110B5044690F8AA
:10426000590058B101280CD002280FD0502080F3FB
:104270001188BFF34F8FBFF36F8FFEE7206B00F005
:10428000C5FB2046BDE8104000F0C0BB10BD0000DB
:1042900010484FF47051420706D0C01D0D4920F060
:1042A0000700411AC1F570510B4A00230144C2E9CD
:1042B00000030839183A21F0070111604B600B60C8
:1042C0000B1AC0E9001393604FF000405360506137
:1042D00070470000100F00208C000020134E144D7A
:1042E000A6F29C474FF08058DFF8489011E000F0AC
:1042F00059FBF068C468201D00F0F8FAA868401E59
:10430000A8606868401E686000F06CFB2046FFF7FC
:10431000A4FF68680028EAD138680128F9D9C9F8EB
:104320000080BFF34F8FBFF36F8FF2E718070020B5
:104330002000002004ED00E0002807D0002181606B
:1043400001600B460A46C16000F026BE704770B59A
:104350001D46049C49B12260C4E90F010121204699
:1043600000F0D6FD84F84C5070BD2460F4E72DE9D0
:10437000F05F0E46DDE90B941746834691009A469E
:104380000A9DA522206BFCF78BF86FF00301206BD0
:1043900001EB8701084420F00707780707D0502079
:1043A00080F31188BFF34F8FBFF36F8FFEE74FF09D
:1043B000000866B100202218315C82F83410315CAC
:1043C00011B1401C1028F6D384F8438001E084F832
:1043D0003480382D00D33725E562C4E91358201DF9
:1043E00000F0B9FA04F1180000F0B5FA2461C5F143
:1043F00038006462A061C4F8548084F85880524642
:104400005946384600F05CFA2060B9F1000F01D03F
:10441000C9F80040BDE8F09F30B5114900E01146F1
:104420000A688242FBD34B685C18844203D140681F
:1044300018444860084643681C18944209D1084C47
:10444000183C2468A24209D052681A4442600A68A3
:1044500012680260814200D0086030BD0460F9E754
:104460008C00002070B5002441600B4D006191422A
:1044700006D8D11A8269914206D2011D286907E047
:104480009A4203D2994201D3012403E0011DE86856
:1044900000F064FA204670BD5C00002010B50446B0
:1044A00000F080FAA06B20B1002400F09BFA2046B7
:1044B00010BD0124F9E7000030B587B03C4D6EE037
:1044C0000198002806DADDE90301029A9047019875
:1044D000002864DB039C606910B1201D00F006FA1F
:1044E00005A800F0D7F8024601980A2857D2DFE85D
:1044F00000F00505052D334A05052D3394F82800F5
:1045000040F0010084F828000298A16903460144A4
:104510002046FFF7A7FF68B3216A2046884794F832
:10452000280040073BD5002000900298A169002395
:1045300042181946204601F0EFF8D8B9502080F310
:104540001188BFF34F8FBFF36F8FFEE714F8280F6A
:1045500020F00100207022E094F8280040F00100D3
:1045600084F828000298A06128B1811813462046DB
:10457000FFF778FF13E0502080F31188BFF34F8FCF
:10458000BFF36F8FFEE794F82800810703D420461D
:1045900000F03CFA03E020F0010084F8280000223B
:1045A00001A9286800F00AFE002889D107B030BDB3
:1045B0005C0000202DE9FC410F46054600F072FB2F
:1045C00001A800F067F80446019818B101F014F84A
:1045D000BDE8FC81254EAFB130690068D0B300273B
:1045E000291B3A46306800F091FA01F005F80028DE
:1045F000EED11F494FF080500860BFF34F8FBFF3DB
:104600006F8FE5E7A542EBD800F0F6FFF06827468C
:10461000C068C468201D00F069F994F828004107BB
:1046200019D5A0692B4641193A462046FFF71AFFD3
:10463000A8B100200346014600902A46204601F01A
:104640006BF860B9502080F31188BFF34F8FBFF330
:104650006F8FFEE707E020F0010084F82800216A50
:1046600020468847B4E70127BAE700005C00002035
:1046700004ED00E00648416B096829B1416BC96847
:10468000C9684968816270474FF0FF31FAE700005E
:104690002000002070B5054600F0CEFE064E044610
:1046A000B068844203D200F009F8012000E0002045
:1046B00028602046B46070BD5C000020F8B5194E3B
:1046C00020E0C068C4680568201D00F00FF9216A69
:1046D0002046884794F82800400713D5A06928444D
:1046E000A84206D924616060211DF06800F036F907
:1046F00008E000200346014600902A46204601F0CB
:104700000BF838B1F06801680029DAD13169C6E9DF
:104710000310F8BD502080F31188BFF34F8FBFF313
:104720006F8FFEE75C00002008484068401C4FF097
:10473000500080F3118804D0BFF34F8FBFF36F8F09
:10474000FEE7BFF34F8FBFF36F8FFEE794000020AB
:10475000084CE068016839B1002139B10020FFF749
:1047600029FFFFF7A9FEF4E70121F6E7C06800681A
:10477000F5E700005C0000202DE9F041044600F060
:1047800011F994F9455004F1240609E0606A48B132
:10479000304600F0F9FE08B100F008FA6D1E6DB267
:1047A000002DF3DC4FF0FF3684F8456000F01AF975
:1047B00000F0F8F894F9445004F1100709E020697A
:1047C00048B1384600F0E0FE08B100F0EFF96D1E88
:1047D0006DB2002DF3DC84F84460BDE8F04100F0D8
:1047E00001B900002DE9F0410546002600F05AFA13
:1047F000324F386808B9FFF74BFD786905424ED152
:10480000C5B3083568070ED005F00700C0F10800F1
:104810000544680707D0502080F31188BFF34F8FFD
:10482000BFF36F8FFEE72DB37868854237D82349F1
:1048300018310846046801E0214604466068A84231
:1048400002D220680028F7D13868844227D00E6849
:104850002068086060680836411B10290FD960196C
:10486000420708D0502080F31188BFF34F8FBFF369
:104870006F8FFEE713E041606560FFF7CDFD616873
:104880007868401A7860BA68904200D2B860786957
:1048900001430020C4E90001F868401CF86000F002
:1048A000ABFE700707D0502080F31188BFF34F8F05
:1048B000BFF36F8FFEE73046BDE8F0817400002043
:1048C00010B5031F4FF080741C601B1F21F0010105
:1048D0001960191F044B0B6014390A60091F6FF02F
:1048E000020244380A6010BD29470008D0E90132AD
:1048F00001699A60D0E901235A604A68824201D175
:1049000082684A60002202610868401E08600868E8
:1049100070470000034B036003F15C0008608020D7
:104920001060704758080020044B036003F15C00DE
:1049300008604FF48070106070470000B40A0020D7
:1049400000F108014FF0FF32C0E90112C1600161BE
:1049500000210160704700210161704730B50C688B
:10496000621C02D000F1080202E0026904E01A466B
:1049700053681D68A542FAD953684B6099608A60F4
:10498000516008610168491C016030BD42684A609D
:1049900093688B6093685960916008610168491C55
:1049A00001607047502080F31188BFF34F8FBFF331
:1049B0006F8F0A494868401C486001280CD108489C
:1049C000006810F0FF0F07D0502080F31188BFF36C
:1049D0004F8FBFF36F8FFEE77047000094000020F9
:1049E00004ED00E00849486828B1401E486001D144
:1049F00080F311887047502080F31188BFF34F8FE8
:104A0000BFF36F8FFEE700009400002070B5002810
:104A10002AD0164DA0F1080460686969084207D1E0
:104A2000502080F31188BFF34F8FBFF36F8FFEE7E5
:104A300022683AB1502080F31188BFF34F8FBFF343
:104A40006F8FFEE78843606000F02CF9606869684A
:104A5000084468602046FFF7DFFC2869401C286195
:104A6000BDE8704000F0C8BD70BD000074000020BB
:104A70004FF0E02000210161816105494FF47A7215
:104A80000968B1FBF2F1491E4161072101617047DC
:104A90001C00002010B5FBF723FC114910280ED391
:104AA00000F1E02090F8F0030A78904207D25020FD
:104AB00080F31188BFF34F8FBFF36F8FFEE7094874
:104AC0000068896800F4E060884207D9502080F3CC
:104AD0001188BFF34F8FBFF36F8FFEE710BD00004B
:104AE000940000200CED00E010B5074B002253F8B5
:104AF00032401CB1521C082AF9D310BD43F83210C1
:104B000003EBC201486010BD3C02002070B51546A1
:104B10000E460446FFF746FF94F944100020491C56
:104B200001D184F8440094F94510491C01D184F85E
:104B30004500FFF757FFA06B28B92A46314604F11C
:104B4000240000F051F82046BDE87040FFF714BE85
:104B500010B5020014D00F48006B38B1502080F31C
:104B60001188BFF34F8FBFF36F8FFEE700F09AF805
:104B700000211046FFF766FA00F03EFD002807D13D
:104B800005494FF080500860BFF34F8FBFF36F8F20
:104B900010BD00002000002004ED00E002490A6A78
:104BA0000260C9684160704720000020014901206F
:104BB000C86170472000002010B50C4650B109496B
:104BC00009681831FFF7CAFE2046BDE810400121F0
:104BD000FFF738BA502080F31188BFF34F8FBFF32F
:104BE0006F8FFEE72000002070B514460D4668B1B7
:104BF0000A4909681831FFF7C9FE0CB14FF0FF35BB
:104C000021462846BDE87040FFF71CBA502080F3CB
:104C10001188BFF34F8FBFF36F8FFEE72000002096
:104C200030B587B00025039505AA04A903A804950B
:104C3000FFF770FEDDE903010095CDE901100023C7
:104C400014A11648059A00F0BCFB154CE06218B19F
:104C500000F032FD012809D0401C19D1502080F30A
:104C60001188BFF34F8FBFF36F8FFEE7502080F3A3
:104C70001188BFF34F8FBFF36F8F4FF0FF30A062EB
:104C800001206061E56007B0BDE8304000F044B845
:104C900007B030BD49444C4500000000DD4200082B
:104CA000200000200248016B491C0163704700008E
:104CB00020000020164B10B5186B10B10120D861F0
:104CC00010BD0020D8611869124901E0B8B1401E3A
:104CD00000EB800251F82220002AF7D000EB80027E
:104CE00001EB820101F108044A6852684A60A2425D
:104CF00001D152684A60D1681960186110BD502016
:104D000080F31188BFF34F8FBFF36F8FFEE7000072
:104D1000200000207C0200201CB537480168374A7B
:104D2000914207D1502080F31188BFF34F8FBFF31A
:104D30006F8FFEE700683149491E884207D1502035
:104D400080F31188BFF34F8FBFF36F8FFEE72C49BD
:104D500008780190FF20087008788DF800009DF811
:104D600000009DF8002000F0F000904207D0502095
:104D700080F31188BFF34F8FBFF36F8FFEE79DF86D
:104D80000000204C00F0500020700720A06006E0DA
:104D9000401EA0609DF8000040008DF800009DF8C6
:104DA00000000006A068F3D4032807D0502080F349
:104DB0001188BFF34F8FBFF36F8FFEE74FF4407042
:104DC000A060019808700C482030016841F470011F
:104DD0000160016841F070410160FFF749FE002069
:104DE0006060FBF745FA0848016841F04041016006
:104DF000FBF72AFA00201CBD00ED00E071C20F4154
:104E000000E400E09400002034EF00E010B55020F2
:104E100080F31188BFF34F8FBFF36F8F00F012FB49
:104E200018B104494FF080500860002080F31188C9
:104E300010BD000004ED00E010B502460021012085
:104E400000F012F80446FFF777FA204610BD38B597
:104E50000B46002200901146012000F026F804467F
:104E6000FFF76AFA204638BDF8B517460E4605002A
:104E700013D005FB06F05030FFF7B4FC04000AD055
:104E8000002084F8460004F150023B463146284693
:104E90000094FFF75CFA2046F8BD502080F311889B
:104EA000BFF34F8FBFF36F8FFEE738B5049D18B186
:104EB00053B1CAB181B120E0502080F31188BFF313
:104EC0004F8FBFF36F8FFEE7502080F31188BFF341
:104ED0004F8FBFF36F8FFEE7502080F31188BFF331
:104EE0004F8FBFF36F8FFEE739B1502080F31188E9
:104EF000BFF34F8FBFF36F8FFEE750241C46012393
:104F000084F846302B460094FFF721FA204638BD3E
:104F100070B50D46040025D0FFF744FDD4E90F20FD
:104F2000216802FB0011A1600021A163216861607A
:104F30000A46D4E90F01401E00FB0121E160214631
:104F40004FF0FF3001F8440F487004F110008DB1AC
:104F5000FFF7F6FC04F12400FFF7F2FCFFF742FD37
:104F6000012070BD502080F31188BFF34F8FBFF335
:104F70006F8FFEE721690029F0D000F005FB0028C3
:104F8000ECD004494FF080500860BFF34F8FBFF35F
:104F90006F8FE3E704ED00E02DE9FF4F83B01F467C
:104FA0008B4604004FF0000603D0BBF1000F08D081
:104FB00011E0502080F31188BFF34F8FBFF36F8F44
:104FC000FEE7206C38B1502080F31188BFF34F8F7B
:104FD000BFF36F8FFEE7022F0AD1E06B012807D0E5
:104FE000502080F31188BFF34F8FBFF36F8FFEE720
:104FF00000F014FADFF800914FF0000A4FF08058EB
:1050000048B9059838B1502080F31188BFF34F8F0D
:10501000BFF36F8FFEE7FFF7C5FCA06BE16B884223
:1050200005D3022F03D00598C8B1DEB11EE03A4681
:1050300059462046FFF7DBF8616A19B104F12400F4
:1050400000F0A2FA28B1C9F80080BFF34F8FBFF378
:105050006F8FFFF7C7FC012007B0BDE8F08FFFF7A7
:10506000C1FC21E06846FFF799FD0126FFF7BAFC75
:10507000FFF718FEFFF796FC94F94400401C01D19D
:1050800084F844A094F94500401C01D184F845A05F
:10509000FFF7A8FC05A9684600F02CF930B12046BE
:1050A000FFF76AFB00F0A8FA0020D5E7FFF77AFCCB
:1050B000A06BE16B884201D1012500E00025FFF7DC
:1050C00091FC95B104F110000599FFF775FD20469C
:1050D000FFF752FB00F090FA00289CD1C9F800803D
:1050E000BFF34F8FBFF36F8F95E72046FFF744FB69
:1050F00000F082FA8FE7000004ED00E02DE9F047B0
:105100001F4690468946040003D0B9F1000F08D02D
:1051100011E0502080F31188BFF34F8FBFF36F8FE2
:10512000FEE7206C38B1502080F31188BFF34F8F19
:10513000BFF36F8FFEE7022F0AD1E06B012807D083
:10514000502080F31188BFF34F8FBFF36F8FFEE7BE
:10515000FFF7A0FC5020EFF3118680F31188BFF316
:105160004F8FBFF36F8FA06BE16B884206D3022F86
:1051700004D0002086F31188BDE8F08794F94550EB
:10518000A06B3A4649462046FFF731F8681C04D028
:105190006D1C84F845500120ECE7606A0028FAD0C5
:1051A00004F1240000F0F0F90028F4D0B8F1000F69
:1051B000F1D00121C8F80010EDE700002DE9F74714
:1051C00083B08A4604004FF0000603D0BAF1000F06
:1051D00008D011E0502080F31188BFF34F8FBFF348
:1051E0006F8FFEE7206C38B1502080F31188BFF339
:1051F0004F8FBFF36F8FFEE700F010F9DFF8F090EC
:1052000000274FF0805848B9059838B1502080F3F6
:105210001188BFF34F8FBFF36F8FFEE7FFF7C2FB1D
:10522000A56BC5B151462046FEF7CEFF6D1EA563A6
:10523000206950B104F1100000F0A6F928B1C9F8B6
:105240000080BFF34F8FBFF36F8FFFF7CBFB0120C1
:1052500006B0BDE8F087059808B11EB106E0FFF77B
:10526000C1FB27E06846FFF799FC0126FFF7BAFB70
:10527000FFF718FDFFF796FB94F94400401C01D19D
:1052800084F8447094F94500401C01D184F84570BD
:10529000FFF7A8FB05A9684600F02CF80028204677
:1052A0000AD0FFF769FA00F0A7F92046FFF7F6F8F1
:1052B0000028B3D00020CBE7FFF7F0F890B104F15D
:1052C00024000599FFF778FC2046FFF755FA00F017
:1052D00093F90028A2D1C9F80080BFF34F8FBFF324
:1052E0006F8F9BE72046FFF747FA00F085F995E7B7
:1052F00004ED00E02DE9F0410C46050011D0C4B1E9
:10530000FFF750FB174EF1686B682268C81A571CEC
:1053100017D02F68366AB74219D08B4217D80124AC
:1053200010E0502080F31188BFF34F8FBFF36F8FD1
:10533000FEE7502080F31188BFF34F8FBFF36F8FCC
:10534000FEE70024FFF74EFB2046BDE8F0818242D5
:1053500005D9101A20602846FFF720FCF1E700204D
:105360002060DCE7200000202DE9FF5F8346DDE9B7
:105370000E87994616468A469000FFF733FA0500D5
:105380001CD05C20FFF72EFA040014D00020256307
:1053900084F85900CDE90240CDE900874B463246FA
:1053A00051465846FEF7E3FF2046FEF779FE0120FE
:1053B00004B0BDE8F09F2846FFF728FB4FF0FF3010
:1053C000F6E7F0B585B00546DDE90B040A9EA8B105
:1053D000E4B15C2700972063022084F85900002084
:1053E000CDE9024004AF2846CDE90067FEF7BFFFD4
:1053F0002046FEF755FE049805B0F0BD502080F31E
:105400001188BFF34F8FBFF36F8FFEE7502080F3FB
:105410001188BFF34F8FBFF36F8FFEE705484169D7
:1054200019B1006B18B100207047012070470220AD
:1054300070470000200000200148C068704700004D
:10544000200000202DE9F0412E4F0026386B28B1B6
:10545000B869401CB8613046BDE8F081FD686D1C3C
:10546000FD6013D1786B006838B1502080F311884B
:10547000BFF34F8FBFF36F8FFEE7786BB96B796324
:10548000B863386A401C3862FFF7F4F8B86ADFF88E
:105490007880854209D3786B0068A0B1786BC068CA
:1054A000C4686068854211D2B8623868C06A00EB8F
:1054B000800158F82100012800D90126F869002848
:1054C000C9D00126C7E74FF0FF30EDE7201DFFF7F9
:1054D0000DFAA06A18B104F11800FFF707FAE06AA4
:1054E0003969884200D9386100EB800108EB8100FE
:1054F000211DFFF74BFAE06A3968C96A8842CAD3AE
:105500000126C8E7200000207C02002070B50400BE
:105510004FF000002BD01A4D29688C4207D0502044
:1055200080F31188BFF34F8FBFF36F8FFEE7216DBC
:10553000F1B1491E2165E36CE26A9A4217D0002955
:1055400015D1201DFFF7D2F9E06CE062C0F1380000
:10555000A061E06A2969884200D92861094900EB05
:10556000800001EB8000211DFFF710FA012070BDC3
:10557000502080F31188BFF34F8FBFF36F8FFEE78A
:10558000200000207C02002070B5C068C46854B1BF
:1055900004F118000646FFF7A9F9144D286B50B125
:1055A0003146134815E0502080F31188BFF34F8F28
:1055B000BFF36F8FFEE7201DFFF798F9E06A2969B6
:1055C000884200D928610B4900EB800001EB800084
:1055D000211DFFF7DBF9E06A2968C96A884202D910
:1055E0000120E86170BD002070BD00002000002097
:1055F000040700207C0200202DE9F0472B4D0024F9
:105600002746286B38B1FFF7CDF9286B401E286379
:10561000286B40B145E0502080F31188BFF34F8FD5
:10562000BFF36F8FFEE7A86821490126C8B3A1F533
:1056300091698846D8F80010E1B1D8F80C00C46828
:1056400004F11800FFF752F9201DFFF74FF9E06A47
:105650002969884200D9286100EB800109EB8100AB
:10566000211DFFF793F9E06A2968C96A8842E1D3EE
:10567000EE61DFE70CB1FEF7FDFFAC693CB1FFF76F
:10568000E1FE00B1EE61641EF9D10020A861E86975
:1056900038B10849012738070860BFF34F8FBFF3BF
:1056A0006F8FFFF79FF93846BDE8F0872000002094
:1056B0000407002004ED00E010B586B0FEF758FDA9
:1056C000114C2068B8B100200390049005AA04A9E9
:1056D00003A8FFF729F9DDE9032102208DE807007F
:1056E00000230AA10B48059AFFF76BFE606010B11A
:1056F00006B0012010BD502080F31188BFF34F8FFA
:10570000BFF36F8FFEE700005C000020546D722035
:1057100053766300514700082DE9FF411F460300FF
:105720000A9E4FF0000015D0134D2C68002C0ED0AF
:105730008DE80E00062917DAFFF770FE02284FF0F9
:1057400000030FD0002269462868FFF725FC04B04B
:10575000BDE8F081502080F31188BFF34F8FBFF375
:105760006F8FFEE73246EEE700233A466946204651
:10577000FFF7C4FCEBE700005C00002021F00042D2
:10578000A2F16052B2F5801F01F0004328BFD2F1B0
:105790007F6C0BD95FEA001C43EAC20242EB5070F7
:1057A00018BF704728BF20F001007047B2F5801F76
:1057B000BCBF184670474FEA410C1CF5001F02D2CF
:1057C000084600F0DFBB70B500F05CF9000000890E
:1057D000FFF7F6BF4FF00040A0F5800070470000D3
:1057E00010B591EA030F48BF83F0004300F17282C5
:1057F000841A71EB030C05D2121943EB0C03001B46
:1058000061EB0C01DFF824E14FEA1154A4EB135CC7
:105810001EEA430F18BF9EEA445F73D023EA0E03CB
:10582000DCF1200E21EA045143F4801332D322FA32
:105830000CFE10EB0E0023FA0CFE41EB0E01CCF136
:10584000200E03FA0EFE10EB0E0051F10001B1F52F
:10585000801FCCF1200E32D201EB045112FA0EF26D
:10586000BDE8104058BF7047401C38BF5FEA420295
:1058700018BF7047002814BF20F0010041F100015B
:105880004FEA410313F5001F38BF7047A1F1C04133
:1058900000F046B9012A43EB0302ACF1200CDCF125
:1058A0001F0E32BF4FF0000E23FA0CF310EB030073
:1058B00041EB0451B4EB115FD0D0A1EB045101F5E1
:1058C000801149085FEA300001EB04510ED350F11A
:1058D000000038BF12FA0EFE08D1BDE81040C9E73B
:1058E000401C38BF5FEA4202CAD1C3E7BDE810409E
:1058F0004FEA410313F5001F38BF7047A1F1C041C3
:1059000000F00EB99EEA445F08D011EA5E0FBDE8D0
:10591000104004BF01F0004100207047BDE8104076
:1059200070B500F0AFF800BF64FBBE3E0000E0FFC2
:10593000DFF848C170B51CEA111E1EBF1CEA131522
:105940009EEA0C0F95EA0C0F00F06F8081EA0304C9
:1059500023EA4C134EEAD47E21EA4C1141F4801123
:1059600043F48013AE44A1FB024CA0FB0365AEF1EF
:105970007F7E361955EB0C05A1FB034C4CF100035F
:10598000A0FB021C16EB0C06654153F10003094213
:1059900018BF46F0010613F4007F0BD14FEA033124
:1059A0004FEA0530340341EA155140EA16506FF0D2
:1059B00003020AE04FEAC3214FEAC520F40241EA9C
:1059C000555140EA56506FF0020202EB2E4201EBB5
:1059D000025585EACE710AD05FEA440C18BF24F064
:1059E000004450F1000041F1000120EAD47040F27F
:1059F000FE7C624500D270BDA84214BF4FF08044C7
:105A00004FF04044002E08BF0024BEF1806FA8BFB5
:105A1000A1F1C041BDE8704080F282804FF00000EB
:105A200001F1C04101F0004170479EEA0C0F0CEA01
:105A3000131518BF95EA0C0F06D04FF0000081EA4D
:105A4000030E0EF0004170BD00F01CF88900013E0D
:105A500000F007B800F009B84FEA430C5FEA5C5C5D
:105A600008D081EA030100F05BB84FEA410C5FEA1D
:105A70005C5CF6D14FF00000014970470000FF0761
:105A80000000F87F0EF1020E2EF0030E5EF8046B9C
:105A9000364205D4012A43EB030515F5001F12D841
:105AA000012841EB010C1CF5001F0CD80ED14FEA68
:105AB000D17C15F5001F0CEB4C0C0CF1020C08BF4F
:105AC0004CEBD37C04E04FF0080C01E04FEAD37CB0
:105AD0000CEB4C0526FA05F606F00706B6F1040CA9
