:020000040800F2
:10000000905E0020E902000891270008D521000831
:100010006B2500083F060008D12F000800000000F3
:10002000000000000000000000000000290200089D
:100030000507000800000000850200085F2900088D
:100040000303000803030008030300080303000878
:100050000303000803030008030300080303000868
:100060000303000803030008030300080303000858
:100070000303000803030008030300080303000848
:1000800003030008030300080303000865060008D3
:10009000410600084D060008590600080707000839
:1000A0000303000803030008030300080303000818
:1000B0001D2A0008292A000803030008030300087A
:1000C00003030008030300080303000803030008F8
:1000D00003030008A12D0008030300080303000820
:1000E00003030008030300080303000803030008D8
:1000F00003030008030300080303000803030008C8
:1001000003030008030300080303000803030008B7
:1001100003030008692B0008030300080303000819
:100120000303000803030008030300080303000897
:1001300003030008030300080303000895060008F2
:10014000710600087D060008890600080303000800
:100150000303000803030008030300080303000867
:100160000303000803030008030300080303000857
:100170000303000803030008030300080000000055
:10018000030300080303000800F002F800F03CF845
:100190000AA090E8000C82448344AAF10107DA45E2
:1001A00001D100F031F8AFF2090EBAE80F0013F0F8
:1001B000010F18BFFB1A43F001031847D05D000080
:1001C000F05D0000103A24BF78C878C1FAD8520711
:1001D00024BF30C830C144BF04680C6070470000C1
:1001E0000023002400250026103A28BF78C1FBD840
:1001F000520728BF30C148BF0B6070471FB505F0DC
:1002000070FE1FBD10B510BD00F0E4F91146FFF7F8
:10021000F5FF03F075FC00F002FA03B4FFF7F2FFFC
:1002200003BC00F005FA00002C4B19680868B0E820
:10023000F04F80F30988BFF36F8F4FF0000080F319
:10024000118870470000000008480068006880F3CB
:1002500008884FF0000080F3148862B661B6BFF3DF
:100260004F8FBFF36F8F00DF00BF00BF08ED00E0CE
:10027000DFF80C00016841F470010160704700BFB5
:1002800088ED00E0EFF30980BFF36F8F134B1A681E
:100290001EF0100F08BF20ED108A20E9F04F10600B
:1002A00009B44FF0500080F31188BFF34F8FBFF3B4
:1002B0006F8F04F01DFC4FF0000080F3118809BC23
:1002C00019680868B0E8F04F1EF0100F08BFB0ECD6
:1002D000108A80F30988BFF36F8F704720000020D9
:1002E000EFF3058070470000094880470948004740
:1002F000FEE7FEE7FEE7FEE7FEE7FEE7FEE7FEE7D6
:10030000FEE7FEE704480549054A064B7047000032
:100310000D2A00088901000890580020905E0020F6
:10032000905A0020905A002053EA020C00F0698095
:100330002DE9F04B4FF00006002B1FBFB3FA83F5F9
:1003400003FA05F424FA05F65E4012BF1643B2FA2A
:1003500082F502FA05F4C5F120051EBF22FA05FC5C
:1003600044EA0C04203556EA044C4FEA144418BF02
:10037000641C4FF000084FF00009904271EB030C31
:1003800039D3002919BFB1FA81F701FA07F6B0FA9B
:1003900080F700FA07F6C7F120071EBF20FA07FC16
:1003A00046EA0C062037B6FBF4FCA7EB0507103F26
:1003B00007F01F0BCBF120060CFA0BFB2CFA06F60C
:1003C00044BFB3460026202FA4BF5E464FF0000B6B
:1003D0005BEA060C08BF4FF0010B19EB0B09ABFBF6
:1003E000027C48EB0608C01B06FB02CC0BFB03CCCF
:1003F00071EB0C01C1E70B46024641464846BDE899
:10040000F08B13B54FF000004FF00001AFF3008008
:10041000BDE81C407047032A40F2308010F0030C06
:1004200000F0158011F8013BBCF1020F624498BF47
:1004300011F801CB00F8013B38BF11F8013BA2F1E4
:10044000040298BF00F801CB38BF00F8013B11F05F
:10045000030300F06280083AC0F0088051F8043BC2
:10046000083A51F804CBA0E80810F5E7121D5CBF6C
:1004700051F8043B40F8043BAFF30080D20724BF9F
:1004800011F8013B11F801CB48BF11F8012B24BF33
:1004900000F8013B00F801CB48BF00F8012B704782
:1004A00002F0FF0343EA032242EA024200F069B885
:1004B0004FF0000200B5134694469646203922BFFD
:1004C000A0E80C50A0E80C50B1F12001BFF4F7AF48
:1004D000090728BFA0E80C5048BF0CC05DF804EB2A
:1004E000890028BF40F8042B08BF704748BF20F898
:1004F000022B11F0804F18BF00F8012B7047704796
:100500007047704710B500F05DF8006810BD10B579
:10051000044600F057F8046010BD10B5203AC0F052
:100520000B80B1E81850203AA0E81850B1E81850F4
:10053000A0E81850BFF4F5AF5FEA027C24BFB1E831
:100540001850A0E8185044BF18C918C0BDE81040A2
:100550005FEA827C24BF51F8043B40F8043B08BFAB
:100560007047D20728BF31F8023B48BF11F8012B72
:1005700028BF20F8023B48BF00F8012B70474FF01E
:1005800000020429C0F0128010F0030C3FF492AF77
:10059000CCF1040CBCF1020F18BF00F8012BA8BF6E
:1005A00020F8022BA1EB0C01FFF784BF5FEAC17CAE
:1005B00024BF00F8012B00F8012B48BF00F8012BE5
:1005C00070470000004870472C58002000487047D2
:1005D0002C5800207546FFF7F9FFAE460500694626
:1005E000534620F00700854618B020B5FFF78AFE75
:1005F000BDE820404FF000064FF000074FF0000824
:100600004FF0000B21F00701AC46ACE8C009ACE8A4
:10061000C009ACE8C009ACE8C0098D46704710B508
:100620000446AFF300802046BDE81040FFF7F5BD5B
:1006300001491820ABBEFEE7260002007047FEE726
:10064000014800F0E0B90000D4000020014800F0AB
:10065000DAB90000D4000020014800F0D4B900004D
:10066000D4000020014800F0CEB90000D4000020E2
:10067000014800F0C8B90000FC000020014800F06B
:10068000C2B90000FC000020014800F0BCB9000025
:10069000FC000020014800F0B6B90000FC0000207A
:1006A00000B589B0002004900590082006901349F9
:1006B00080010290888908AB020A8DF800208DF82D
:1006C0000100B1F89C00020A8DF802208DF80300A9
:1006D000B1F82C01020A8DF804208DF80500B1F85C
:1006E000BC016A46010A8DF806108DF8070002A9C0
:1006F000034800F01FF809B000BD00007C54002042
:10070000D40000207047802000F0C8BC72B6FEE71D
:1007100090F82020012A07D0022A05D0416A41F42E
:100720008021416201207047006842690A434261AA
:1007300000207047F0B590F820500468A468012D9F
:1007400005D0022D03D0416A41F480215DE014F010
:10075000406F01D1E50055D5C4F30164022C03D9E3
:10076000416A41F4000150E00125A5401D608B68FD
:100770004FF4C0759BB1CE6833434E6843EAC6035D
:10078000066805EB0417F3514FF4C273076803EBD7
:1007900004130E69FE50097D012905D009E00E8879
:1007A000CB6843EA4653EBE70168CE5846F48076BF
:1007B000CE501179D379567941EA036193791B04BC
:1007C00043EA062319434FF4C676036806EB041682
:1007D00099511178D37841EA0361937852781B04D8
:1007E00043EA022211434FF4C473026803EB04137B
:1007F000D150006805EB0411425842F0010242500A
:100800000020F0BD416A41F4001141620120F0BDB9
:1008100010B590F82020012A07D0022A05D0416A9D
:1008200041F480214162012010BD3B48D0F80022F4
:1008300042F00102C0F80022D0F8002222F47C52DB
:10084000C0F80022D0F800224B6A42EA0322C0F826
:1008500000220A7D02F01F0301229A40D0F81C32C8
:100860009343C0F81C32CB69B3B9D0F80C32934330
:10087000C0F80C328C894B6864F31F434C6900EB61
:10088000C404C4F840320C890B6864F31F434C69FC
:1008900000EBC404C4F84432CB69012B16D1D0F864
:1008A0000C321343C0F80C320C884B6864F31F43BE
:1008B0004C6900EBC404C4F840320C89CB6864F383
:1008C0001F434C6900EBC404C4F844328B69002B0D
:1008D000D0F804320ED01343C0F804320B69002B59
:1008E000D0F8143208D01343C0F81432096A012931
:1008F00004D008E09343EFE79343F5E7D0F81C12E8
:100900001143C0F81C12D0F8001221F00101C0F808
:100910000012002010BD000000640040704730B598
:1009200090F82040012C05D0022C03D0416A41F4FC
:1009300080215DE00468002955D02469A40754D0C3
:100940004FF4D874056804EB01142D5915F0040513
:10095000956005682D594ED0ED08556005682C59F5
:1009600004F00204D4604FF4DA74056804EB011457
:100970002D5905F00F05156105682D59C5F307259B
:10098000956105682C59240C54614FF4DC7204689D
:1009900002EB0112A4581C700468A458240A5C706D
:1009A0000468A458240C9C700468A258120EDA70D3
:1009B0004FF4DE72046802EB0112A4581C71046843
:1009C000A458240A5C710468A458240C9C7104681F
:1009D000A258120EDA71006881B1016941F020015C
:1009E0000161002030BDE468A8E7416A41F40011CC
:1009F0004162012030BD6D0D1560AFE7C16841F067
:100A00002001C160EDE72DE9F05F05460068002494
:100A10004669D0F804908768D0F80CB0D0F810A0E0
:100A2000D0F81880F10748D0F90714D0012181606F
:100A3000B80703D5284600F08CFA0CE0780702D5F9
:100A40004FF4006407E0380702D54FF4805402E009
:100A5000284600F07DFAF80516D529684FF4807015
:100A60008860B80503D5284600F075FA0CE07805D3
:100A700002D544F4005407E0380502D544F480441C
:100A800002E0284600F066FAF80316D529684FF40C
:100A900080308860B80303D5284600F05EFA0CE089
:100AA000780302D544F4004407E0380302D544F447
:100AB000803402E0284600F04FFA300707D55FEA9D
:100AC000CB6004D52968102044F40074C860700716
:100AD0004FF0080707D55FEA0B7004D52868C76098
:100AE000284600F0C9F9B00706D52868C068800715
:100AF00002D0284600F0C2F9700607D55FEACA6046
:100B000004D52968102044F480640861B00607D534
:100B10005FEA0A7004D528680761284600F0EAF900
:100B2000F00606D528680069800702D0284600F044
:100B3000E2F9B00308D55FEAC96005D5296810203D
:100B40004860284600F0D8F9F00307D55FEA09703D
:100B500004D528684760284600F000FA300446D5DE
:100B60005FEA497040D5F00504D55FEAC87001D04E
:100B700044F00104B00504D55FEA887001D544F063
:100B80000204700504D55FEA487001D544F00404FE
:100B9000300529D518F0700F26D008F070004028D5
:100BA00015D006DC102809D020280AD0302816D10C
:100BB0000AE050280ED0602811D10EE044F008045D
:100BC0000DE044F010040AE044F0200407E044F093
:100BD000400404E044F0800401E044F48074286898
:100BE000816921F070018161296804204860002C2E
:100BF00005D0686A204368622846FFF78FFEBDE88B
:100C0000F09F70B5040003D094F8200010B104E008
:100C1000012070BD204600F081F82068016841F095
:100C20000101016000F034FB0546052604E000F0F8
:100C30002FFB401B0A2811D820684068C007F6D057
:100C40002068016821F00201016000F021FB0546E7
:100C50000BE000F01DFB401B0A2806D9606A40F437
:100C60000030606284F82060D2E720684068800726
:100C7000EFD4207E0128206801683DD021F080015A
:100C80000160607E01282068016838D021F04001B1
:100C90000160A07E01282068016833D021F0200186
:100CA0000160E07E0128206801682ED041F010012B
:100CB0000160207F01282068016829D021F0080107
:100CC0000160607F01282068016824D021F00401C0
:100CD0000160D4E902010843D4E904121143084336
:100CE0006168491E08432168C861002060620120D4
:100CF00084F82000002070BD41F08001C0E741F081
:100D00004001C5E741F02001CAE721F01001CFE71B
:100D100041F00801D4E741F00401D9E7F0B587B00C
:100D2000044614216846FFF7C3FB4E494E4ADFF8DC
:100D300030E10868D4F800C04B4B02240325092693
:100D400010320027401CF4453BD10860012807D130
:100D5000106840F000701060106800F0007005909E
:100D6000186840F0010018601868694600F001003A
:100D700005904FF4C0508DE89100CDE903563B48F3
:100D800000F098F900220521132000F01FFB13202A
:100D900000F00EFB00220521142000F017FB1420A8
:100DA00000F006FB00220521152000F00FFB1520A6
:100DB00000F0FEFA00220521162000F007FB1620A5
:100DC0004AE0DFF8ACE0F44548D1D2F800C04CF07E
:100DD000806CC2F800C0D2F800C001280CF0806C12
:100DE000CDF814C0086007D1106840F000701060A2
:100DF000106800F000700590186840F0020018605C
:100E00001868694600F0020005904FF440508DE8E4
:100E10009100CDE90356174800F04CF90022052156
:100E20003F2000F0D3FA3F2000F0C2FA0022052153
:100E3000402000F0CBFA402000F0BAFA0022052151
:100E4000412000F0C3FA412000F0B2FA002205214F
:100E5000422000F0BBFA422000F0AAFA07B0F0BD31
:100E6000006400400C0000203038024000000240C6
:100E700000680040000402407047000070B505465D
:100E800018488CB0854213D107AB6A460021FFF7A2
:100E900046FD07A9684602F005FD134E002404EB49
:100EA000C40006EB001001F0ADFC641C042CF6DB62
:100EB0000E48854213D109AB6A460021FFF72FFD8A
:100EC00009A9684602F02CFD094D002404EBC4007A
:100ED00005EB001001F096FC641C072CF6DB0CB04F
:100EE00070BD0000D40000207C540020FC000020D5
:100EF000384B002070477047704770B5044690F833
:100F00002000012804D0606A40F40020606217E0ED
:100F1000022084F820002068016821F001010160AE
:100F200000F0B6F905460DE000F0B2F9401B0A28C2
:100F300008D9606A40F400306062052084F820001F
:100F4000012070BD20684068C007EDD1606270BDAF
:100F500070477047704770477047704770472DE97A
:100F6000F0410446876D00F093F9054694F835008A
:100F70000026022806D08020606584F834600120B5
:100F8000BDE8F0812068016821F016010160206849
:100F9000416921F080014161206C08B9A06C20B149
:100FA0002068016821F0080101602068016821F0D3
:100FB000010101600CE000F06BF9401B052807D926
:100FC00020206065032084F8350084F83460D7E77A
:100FD00020680068C007EED194F85C103F2088407C
:100FE000B860012084F8350084F834600020C7E739
:100FF00090F83510022903D0802141650120704707
:10100000052180F835100068016821F001010160B8
:101010000020704770B51F4C80280DD16169C00554
:101020002161426AE06840F27123584302EB0010EC
:101030006061A060401AA08060780025012101282D
:10104000A08840F6980205D0904202D36170A57046
:10105000257070BD904203D36170A570217070BD82
:10106000A0F2B63140F24C42914210D80A4AA1781F
:1010700022F81100491CC8B2A0700828EFD3064915
:10108000420001F11400FFF7C6F9A57070BD65704C
:1010900070BD0000AC000020104B0020044910B5CA
:1010A0000A68024202D00860FFF7B4FF10BD0000DA
:1010B000143C01402DE9F84FDFF89C910022A9F182
:1010C000040B03274FF00F0C09F1040AABF1040ED7
:1010D00001250B6895402B40AB426ED10C7904F092
:1010E0000304012C01D0022C15D18668540007FAA4
:1010F00004F826EA0806D1F80C8008FA04F848EA51
:101100000608C0F808804468AC430D79C5F30015A3
:101110009540254345600C79E443A40708D0C56891
:10112000540007FA04F6B5438E68A6402E43C66005
:101130000C7904F00304022C11D1D40800EB8406CE
:10114000356A5407E40E0CFA04F825EA0805D1F8CC
:10115000108008FA04F848EA0508C6F820800568F7
:10116000540007FA04F6B5430E7906F00306A640CC
:101170002E4306604C6814F4403F66D0374C256817
:1011800045F480452560246822F0030504F480447A
:101190000094334C05EB0408D8F808589407260F40
:1011A0000CFA06F4A5432F4CA04201D1002424E000
:1011B0002D4CA04202D101241FE046E02B4CA0425E
:1011C00001D1022419E02A4CA04201D1032414E0E9
:1011D000284CA04201D104240FE0274CA04201D1A9
:1011E00005240AE0254CA04201D1062405E0244C48
:1011F000A04201D1072400E00824B4402C43C8F8E1
:101200000848D9F800404D464E689C43F60200D588
:101210001C432C60DAF8004055464E689C43B602E9
:1012200000D51C432C60DBF800405D464E689C43B3
:10123000B60300D51C432C60DEF8004075464E68AE
:101240009C43F60300D51C432C60521C102AFFF46B
:101250003FAFBDE8F88F0000083C01404438024031
:10126000003001400000024000040240000802403B
:10127000000C02400010024000140240001802401E
:10128000001C02400AB1816170470904FBE70000BD
:101290000148806870470000100000200248816803
:1012A0000278114481607047100000200B4810B58F
:1012B000016841F400710160016841F480610160DE
:1012C000016841F480710160032000F09FF80F2055
:1012D00000F006F800F050F8002010BD003C02407D
:1012E00030B505461F4887B00024016841F002016F
:1012F0000160006806A900F002000590684600F051
:1013000031F90398A8B100F04DF940001649174A89
:10131000B0FBF1F11648491E026040F2E732C0E925
:101320000324C0E90114846100F082FB040003D0AF
:1013300015E000F037F9E9E70D4800F0C3FB0400C1
:101340000DD11D2000F034F8102D07D200222946BF
:101350001D2000F03BF80748056000E0012407B0BD
:10136000204630BD4038024040420F00000400409B
:10137000F4010020140000200C4882B0016841F400
:1013800080410160006800F4804000900748001F21
:10139000016841F0805101600068002200F0805037
:1013A00000900F21901E02B000F010B844380240A7
:1013B000002809DB00F01F02012191404009800054
:1013C00000F1E020C0F8001170470000F0B40E4BAF
:1013D0001B68C3F30223C3F10704042C00D90424BF
:1013E0001D1D072D01D2002300E0DB1E012606FA99
:1013F00004F56D1E0D409D409E40761E164045EA48
:101400000601F0BC01F0FEBE0CED00E0064A00F063
:10141000070110684FF6FF03184040EA0120034916
:1014200008431060704700000CED00E00000FA0572
:101430002DE9F0470D46040065D0DFF81491D9F886
:101440000000EFB200F00700A84207D289F8007050
:10145000D9F8000000F00700A84254D120683D4EA2
:10146000810712D5400703D5306840F4E050306062
:101470002078000703D5306840F460403060306861
:10148000A16820F0F000084330602078C0072DD01C
:10149000304960680839012812D0022813D0032887
:1014A00011D00968890700292DDA316821F003017C
:1014B00001433160FFF7ECFE804641F2883A0EE0CE
:1014C00009688903EFE709688901ECE7FFF7E0FEA7
:1014D000A0EB0801514502D90320BDE8F087306830
:1014E000616800F00C00B0EB810FEFD1D9F800106B
:1014F000484601F00701A94207D90770006800F0CB
:101500000700A84201D00120E7E72078400705D571
:101510003068E16820F4E05008433060207800072C
:1015200006D53068216920F4604040EAC10030608F
:1015300000F058F83168084AC1F30311515CC84003
:101540000649086006480068FFF7CAFE0020C4E7A5
:10155000003C024008380240505F00081C00002098
:10156000140000200F2202600C4A136803F00303EA
:101570004360136803F0F0038360136803F4E053DF
:10158000C36012684FF4E05303EAD20202610448D8
:10159000006800F00700086070470000083802404B
:1015A000003C02400448054900680968044AC1F348
:1015B0008221515CC84070471C000020083802405E
:1015C000605F00080448054900680968044AC1F3DF
:1015D0004231515CC84070471C000020083802406E
:1015E000605F0008154810B5006810F00C01144841
:1015F00013D0431004290FD008290ED10F4C241FFB
:10160000216801F03F022168490207D52068C0F334
:101610008810A0FB030106E0184610BD2168C1F345
:101620008811A1FB00010023FEF77EFE2168C1F3B3
:101630000141491C4900B0FBF1F010BD08380240DF
:101640000024F4002DE9F84F040075D02078DFF86D
:1016500038A3C007AAF1040548D00AF104000168C4
:10166000C1F38101012908D00068C0F3810002287C
:101670000AD1DAF80000400206D52868800335D583
:1016800060680028E1D031E06068B0F5803F10D09C
:10169000B0F5A02F286810D020F48030286028688A
:1016A00020F4802028606068A0B1FFF7F1FD0646B5
:1016B0000CE0286840F48030F4E740F48020286093
:1016C000F7E7FFF7E5FD801B642871D828688003E1
:1016D000F7D50BE0FFF7DCFD064604E0FFF7D8FD89
:1016E000801B6428F1D828688003F7D42078DFF8BD
:1016F0009C9280074FF0000B3DD5A348001D016868
:1017000011F00C0F08D00068C0F3810002280AD144
:10171000DAF80000400206D42868800715D5E06892
:10172000012809D111E0E068B8B10120C9F8000032
:10173000FFF7AEFD064605E022E1FFF7A9FD801B9D
:101740000228C2D828688007F7D52868216920F0C8
:10175000F80040EAC10028600DE0C9F800B0FFF7CA
:1017600097FD064604E0FFF793FD801B02281FD873
:1017700028688007F7D42078000722D5824F844854
:101780006169703771B101210160FFF781FD064683
:1017900004E0FFF77DFD801B022809D83868800728
:1017A000F7D50EE0C0F800B0FFF772FD064605E081
:1017B00082E0FFF76DFD801B02287DD83868800726
:1017C000F7D42078400765D56F484FF000083C30CB
:1017D0000068C0000BD46C483C30016841F0805177
:1017E000016000684FF0010800F080500090694FE0
:1017F0003868C0050FD4386840F480703860FFF74F
:1018000047FD064604E0FFF743FD801B022853D83E
:101810003868C005F7D55C4FA0686C3701280FD039
:101820000528386810D020F001003860386820F0B2
:1018300004003860A068B0B1FFF72AFD06460EE04C
:10184000386840F00100F4E740F004003860F7E742
:10185000FFF71EFD811B41F28830814263D8386852
:101860008007F5D50DE0FFF713FD064606E0FFF70C
:101870000FFD811B41F28830814254D838688007BF
:10188000F5D4B8F1000F05D03F483C30016821F095
:1018900080510160A069B8B33B49091D0968C1F3D3
:1018A0008101022946D00228584606D0C9F86000B6
:1018B000FFF7EEFC044639E035E04F46C9F860001A
:1018C000FFF7E6FC064604E0FFF7E2FC801B022877
:1018D00029D828688001F7D4D4E907010843A16A10
:1018E0002D4A490802EB0141626A41EA821108432C
:1018F00094F82C1040EA0161CAF800100120386603
:10190000FFF7C6FC044605E03CE0FFF7C1FC001B06
:10191000022808D828688001F7D533E0FFF7B8FC23
:10192000001B022802D90320BDE8F88F2868800137
:10193000F4D427E00128F7D0DAF80000E26900F4D7
:10194000800191421CD1226A00F03F01914217D1DF
:1019500047F6C071626A0140B1EB821F10D1A26AE2
:101960004FF0FF3300F4403103EB5202B1EB024F72
:1019700006D194F82C1000F07060B0EB016F01D02C
:101980000120D1E70020CFE70438024000004742A1
:10199000800E4742007000400000FFFF7047704714
:1019A00070B590F83C20012A32D0012580F83C50D7
:1019B000022280F83D2002685368946823F0700684
:1019C0000B6833435360134B02689A4214D0B2F150
:1019D000804F11D0104B9A420ED0104B9A420BD030
:1019E0000F4B9A4208D00F4B9A4205D00E4B9A42A9
:1019F00002D00E4B9A4204D1496824F08003194367
:101A0000916080F83D50002180F83C10084670BD80
:101A1000022070BD000001400004004000080040AA
:101A2000000C00400004014000400140001800404C
:101A300010B5040003D094F83D0010B107E0012078
:101A400010BD002084F83C00204600F01FF8022062
:101A500084F83D00211D206800F0ECFF012084F88F
:101A6000460084F83E0084F83F0084F8400084F883
:101A7000410084F8420084F8430084F8440084F86C
:101A8000450084F83D00002010BD000008B5006846
:101A9000B0F1804F12D10A48016841F001010160A4
:101AA0000068002200F00100009005211C20FFF7D3
:101AB0008DFCBDE808401C20FFF77ABC08BD000083
:101AC0004038024090F83D10012901D001207047B4
:101AD000022180F83D100168CA6842F00102CA6024
:101AE00000681149884214D0B0F1804F11D00F49DD
:101AF00088420ED00E4988420BD00E49884208D049
:101B00000D49884205D00D49884202D00C498842CF
:101B100004D1816801F00701062903D0016841F072
:101B200001010160002070470000014000040040F6
:101B300000080040000C004000040140004001404B
:101B40000018004070B5044690F83C0000250128BC
:101B500017D0012684F83C60022084F83D002068FC
:101B6000826822F0770222F47F428260086850285F
:101B700038D00DDC20284FD005DC90B3102811D1CF
:101B80004AE0022070BD302846D040280AD13BE010
:101B900060282FD070280DD0B0F5805F03D0B0F54D
:101BA000005F12D0012584F83D60002084F83C00DD
:101BB000284670BDCB68D1E90121206800F09EFF66
:101BC0002068816841F0770109E0CB68D1E9012103
:101BD000206800F093FF2068816841F480418160B3
:101BE000E1E719E0CA684968206800F099FF5021D0
:101BF000206806E0CA684968206800F0A2FF6021FA
:101C0000206800F085FFCEE7CA684968206800F0C8
:101C100087FF40212068F4E7226801461046F0E77C
:101C2000704770B50446006801694FF00005C9436C
:101C3000890715D4C168C943890711D4E91E016118
:101C400001202077206880698007204602D0FFF7B6
:101C5000E7FF04E000F098F8204600F096F82577BA
:101C600020680169C943490717D4C168C9434907B6
:101C700013D46FF00401016102202077206880698D
:101C800010F4407F204602D0FFF7CAFF04E000F0C6
:101C90007BF8204600F079F8257720680169C94370
:101CA000090716D4C168C943090712D46FF00801A7
:101CB0000161042020772068C0698007204602D097
:101CC000FFF7AEFF04E000F05FF8204600F05DF89B
:101CD000257720680169C943C90617D4C168C9437B
:101CE000C90613D46FF01001016108202077206825
:101CF000C06910F4407F204602D0FFF791FF04E056
:101D000000F042F8204600F040F82577206801698D
:101D1000C943C90708D1C168C943C90704D1891E8D
:101D20000161204600F032F820680169C9430906C4
:101D300009D4C168C943090605D46FF08001016167
:101D40002046FFF72BFE20680169C943490609D4E4
:101D5000C168C943490605D46FF0400101612046BE
:101D600000F050F820680169C94389060BD4C168A6
:101D7000C943890607D46FF0200101612046BDE800
:101D80007040FFF70CBE70BD7047704730B40168FB
:101D9000B1F1804F22D1164A164B11681960164BCB
:101DA000491C11601988154A491C89B21980642997
:101DB00012D300241C805188491C89B251803C29CF
:101DC0000AD354809188491C89B291803C2903D35D
:101DD0009480D188491CD1801988118000680849F5
:101DE000884202D130BCFFF759BA30BC70470000BE
:101DF000B8000020C4000020A8000020A00000209F
:101E0000000400407047704770470000F8B5016853
:101E100004460868CA684B6910F00F0F4FF00005C0
:101E200059D003F0010602F49077374365D0C1071B
:101E300005D0D10503D5216C41F001012164410792
:101E400005D5D90703D0216C41F002012164810737
:101E500005D5D90703D0216C41F0040121640107A5
:101E600007D502F02001314303D0216C41F0080175
:101E70002164216C00293AD0800604D5900602D551
:101E8000204600F0A6FE20684069216CC0F3801057
:101E9000090700D460B3204600F074FE2068406952
:101EA000400621D52068143050E8001F21F0400181
:101EB00040E80012002AF5D1A06BA8B16C49016579
:101EC000A06BFFF795F8002811D0A06B016D01B051
:101ED000BDE8F040084783060FD593060DD5204690
:101EE000BDE8F84000F075BE2046FFF78DFFF8BD55
:101EF0002046FFF789FF2564F8BD266B2023012EBD
:101F000079D1C60677D5D60675D508684868009099
:101F10004869400640D5A16B086840680004000C81
:101F2000EAD0A28D8242E7D9E085C869B0F5807F0A
:101F30002DD020680C3050E8001F21F4807140E85B
:101F40000012002AF5D12068143050E8001F21F05B
:101F5000010140E80012002AF5D12068143050E851
:101F6000001F21F0400140E80012002AF5D184F85A
:101F70003E30256320680C3050E8001F21F010012E
:101F800040E80012002AF5D1A06BFEF7E8FFA08D13
:101F9000E18D401A81B229E0A08DE18D401A81B215
:101FA000E08D0028A8D00029A6D020680C3050E889
:101FB000002F22F4907240E80026002EF5D1206810
:101FC000143050E8002F22F0010240E80026002ED5
:101FD000F5D184F83E30256320680C3050E8002F9E
:101FE00022F0100240E80023002BF5D12046FFF735
:101FF0000AFFF8BDFFE705062BD5150629D594F88D
:102000003D002128F5D1A068B0F5805F01D120699D
:10201000B0B1206A411C2162216800784860E08CE0
:10202000401E0004000CE084E3D12068C16821F068
:102030008001C1602068C16841F04001C160D8E7FB
:10204000206A0088C0F308004860206A801C206273
:10205000E5E74006CDD55006CBD5CA68204622F02C
:102060004002CA6084F83D3000F0B3F8C1E70000D8
:10207000752B000870B5040004D094F83D000025CD
:1020800010B106E0012070BD84F83C50204600F0FD
:1020900023F8242084F83D002068C16821F4005111
:1020A000C160204600F0F6FD2068016921F49041EE
:1020B00001612068416921F02A0141612068C168FD
:1020C00041F40051C1602564202084F83D0084F86B
:1020D0003E00002070BD0000F0B587B0044614211A
:1020E0006846FEF7E5F9344A2168002433480225A2
:1020F0000326914235D1314910310A6842F48012E9
:102100000A60096801F480110591016841F0040139
:102110000160016801F004010591016841F00801C6
:102120000160006802AA00F008000590E802CDE90D
:102130000005082782E8D00069462148FEF7BAFF6B
:102140000420CDE9000502AA694682E8D0001D48B6
:10215000FEF7B0FF002203213520FFF737F93520C5
:1021600026E0194A914225D1144914310A6842F0F7
:1021700010020A60096801F010010591016841F040
:10218000010101600068029400F0010005904FF425
:10219000C060CDE900050720CDE9036069460B4822
:1021A000FEF788FF002203212520FFF70FF92520E5
:1021B000FFF7FEF807B0F0BD005000403038024095
:1021C00000080240000C02400010014000000240E4
:1021D00070477047FEE700000022C26490ED100ACD
:1021E000104B80ED040AB0F9081000EE101AB8EE9A
:1021F000C00AB0EEC00A10EE101A994210DC016D50
:10220000491C016532290ADB02659FED070A01219D
:1022100080ED210AC1640221016080ED040A70474B
:10222000026570470000F04100000000D0ED000A98
:10223000F4EEC00AF1EE10FA01DD80ED000AD0EDF7
:10224000000AB1EE400AF4EEC00AF1EE10FA01D233
:1022500080ED000A7047000000B593B0082100200F
:102260008A0102920490CDE905010A90CDE90B01A3
:10227000501E0890184810AB81890A0A8DF800207A
:102280008DF80110B0F89C100A0A8DF802208DF824
:102290000310B0F82C110A0A8DF804208DF80510EF
:1022A000B0F8BC110A0A8DF806208DF80710B0F8B6
:1022B0004C026A46010A8DF838108DF8390002A9DF
:1022C0000648FEF737FA11AB0EAA08A90348FEF735
:1022D00031FA13B000BD0000384B0020FC00002094
:1022E000104810B50E4901600321416000214FF4F0
:1022F00000228160C0E903124FF44012426101766E
:10230000012242768176C17601774177FEF779FC2A
:10231000002803D0BDE81040FEF7F8B910BD00005A
:1023200000640040D4000020104810B50E49016040
:102330000321416000214FF400228160C0E90312B3
:102340004FF4401242610176012242768176C176D5
:1023500001774177FEF755FC002803D0BDE8104017
:10236000FEF7D4B910BD000000680040FC0000205A
:1023700010B50A4801F01CFC094C084A0021A06075
:10238000483A084801F048FC044A2060243A0021F9
:10239000054801F041FC606010BD0000405F00088E
:1023A00000000020572900086D25000830B587B0CF
:1023B00014216846FEF77CF82A480024016841F0A1
:1023C00004010160016801F004010591016841F018
:1023D00020010160016801F020010591016841F0D0
:1023E00080010160016801F080010591016841F000
:1023F00002010160016801F002010591016841F0EC
:1024000001010160016801F001010591016841F0DD
:10241000080101600068144D00F0080005900022DA
:102420000F212846FEF72EFF802000904FF48810E1
:10243000CDE9010469460D48FEF73CFE0F200090EF
:102440000120CDE90104694628460394FEF732FED7
:10245000002205211720FEF7B9FF1720FEF7A8FF7D
:1024600007B030BD3038024000080240001402407E
:1024700010B586B000241748009401940294039488
:1024800004944FF08041059401605321C0E9011488
:1024900042F21071C0E9031480218161FFF7C8FA8C
:1024A00008B1FEF733F94FF48050009069460948AF
:1024B000FFF748FB08B1FEF729F9049404A9054881
:1024C0000594FFF76DFA002801D0FEF71FF906B05A
:1024D00010BD0000240100200C4810B50A4901601D
:1024E0004FF4E1314160002181600C22C160C0E9FC
:1024F00004128161C161FFF7BDFD002803D0BDE872
:102500001040FEF703B910BD005000406C010020E0
:102510000C4810B50A4901604FF4E13141600021D7
:1025200081600C22C160C0E904128161C161FFF7C2
:10253000A1FD002803D0BDE81040FEF7E7B810BDAC
:1025400000100140B0010020B4EEE00AF1EE10FAF4
:1025500001DDB0EE600AF1EE600AB4EEE00AF1EEE1
:1025600010FA01D2B0EE600A7047FEE700F0C4FE38
:1025700000F03AF901F088F8012001F0DDFAF9E7FE
:102580002DE9F05FDFF8FCB10025ABF521762DEDEC
:10259000028BA946A6F57C7A05EBC5010AEB01146E
:1025A000207903287ED020680A2836D2DFE800F0A0
:1025B00054BF0514BF183677BF57B4F9080000EEB2
:1025C000100AC5EBC50000EB0510F8EEC00A94ED4B
:1025D000040A06EB80001EE0204600F0FBFCECE75E
:1025E000B4F90E00D4ED210A00EE100AC5EBC500C7
:1025F00000EB05180BEB8800B8EEC00A074601F0A7
:102600004FFBB4F9080000EE100A06EB8800F8EE64
:10261000C00A97ED0F0A01F043FB88E0B4F9080007
:1026200000EE100AC5EBC50000EB0510F8EEC00A7D
:1026300006EB800794ED160A384601F031FBB4F939
:10264000600000EE100AF8EEC00A97ED0F0AFFF7DF
:102650007BFF87ED0F0A6AE0A4F80C9067E0204644
:10266000FFF7BAFDB4F9080000EE100AC5EBC5008B
:1026700000EB0510F8EEC00A06EB800794ED040AA3
:10268000384601F00DFBB4F9480000EE100AF8EEF0
:10269000C00A97ED0F0AFFF757FF87ED0F0AD4ED39
:1026A000210A00E047E0C5EBC50000EB05180BEB85
:1026B000880094ED1C0A074601F0F2FAB4F908000C
:1026C00000EE100AF8EEC00A97ED0F0A06EB880735
:1026D000384601F0E5FAB4F9780000EE100AF8EE99
:1026E000C00A97ED0F0AFFF72FFF87ED0F0AB4F925
:1026F0007800002800DC404203F044F89FED221BE4
:1027000053EC112B03F092F841EC180BB4F90A00CA
:10271000002800DC404203F035F853EC182B03F09E
:1027200083F902D20120E06701E0C4F87C906D1CBF
:10273000072DFFF631AF0020534600EBC00103EB3D
:1027400001110A68042A06D00A79012A0CD0022A4B
:102750000AD0A1F80C90401C0728EEDBBDEC028BE0
:10276000BDE8F05FFFF778BDC0EBC00202EB0012DE
:1027700006EB820292ED0F0ABDEEC00A10EE102A9F
:102780008A81E8E7AC510020333333333333F33FEE
:10279000FEE70000FDEEC00A0521016010EE901A70
:1027A00009B200EE901AC181F8EEE00A70EEC00A9C
:1027B000F5EEC00AF1EE10FA00EE901AF8EEE00A1B
:1027C00002DD30EEC00A01E030EE600A10EE100AC1
:1027D000B0F17E5F02DAB7EE000A70479FED010AA2
:1027E000704700000000000010B500F081F800F014
:1027F00023FE00F0DBFA02490020087010BD000043
:10280000CC00002070B59FED350A90F88820C18873
:102810002AB10279012A08D0022A0BD108E0A0F8D7
:102820008A10012180F8881070BDB3EE030A01E020
:102830009FED2B0AB0F90820DFED2A0A002A9FED50
:102840002A1A2A4BB0F88A2041F6FF741CDB914209
:10285000A1EB020204D2224440F2E244A2420BDA8B
:1028600001EE902AF8EEE11A81EEA02A62EE010A4A
:1028700080EE801A83ED001A93ED000AB5EEC00ACF
:10288000F1EE10FA1EDC23E0914224D9641A04F21E
:10289000E145154440F6C216B5420CD8224401EE7B
:1028A000902AF8EEE11A81EEA02A62EE010A80EE8B
:1028B000801A83ED001A93ED000AB5EEC00AF1EE1E
:1028C00010FA05D2D0ED210A30EE800A80ED210AFF
:1028D000A0F88A1070BD8A1AE1E70000000000002D
:1028E0000000104200F8FF450000B443C80000207B
:1028F00015499FED140A002081ED030A81ED040AB9
:1029000081ED050A81ED020A81ED000A81ED010ADF
:1029100001EB8002401C82ED060A0428F8DB00204F
:10292000886481ED0A0A81ED0C0A81ED0B0A81EDC4
:10293000100A81ED110A81ED0F0A81ED0E0A81ED79
:102940000D0A704700000000305400200221016091
:1029500080ED040A7047012001F0EEF8FBE710B5A6
:102960004FF0E020006902F077FC012803D0BDE8B9
:10297000104002F069B910BD30B593B030216846FF
:10298000FDF796FD14210CA8FDF792FD1D480025CA
:10299000016841F080510160006800F080501190A2
:1029A0001948016841F4804101600068022400F484
:1029B0008040119001200090000401908001CDE939
:1029C000064008AA0420A82182E813000B9068465C
:1029D000FEF738FE08B172B6FEE70CA90F2081E8B9
:1029E00031004FF4A0500F904FF48050109005210B
:1029F0000CA8FEF71DFD002801D072B6FEE713B04B
:102A000030BD0000403802400070004002480168BC
:102A100041F470010160704788ED00E00148FFF764
:102A200000B90000240100200148FFF7FAB80000B7
:102A3000F4010020F0B50268254D264E264FDFF840
:102A40009CC0274B4FF0804EA84209D0704507D05C
:102A5000B04205D0B84203D0604501D0984203D1BE
:102A600022F070044A682243A8421BD0704519D056
:102A7000B04217D0B84215D0604513D0984211D05B
:102A8000184CA0420ED0184CA0420BD0174CA042BC
:102A900008D0174CA04205D0164CA04202D0164CCC
:102AA000A04203D122F44074CA6822434C6922F048
:102AB0008002224302608A68C2620A688262A84277
:102AC00001D0984201D10969016301214161F0BD42
:102AD000000001400004004000080040000C0040DD
:102AE0000004014000400140004401400048014012
:102AF00000180040001C00400020004010B5846811
:102B000042EA032224F47F440A432243826010BD38
:102B1000826822F070020A4342F007018160704728
:102B200010B5046A036A23F001030362836923F08A
:102B3000F00343EA021324F00A020A4383610262AB
:102B400010BD10B5036A23F0100303628469036AA1
:102B500024F4704444EA023223F0A00343EA011152
:102B60008261016210BD00000148FFF74FB900000B
:102B70006C01002010B5806B0021C185C184FFF776
:102B800043F910BD01680C3151E8002F22F4907216
:102B900041E80023002BF5D10168143151E8002FE2
:102BA00022F0010241E80023002BF5D1016B01293D
:102BB00009D101680C3151E8002F22F0100241E8E0
:102BC0000023002BF5D1202180F83E100021016365
:102BD000704708B590F83E10222901D0022008BDA8
:102BE00081684FF48053994201D1026922B1826A0F
:102BF00099421BD049B10AE00268816A5268C2F367
:102C000008020A80816A891C08E0016971B10168C3
:102C1000496801F07F011170816A491C8162C18D90
:102C2000491E0904090CC18503D019E001684968EF
:102C3000F1E70168CA6822F02002CA600168CA6828
:102C400022F48072CA6001684A6922F001024A6176
:102C5000202180F83E10016B012903D0FFF7B8FA5C
:102C6000002008BD0021016301680C3151E8002FEC
:102C700022F0100241E80023002BF5D101680A6818
:102C8000D20602D50A6849680091818DFFF7BBF82A
:102C9000E6E7000070B5044600680169E26821F4C7
:102CA000405111430161A1682069E26901436069F3
:102CB000104301432068C26849F20C639A430A43F7
:102CC000C26020684169A26921F4407111434161E9
:102CD00031492068884202D03049884202D1FEF74B
:102CE00071FC01E0FEF75EFCE26900231921642516
:102CF0003226B2F5004F626828D0A0FB0101930F85
:102D00009200FDF711FB0146B0FBF5F06FF01802E1
:102D1000504301EB800006EB0010B0FBF5F000F033
:102D2000F002B1FBF5F002EB0012B1FBF5F06FF031
:102D30001803584301EB800006EB0010B0FBF5F0E0
:102D400000F00F0021681044886070BDA0FB0101F5
:102D500092185B41FDF7E8FA0146B0FBF5F002017D
:102D6000B1FBF5F06FF01803584301EB800006EB60
:102D7000C000B0FBF5F000F0F80002EB4002B1FB40
:102D8000F5F0584301EB800006EBC000B0FBF5F016
:102D900000F00700D6E700000010014000140140D9
:102DA0000148FFF733B80000B001002010B57848A3
:102DB00001212DED088B017180F8941080F8241109
:102DC00080F8B41180F84412DFED728AB1EE003A57
:102DD000F2EE0E2AF0EE683A9FED6F9AF0EE681A66
:102DE000B0EE492A9FED6D8AB0EE481ADFED6C9A7D
:102DF000B0EE490A0521F0EE690A6A4801F02EF8A2
:102E00006848F0EE683AB1EE003AF2EE0E2AB0EE03
:102E1000492AF0EE681AB0EE481AF0EE690AB0EEF0
:102E2000490A05215C3001F019F85E48F0EE683A75
:102E3000B1EE003AF2EE0E2AB0EE492AF0EE681A30
:102E4000B0EE481AF0EE690AB0EE490A0521B83032
:102E500001F004F89FED54AAB0EE483AF2EE042ACD
:102E6000F0EE4A3AB0EE492AF0EE681AB0EE481A8F
:102E7000F0EE690AB0EE490A04214C4800F0EEFF7A
:102E80004A48F0EE4A3AB0EE483AF2EE042AB0EE82
:102E9000492AF0EE681AB0EE481AF0EE690AB0EE70
:102EA000490A04215C3000F0D9FF4048F0EE4A3A6C
:102EB000B0EE483AF2EE042AB0EE492AF0EE681A73
:102EC000B0EE481AF0EE690AB0EE490A0421B830B3
:102ED00000F0C4FFDFED36AA9FED37BADFED37BA59
:102EE000F0EE6A3A9FED333AF2EE0E2AB0EE492A3E
:102EF000F0EE681AB0EE481AF0EE4B0AB0EE6B0A2C
:102F000005212F4800F0AAFF2D48F0EE6A3AB6EEF0
:102F1000003AF3EE042AB0EE492AF0EE681AB0EE59
:102F2000481AF0EE4B0AB0EE6B0A05215C3000F057
:102F300095FFDFED24AAF0EE4A3AB0EE483AF2EE01
:102F4000082AB0EE492AF0EE681AB0EE481AF0EE00
:102F50006A0AB0EE690A04211B4800F07FFFF0EE18
:102F60004A3AB0EE483AB0EE492AF0EE681AB0EEAE
:102F7000481AF0EE6A0ABDEC088B0421F2EE0E2A24
:102F80001148BDE810409FED110A5C3000F066BFAB
:102F9000384B0020CDCCCC3D000080460000000026
:102FA00000008044284F00209A99993EAC5100209F
:102FB000CDCC4C3ECDCCCC3E000061440000004660
:102FC0003C50002000004844C05200200000004552
:102FD000FEE7000010B504462DED068B4FF07E5144
:102FE000D0ED0C2A12EE900A9FED829A884218DCEE
:102FF000F5EEC02AF1EE10FA13D394ED0D3A13EE6C
:10300000100A88420DDCB5EEC03AF1EE10FA08D392
:1030100094ED0A2A94ED091AB4EEC12AF1EE10FAE1
:1030200004D284ED049ABDEC068B10BD94ED070A22
:10303000D4ED080AB4EE600AF1EE10FA04D121EEE4
:10304000020A84ED040AEEE770EEC01AF5EEC01A2B
:10305000F1EE10FA01DC70EE601AF0EE004AF4EEC8
:10306000C00A62EEA12A23EE213A71EEE23A22EE84
:10307000A45A63EE245A33EEC34A62EE023A41EE9A
:10308000413AC3EE859AD4ED0B3A63EEA33AB0EE23
:10309000635A02EE425A85EE253AF1EE10FA06DD49
:1030A00094ED215AB4EEC05AF1EE10FA23D3F4EEA7
:1030B000C00AF1EE10FA06D294ED215AB4EEC05ACD
:1030C000F1EE10FA17DCF4EEC00AF1EE10FA06DDAC
:1030D00094ED215AB4EEE05AF1EE10FA0BDCF4EE66
:1030E000C00AF1EE10FA09D294ED215AB4EEE05A7A
:1030F000F1EE10FA02D284ED041A54E0D4ED210A64
:1031000030EEC08AB5EEC08AF1EE10FA01DC30EE86
:10311000608AB4EEE28AF1EE10FA20D221EE010AC2
:1031200010EE100A02F06CFE41EC1A0B18EE100AB9
:1031300002F066FE41EC180B19EE900A02F060FEF8
:103140009FED2D1B53EC112B02F070FB53EC182B51
:1031500002F06CFB53EC1A2B02F060FA1AE032EE2C
:10316000840AB4EEC80AF1EE10FA02DD84ED042AF6
:1031700019E031EEC80A63EE240AB5EEC00AF1EE9A
:1031800010FA01DC38EE610A40EEC03A13EE900A04
:1031900002F036FE41EC100B00F044F851EC100B3D
:1031A00002F00AFA206194ED080AD4ED070AB4EEA1
:1031B000E00AF1EE10FA05D2D4ED040AF1EE600A4D
:1031C000C4ED040AD4ED210A0D4830EEC00AB0EE79
:1031D000C00A10EE101A814203DA0121A16384EDC6
:1031E000049A10EE101A81427FF72DAF0020A063E1
:1031F00019E700000000000000000000000000408F
:10320000000040400907090E002804DB00F1E0201F
:1032100080F80014704700F00F0000F1E02080F803
:10322000141D704700B52DED048BB0EE409AF0EE02
:10323000609A83B051EC190B02F02CFC41EC180B96
:1032400018EE100A18EE901A8DED008B002818BFAA
:103250000120084320F00040C0F17F6000F1E04011
:10326000C00F14D019EE101A19EE900A8DED009BC4
:10327000002918BF0121084320F00040C0F17F6001
:1032800000F1E040C00F04BF0120FDF740F9B0EEAF
:10329000480A03B0F0EE680ABDEC048B00BD0000E4
:1032A00005494868022801DB022002E0002801DC11
:1032B0000020486000037047CC00002010B50C4887
:1032C0002DED028BB0EE408AFFF740FB0848B0EED0
:1032D000480A9030FFF73AFBB0EE480A0548FFF77E
:1032E00035FBBDEC028BBDE81040FFF749B900008B
:1032F000384B0020584C002000B595B0012100202B
:103300001391CDE911010B900E900C900D9010903F
:1033100009910F90CDE9070101900290039004906C
:10332000069005900BA90F48FDF772FA0D48FDF7BE
:10333000E4FD02210B48FDF7EBF901210948FDF7F7
:10334000E7F901A90848FDF763FA0748FDF7D5FD3D
:1033500002210548FDF7DCF901210348FDF7D8F902
:1033600015B000BDD4000020FC0000202DE9F0477E
:103370002E4E9FED2D0A9FED2E2A96ED001AD6EDCA
:10338000011AD6ED020A61EE002ADFF8A8800024B7
:103390004FF0020A41EEC02A08F5107940EE822A69
:1033A000C6ED062A61EEC02A61EE801A41EE402A7F
:1033B00040EE822AC6ED072AF0EE612A41EE001A9D
:1033C00041EE402A40EE821A40EE822AC6ED082ADB
:1033D000C6ED091A04EBC40208EB021506EB8400E3
:1033E000C5F800A090ED060A85ED040AB5F90800BD
:1033F00000EE900AC4EBC40000EB041109EB81005D
:10340000F8EEE00A074600F04BFC97ED0F0A641C4B
:10341000042CBDEEC00A10EE100AA881DADBBDE86C
:10342000F047FDF73DB900008104353F30540020DE
:1034300000008C427C54002010B5364801212DED4F
:10344000068BF2EE082A017180F894109FED338A02
:1034500080F82411DFED308A9FED319ADFED319A4B
:103460009FED31AADFED31AA80F8B411F0EE683A91
:10347000B0EE483AB0EE492AF0EE691AB0EE481ABA
:10348000F0EE4A0AB0EE6A0A0421294800F0E6FC90
:103490002748F0EE683AB0EE483AF2EE082AB0EE6D
:1034A000492AF0EE691AB0EE481AF0EE4A0AB0EE78
:1034B0006A0A04215C3000F0D1FC1D48F0EE683A45
:1034C000B0EE483AF2EE082AB0EE492AF0EE691A58
:1034D000B0EE481AF0EE4A0AB0EE6A0A0421B8309B
:1034E00000F0BCFCF0EE683AB0EE483AB0EE492A83
:1034F000F0EE691AB0EE481AF0EE4A0AB0EE6A0A27
:10350000BDEC068BF2EE082A0421BDE81040094804
:1035100000F0A4BC7C540020CDCC4C3E0000000048
:1035200000008046CDCCCC3D000080440000004629
:10353000BC560020D0570020054810B590ED8D0AEC
:1035400000F5D870FFF726F9BDE81040FFF718B86E
:10355000384B002010B5002204210448FDF792FEEC
:10356000BDE810409FED020A00F004B800080240D8
:103570000000000010B52DED020B6846DFED0B0AD0
:103580009FED0B0A00F08EFA9DED000AB5EEC00A21
:10359000F1EE10FA09D810EE100A0649884204D854
:1035A0000548FFF7F7F8FEF7EBFF1CBD000087C3E7
:1035B00000000000000087C3E84C002010B5012285
:1035C00004210448FDF75EFEBDE810409FED020AAD
:1035D000FFF7D0BF00080240000087C3244ADFED98
:1035E000251A9FED250A5188DFED240AA1F2D75351
:1035F00023489FED241A0A2B0CD902EE101AB8EEBC
:10360000422A72EE402A82EEA02A22EE212A80ED82
:10361000002A01E080ED001A1188A1F2D7530A2B8D
:103620000CD902EE101AB8EE422A72EE402A82EE4F
:10363000A02A62EE211AC0ED011A01E080ED011A04
:10364000D188A1F2D7520A2A0ED901EE101AB8EE8B
:10365000411A31EE400A80EE201AB3EE0E0A21EE36
:10366000000A80ED020A704780ED021A70470000E0
:10367000244B00200080BB450080BB440000FA437F
:1036800030540020000000002DE9F05F7F4C2078CE
:103690009FED7F0A7F4AA8B37F4D4FF002094FF09C
:1036A000030AE98940F2DC57012838D0DFF8EC81C1
:1036B00040F24C4B4FF4E166022844D003282CD151
:1036C00082ED020A82ED000A82ED010AFFF74EFE4A
:1036D000E889B8427ED96888DFF8C491A0F2D75152
:1036E0000A2978D90521A0F2DC5090FBF1F000EE18
:1036F000900A99EDB10AF8EEE00A30EE600A00F0A7
:1037000097F972E0FFE70020606082ED020A82ED27
:10371000000A82ED010A01202070BDE8F09F28898F
:103720000028FAD068890028F7D0A8890028F4D0AA
:103730000029F2D0B94202D284F80090EDE7ECD92A
:1037400084F800A0E9E7B94240D2FFF747FFFFF74E
:103750000DFE68894FF49669484502D200F052F98F
:1037600003E0B04201D900F087F9A889484502D2A8
:10377000FFF7F0FE0BE0A0F21551B1F5C77F02D8BC
:10378000FFF7DAFE03E0B04201D9FFF717FF2889FF
:10379000B8426CD36FD871E04FF008014046FDF796
:1037A00071FD6BE06068401C05E040F26C7188427E
:1037B000B3D96068401E6060FFF772FDBDE8F05F3E
:1037C00000EE100AB8EEC00AFFF778BDA5D982ED69
:1037D000020A01E056E006E082ED000A82ED010AED
:1037E000FFF7C4FDACE700F0FFF8E888A0F2D7517E
:1037F0000A290FD90A21A0F2DC5090FBF1F000EE6B
:10380000900A99ED8D0AF8EEE00A30EE800AFFF793
:10381000B1FE01E0FFF790FE68894FF4C779A0F28E
:103820001551494506D8002201214046FDF72AFDE1
:10383000002207E0B04209D9012211464046FDF7B7
:1038400021FD012202214046FDF71CFDA889A0F2BE
:103850001551494501D8002202E0B04204D90122A5
:1038600004214046FDF70EFD2889B84202D24FF0F0
:10387000000291E702D94FF001028DE7A888584570
:1038800093D28FE7FFF458AF47E70000CC00002049
:103890000000000030540020244B002000080240AB
:1038A000384B002000681D4AA0F50070013812D086
:1038B00001281AD0022823D003280BD1088840BA47
:1038C000A2F8B601488840BAA2F8B801888840BA80
:1038D000A2F8BA017047088840BAD080488840BA38
:1038E0001081888840BA50817047088840BA22F811
:1038F000960F488840BA5080888840BA90807047B8
:10390000088840BAA2F82601488840BAA2F82801DF
:10391000888840BAA2F82A01704700007C54002031
:1039200002683048A2F20122072A0ED2DFE802F034
:10393000040E192633404D000A8852BAC2804A88C4
:1039400052BA0281898849BA418170470A8852BABD
:1039500020F8962F4A8852BA4280898849BA8180D5
:1039600070470A8852BAA0F826214A8852BAA0F8AD
:103970002821898849BAA0F82A1170470A8852BAC2
:10398000A0F8B6214A8852BAA0F8B821898849BA65
:10399000A0F8BA1170470A8852BAA0F846224A889D
:1039A00052BAA0F84822898849BAA0F84A1270474A
:1039B0000A8852BAA0F8D6224A8852BAA0F8D82269
:1039C000898849BAA0F8DA1270470A8852BAA0F872
:1039D00066234A8852BAA0F86823898849BAA0F8B1
:1039E0006A137047384B0020054810B590EDB10AB6
:1039F00000F51070FEF7CEFEBDE81040FEF7C0BD2A
:103A0000384B002010B59FED080A00F011F8074C64
:103A1000002201212046FDF735FC20460022BDE8AA
:103A200010400221FDF72EBC0000000000080240FB
:103A300010B52DED020B6846DFED0B0A9FED0B0A6A
:103A400000F030F89DED000AB5EEC00AF1EE10FA74
:103A500009D810EE100A0649884204D80548FEF736
:103A600099FEFEF78DFD1CBD0000AFC300000000F5
:103A70000000AFC3784D002010B5084C012211465C
:103A80002046FDF7FFFB012202212046FDF7FAFB4D
:103A9000BDE810409FED020AFFF7CABF00080240D0
:103AA0000000AFC3B4EEE00AF1EE10FA13DD90EDC2
:103AB000001AB4EEC01AF1EE10FA02DCB0EE410AC0
:103AC00001E080ED000AB4EEE00AF1EE10FA01D256
:103AD000C0ED000A7047FDD290ED001AB4EEE01A76
:103AE000F1EE10FA02DCF0EE410A01E0C0ED000A4E
:103AF000F4EEC00AF1EE10FAECD280ED000A704745
:103B0000FDF7D4FBFEF738FFFEF750FCFEF7E8FBAD
:103B1000FEF70AFCFEF7ACFCFEF7DEFCFEF7F8FC55
:103B20000448FDF7CFFF00F015F8FEF721FC00F088
:103B300023F8FEE72401002010B5EFF3058111B151
:103B40006FF0050403E0002408B100F01FFF2046D9
:103B500010BD0000EFF3058010B16FF00500704755
:103B60000448016811B14FF0FF3070470121016036
:103B7000002070477000002010B5EFF3058010B1F1
:103B80006FF0050010BD08480168012902D04FF010
:103B9000FF3010BD054A002182F8141D022101608A
:103BA00000F05CFF002010BD700000200BE000E082
:103BB00070B505464FF00004EFF3058050BB0DB122
:103BC000686800E00020C10701D0012600E000265F
:103BD00000071FD46DB1D5E9021021B1502819D3C7
:103BE0001EB1042002E020B114E0012001F04DF8E4
:103BF00005E00EB1042000E0012001F03BF80400D4
:103C000008D00DB1296800E0002100F08BFE0EB154
:103C100044F00104204670BD2DE9FF410B464FF0F2
:103C20000005EFF30581039549BB40B380261821B9
:103C300000244AB3176807B13C46976907B1394673
:103C40004F1E382F02D21779FF0703D0002004B08F
:103C5000BDE8F081576907B1BE08D2F808C0BCF1D1
:103C6000000F0DD0D5685C2D18D312693AB137B169
:103C70008DE806103246214601F0C1FA03900DE0AE
:103C8000D7685FB912694AB903AACDE90012B2B286
:103C9000214601F087FA012800D003950398D6E762
:103CA00000B530EE601AC0ED080A80ED050A80ED1F
:103CB0000B1AD0ED161A01469FED672A30EE600A06
:103CC000F5EEC01AB1EE400AF1EE10FA0ED0B5EEE4
:103CD000C01AF1EE10FA02DDF0EE410A01E0F0EE5A
:103CE000400AF4EEE10AF1EE10FA15DCD1ED151AF6
:103CF000F5EEC01AF1EE10FA11D0B5EEC01AF1EEE1
:103D000010FA02DDF0EE410A01E0F0EE400AF4EEB6
:103D1000E10AF1EE10FA02D2B0EE420A00BD91F8CB
:103D2000442001F1340001F13C03042A02D0052AA9
:103D30003BD075E0D1ED000A60EE810AC1ED0C0ABE
:103D4000D1ED140AF5EEC00AF1EE10FA0BD0B5EE83
:103D5000C01AF1EE10FA01DDB0EE410AB4EEE00A4D
:103D6000F1EE10FA08D291ED0D0AD1ED010A00EE44
:103D7000810A81ED0D0A01E081ED0D2A91ED0A0A1B
:103D8000D1ED020A31EE400A20EE200A81ED0E0A42
:103D900091ED130AFEF74AFA91ED0C0AD1ED0D0AE6
:103DA00030EE200AD1ED0E0A2DE091ED0A0AD1ED98
:103DB000001A71EE400A60EEA10AC1ED0C0AD1EDC5
:103DC000010A60EE810AC1ED0D0AF0EE000A00EE74
:103DD000601A91ED090AD1ED020A31EE000A20EED7
:103DE000200A81ED0E0A91ED130AFEF71FFA91EDFC
:103DF0000C0AD1ED0D0A30EE200AD1ED0E0A30EE9C
:103E0000200AD1ED100A184630EE200A81ED0F0A83
:103E100091ED120AFEF70AFA91ED0F0A81ED100AF0
:103E200091ED0A0A81ED090A91ED0B0A81ED0A0A6A
:103E300091ED070A81ED060A91ED080A81ED070A66
:103E400091ED040A81ED030A91ED050A81ED040A62
:103E500091ED0F0A00BD00000000000080F8441042
:103E600000F1480282EC050A9FED040A80ED100A79
:103E700080ED0F0AC0EC032A70470000000000002C
:103E80002DE9F041134E0F460446F5683068001DD9
:103E900000F04AFC601C07D137B13168BDE8F04141
:103EA0000D48091D00F090BC30682C44AC424460C1
:103EB000316805D2B06BBDE8F041091D00F06CBC63
:103EC000706B091D00F068FCB06A844200D2B462D5
:103ED000BDE8F081200000202C0700202DE9F041F2
:103EE000054600F07DFC2D4EB068401CB060306887
:103EF0002B4F10B1706930B32BE03560B0680128EA
:103F000027D1002404EB840007EB800000F036FC8E
:103F1000641C382CF6D3234800F030FC21481430C0
:103F200000F02CFC1F48283000F028FC1D483C30D5
:103F300000F024FC1B48503000F020FC194870634E
:103F40001430B06305E03068E96AC06A884200D87E
:103F50003560706A401C70626864E86A3169884242
:103F600000D9306100EB800007EB8000291D00F0D4
:103F70002BFC00F055FC706900280CD03068E96A11
:103F8000C06A884207D208494FF080500860BFF3EA
:103F90004F8FBFF36F8FBDE8F0810000200000203D
:103FA0007C020020DC06002004ED00E038B500F0C3
:103FB00017FC104C2068C8B90F4800F0DFFB0E4812
:103FC000143000F0DBFB0C48E060143020610A4B39
:103FD0000020F03B009003F1500210210A2000F075
:103FE00082FE206010B105A100F09CFCBDE83840C5
:103FF00000F016BC5C00002030080020546D7251A7
:104000000000000030B4026C0B46002A0BD0C168DF
:104010001144C1608468A14201D30168C16030BC11
:104020001846FCF7F8B930BC70472DE9F041856BB4
:10403000174604460026026C82B1C7B1E068FCF75F
:10404000EAF9E168206C091AE1602268914202D223
:10405000A168081AE060022F16D017E02068A8B9FE
:10406000A06801F071F906460020A0600EE06068CB
:10407000FCF7D1F9216C606808446060A16888424F
:1040800004D32068606001E005B16D1E6D1CA5635E
:104090003046BDE8F08110B5044690F8590058B19B
:1040A00001280CD002280FD0502080F31188BFF3D4
:1040B0004F8FBFF36F8FFEE7206B00F0C5FB2046EC
:1040C000BDE8104000F0C0BB10BD000010484FF428
:1040D0007051420706D0C01D0D4920F00700411A5B
:1040E000C1F570510B4A00230144C2E900030839AD
:1040F000183A21F0070111604B600B600B1AC0E900
:10410000001393604FF0004053605061704700000F
:10411000100F00208C000020134E144DA6F29C4777
:104120004FF08058DFF8489011E000F059FBF0683C
:10413000C468201D00F0F8FAA868401EA8606868EE
:10414000401E686000F06CFB2046FFF7A4FF686823
:104150000028EAD138680128F9D9C9F80080BFF3EE
:104160004F8FBFF36F8FF2E7180700202000002069
:1041700004ED00E0002807D00021816001600B46BB
:104180000A46C16000F026BE704770B51D46049C0B
:1041900049B12260C4E90F010121204600F0D6FD9B
:1041A00084F84C5070BD2460F4E72DE9F05F0E46B2
:1041B000DDE90B941746834691009A460A9DA52295
:1041C000206BFCF76DF96FF00301206B01EB8701A9
:1041D000084420F00707780707D0502080F31188A3
:1041E000BFF34F8FBFF36F8FFEE74FF0000866B14C
:1041F00000202218315C82F83410315C11B1401C6F
:104200001028F6D384F8438001E084F83480382DF8
:1042100000D33725E562C4E91358201D00F0B9FA30
:1042200004F1180000F0B5FA2461C5F138006462A9
:10423000A061C4F8548084F85880524659463846E4
:1042400000F05CFA2060B9F1000F01D0C9F800401D
:10425000BDE8F09F30B5114900E011460A6882427E
:10426000FBD34B685C18844203D140681844486013
:10427000084643681C18944209D1084C183C24682D
:10428000A24209D052681A4442600A681268026069
:10429000814200D0086030BD0460F9E78C00002046
:1042A00070B5002441600B4D0061914206D8D11ACF
:1042B0008269914206D2011D286907E09A4203D221
:1042C000994201D3012403E0011DE86800F064FA7B
:1042D000204670BD5C00002010B5044600F080FA56
:1042E000A06B20B1002400F09BFA204610BD0124F1
:1042F000F9E7000030B587B03C4D6EE0019800282A
:1043000006DADDE90301029A90470198002864DB90
:10431000039C606910B1201D00F006FA05A800F0AA
:10432000D7F8024601980A2857D2DFE800F00505C1
:10433000052D334A05052D3394F8280040F001007F
:1043400084F828000298A169034601442046FFF73B
:10435000A7FF68B3216A2046884794F828004007E1
:104360003BD5002000900298A1690023421819460D
:10437000204601F0EFF8D8B9502080F31188BFF340
:104380004F8FBFF36F8FFEE714F8280F20F0010066
:10439000207022E094F8280040F0010084F8280002
:1043A0000298A06128B1811813462046FFF778FFD4
:1043B00013E0502080F31188BFF34F8FBFF36F8F4E
:1043C000FEE794F82800810703D4204600F03CFA69
:1043D00003E020F0010084F82800002201A92868E9
:1043E00000F00AFE002889D107B030BD5C00002033
:1043F0002DE9FC410F46054600F072FB01A800F0D4
:1044000067F80446019818B101F014F8BDE8FC8182
:10441000254EAFB130690068D0B30027291B3A465A
:10442000306800F091FA01F005F80028EED11F493C
:104430004FF080500860BFF34F8FBFF36F8FE5E7F9
:10444000A542EBD800F0F6FFF0682746C068C468C4
:10445000201D00F069F994F82800410719D5A069DA
:104460002B4641193A462046FFF71AFFA8B1002013
:104470000346014600902A46204601F06BF860B9D9
:10448000502080F31188BFF34F8FBFF36F8FFEE78B
:1044900007E020F0010084F82800216A20468847C0
:1044A000B4E70127BAE700005C00002004ED00E05B
:1044B0000648416B096829B1416BC968C9684968F8
:1044C000816270474FF0FF31FAE7000020000020C2
:1044D00070B5054600F0CEFE064E0446B068844234
:1044E00003D200F009F8012000E0002028602046F7
:1044F000B46070BD5C000020F8B5194E20E0C068C3
:10450000C4680568201D00F00FF9216A204688471D
:1045100094F82800400713D5A0692844A84206D97A
:1045200024616060211DF06800F036F908E0002089
:104530000346014600902A46204601F00BF838B1A8
:10454000F06801680029DAD13169C6E90310F8BDC5
:10455000502080F31188BFF34F8FBFF36F8FFEE7BA
:104560005C00002008484068401C4FF0500080F379
:10457000118804D0BFF34F8FBFF36F8FFEE7BFF3F7
:104580004F8FBFF36F8FFEE794000020084CE06868
:10459000016839B1002139B10020FFF729FFFFF789
:1045A000A9FEF4E70121F6E7C0680068F5E700001E
:1045B0005C0000202DE9F041044600F011F994F967
:1045C000455004F1240609E0606A48B1304600F025
:1045D000F9FE08B100F008FA6D1E6DB2002DF3DC93
:1045E0004FF0FF3684F8456000F01AF900F0F8F853
:1045F00094F9445004F1100709E0206948B13846A5
:1046000000F0E0FE08B100F0EFF96D1E6DB2002D74
:10461000F3DC84F84460BDE8F04100F001B900002B
:104620002DE9F0410546002600F05AFA324F38686D
:1046300008B9FFF74BFD786905424ED1C5B308357F
:1046400068070ED005F00700C0F1080005446807B0
:1046500007D0502080F31188BFF34F8FBFF36F8FC7
:10466000FEE72DB37868854237D8234918310846CC
:10467000046801E0214604466068A84202D220682E
:104680000028F7D13868844227D00E682068086077
:1046900060680836411B10290FD96019420708D0FD
:1046A000502080F31188BFF34F8FBFF36F8FFEE769
:1046B00013E041606560FFF7CDFD61687868401ADE
:1046C0007860BA68904200D2B860786901430020EF
:1046D000C4E90001F868401CF86000F0ABFE700708
:1046E00007D0502080F31188BFF34F8FBFF36F8F37
:1046F000FEE73046BDE8F0817400002010B5031FCE
:104700004FF080741C601B1F21F001011960191FFC
:10471000044B0B6014390A60091F6FF00202443821
:104720000A6010BD65450008D0E9013201699A6050
:10473000D0E901235A604A68824201D182684A6006
:10474000002202610868401E086008687047000087
:10475000034B036003F15C00086080201060704729
:1047600058080020044B036003F15C0008604FF41C
:104770008070106070470000B40A002000F108014A
:104780004FF0FF32C0E90112C160016100210160F8
:10479000704700210161704730B50C68621C02D07F
:1047A00000F1080202E0026904E01A4653681D683D
:1047B000A542FAD953684B6099608A6051600861DC
:1047C0000168491C016030BD42684A6093688B6093
:1047D00093685960916008610168491C01607047E5
:1047E000502080F31188BFF34F8FBFF36F8F0A49BA
:1047F0004868401C486001280CD10848006810F047
:10480000FF0F07D0502080F31188BFF34F8FBFF305
:104810006F8FFEE7704700009400002004ED00E079
:104820000849486828B1401E486001D180F31188CA
:104830007047502080F31188BFF34F8FBFF36F8F05
:10484000FEE700009400002070B500282AD0164D25
:10485000A0F1080460686969084207D1502080F31C
:104860001188BFF34F8FBFF36F8FFEE722683AB115
:10487000502080F31188BFF34F8FBFF36F8FFEE797
:104880008843606000F02CF96068696808446860DB
:104890002046FFF7DFFC2869401C2861BDE8704016
:1048A00000F0C8BD70BD0000740000204FF0E02093
:1048B00000210161816105494FF47A720968B1FBF9
:1048C000F2F1491E41610721016170471C0000207F
:1048D00010B5FBF705FD114910280ED300F1E020BB
:1048E00090F8F0030A78904207D2502080F31188A4
:1048F000BFF34F8FBFF36F8FFEE7094800688968E9
:1049000000F4E060884207D9502080F31188BFF39B
:104910004F8FBFF36F8FFEE710BD000094000020A3
:104920000CED00E010B5074B002253F832401CB1EB
:10493000521C082AF9D310BD43F8321003EBC20110
:10494000486010BD3C02002070B515460E46044676
:10495000FFF746FF94F944100020491C01D184F868
:10496000440094F94510491C01D184F84500FFF733
:1049700057FFA06B28B92A46314604F1240000F005
:1049800051F82046BDE87040FFF714BE10B5020094
:1049900014D00F48006B38B1502080F31188BFF35A
:1049A0004F8FBFF36F8FFEE700F09AF8002110469B
:1049B000FFF766FA00F03EFD002807D105494FF0E9
:1049C00080500860BFF34F8FBFF36F8F10BD0000A2
:1049D0002000002004ED00E002490A6A0260C96874
:1049E000416070472000002001490120C8617047E4
:1049F0002000002010B50C4650B109490968183153
:104A0000FFF7CAFE2046BDE810400121FFF738BA83
:104A1000502080F31188BFF34F8FBFF36F8FFEE7F5
:104A20002000002070B514460D4668B10A49096897
:104A30001831FFF7C9FE0CB14FF0FF35214628466B
:104A4000BDE87040FFF71CBA502080F31188BFF317
:104A50004F8FBFF36F8FFEE72000002030B587B087
:104A60000025039505AA04A903A80495FFF770FE85
:104A7000DDE903010095CDE90110002314A11648DA
:104A8000059A00F0BCFB154CE06218B100F032FD55
:104A9000012809D0401C19D1502080F31188BFF3A0
:104AA0004F8FBFF36F8FFEE7502080F31188BFF365
:104AB0004F8FBFF36F8F4FF0FF30A0620120606116
:104AC000E56007B0BDE8304000F044B807B030BD45
:104AD00049444C4500000000194100082000002016
:104AE0000248016B491C0163704700002000002050
:104AF000164B10B5186B10B10120D86110BD002005
:104B0000D8611869124901E0B8B1401E00EB80027B
:104B100051F82220002AF7D000EB800201EB82013D
:104B200001F108044A6852684A60A24201D1526801
:104B30004A60D1681960186110BD502080F3118857
:104B4000BFF34F8FBFF36F8FFEE700002000002000
:104B50007C0200201CB537480168374A914207D1D2
:104B6000502080F31188BFF34F8FBFF36F8FFEE7A4
:104B700000683149491E884207D1502080F31188CE
:104B8000BFF34F8FBFF36F8FFEE72C49087801907A
:104B9000FF20087008788DF800009DF800009DF84F
:104BA000002000F0F000904207D0502080F31188E0
:104BB000BFF34F8FBFF36F8FFEE79DF80000204CCF
:104BC00000F0500020700720A06006E0401EA060AA
:104BD0009DF8000040008DF800009DF800000006E0
:104BE000A068F3D4032807D0502080F31188BFF3C6
:104BF0004F8FBFF36F8FFEE74FF44070A0600198B6
:104C000008700C482030016841F4700101600168AF
:104C100041F070410160FFF749FE00206060FBF742
:104C200027FB0848016841F040410160FBF70CFB9D
:104C300000201CBD00ED00E071C20F4100E400E067
:104C40009400002034EF00E010B5502080F311886C
:104C5000BFF34F8FBFF36F8F00F012FB18B1044901
:104C60004FF080500860002080F3118810BD0000D4
:104C700004ED00E010B502460021012000F012F81A
:104C80000446FFF777FA204610BD38B50B460022E0
:104C900000901146012000F026F80446FFF76AFA5A
:104CA000204638BDF8B517460E46050013D005FB63
:104CB00006F05030FFF7B4FC04000AD0002084F85E
:104CC000460004F150023B46314628460094FFF767
:104CD0005CFA2046F8BD502080F31188BFF34F8F57
:104CE000BFF36F8FFEE738B5049D18B153B1CAB159
:104CF00081B120E0502080F31188BFF34F8FBFF3C4
:104D00006F8FFEE7502080F31188BFF34F8FBFF302
:104D10006F8FFEE7502080F31188BFF34F8FBFF3F2
:104D20006F8FFEE739B1502080F31188BFF34F8FAA
:104D3000BFF36F8FFEE750241C46012384F84630F2
:104D40002B460094FFF721FA204638BD70B50D467A
:104D5000040025D0FFF744FDD4E90F20216802FBB1
:104D60000011A1600021A163216861600A46D4E9B5
:104D70000F01401E00FB0121E16021464FF0FF3092
:104D800001F8440F487004F110008DB1FFF7F6FCF4
:104D900004F12400FFF7F2FCFFF742FD012070BD93
:104DA000502080F31188BFF34F8FBFF36F8FFEE762
:104DB00021690029F0D000F005FB0028ECD004495F
:104DC0004FF080500860BFF34F8FBFF36F8FE3E762
:104DD00004ED00E02DE9FF4F83B01F468B46040031
:104DE0004FF0000603D0BBF1000F08D011E05020B7
:104DF00080F31188BFF34F8FBFF36F8FFEE7206CF6
:104E000038B1502080F31188BFF34F8FBFF36F8FFD
:104E1000FEE7022F0AD1E06B012807D0502080F373
:104E20001188BFF34F8FBFF36F8FFEE700F014FAC6
:104E3000DFF800914FF0000A4FF0805848B905980C
:104E400038B1502080F31188BFF34F8FBFF36F8FBD
:104E5000FEE7FFF7C5FCA06BE16B884205D3022F8C
:104E600003D00598C8B1DEB11EE03A465946204647
:104E7000FFF7DBF8616A19B104F1240000F0A2FA2F
:104E800028B1C9F80080BFF34F8FBFF36F8FFFF7D2
:104E9000C7FC012007B0BDE8F08FFFF7C1FC21E09F
:104EA0006846FFF799FD0126FFF7BAFCFFF718FEE9
:104EB000FFF796FC94F94400401C01D184F844A00B
:104EC00094F94500401C01D184F845A0FFF7A8FCE7
:104ED00005A9684600F02CF930B12046FFF76AFBBF
:104EE00000F0A8FA0020D5E7FFF77AFCA06BE16B91
:104EF000884201D1012500E00025FFF791FC95B122
:104F000004F110000599FFF775FD2046FFF752FBED
:104F100000F090FA00289CD1C9F80080BFF34F8FB1
:104F2000BFF36F8F95E72046FFF744FB00F082FA4E
:104F30008FE7000004ED00E02DE9F0471F469046A2
:104F40008946040003D0B9F1000F08D011E05020C9
:104F500080F31188BFF34F8FBFF36F8FFEE7206C94
:104F600038B1502080F31188BFF34F8FBFF36F8F9C
:104F7000FEE7022F0AD1E06B012807D0502080F312
:104F80001188BFF34F8FBFF36F8FFEE7FFF7A0FCD1
:104F90005020EFF3118680F31188BFF34F8FBFF3DA
:104FA0006F8FA06BE16B884206D3022F04D00020E4
:104FB00086F31188BDE8F08794F94550A06B3A4616
:104FC00049462046FFF731F8681C04D06D1C84F870
:104FD00045500120ECE7606A0028FAD004F1240073
:104FE00000F0F0F90028F4D0B8F1000FF1D0012161
:104FF000C8F80010EDE700002DE9F74783B08A46B6
:1050000004004FF0000603D0BAF1000F08D011E001
:10501000502080F31188BFF34F8FBFF36F8FFEE7EF
:10502000206C38B1502080F31188BFF34F8FBFF34D
:105030006F8FFEE700F010F9DFF8F09000274FF0D7
:10504000805848B9059838B1502080F31188BFF3D3
:105050004F8FBFF36F8FFEE7FFF7C2FBA56BC5B1A4
:1050600051462046FEF7CEFF6D1EA563206950B164
:1050700004F1100000F0A6F928B1C9F80080BFF3D0
:105080004F8FBFF36F8FFFF7CBFB012006B0BDE85A
:10509000F087059808B11EB106E0FFF7C1FB27E0D5
:1050A0006846FFF799FC0126FFF7BAFBFFF718FDEA
:1050B000FFF796FB94F94400401C01D184F844703A
:1050C00094F94500401C01D184F84570FFF7A8FB16
:1050D00005A9684600F02CF8002820460AD0FFF702
:1050E00069FA00F0A7F92046FFF7F6F80028B3D0D8
:1050F0000020CBE7FFF7F0F890B104F12400059908
:10510000FFF778FC2046FFF755FA00F093F90028E6
:10511000A2D1C9F80080BFF34F8FBFF36F8F9BE719
:105120002046FFF747FA00F085F995E704ED00E027
:105130002DE9F0410C46050011D0C4B1FFF750FB3A
:10514000174EF1686B682268C81A571C17D02F6871
:10515000366AB74219D08B4217D8012410E050208C
:1051600080F31188BFF34F8FBFF36F8FFEE750209E
:1051700080F31188BFF34F8FBFF36F8FFEE70024DA
:10518000FFF74EFB2046BDE8F081824205D9101A98
:1051900020602846FFF720FCF1E700202060DCE7D4
:1051A000200000202DE9FF5F8346DDE90E87994648
:1051B00016468A469000FFF733FA05001CD05C20A3
:1051C000FFF72EFA040014D00020256384F859005C
:1051D000CDE90240CDE900874B463246514658465C
:1051E000FEF7E3FF2046FEF779FE012004B0BDE89C
:1051F000F09F2846FFF728FB4FF0FF30F6E7F0B5A9
:1052000085B00546DDE90B040A9EA8B1E4B15C2730
:1052100000972063022084F859000020CDE9024065
:1052200004AF2846CDE90067FEF7BFFF2046FEF732
:1052300055FE049805B0F0BD502080F31188BFF3EF
:105240004F8FBFF36F8FFEE7502080F31188BFF3BD
:105250004F8FBFF36F8FFEE70548416919B1006BAF
:1052600018B10020704701207047022070470000ED
:10527000200000200148C068704700002000002086
:105280002DE9F0412E4F0026386B28B1B869401C3B
:10529000B8613046BDE8F081FD686D1CFD6013D13A
:1052A000786B006838B1502080F31188BFF34F8FBE
:1052B000BFF36F8FFEE7786BB96B7963B863386AB9
:1052C000401C3862FFF7F4F8B86ADFF8788085424E
:1052D00009D3786B0068A0B1786BC068C468606857
:1052E000854211D2B8623868C06A00EB800158F874
:1052F0002100012800D90126F8690028C9D001261B
:10530000C7E74FF0FF30EDE7201DFFF70DFAA06A69
:1053100018B104F11800FFF707FAE06A396988420A
:1053200000D9386100EB800108EB8100211DFFF7F7
:105330004BFAE06A3968C96A8842CAD30126C8E7CD
:10534000200000207C02002070B504004FF0000017
:105350002BD01A4D29688C4207D0502080F3118839
:10536000BFF34F8FBFF36F8FFEE7216DF1B1491E81
:105370002165E36CE26A9A4217D0002915D1201DFD
:10538000FFF7D2F9E06CE062C0F13800A061E06A9A
:105390002969884200D92861094900EB800001EBA6
:1053A0008000211DFFF710FA012070BD502080F30E
:1053B0001188BFF34F8FBFF36F8FFEE720000020EF
:1053C0007C02002070B5C068C46854B104F11800B4
:1053D0000646FFF7A9F9144D286B50B13146134822
:1053E00015E0502080F31188BFF34F8FBFF36F8F0C
:1053F000FEE7201DFFF798F9E06A2969884200D985
:1054000028610B4900EB800001EB8000211DFFF7B4
:10541000DBF9E06A2968C96A884202D90120E8619B
:1054200070BD002070BD0000200000200407002097
:105430007C0200202DE9F0472B4D00242746286BE5
:1054400038B1FFF7CDF9286B401E2863286B40B1B7
:1054500045E0502080F31188BFF34F8FBFF36F8F6B
:10546000FEE7A86821490126C8B3A1F591698846DD
:10547000D8F80010E1B1D8F80C00C46804F11800A5
:10548000FFF752F9201DFFF74FF9E06A29698842BA
:1054900000D9286100EB800109EB8100211DFFF795
:1054A00093F9E06A2968C96A8842E1D3EE61DFE7CF
:1054B0000CB1FEF7FDFFAC693CB1FFF7E1FE00B1B6
:1054C000EE61641EF9D10020A861E86938B108498D
:1054D000012738070860BFF34F8FBFF36F8FFFF7C7
:1054E0009FF93846BDE8F08720000020040700201F
:1054F00004ED00E010B586B0FEF758FD114C2068B1
:10550000B8B100200390049005AA04A903A8FFF7EE
:1055100029F9DDE9032102208DE8070000230AA113
:105520000B48059AFFF76BFE606010B106B00120D2
:1055300010BD502080F31188BFF34F8FBFF36F8FE2
:10554000FEE700005C000020546D7220537663007B
:105550008D4500082DE9FF411F4603000A9E4FF0CC
:10556000000015D0134D2C68002C0ED08DE80E00D5
:10557000062917DAFFF770FE02284FF000030FD05C
:10558000002269462868FFF725FC04B0BDE8F081D9
:10559000502080F31188BFF34F8FBFF36F8FFEE76A
:1055A0003246EEE700233A4669462046FFF7C4FC40
:1055B000EBE700005C00002021F00042A2F1605205
:1055C000B2F5801F01F0004328BFD2F17F6C0BD9E8
:1055D0005FEA001C43EAC20242EB507018BF7047FA
:1055E00028BF20F001007047B2F5801FBCBF1846ED
:1055F00070474FEA410C1CF5001F02D2084600F02C
:1056000075BC70B500F0BCF900000089FFF7F6BF6B
:105610004FF00040A0F580007047000010B591EAFF
:10562000030F48BF83F0004300F10883841A71EB35
:10563000030C05D2121943EB0C03001B61EB0C01A8
:10564000DFF824E14FEA1154A4EB135C1EEA430F88
:1056500018BF9EEA445F73D023EA0E03DCF1200EEC
:1056600021EA045143F4801332D322FA0CFE10EBEA
:105670000E0023FA0CFE41EB0E01CCF1200E03FAD2
:105680000EFE10EB0E0051F10001B1F5801FCCF1C0
:10569000200E32D201EB045112FA0EF2BDE8104096
:1056A00058BF7047401C38BF5FEA420218BF7047BE
:1056B000002814BF20F0010041F100014FEA41032E
:1056C00013F5001F38BF7047A1F1C04100F0A6B923
:1056D000012A43EB0302ACF1200CDCF11F0E32BFB8
:1056E0004FF0000E23FA0CF310EB030041EB0451D2
:1056F000B4EB115FD0D0A1EB045101F58011490842
:105700005FEA300001EB04510ED350F1000038BFC6
:1057100012FA0EFE08D1BDE81040C9E7401C38BFA0
:105720005FEA4202CAD1C3E7BDE810404FEA410335
:1057300013F5001F38BF7047A1F1C04100F06EB9EA
:105740009EEA445F08D011EA5E0FBDE8104004BF36
:1057500001F0004100207047BDE8104070B500F036
:105760000FF900BF64FBBE3E0000E0FF491058BFC8
:10577000C1F140415B1058BFC3F140438B42EFF38E
:105780000080704710F0004248BF4042B0FA80F3FA
:1057900010FA03F10AD0C3F11D0303F580634FEA49
:1057A000415002EB035202EBD12170474FF0000051
:1057B0007047000051EA030C17D41CF5801F58BF36
:1057C000BCF5801F00F10680994218BF704708BFE2
:1057D0009042704707D711F5801F58BF13F5801FFF
:1057E00019D499427047894270471CF5801F08D52B
:1057F000BCF5801FF7D58B4218BF704708BF8242A7
:1058000070474FF4001C1CEB410F38BF1CEB430FDB
:1058100001D28B42704770B500F0B2F89224490073
:105820004FF000514FF08053FFF7A0BFDFF848C1A1
:1058300070B51CEA111E1EBF1CEA13159EEA0C0F60
:1058400095EA0C0F00F06F8081EA030423EA4C1301
:105850004EEAD47E21EA4C1141F4801143F48013C6
:10586000AE44A1FB024CA0FB0365AEF17F7E36196E
:1058700055EB0C05A1FB034C4CF10003A0FB021CF3
:1058800016EB0C06654153F10003094218BF46F0C0
:10589000010613F4007F0BD14FEA03314FEA0530C4
:1058A000340341EA155140EA16506FF003020AE052
:1058B0004FEAC3214FEAC520F40241EA555140EABC
:1058C00056506FF0020202EB2E4201EB025585EAC0
:1058D000CE710AD05FEA440C18BF24F0004450F1A6
:1058E000000041F1000120EAD47040F2FE7C6245E4
:1058F00000D270BDA84214BF4FF080444FF0404426
:10590000002E08BF0024BEF1806FA8BFA1F1C041E6
:10591000BDE8704080F282804FF0000001F1C0418C
:1059200001F0004170479EEA0C0F0CEA131518BFF6
:1059300095EA0C0F06D04FF0000081EA030E0EF03E
:10594000004170BD00F01CF88900013E00F007B86E
:1059500000F009B84FEA430C5FEA5C5C08D081EACA
:10596000030100F05BB84FEA410C5FEA5C5CF6D1E2
:105970004FF00000014970470000FF070000F87F6A
:105980000EF1020E2EF0030E5EF8046B364205D4C3
:10599000012A43EB030515F5001F12D8012841EB3E
:1059A000010C1CF5001F0CD80ED14FEAD17C15F567
:1059B000001F0CEB4C0C0CF1020C08BF4CEBD37C21
:1059C00004E04FF0080C01E04FEAD37C0CEB4C05EF
:1059D00026FA05F606F00706B6F1040C06D20EEB21
:1059E000860CBDE870404CF0010C6047DFE80CF01D
:1059F000090B02024FF000414FF00000A1F5002119
:105A000070BD19461046012851EB010418BFD4F5AA
:105A1000001484BF002001F0004170BD0808A0F50B
:105A200000114FEA3101704753EA010C17D41CF5FD
:105A3000801F58BFBCF5801F00F106808B4218BF45
:105A4000704708BF8242704707D713F5801F58BFC1
:105A500011F5801F19D48B4270479B4270471CF58B
:105A6000801F08D5BCF5801FF7D5994218BF704735
:105A700008BF904270474FF4001C1CEB430F38BF27
:105A80001CEB410F01D2994270470FB40CBC03BC10
:105A9000FFF7C1BE2DE9F04101F5801CBCF5001FE8
:105AA000C0F2A9804FEA115C21EA0C510CF1FD0C07
:105AB00041F480115FEA5C0C0CF5C07C01D340001E
:105AC000494130A4890241EA905187028E0E0A0CA6
:105AD000A45D04FB04F602FB06F6C6F14046A4FBF7
